{
  "contractName": "DataLineage",
  "abi": [
    {
      "anonymous": false,
      "inputs": [
        {
          "indexed": false,
          "internalType": "string",
          "name": "parent",
          "type": "string"
        },
        {
          "indexed": false,
          "internalType": "string",
          "name": "children",
          "type": "string"
        }
      ],
      "name": "addChildren",
      "type": "event"
    },
    {
      "anonymous": false,
      "inputs": [
        {
          "indexed": false,
          "internalType": "string",
          "name": "id",
          "type": "string"
        }
      ],
      "name": "addDataset",
      "type": "event"
    },
    {
      "constant": false,
      "inputs": [
        {
          "internalType": "string",
          "name": "new_id",
          "type": "string"
        },
        {
          "internalType": "string",
          "name": "pointer",
          "type": "string"
        },
        {
          "internalType": "address",
          "name": "requestor",
          "type": "address"
        },
        {
          "internalType": "string",
          "name": "query",
          "type": "string"
        },
        {
          "internalType": "string",
          "name": "parent",
          "type": "string"
        }
      ],
      "name": "changeExistingDataset",
      "outputs": [],
      "payable": false,
      "stateMutability": "nonpayable",
      "type": "function"
    },
    {
      "constant": false,
      "inputs": [
        {
          "internalType": "string",
          "name": "id",
          "type": "string"
        },
        {
          "internalType": "string",
          "name": "pointer",
          "type": "string"
        },
        {
          "internalType": "address",
          "name": "requestor",
          "type": "address"
        }
      ],
      "name": "addNewDataset",
      "outputs": [],
      "payable": false,
      "stateMutability": "nonpayable",
      "type": "function"
    },
    {
      "constant": true,
      "inputs": [
        {
          "internalType": "string",
          "name": "id",
          "type": "string"
        }
      ],
      "name": "getLineage",
      "outputs": [
        {
          "internalType": "string",
          "name": "",
          "type": "string"
        }
      ],
      "payable": false,
      "stateMutability": "view",
      "type": "function"
    },
    {
      "constant": true,
      "inputs": [
        {
          "internalType": "string",
          "name": "id",
          "type": "string"
        }
      ],
      "name": "getParent",
      "outputs": [
        {
          "internalType": "string",
          "name": "",
          "type": "string"
        }
      ],
      "payable": false,
      "stateMutability": "view",
      "type": "function"
    },
    {
      "constant": true,
      "inputs": [
        {
          "internalType": "string",
          "name": "id",
          "type": "string"
        }
      ],
      "name": "getChildren",
      "outputs": [
        {
          "internalType": "string",
          "name": "",
          "type": "string"
        }
      ],
      "payable": false,
      "stateMutability": "view",
      "type": "function"
    }
  ],
  "bytecode": "0x6080604052336000806101000a81548173ffffffffffffffffffffffffffffffffffffffff021916908373ffffffffffffffffffffffffffffffffffffffff16021790555034801561005057600080fd5b50611768806100606000396000f3fe608060405234801561001057600080fd5b50600436106100575760003560e01c8063294ba5fa1461005c578063c7bd90c414610190578063e55ffcc114610302578063e656aa8b14610436578063f44571f9146106d6575b600080fd5b6101156004803603602081101561007257600080fd5b810190808035906020019064010000000081111561008f57600080fd5b8201836020820111156100a157600080fd5b803590602001918460018302840111640100000000831117156100c357600080fd5b91908080601f016020809104026020016040519081016040528093929190818152602001838380828437600081840152601f19601f82011690508083019250505050505050919291929050505061080a565b6040518080602001828103825283818151815260200191508051906020019080838360005b8381101561015557808201518184015260208101905061013a565b50505050905090810190601f1680156101825780820380516001836020036101000a031916815260200191505b509250505060405180910390f35b610300600480360360608110156101a657600080fd5b81019080803590602001906401000000008111156101c357600080fd5b8201836020820111156101d557600080fd5b803590602001918460018302840111640100000000831117156101f757600080fd5b91908080601f016020809104026020016040519081016040528093929190818152602001838380828437600081840152601f19601f8201169050808301925050505050505091929192908035906020019064010000000081111561025a57600080fd5b82018360208201111561026c57600080fd5b8035906020019184600183028401116401000000008311171561028e57600080fd5b91908080601f016020809104026020016040519081016040528093929190818152602001838380828437600081840152601f19601f820116905080830192505050505050509192919290803573ffffffffffffffffffffffffffffffffffffffff169060200190929190505050610918565b005b6103bb6004803603602081101561031857600080fd5b810190808035906020019064010000000081111561033557600080fd5b82018360208201111561034757600080fd5b8035906020019184600183028401116401000000008311171561036957600080fd5b91908080601f016020809104026020016040519081016040528093929190818152602001838380828437600081840152601f19601f820116905080830192505050505050509192919290505050610b8d565b6040518080602001828103825283818151815260200191508051906020019080838360005b838110156103fb5780820151818401526020810190506103e0565b50505050905090810190601f1680156104285780820380516001836020036101000a031916815260200191505b509250505060405180910390f35b6106d4600480360360a081101561044c57600080fd5b810190808035906020019064010000000081111561046957600080fd5b82018360208201111561047b57600080fd5b8035906020019184600183028401116401000000008311171561049d57600080fd5b91908080601f016020809104026020016040519081016040528093929190818152602001838380828437600081840152601f19601f8201169050808301925050505050505091929192908035906020019064010000000081111561050057600080fd5b82018360208201111561051257600080fd5b8035906020019184600183028401116401000000008311171561053457600080fd5b91908080601f016020809104026020016040519081016040528093929190818152602001838380828437600081840152601f19601f820116905080830192505050505050509192919290803573ffffffffffffffffffffffffffffffffffffffff169060200190929190803590602001906401000000008111156105b757600080fd5b8201836020820111156105c957600080fd5b803590602001918460018302840111640100000000831117156105eb57600080fd5b91908080601f016020809104026020016040519081016040528093929190818152602001838380828437600081840152601f19601f8201169050808301925050505050505091929192908035906020019064010000000081111561064e57600080fd5b82018360208201111561066057600080fd5b8035906020019184600183028401116401000000008311171561068257600080fd5b91908080601f016020809104026020016040519081016040528093929190818152602001838380828437600081840152601f19601f820116905080830192505050505050509192919290505050610c9b565b005b61078f600480360360208110156106ec57600080fd5b810190808035906020019064010000000081111561070957600080fd5b82018360208201111561071b57600080fd5b8035906020019184600183028401116401000000008311171561073d57600080fd5b91908080601f016020809104026020016040519081016040528093929190818152602001838380828437600081840152601f19601f820116905080830192505050505050509192919290505050611073565b6040518080602001828103825283818151815260200191508051906020019080838360005b838110156107cf5780820151818401526020810190506107b4565b50505050905090810190601f1680156107fc5780820380516001836020036101000a031916815260200191505b509250505060405180910390f35b60606001826040518082805190602001908083835b60208310610842578051825260208201915060208101905060208303925061081f565b6001836020036101000a03801982511681845116808217855250505050505090500191505090815260200160405180910390206006018054600181600116156101000203166002900480601f01602080910402602001604051908101604052809291908181526020018280546001816001161561010002031660029004801561090c5780601f106108e15761010080835404028352916020019161090c565b820191906000526020600020905b8154815290600101906020018083116108ef57829003601f168201915b50505050509050919050565b6109206115bb565b6040518060e001604052808581526020018481526020018373ffffffffffffffffffffffffffffffffffffffff168152602001858152602001858152602001604051806020016040528060008152508152602001604051806020016040528060008152508152509050806001856040518082805190602001908083835b602083106109c0578051825260208201915060208101905060208303925061099d565b6001836020036101000a03801982511681845116808217855250505050505090500191505090815260200160405180910390206000820151816000019080519060200190610a0f92919061160e565b506020820151816001019080519060200190610a2c92919061160e565b5060408201518160020160006101000a81548173ffffffffffffffffffffffffffffffffffffffff021916908373ffffffffffffffffffffffffffffffffffffffff1602179055506060820151816003019080519060200190610a9092919061160e565b506080820151816004019080519060200190610aad92919061160e565b5060a0820151816005019080519060200190610aca92919061160e565b5060c0820151816006019080519060200190610ae792919061160e565b509050507f6706ab240d7723703b4d98253da5ec15c2d3b1aaf9064e27dd731a99e6e04f44846040518080602001828103825283818151815260200191508051906020019080838360005b83811015610b4d578082015181840152602081019050610b32565b50505050905090810190601f168015610b7a5780820380516001836020036101000a031916815260200191505b509250505060405180910390a150505050565b60606001826040518082805190602001908083835b60208310610bc55780518252602082019150602081019050602083039250610ba2565b6001836020036101000a03801982511681845116808217855250505050505090500191505090815260200160405180910390206005018054600181600116156101000203166002900480601f016020809104026020016040519081016040528092919081815260200182805460018160011615610100020316600290048015610c8f5780601f10610c6457610100808354040283529160200191610c8f565b820191906000526020600020905b815481529060010190602001808311610c7257829003601f168201915b50505050509050919050565b60606001826040518082805190602001908083835b60208310610cd35780518252602082019150602081019050602083039250610cb0565b6001836020036101000a03801982511681845116808217855250505050505090500191505090815260200160405180910390206004018054600181600116156101000203166002900480601f016020809104026020016040519081016040528092919081815260200182805460018160011615610100020316600290048015610d9d5780601f10610d7257610100808354040283529160200191610d9d565b820191906000526020600020905b815481529060010190602001808311610d8057829003601f168201915b50505050509050610dfe83610df06040518060400160405280600281526020017f3b200000000000000000000000000000000000000000000000000000000000008152508461118190919063ffffffff16565b61118190919063ffffffff16565b9050610e086115bb565b6040518060e001604052808881526020018781526020018673ffffffffffffffffffffffffffffffffffffffff168152602001858152602001838152602001848152602001604051806020016040528060008152508152509050806001886040518082805190602001908083835b60208310610e995780518252602082019150602081019050602083039250610e76565b6001836020036101000a03801982511681845116808217855250505050505090500191505090815260200160405180910390206000820151816000019080519060200190610ee892919061160e565b506020820151816001019080519060200190610f0592919061160e565b5060408201518160020160006101000a81548173ffffffffffffffffffffffffffffffffffffffff021916908373ffffffffffffffffffffffffffffffffffffffff1602179055506060820151816003019080519060200190610f6992919061160e565b506080820151816004019080519060200190610f8692919061160e565b5060a0820151816005019080519060200190610fa392919061160e565b5060c0820151816006019080519060200190610fc092919061160e565b509050507f6706ab240d7723703b4d98253da5ec15c2d3b1aaf9064e27dd731a99e6e04f44876040518080602001828103825283818151815260200191508051906020019080838360005b8381101561102657808201518184015260208101905061100b565b50505050905090810190601f1680156110535780820380516001836020036101000a031916815260200191505b509250505060405180910390a161106a83886112d0565b50505050505050565b60606001826040518082805190602001908083835b602083106110ab5780518252602082019150602081019050602083039250611088565b6001836020036101000a03801982511681845116808217855250505050505090500191505090815260200160405180910390206004018054600181600116156101000203166002900480601f0160208091040260200160405190810160405280929190818152602001828054600181600116156101000203166002900480156111755780601f1061114a57610100808354040283529160200191611175565b820191906000526020600020905b81548152906001019060200180831161115857829003601f168201915b50505050509050919050565b6060808390506060839050600081511161119757fe5b606081518351016040519080825280601f01601f1916602001820160405280156111d05781602001600182028038833980820191505090505b5090506060819050600080600091505b855182101561124e578582815181106111f557fe5b602001015160f81c60f81b83828060010193508151811061121257fe5b60200101907effffffffffffffffffffffffffffffffffffffffffffffffffffffffffffff1916908160001a90535081806001019250506111e0565b600091505b84518210156112c15784828151811061126857fe5b602001015160f81c60f81b83828060010193508151811061128557fe5b60200101907effffffffffffffffffffffffffffffffffffffffffffffffffffffffffffff1916908160001a9053508180600101925050611253565b82965050505050505092915050565b61142e816114206040518060400160405280600281526020017f3b200000000000000000000000000000000000000000000000000000000000008152506001866040518082805190602001908083835b602083106113435780518252602082019150602081019050602083039250611320565b6001836020036101000a03801982511681845116808217855250505050505090500191505090815260200160405180910390206006018054600181600116156101000203166002900480601f01602080910402602001604051908101604052809291908181526020018280546001816001161561010002031660029004801561140d5780601f106113e25761010080835404028352916020019161140d565b820191906000526020600020905b8154815290600101906020018083116113f057829003601f168201915b505050505061118190919063ffffffff16565b61118190919063ffffffff16565b6001836040518082805190602001908083835b602083106114645780518252602082019150602081019050602083039250611441565b6001836020036101000a038019825116818451168082178552505050505050905001915050908152602001604051809103902060060190805190602001906114ad92919061168e565b507f27318cc0b953ef9d4d15232a0ae6df70d9c5b798e12335b1c3ae4694263270c68282604051808060200180602001838103835285818151815260200191508051906020019080838360005b838110156115155780820151818401526020810190506114fa565b50505050905090810190601f1680156115425780820380516001836020036101000a031916815260200191505b50838103825284818151815260200191508051906020019080838360005b8381101561157b578082015181840152602081019050611560565b50505050905090810190601f1680156115a85780820380516001836020036101000a031916815260200191505b5094505050505060405180910390a15050565b6040518060e001604052806060815260200160608152602001600073ffffffffffffffffffffffffffffffffffffffff168152602001606081526020016060815260200160608152602001606081525090565b828054600181600116156101000203166002900490600052602060002090601f016020900481019282601f1061164f57805160ff191683800117855561167d565b8280016001018555821561167d579182015b8281111561167c578251825591602001919060010190611661565b5b50905061168a919061170e565b5090565b828054600181600116156101000203166002900490600052602060002090601f016020900481019282601f106116cf57805160ff19168380011785556116fd565b828001600101855582156116fd579182015b828111156116fc5782518255916020019190600101906116e1565b5b50905061170a919061170e565b5090565b61173091905b8082111561172c576000816000905550600101611714565b5090565b9056fea265627a7a72315820d08ebdc27a8158ca0cff8907c157401f44806032aabd009e9523d41e0d62124b64736f6c63430005110032",
  "source": "pragma solidity ^0.5.0;\r\n\r\nimport \"./Pointer.sol\";\r\nimport \"./Strings.sol\";\r\n\r\n\r\ncontract DataLineage {\r\n    using Strings for string;\r\n    address _owner = msg.sender;\r\n\r\n    struct dataset {\r\n        string id;\r\n        string pointer;\r\n        address requestor;\r\n        string query;\r\n        string lineage;\r\n        string parent;\r\n        string children;\r\n    }\r\n\r\n    mapping(string => dataset) datasets;\r\n\r\n    event addDataset(string id);\r\n    event addChildren(string parent, string children);\r\n\r\n    //Call this for perm changes to datasets\r\n    function changeExistingDataset(string memory new_id, string memory pointer, address requestor, string memory query, string memory parent) public {\r\n        string memory _lineage = datasets[parent].lineage;\r\n        _lineage = _lineage.concat(\"; \").concat(query);\r\n        dataset memory newDataset = dataset(new_id, pointer, requestor, query, _lineage, parent, \"\");\r\n        datasets[new_id] = newDataset;\r\n        emit addDataset(new_id);\r\n        addChild(parent, new_id);\r\n    }\r\n\r\n    //Call this for new datasets.\r\n    function addNewDataset(string memory id, string memory pointer, address requestor) public {\r\n        dataset memory newDataset = dataset(id, pointer, requestor, id, id, \"\", \"\");\r\n        datasets[id] = newDataset;\r\n        emit addDataset(id);\r\n    }\r\n\r\n    //Adds the children dataset to its parent's children list\r\n    function addChild(string memory parent, string memory child) internal {\r\n        datasets[parent].children = datasets[parent].children.concat(\"; \").concat(child);\r\n        emit addChildren(parent, child);\r\n    }\r\n\r\n    function getLineage(string memory id) public view returns(string memory) {\r\n        return datasets[id].lineage;\r\n    }\r\n\r\n    function getParent(string memory id) public view returns(string memory) {\r\n        return datasets[id].parent;\r\n    }\r\n\r\n    function getChildren(string memory id) public view returns(string memory) {\r\n        return datasets[id].children;\r\n    }\r\n}",
  "sourcePath": "C:\\Users\\Anthony Cheang\\Desktop\\University Stuff\\Academics\\Y3S1\\IS4302\\Submissions\\Grp Proj\\Merging_Branch\\is4302_grp19\\is4302_project\\contracts\\DataLineage.sol",
  "compiler": {
    "name": "solc",
    "version": "0.5.17+commit.d19bba13.Emscripten.clang"
  },
  "schemaVersion": "3.4.11",
  "updatedAt": "2023-04-01T05:13:35.528Z",
  "devdoc": {
    "methods": {}
  },
  "userdoc": {
    "methods": {}
  }
}