{
  "contractName": "DiceMarket",
  "abi": [
    {
      "inputs": [
        {
          "internalType": "contract Dice",
          "name": "diceAddress",
          "type": "address"
        },
        {
          "internalType": "uint256",
          "name": "fee",
          "type": "uint256"
        }
      ],
      "payable": false,
      "stateMutability": "nonpayable",
      "type": "constructor"
    },
    {
      "constant": true,
      "inputs": [],
      "name": "comissionFee",
      "outputs": [
        {
          "internalType": "uint256",
          "name": "",
          "type": "uint256"
        }
      ],
      "payable": false,
      "stateMutability": "view",
      "type": "function"
    },
    {
      "constant": false,
      "inputs": [
        {
          "internalType": "uint256",
          "name": "id",
          "type": "uint256"
        },
        {
          "internalType": "uint256",
          "name": "price",
          "type": "uint256"
        }
      ],
      "name": "list",
      "outputs": [],
      "payable": false,
      "stateMutability": "nonpayable",
      "type": "function"
    },
    {
      "constant": false,
      "inputs": [
        {
          "internalType": "uint256",
          "name": "id",
          "type": "uint256"
        }
      ],
      "name": "unlist",
      "outputs": [],
      "payable": false,
      "stateMutability": "nonpayable",
      "type": "function"
    },
    {
      "constant": true,
      "inputs": [
        {
          "internalType": "uint256",
          "name": "id",
          "type": "uint256"
        }
      ],
      "name": "checkPrice",
      "outputs": [
        {
          "internalType": "uint256",
          "name": "",
          "type": "uint256"
        }
      ],
      "payable": false,
      "stateMutability": "view",
      "type": "function"
    },
    {
      "constant": false,
      "inputs": [
        {
          "internalType": "uint256",
          "name": "id",
          "type": "uint256"
        }
      ],
      "name": "buy",
      "outputs": [],
      "payable": true,
      "stateMutability": "payable",
      "type": "function"
    },
    {
      "constant": true,
      "inputs": [],
      "name": "getContractOwner",
      "outputs": [
        {
          "internalType": "address",
          "name": "",
          "type": "address"
        }
      ],
      "payable": false,
      "stateMutability": "view",
      "type": "function"
    },
    {
      "constant": false,
      "inputs": [],
      "name": "withDraw",
      "outputs": [],
      "payable": false,
      "stateMutability": "nonpayable",
      "type": "function"
    }
  ],
  "bytecode": "0x608060405233600260006101000a81548173ffffffffffffffffffffffffffffffffffffffff021916908373ffffffffffffffffffffffffffffffffffffffff16021790555034801561005157600080fd5b50604051610a19380380610a198339818101604052604081101561007457600080fd5b810190808051906020019092919080519060200190929190505050816000806101000a81548173ffffffffffffffffffffffffffffffffffffffff021916908373ffffffffffffffffffffffffffffffffffffffff160217905550806001819055505050610932806100e76000396000f3fe6080604052600436106100705760003560e01c806350fd73671161004e57806350fd736714610132578063741a759114610177578063bf5a4dd3146101a2578063d96a094a146101dd57610070565b80630fdb1c10146100755780631de7463a1461008c578063442890d5146100db575b600080fd5b34801561008157600080fd5b5061008a61020b565b005b34801561009857600080fd5b506100c5600480360360208110156100af57600080fd5b81019080803590602001909291905050506102ab565b6040518082815260200191505060405180910390f35b3480156100e757600080fd5b506100f06102c8565b604051808273ffffffffffffffffffffffffffffffffffffffff1673ffffffffffffffffffffffffffffffffffffffff16815260200191505060405180910390f35b34801561013e57600080fd5b506101756004803603604081101561015557600080fd5b8101908080359060200190929190803590602001909291905050506102f2565b005b34801561018357600080fd5b5061018c6104fb565b6040518082815260200191505060405180910390f35b3480156101ae57600080fd5b506101db600480360360208110156101c557600080fd5b8101908080359060200190929190505050610501565b005b610209600480360360208110156101f357600080fd5b8101908080359060200190929190505050610601565b005b600260009054906101000a900473ffffffffffffffffffffffffffffffffffffffff1673ffffffffffffffffffffffffffffffffffffffff163373ffffffffffffffffffffffffffffffffffffffff1614156102a9573373ffffffffffffffffffffffffffffffffffffffff166108fc479081150290604051600060405180830381858888f193505050501580156102a7573d6000803e3d6000fd5b505b565b600060036000838152602001908152602001600020549050919050565b6000600260009054906101000a900473ffffffffffffffffffffffffffffffffffffffff16905090565b6000809054906101000a900473ffffffffffffffffffffffffffffffffffffffff1673ffffffffffffffffffffffffffffffffffffffff1663f2d03fcf836040518263ffffffff1660e01b81526004018082815260200191505060206040518083038186803b15801561036457600080fd5b505afa158015610378573d6000803e3d6000fd5b505050506040513d602081101561038e57600080fd5b810190808051906020019092919050505073ffffffffffffffffffffffffffffffffffffffff163373ffffffffffffffffffffffffffffffffffffffff16146103d657600080fd5b6001546000809054906101000a900473ffffffffffffffffffffffffffffffffffffffff1673ffffffffffffffffffffffffffffffffffffffff1663a819604c846040518263ffffffff1660e01b81526004018082815260200191505060206040518083038186803b15801561044b57600080fd5b505afa15801561045f573d6000803e3d6000fd5b505050506040513d602081101561047557600080fd5b8101908080519060200190929190505050018110156104df576040517f08c379a00000000000000000000000000000000000000000000000000000000081526004018080602001828103825260298152602001806108d56029913960400191505060405180910390fd5b8060036000848152602001908152602001600020819055505050565b60015481565b6000809054906101000a900473ffffffffffffffffffffffffffffffffffffffff1673ffffffffffffffffffffffffffffffffffffffff1663f2d03fcf826040518263ffffffff1660e01b81526004018082815260200191505060206040518083038186803b15801561057357600080fd5b505afa158015610587573d6000803e3d6000fd5b505050506040513d602081101561059d57600080fd5b810190808051906020019092919050505073ffffffffffffffffffffffffffffffffffffffff163373ffffffffffffffffffffffffffffffffffffffff16146105e557600080fd5b6000600360008381526020019081526020016000208190555050565b60006003600083815260200190815260200160002054141561068b576040517f08c379a000000000000000000000000000000000000000000000000000000000815260040180806020018281038252600f8152602001807f44696365206e6f74206c6973746564000000000000000000000000000000000081525060200191505060405180910390fd5b6003600082815260200190815260200160002054341015610714576040517f08c379a000000000000000000000000000000000000000000000000000000000815260040180806020018281038252601c8152602001807f496e73756666696369656e7420616d6f756e742070726f76696465640000000081525060200191505060405180910390fd5b60008060009054906101000a900473ffffffffffffffffffffffffffffffffffffffff1673ffffffffffffffffffffffffffffffffffffffff1663f2d03fcf836040518263ffffffff1660e01b81526004018082815260200191505060206040518083038186803b15801561078857600080fd5b505afa15801561079c573d6000803e3d6000fd5b505050506040513d60208110156107b257600080fd5b810190808051906020019092919050505090508073ffffffffffffffffffffffffffffffffffffffff166108fc60015434039081150290604051600060405180830381858888f1935050505015801561080f573d6000803e3d6000fd5b506000809054906101000a900473ffffffffffffffffffffffffffffffffffffffff1673ffffffffffffffffffffffffffffffffffffffff1663b7760c8f83336040518363ffffffff1660e01b8152600401808381526020018273ffffffffffffffffffffffffffffffffffffffff1673ffffffffffffffffffffffffffffffffffffffff16815260200192505050600060405180830381600087803b1580156108b857600080fd5b505af11580156108cc573d6000803e3d6000fd5b50505050505056fe5072696365206e6565647320746f20626520677261746572207468616e2076616c7565202b20666565a265627a7a7231582046d73df0988aed8f0ef3ccc3417395ecaf3aaa4a40cff38937f28e1ccf66f38c64736f6c63430005110032",
  "source": "pragma solidity ^0.5.0;\nimport \"./Dice.sol\";\n\ncontract DiceMarket {\n\n    Dice diceContract;\n    uint256 public comissionFee;\n    address _owner = msg.sender;\n    mapping(uint256 => uint256) listPrice;\n     constructor(Dice diceAddress, uint256 fee) public {\n        diceContract = diceAddress;\n        comissionFee = fee;\n    }\n\n\n    //list a dice for sale. Price needs to be >= value + fee\n    function list(uint256 id, uint256 price) public {\n       require(msg.sender == diceContract.getPrevOwner(id));\n       require(price >= diceContract.getDiceValue(id) + comissionFee, \"Price needs to be grater than value + fee\");\n       listPrice[id] = price;\n    }\n\n    function unlist(uint256 id) public {\n       require(msg.sender == diceContract.getPrevOwner(id));\n       listPrice[id] = 0;\n  }\n\n    // get price of dice\n    function checkPrice(uint256 id) public view returns (uint256) {\n       return listPrice[id];\n }\n\n    // Buy the dice at the requested price\n    function buy(uint256 id) public payable {\n       require(listPrice[id] != 0, \"Dice not listed\"); //is listed\n       require(msg.value >= (listPrice[id]), \"Insufficient amount provided\"); //offerred price meets minimum ask\n\n       address payable recipient = address(uint160(diceContract.getPrevOwner(id)));\n       recipient.transfer(msg.value - comissionFee);    //transfer (price-comissionFee) to real owner\n       diceContract.transfer(id, msg.sender);\n    }\n\n    function getContractOwner() public view returns(address) {\n       return _owner;\n    }\n\n    function withDraw() public {\n        if(msg.sender == _owner)\n            msg.sender.transfer(address(this).balance);\n    }\n}\n",
  "sourcePath": "C:\\Users\\chang\\OneDrive - National University of Singapore\\NUS Official Modules Notes\\Year 3 Semester 2\\IS4302 (Blockchain and Distributed Ledger Technologies)\\Labs\\Midterms\\Base Test file structure\\contracts\\DiceMarket.sol",
  "compiler": {
    "name": "solc",
    "version": "0.5.17+commit.d19bba13.Emscripten.clang"
  },
  "schemaVersion": "3.4.11",
  "updatedAt": "2023-02-26T06:46:22.900Z",
  "networkType": "ethereum",
  "devdoc": {
    "methods": {}
  },
  "userdoc": {
    "methods": {}
  }
}