{
  "contractName": "Metadata",
  "abi": [
    {
      "inputs": [
        {
          "internalType": "contract User",
          "name": "userAddress",
          "type": "address"
        },
        {
          "internalType": "contract Role",
          "name": "roleAddress",
          "type": "address"
        }
      ],
      "payable": false,
      "stateMutability": "nonpayable",
      "type": "constructor"
    },
    {
      "anonymous": false,
      "inputs": [
        {
          "indexed": false,
          "internalType": "string",
          "name": "name",
          "type": "string"
        }
      ],
      "name": "categoryAdded",
      "type": "event"
    },
    {
      "anonymous": false,
      "inputs": [
        {
          "indexed": false,
          "internalType": "string",
          "name": "name",
          "type": "string"
        },
        {
          "indexed": false,
          "internalType": "string",
          "name": "title",
          "type": "string"
        },
        {
          "indexed": false,
          "internalType": "string",
          "name": "desc",
          "type": "string"
        },
        {
          "indexed": false,
          "internalType": "uint256",
          "name": "category",
          "type": "uint256"
        },
        {
          "indexed": false,
          "internalType": "uint256[]",
          "name": "tags",
          "type": "uint256[]"
        },
        {
          "indexed": false,
          "internalType": "string",
          "name": "dateUpdated",
          "type": "string"
        },
        {
          "indexed": false,
          "internalType": "string",
          "name": "owner",
          "type": "string"
        }
      ],
      "name": "metadataAdded",
      "type": "event"
    },
    {
      "anonymous": false,
      "inputs": [
        {
          "indexed": false,
          "internalType": "uint256[]",
          "name": "result",
          "type": "uint256[]"
        }
      ],
      "name": "searchResult",
      "type": "event"
    },
    {
      "anonymous": false,
      "inputs": [
        {
          "indexed": false,
          "internalType": "string",
          "name": "name",
          "type": "string"
        }
      ],
      "name": "tagAdded",
      "type": "event"
    },
    {
      "constant": true,
      "inputs": [],
      "name": "contractDeployer",
      "outputs": [
        {
          "internalType": "address",
          "name": "",
          "type": "address"
        }
      ],
      "payable": false,
      "stateMutability": "view",
      "type": "function"
    },
    {
      "constant": false,
      "inputs": [
        {
          "internalType": "string",
          "name": "category",
          "type": "string"
        }
      ],
      "name": "addCategory",
      "outputs": [
        {
          "internalType": "uint256",
          "name": "",
          "type": "uint256"
        }
      ],
      "payable": false,
      "stateMutability": "nonpayable",
      "type": "function"
    },
    {
      "constant": false,
      "inputs": [
        {
          "internalType": "string",
          "name": "tag",
          "type": "string"
        }
      ],
      "name": "addTag",
      "outputs": [
        {
          "internalType": "uint256",
          "name": "",
          "type": "uint256"
        }
      ],
      "payable": false,
      "stateMutability": "nonpayable",
      "type": "function"
    },
    {
      "constant": true,
      "inputs": [
        {
          "internalType": "string",
          "name": "category",
          "type": "string"
        }
      ],
      "name": "getCategoryID",
      "outputs": [
        {
          "internalType": "uint256",
          "name": "",
          "type": "uint256"
        }
      ],
      "payable": false,
      "stateMutability": "view",
      "type": "function"
    },
    {
      "constant": true,
      "inputs": [
        {
          "internalType": "string",
          "name": "tag",
          "type": "string"
        }
      ],
      "name": "getTagID",
      "outputs": [
        {
          "internalType": "uint256",
          "name": "",
          "type": "uint256"
        }
      ],
      "payable": false,
      "stateMutability": "view",
      "type": "function"
    },
    {
      "constant": true,
      "inputs": [
        {
          "internalType": "uint256",
          "name": "id",
          "type": "uint256"
        }
      ],
      "name": "getMetadataName",
      "outputs": [
        {
          "internalType": "string",
          "name": "",
          "type": "string"
        }
      ],
      "payable": false,
      "stateMutability": "view",
      "type": "function"
    },
    {
      "constant": false,
      "inputs": [
        {
          "internalType": "string",
          "name": "name",
          "type": "string"
        },
        {
          "internalType": "string",
          "name": "title",
          "type": "string"
        },
        {
          "internalType": "string",
          "name": "desc",
          "type": "string"
        },
        {
          "internalType": "uint256",
          "name": "category",
          "type": "uint256"
        },
        {
          "internalType": "uint256[]",
          "name": "tags",
          "type": "uint256[]"
        },
        {
          "internalType": "string",
          "name": "dateUpdated",
          "type": "string"
        },
        {
          "internalType": "string",
          "name": "owner",
          "type": "string"
        },
        {
          "internalType": "uint256",
          "name": "permissionID",
          "type": "uint256"
        }
      ],
      "name": "addMetadata",
      "outputs": [],
      "payable": false,
      "stateMutability": "nonpayable",
      "type": "function"
    },
    {
      "constant": true,
      "inputs": [
        {
          "internalType": "string",
          "name": "name",
          "type": "string"
        }
      ],
      "name": "getMetadata",
      "outputs": [
        {
          "internalType": "string",
          "name": "",
          "type": "string"
        }
      ],
      "payable": false,
      "stateMutability": "view",
      "type": "function"
    },
    {
      "constant": false,
      "inputs": [
        {
          "internalType": "uint256",
          "name": "category",
          "type": "uint256"
        },
        {
          "internalType": "uint256[]",
          "name": "tags",
          "type": "uint256[]"
        }
      ],
      "name": "searchByTag",
      "outputs": [
        {
          "internalType": "uint256[]",
          "name": "",
          "type": "uint256[]"
        }
      ],
      "payable": false,
      "stateMutability": "nonpayable",
      "type": "function"
    },
    {
      "constant": false,
      "inputs": [
        {
          "internalType": "uint256",
          "name": "category",
          "type": "uint256"
        }
      ],
      "name": "searchCat",
      "outputs": [
        {
          "internalType": "uint256[]",
          "name": "",
          "type": "uint256[]"
        }
      ],
      "payable": false,
      "stateMutability": "nonpayable",
      "type": "function"
    },
    {
      "constant": true,
      "inputs": [],
      "name": "getNumDSetsCreated",
      "outputs": [
        {
          "internalType": "uint256",
          "name": "",
          "type": "uint256"
        }
      ],
      "payable": false,
      "stateMutability": "view",
      "type": "function"
    },
    {
      "constant": true,
      "inputs": [],
      "name": "getNumCatsCreated",
      "outputs": [
        {
          "internalType": "uint256",
          "name": "",
          "type": "uint256"
        }
      ],
      "payable": false,
      "stateMutability": "view",
      "type": "function"
    },
    {
      "constant": true,
      "inputs": [],
      "name": "getNumTagsCreated",
      "outputs": [
        {
          "internalType": "uint256",
          "name": "",
          "type": "uint256"
        }
      ],
      "payable": false,
      "stateMutability": "view",
      "type": "function"
    }
  ],
  "bytecode": "0x60806040526001600260146101000a81548160ff021916908360ff16021790555060006003556000600455600060055534801561003b57600080fd5b506040516138993803806138998339818101604052604081101561005e57600080fd5b810190808051906020019092919080519060200190929190505050816000806101000a81548173ffffffffffffffffffffffffffffffffffffffff021916908373ffffffffffffffffffffffffffffffffffffffff16021790555080600160006101000a81548173ffffffffffffffffffffffffffffffffffffffff021916908373ffffffffffffffffffffffffffffffffffffffff16021790555033600260006101000a81548173ffffffffffffffffffffffffffffffffffffffff021916908373ffffffffffffffffffffffffffffffffffffffff160217905550505061374d8061014c6000396000f3fe608060405234801561001057600080fd5b50600436106100cf5760003560e01c80639cf08b551161008c578063c20c3d8211610066578063c20c3d8214610921578063d11a1f071461093f578063de0cc45b14610a73578063fa6aae2814610b42576100cf565b80639cf08b55146104f9578063a24bfc6e14610517578063b80807b814610561576100cf565b80632e0dcbf7146100d45780633b952c9c146101a35780634845a7851461022657806385ab5f73146102f55780639407e73c146103c45780639914c412146104db575b600080fd5b61018d600480360360208110156100ea57600080fd5b810190808035906020019064010000000081111561010757600080fd5b82018360208201111561011957600080fd5b8035906020019184600183028401116401000000008311171561013b57600080fd5b91908080601f016020809104026020016040519081016040528093929190818152602001838380828437600081840152601f19601f820116905080830192505050505050509192919290505050610be9565b6040518082815260200191505060405180910390f35b6101cf600480360360208110156101b957600080fd5b8101908080359060200190929190505050610ea0565b6040518080602001828103825283818151815260200191508051906020019060200280838360005b838110156102125780820151818401526020810190506101f7565b505050509050019250505060405180910390f35b6102df6004803603602081101561023c57600080fd5b810190808035906020019064010000000081111561025957600080fd5b82018360208201111561026b57600080fd5b8035906020019184600183028401116401000000008311171561028d57600080fd5b91908080601f016020809104026020016040519081016040528093929190818152602001838380828437600081840152601f19601f820116905080830192505050505050509192919290505050611080565b6040518082815260200191505060405180910390f35b6103ae6004803603602081101561030b57600080fd5b810190808035906020019064010000000081111561032857600080fd5b82018360208201111561033a57600080fd5b8035906020019184600183028401116401000000008311171561035c57600080fd5b91908080601f016020809104026020016040519081016040528093929190818152602001838380828437600081840152601f19601f8201169050808301925050505050505091929192905050506110f3565b6040518082815260200191505060405180910390f35b610484600480360360408110156103da57600080fd5b81019080803590602001909291908035906020019064010000000081111561040157600080fd5b82018360208201111561041357600080fd5b8035906020019184602083028401116401000000008311171561043557600080fd5b919080806020026020016040519081016040528093929190818152602001838360200280828437600081840152601f19601f820116905080830192505050505050509192919290505050611166565b6040518080602001828103825283818151815260200191508051906020019060200280838360005b838110156104c75780820151818401526020810190506104ac565b505050509050019250505060405180910390f35b6104e361151f565b6040518082815260200191505060405180910390f35b610501611529565b6040518082815260200191505060405180910390f35b61051f611533565b604051808273ffffffffffffffffffffffffffffffffffffffff1673ffffffffffffffffffffffffffffffffffffffff16815260200191505060405180910390f35b61091f600480360361010081101561057857600080fd5b810190808035906020019064010000000081111561059557600080fd5b8201836020820111156105a757600080fd5b803590602001918460018302840111640100000000831117156105c957600080fd5b91908080601f016020809104026020016040519081016040528093929190818152602001838380828437600081840152601f19601f8201169050808301925050505050505091929192908035906020019064010000000081111561062c57600080fd5b82018360208201111561063e57600080fd5b8035906020019184600183028401116401000000008311171561066057600080fd5b91908080601f016020809104026020016040519081016040528093929190818152602001838380828437600081840152601f19601f820116905080830192505050505050509192919290803590602001906401000000008111156106c357600080fd5b8201836020820111156106d557600080fd5b803590602001918460018302840111640100000000831117156106f757600080fd5b91908080601f016020809104026020016040519081016040528093929190818152602001838380828437600081840152601f19601f820116905080830192505050505050509192919290803590602001909291908035906020019064010000000081111561076457600080fd5b82018360208201111561077657600080fd5b8035906020019184602083028401116401000000008311171561079857600080fd5b919080806020026020016040519081016040528093929190818152602001838360200280828437600081840152601f19601f820116905080830192505050505050509192919290803590602001906401000000008111156107f857600080fd5b82018360208201111561080a57600080fd5b8035906020019184600183028401116401000000008311171561082c57600080fd5b91908080601f016020809104026020016040519081016040528093929190818152602001838380828437600081840152601f19601f8201169050808301925050505050505091929192908035906020019064010000000081111561088f57600080fd5b8201836020820111156108a157600080fd5b803590602001918460018302840111640100000000831117156108c357600080fd5b91908080601f016020809104026020016040519081016040528093929190818152602001838380828437600081840152601f19601f82011690508083019250505050505050919291929080359060200190929190505050611559565b005b610929612735565b6040518082815260200191505060405180910390f35b6109f86004803603602081101561095557600080fd5b810190808035906020019064010000000081111561097257600080fd5b82018360208201111561098457600080fd5b803590602001918460018302840111640100000000831117156109a657600080fd5b91908080601f016020809104026020016040519081016040528093929190818152602001838380828437600081840152601f19601f82011690508083019250505050505050919291929050505061273f565b6040518080602001828103825283818151815260200191508051906020019080838360005b83811015610a38578082015181840152602081019050610a1d565b50505050905090810190601f168015610a655780820380516001836020036101000a031916815260200191505b509250505060405180910390f35b610b2c60048036036020811015610a8957600080fd5b8101908080359060200190640100000000811115610aa657600080fd5b820183602082011115610ab857600080fd5b80359060200191846001830284011164010000000083111715610ada57600080fd5b91908080601f016020809104026020016040519081016040528093929190818152602001838380828437600081840152601f19601f82011690508083019250505050505050919291929050505061304d565b6040518082815260200191505060405180910390f35b610b6e60048036036020811015610b5857600080fd5b8101908080359060200190929190505050613304565b6040518080602001828103825283818151815260200191508051906020019080838360005b83811015610bae578082015181840152602081019050610b93565b50505050905090810190601f168015610bdb5780820380516001836020036101000a031916815260200191505b509250505060405180910390f35b6000806001811115610bf757fe5b6000809054906101000a900473ffffffffffffffffffffffffffffffffffffffff1673ffffffffffffffffffffffffffffffffffffffff16639026dee8336040518263ffffffff1660e01b8152600401808273ffffffffffffffffffffffffffffffffffffffff1673ffffffffffffffffffffffffffffffffffffffff16815260200191505060206040518083038186803b158015610c9557600080fd5b505afa158015610ca9573d6000803e3d6000fd5b505050506040513d6020811015610cbf57600080fd5b81019080805190602001909291905050506001811115610cdb57fe5b14610d4e576040517f08c379a000000000000000000000000000000000000000000000000000000000815260040180806020018281038252600a8152602001807f41646d696e206f6e6c790000000000000000000000000000000000000000000081525060200191505060405180910390fd5b6004600081548092919060010191905055506004546009836040518082805190602001908083835b60208310610d995780518252602082019150602081019050602083039250610d76565b6001836020036101000a03801982511681845116808217855250505050505090500191505090815260200160405180910390208190555081600a600060045481526020019081526020016000209080519060200190610df9929190613508565b507fddafded0074b1b128ce75f2ae045634ab8bd5b0519d4b2d29e51bd40587505b8826040518080602001828103825283818151815260200191508051906020019080838360005b83811015610e5c578082015181840152602081019050610e41565b50505050905090810190601f168015610e895780820380516001836020036101000a031916815260200191505b509250505060405180910390a16004549050919050565b606060008211610f18576040517f08c379a00000000000000000000000000000000000000000000000000000000081526004018080602001828103825260108152602001807f496e76616c69642043617465676f72790000000000000000000000000000000081525060200191505060405180910390fd5b600454821115610f90576040517f08c379a00000000000000000000000000000000000000000000000000000000081526004018080602001828103825260108152602001807f496e76616c69642043617465676f72790000000000000000000000000000000081525060200191505060405180910390fd5b7fd21427eb54e1d40e4c0f6f84b7c74450d0176e1471a29af09d84d1a2ae008304600d60008481526020019081526020016000206040518080602001828103825283818154815260200191508054801561100957602002820191906000526020600020905b815481526020019060010190808311610ff5575b50509250505060405180910390a1600d600083815260200190815260200160002080548060200260200160405190810160405280929190818152602001828054801561107457602002820191906000526020600020905b815481526020019060010190808311611060575b50505050509050919050565b60006009826040518082805190602001908083835b602083106110b85780518252602082019150602081019050602083039250611095565b6001836020036101000a0380198251168184511680821785525050505050509050019150509081526020016040518091039020549050919050565b6000600b826040518082805190602001908083835b6020831061112b5780518252602082019150602081019050602083039250611108565b6001836020036101000a0380198251168184511680821785525050505050509050019150509081526020016040518091039020549050919050565b60606004548311156111e0576040517f08c379a00000000000000000000000000000000000000000000000000000000081526004018080602001828103825260108152602001807f496e76616c69642043617465676f72790000000000000000000000000000000081525060200191505060405180910390fd5b600082511161123a576040517f08c379a00000000000000000000000000000000000000000000000000000000081526004018080602001828103825260248152602001806136d26024913960400191505060405180910390fd5b601160008060ff168152602001908152602001600020600061125c9190613588565b60008314156113405760008090505b82518160ff16101561133a576000838260ff168151811061128857fe5b6020026020010151905060008090505b600e60008381526020019081526020016000208054905081101561132b57601160008060ff168152602001908152602001600020600e600084815260200190815260200160002082815481106112ea57fe5b906000526020600020015490806001815401808255809150509060018203906000526020600020016000909192909190915055508080600101915050611298565b5050808060010191505061126b565b50611428565b60008090505b82518160ff161015611426576000838260ff168151811061136357fe5b6020026020010151905060008090505b600e60008381526020019081526020016000208054905081101561141757601160008060ff168152602001908152602001600020600f6000888152602001908152602001600020600084815260200190815260200160002082815481106113d657fe5b906000526020600020015490806001815401808255809150509060018203906000526020600020016000909192909190915055508080600101915050611373565b50508080600101915050611346565b505b7fd21427eb54e1d40e4c0f6f84b7c74450d0176e1471a29af09d84d1a2ae008304601160008060ff168152602001908152602001600020604051808060200182810382528381815481526020019150805480156114a457602002820191906000526020600020905b815481526020019060010190808311611490575b50509250505060405180910390a1601160008060ff16815260200190815260200160002080548060200260200160405190810160405280929190818152602001828054801561151257602002820191906000526020600020905b8154815260200190600101908083116114fe575b5050505050905092915050565b6000600454905090565b6000600354905090565b600260009054906101000a900473ffffffffffffffffffffffffffffffffffffffff1681565b600160009054906101000a900473ffffffffffffffffffffffffffffffffffffffff1673ffffffffffffffffffffffffffffffffffffffff166321f4629233836040518363ffffffff1660e01b8152600401808373ffffffffffffffffffffffffffffffffffffffff1673ffffffffffffffffffffffffffffffffffffffff1681526020018281526020019250505060206040518083038186803b15801561160057600080fd5b505afa158015611614573d6000803e3d6000fd5b505050506040513d602081101561162a57600080fd5b8101908080519060200190929190505050611690576040517f08c379a00000000000000000000000000000000000000000000000000000000081526004018080602001828103825260238152602001806136f66023913960400191505060405180910390fd5b600454851115611708576040517f08c379a00000000000000000000000000000000000000000000000000000000081526004018080602001828103825260108152602001807f496e76616c69642043617465676f72790000000000000000000000000000000081525060200191505060405180910390fd5b7fe6d63b97226ddfb2eeef7c01b1ef846de8d93c79db9013ddafab52fe3f4a2fab6040518080602001828103825260048152602001807f72616e310000000000000000000000000000000000000000000000000000000081525060200191505060405180910390a16000809050600060078a6040518082805190602001908083835b602083106117ad578051825260208201915060208101905060208303925061178a565b6001836020036101000a038019825116818451168082178552505050505050905001915050908152602001604051809103902054141561189857600360008154809291906001019190505550886008600060035481526020019081526020016000209080519060200190611822929190613508565b5060035460078a6040518082805190602001908083835b6020831061185c5780518252602082019150602081019050602083039250611839565b6001836020036101000a038019825116818451168082178552505050505050905001915050908152602001604051809103902081905550600190505b7fe6d63b97226ddfb2eeef7c01b1ef846de8d93c79db9013ddafab52fe3f4a2fab6040518080602001828103825260048152602001807f72616e320000000000000000000000000000000000000000000000000000000081525060200191505060405180910390a16119086135a9565b6040518060c001604052808a81526020018981526020018881526020018781526020018681526020018581525090508060068b6040518082805190602001908083835b6020831061196e578051825260208201915060208101905060208303925061194b565b6001836020036101000a038019825116818451168082178552505050505050905001915050908152602001604051809103902060008201518160000190805190602001906119bd9291906135df565b5060208201518160010190805190602001906119da9291906135df565b50604082015181600201556060820151816003019080519060200190611a0192919061365f565b506080820151816004019080519060200190611a1e9291906135df565b5060a0820151816005019080519060200190611a3b9291906135df565b50905050600060078b6040518082805190602001908083835b60208310611a775780518252602082019150602081019050602083039250611a54565b6001836020036101000a038019825116818451168082178552505050505050905001915050908152602001604051809103902054905060006060600a60008b81526020019081526020016000208054600181600116156101000203166002900480601f016020809104026020016040519081016040528092919081815260200182805460018160011615610100020316600290048015611b585780601f10611b2d57610100808354040283529160200191611b58565b820191906000526020600020905b815481529060010190602001808311611b3b57829003601f168201915b505050505090507fe6d63b97226ddfb2eeef7c01b1ef846de8d93c79db9013ddafab52fe3f4a2fab6040518080602001828103825260048152602001807f72616e330000000000000000000000000000000000000000000000000000000081525060200191505060405180910390a184611c7b576010816040518082805190602001908083835b60208310611c025780518252602082019150602081019050602083039250611bdf565b6001836020036101000a038019825116818451168082178552505050505050905001915050908152602001604051809103902060008481526020019081526020016000205491506000600d60008c81526020019081526020016000206001840381548110611c6c57fe5b90600052602060002001819055505b7fe6d63b97226ddfb2eeef7c01b1ef846de8d93c79db9013ddafab52fe3f4a2fab6040518080602001828103825260048152602001807f72616e340000000000000000000000000000000000000000000000000000000081525060200191505060405180910390a1600d60008b8152602001908152602001600020839080600181540180825580915050906001820390600052602060002001600090919290919091505550600d60008b8152602001908152602001600020805490509150816010826040518082805190602001908083835b60208310611d705780518252602082019150602081019050602083039250611d4d565b6001836020036101000a03801982511681845116808217855250505050505090500191505090815260200160405180910390206000858152602001908152602001600020819055507fe6d63b97226ddfb2eeef7c01b1ef846de8d93c79db9013ddafab52fe3f4a2fab6040518080602001828103825260048152602001807f72616e350000000000000000000000000000000000000000000000000000000081525060200191505060405180910390a16000895111156122e35760008090505b89518160ff1610156122795760008a8260ff1681518110611e4d57fe5b602002602001015190506060600c60008381526020019081526020016000208054600181600116156101000203166002900480601f016020809104026020016040519081016040528092919081815260200182805460018160011615610100020316600290048015611f005780601f10611ed557610100808354040283529160200191611f00565b820191906000526020600020905b815481529060010190602001808311611ee357829003601f168201915b505050505090508761208c576010816040518082805190602001908083835b60208310611f425780518252602082019150602081019050602083039250611f1f565b6001836020036101000a038019825116818451168082178552505050505050905001915050908152602001604051809103902060008781526020019081526020016000205494506000600e60008481526020019081526020016000206001870381548110611fac57fe5b90600052602060002001819055506010611fcf82866133b990919063ffffffff16565b6040518082805190602001908083835b602083106120025780518252602082019150602081019050602083039250611fdf565b6001836020036101000a038019825116818451168082178552505050505050905001915050908152602001604051809103902060008781526020019081526020016000205494506000600f60008f81526020019081526020016000206000848152602001908152602001600020600187038154811061207d57fe5b90600052602060002001819055505b600e6000838152602001908152602001600020869080600181540180825580915050906001820390600052602060002001600090919290919091505550600e6000838152602001908152602001600020805490509450846010826040518082805190602001908083835b6020831061211957805182526020820191506020810190506020830392506120f6565b6001836020036101000a0380198251168184511680821785525050505050509050019150509081526020016040518091039020600088815260200190815260200160002081905550600f60008e81526020019081526020016000206000838152602001908152602001600020869080600181540180825580915050906001820390600052602060002001600090919290919091505550600f60008e815260200190815260200160002060008381526020019081526020016000208054905094508460106121ef83876133b990919063ffffffff16565b6040518082805190602001908083835b6020831061222257805182526020820191506020810190506020830392506121ff565b6001836020036101000a038019825116818451168082178552505050505050905001915050908152602001604051809103902060008881526020019081526020016000208190555050508080600101915050611e30565b507fe6d63b97226ddfb2eeef7c01b1ef846de8d93c79db9013ddafab52fe3f4a2fab6040518080602001828103825260048152602001807f72616e360000000000000000000000000000000000000000000000000000000081525060200191505060405180910390a15b7fe6d63b97226ddfb2eeef7c01b1ef846de8d93c79db9013ddafab52fe3f4a2fab6040518080602001828103825260048152602001807f72616e370000000000000000000000000000000000000000000000000000000081525060200191505060405180910390a16000809054906101000a900473ffffffffffffffffffffffffffffffffffffffff1673ffffffffffffffffffffffffffffffffffffffff166368dc952833600260149054906101000a900460ff166040518363ffffffff1660e01b8152600401808373ffffffffffffffffffffffffffffffffffffffff1673ffffffffffffffffffffffffffffffffffffffff1681526020018260ff16815260200192505050600060405180830381600087803b15801561240557600080fd5b505af1158015612419573d6000803e3d6000fd5b505050507fe6d63b97226ddfb2eeef7c01b1ef846de8d93c79db9013ddafab52fe3f4a2fab6040518080602001828103825260048152602001807f72616e380000000000000000000000000000000000000000000000000000000081525060200191505060405180910390a17f48c418fd2d49e48f868eabc2417bac2aad0f8036b36a105128c2c98089e73dae8d8d8d8d8d8d8d6040518080602001806020018060200188815260200180602001806020018060200187810387528e818151815260200191508051906020019080838360005b838110156125075780820151818401526020810190506124ec565b50505050905090810190601f1680156125345780820380516001836020036101000a031916815260200191505b5087810386528d818151815260200191508051906020019080838360005b8381101561256d578082015181840152602081019050612552565b50505050905090810190601f16801561259a5780820380516001836020036101000a031916815260200191505b5087810385528c818151815260200191508051906020019080838360005b838110156125d35780820151818401526020810190506125b8565b50505050905090810190601f1680156126005780820380516001836020036101000a031916815260200191505b5087810384528a818151815260200191508051906020019060200280838360005b8381101561263c578082015181840152602081019050612621565b50505050905001878103835289818151815260200191508051906020019080838360005b8381101561267b578082015181840152602081019050612660565b50505050905090810190601f1680156126a85780820380516001836020036101000a031916815260200191505b50878103825288818151815260200191508051906020019080838360005b838110156126e15780820151818401526020810190506126c6565b50505050905090810190601f16801561270e5780820380516001836020036101000a031916815260200191505b509d505050505050505050505050505060405180910390a150505050505050505050505050565b6000600554905090565b60606127496135a9565b6006836040518082805190602001908083835b6020831061277f578051825260208201915060208101905060208303925061275c565b6001836020036101000a03801982511681845116808217855250505050505090500191505090815260200160405180910390206040518060c0016040529081600082018054600181600116156101000203166002900480601f0160208091040260200160405190810160405280929190818152602001828054600181600116156101000203166002900480156128565780601f1061282b57610100808354040283529160200191612856565b820191906000526020600020905b81548152906001019060200180831161283957829003601f168201915b50505050508152602001600182018054600181600116156101000203166002900480601f0160208091040260200160405190810160405280929190818152602001828054600181600116156101000203166002900480156128f85780601f106128cd576101008083540402835291602001916128f8565b820191906000526020600020905b8154815290600101906020018083116128db57829003601f168201915b50505050508152602001600282015481526020016003820180548060200260200160405190810160405280929190818152602001828054801561295a57602002820191906000526020600020905b815481526020019060010190808311612946575b50505050508152602001600482018054600181600116156101000203166002900480601f0160208091040260200160405190810160405280929190818152602001828054600181600116156101000203166002900480156129fc5780601f106129d1576101008083540402835291602001916129fc565b820191906000526020600020905b8154815290600101906020018083116129df57829003601f168201915b50505050508152602001600582018054600181600116156101000203166002900480601f016020809104026020016040519081016040528092919081815260200182805460018160011615610100020316600290048015612a9e5780601f10612a7357610100808354040283529160200191612a9e565b820191906000526020600020905b815481529060010190602001808311612a8157829003601f168201915b50505050508152505090506060604051806020016040528060008152509050612b626040518060400160405280600281526020017f3b20000000000000000000000000000000000000000000000000000000000000815250612b548460000151612b466040518060400160405280600781526020017f5469746c653a2000000000000000000000000000000000000000000000000000815250866133b990919063ffffffff16565b6133b990919063ffffffff16565b6133b990919063ffffffff16565b9050612c096040518060400160405280600281526020017f3b20000000000000000000000000000000000000000000000000000000000000815250612bfb8460200151612bed6040518060400160405280600d81526020017f4465736372697074696f6e3a2000000000000000000000000000000000000000815250866133b990919063ffffffff16565b6133b990919063ffffffff16565b6133b990919063ffffffff16565b9050612d5b6040518060400160405280600281526020017f3b20000000000000000000000000000000000000000000000000000000000000815250612d4d600a6000866040015181526020019081526020016000208054600181600116156101000203166002900480601f016020809104026020016040519081016040528092919081815260200182805460018160011615610100020316600290048015612cf25780601f10612cc757610100808354040283529160200191612cf2565b820191906000526020600020905b815481529060010190602001808311612cd557829003601f168201915b5050505050612d3f6040518060400160405280600a81526020017f43617465676f72793a2000000000000000000000000000000000000000000000815250866133b990919063ffffffff16565b6133b990919063ffffffff16565b6133b990919063ffffffff16565b9050612da56040518060400160405280600681526020017f546167733a200000000000000000000000000000000000000000000000000000815250826133b990919063ffffffff16565b905060008090505b8260600151518160ff161015612ef157600083606001518260ff1681518110612dd257fe5b60200260200101519050612ee16040518060400160405280600181526020017f2c00000000000000000000000000000000000000000000000000000000000000815250612ed3600c60008581526020019081526020016000208054600181600116156101000203166002900480601f016020809104026020016040519081016040528092919081815260200182805460018160011615610100020316600290048015612ebf5780601f10612e9457610100808354040283529160200191612ebf565b820191906000526020600020905b815481529060010190602001808311612ea257829003601f168201915b5050505050866133b990919063ffffffff16565b6133b990919063ffffffff16565b9250508080600101915050612dad565b50612f3a6040518060400160405280600281526020017f3b20000000000000000000000000000000000000000000000000000000000000815250826133b990919063ffffffff16565b9050612fe16040518060400160405280600281526020017f3b20000000000000000000000000000000000000000000000000000000000000815250612fd38460800151612fc56040518060400160405280600e81526020017f4461746520557064617465643a20000000000000000000000000000000000000815250866133b990919063ffffffff16565b6133b990919063ffffffff16565b6133b990919063ffffffff16565b90506130418260a001516130336040518060400160405280600781526020017f4f776e65723a2000000000000000000000000000000000000000000000000000815250846133b990919063ffffffff16565b6133b990919063ffffffff16565b90508092505050919050565b600080600181111561305b57fe5b6000809054906101000a900473ffffffffffffffffffffffffffffffffffffffff1673ffffffffffffffffffffffffffffffffffffffff16639026dee8336040518263ffffffff1660e01b8152600401808273ffffffffffffffffffffffffffffffffffffffff1673ffffffffffffffffffffffffffffffffffffffff16815260200191505060206040518083038186803b1580156130f957600080fd5b505afa15801561310d573d6000803e3d6000fd5b505050506040513d602081101561312357600080fd5b8101908080519060200190929190505050600181111561313f57fe5b146131b2576040517f08c379a000000000000000000000000000000000000000000000000000000000815260040180806020018281038252600a8152602001807f41646d696e206f6e6c790000000000000000000000000000000000000000000081525060200191505060405180910390fd5b600560008154809291906001019190505550600554600b836040518082805190602001908083835b602083106131fd57805182526020820191506020810190506020830392506131da565b6001836020036101000a03801982511681845116808217855250505050505090500191505090815260200160405180910390208190555081600c60006005548152602001908152602001600020908051906020019061325d929190613508565b507fe6d63b97226ddfb2eeef7c01b1ef846de8d93c79db9013ddafab52fe3f4a2fab826040518080602001828103825283818151815260200191508051906020019080838360005b838110156132c05780820151818401526020810190506132a5565b50505050905090810190601f1680156132ed5780820380516001836020036101000a031916815260200191505b509250505060405180910390a16005549050919050565b6060600860008381526020019081526020016000208054600181600116156101000203166002900480601f0160208091040260200160405190810160405280929190818152602001828054600181600116156101000203166002900480156133ad5780601f10613382576101008083540402835291602001916133ad565b820191906000526020600020905b81548152906001019060200180831161339057829003601f168201915b50505050509050919050565b606080839050606083905060008151116133cf57fe5b606081518351016040519080825280601f01601f1916602001820160405280156134085781602001600182028038833980820191505090505b5090506060819050600080600091505b85518210156134865785828151811061342d57fe5b602001015160f81c60f81b83828060010193508151811061344a57fe5b60200101907effffffffffffffffffffffffffffffffffffffffffffffffffffffffffffff1916908160001a9053508180600101925050613418565b600091505b84518210156134f9578482815181106134a057fe5b602001015160f81c60f81b8382806001019350815181106134bd57fe5b60200101907effffffffffffffffffffffffffffffffffffffffffffffffffffffffffffff1916908160001a905350818060010192505061348b565b82965050505050505092915050565b828054600181600116156101000203166002900490600052602060002090601f016020900481019282601f1061354957805160ff1916838001178555613577565b82800160010185558215613577579182015b8281111561357657825182559160200191906001019061355b565b5b50905061358491906136ac565b5090565b50805460008255906000526020600020908101906135a691906136ac565b50565b6040518060c001604052806060815260200160608152602001600081526020016060815260200160608152602001606081525090565b828054600181600116156101000203166002900490600052602060002090601f016020900481019282601f1061362057805160ff191683800117855561364e565b8280016001018555821561364e579182015b8281111561364d578251825591602001919060010190613632565b5b50905061365b91906136ac565b5090565b82805482825590600052602060002090810192821561369b579160200282015b8281111561369a57825182559160200191906001019061367f565b5b5090506136a891906136ac565b5090565b6136ce91905b808211156136ca5760008160009055506001016136b2565b5090565b9056fe4174206c65617374206f6e6520746167206973206e656564656420746f207365617263685065726d697373696f6e20726571756972656420746f20616464206d65746164617461a265627a7a72315820b7e0e083e141e3d3d52f1847b7e5b3c4165bfde898e404eafcabd8fd54b1a19864736f6c63430005110032",
  "source": "pragma solidity ^0.5.0;\r\n\r\nimport \"./Strings.sol\";\r\nimport \"./User.sol\";\r\nimport \"./Role.sol\";\r\n\r\ncontract Metadata {\r\n    using Strings for string;\r\n    User userContract;\r\n    Role roleContract;\r\n    address public contractDeployer;\r\n    uint8 tokenAmt = 1;\r\n\r\n    constructor(User userAddress, Role roleAddress) public {\r\n        userContract = userAddress;\r\n        roleContract = roleAddress;\r\n        contractDeployer =  msg.sender;\r\n    }\r\n\r\n    struct metadata {\r\n        string title;\r\n        string desc;\r\n        uint256 category;\r\n        uint256 [] _tags;\r\n        string dateUpdated;\r\n        string owner;\r\n    }\r\n    uint256 numOfDatasets = 0;\r\n    uint256 numOfCategories = 0;\r\n    uint256 numOfTags = 0;\r\n    // Maps dataset name to metadata\r\n    mapping(string => metadata) metadatas;\r\n    // Maps name to id\r\n    mapping(string => uint256) nameToID;\r\n    //maps id to name\r\n    mapping(uint256 => string) idToName;\r\n    //maps name to category\r\n    mapping(string => uint256) catToID;\r\n    //maps category to name\r\n    mapping(uint256 => string) idToCat;\r\n    // Maps tag to id\r\n    mapping(string => uint256) tagToID;\r\n    //maps id to tag\r\n    mapping(uint256 => string) idToTag;\r\n    // Maps by category only\r\n    mapping(uint256 => uint256 []) catList;\r\n    // Maps by tag only\r\n    mapping(uint256 => uint256 []) tagList;\r\n    // Maps by category then tag\r\n    mapping(uint256 => mapping(uint256 => uint256 [])) searchList;\r\n    // Mapping of category/tag/both to dataset id to index\r\n    mapping(string => mapping(uint256 => uint256)) indexes;\r\n    // Mapping for search functions\r\n    mapping(uint8 => uint256 []) searchResults;\r\n\r\n    event metadataAdded(string name, string title, string desc, uint256 category, uint256 [] tags, string dateUpdated, string owner);\r\n    event searchResult(uint256 [] result);\r\n    event categoryAdded(string name);\r\n    event tagAdded(string name);\r\n\r\n    function addCategory(string memory category) public returns (uint256) {\r\n        // Admin only\r\n        require(userContract.checkAdmin(msg.sender) == User.adminState.isAdmin, \"Admin only\");\r\n        numOfCategories++;\r\n        catToID[category] = numOfCategories;\r\n        idToCat[numOfCategories] = category;\r\n        emit categoryAdded(category);\r\n        return numOfCategories;\r\n    }\r\n\r\n    function addTag(string memory tag) public returns (uint256) {\r\n        // Admin only\r\n        require(userContract.checkAdmin(msg.sender) == User.adminState.isAdmin, \"Admin only\");\r\n        numOfTags++;\r\n        tagToID[tag] = numOfTags;\r\n        idToTag[numOfTags] = tag;\r\n        emit tagAdded(tag);\r\n        return numOfTags;\r\n    }\r\n\r\n    function getCategoryID(string memory category) public view returns (uint256) {\r\n        return catToID[category];\r\n    }\r\n\r\n    function getTagID(string memory tag) public view returns (uint256) {\r\n        return tagToID[tag];\r\n    }\r\n\r\n    function getMetadataName(uint256 id) public view returns (string memory) {\r\n        return idToName[id];\r\n    }\r\n\r\n    // Overwrites current metadata for the dataset\r\n    function addMetadata(string memory name, string memory title, string memory desc, uint256 category, uint256 [] memory tags, string memory dateUpdated, string memory owner, uint256 permissionID) public {\r\n        require(roleContract.checkUserPermission(msg.sender, permissionID), \"Permission required to add metadata\");\r\n        require(category <= numOfCategories, \"Invalid Category\");\r\n        emit tagAdded(\"ran1\");\r\n        bool isNew = false;\r\n        if (nameToID[name] == 0) {\r\n            numOfDatasets++;\r\n            idToName[numOfDatasets] = name;\r\n            nameToID[name] = numOfDatasets;\r\n            isNew = true;\r\n        }\r\n        emit tagAdded(\"ran2\");\r\n        metadata memory newMetadata = metadata(title, desc, category, tags, dateUpdated, owner);\r\n        metadatas[name] = newMetadata;\r\n        uint256 id = nameToID[name];\r\n        uint256 index;\r\n        string memory cat = idToCat[category];\r\n        emit tagAdded(\"ran3\");\r\n        if (!isNew) {\r\n            // 0 means deleted, index starts from 1 so index - 1 is the actual position\r\n            index = indexes[cat][id];\r\n            catList[category][index - 1] = 0;\r\n        }\r\n        emit tagAdded(\"ran4\");\r\n        catList[category].push(id);\r\n        index = catList[category].length;\r\n        indexes[cat][id] = index;\r\n        emit tagAdded(\"ran5\");\r\n        if (tags.length > 0) {\r\n            for (uint8 i = 0; i < tags.length; i++) {\r\n                        uint256 t = tags[i];\r\n                        string memory tagStr = idToTag[t];\r\n                        if (!isNew) {\r\n                            // 0 means deleted, index starts from 1 so index - 1 is the actual position\r\n                            index = indexes[tagStr][id];\r\n                            tagList[t][index - 1] = 0;\r\n                            index = indexes[cat.concat(tagStr)][id];\r\n                            searchList[category][t][index - 1] = 0;\r\n                        }\r\n                        tagList[t].push(id);\r\n                        index = tagList[t].length;\r\n                        indexes[tagStr][id] = index;\r\n                        searchList[category][t].push(id);\r\n                        index = searchList[category][t].length;\r\n                        indexes[cat.concat(tagStr)][id] = index;\r\n            }\r\n            emit tagAdded(\"ran6\");\r\n        }\r\n        emit tagAdded(\"ran7\");\r\n        userContract.giveTokens(msg.sender, tokenAmt);\r\n        emit tagAdded(\"ran8\");\r\n        emit metadataAdded(name, title, desc, category, tags, dateUpdated, owner);\r\n    }\r\n\r\n    function getMetadata(string memory name) public view returns (string memory) {\r\n        // Print metadata\r\n        metadata memory md = metadatas[name];\r\n        string memory toReturn = \"\";\r\n        toReturn = toReturn.concat(\"Title: \").concat(md.title).concat(\"; \");\r\n        toReturn = toReturn.concat(\"Description: \").concat(md.desc).concat(\"; \");\r\n        toReturn = toReturn.concat(\"Category: \").concat(idToCat[md.category]).concat(\"; \");\r\n        toReturn = toReturn.concat(\"Tags: \");\r\n        for (uint8 i = 0; i < md._tags.length; i++) {\r\n            uint256 t = md._tags[i];\r\n            toReturn = toReturn.concat(idToTag[t]).concat(\",\");\r\n        }\r\n        toReturn = toReturn.concat(\"; \");\r\n        toReturn = toReturn.concat(\"Date Updated: \").concat(md.dateUpdated).concat(\"; \");\r\n        toReturn = toReturn.concat(\"Owner: \").concat(md.owner);\r\n        return toReturn;\r\n    }\r\n\r\n    // Search function for metadata, category = 0 means search for tag only.\r\n    function searchByTag(uint256 category, uint256 [] memory tags) public returns (uint256 [] memory) {\r\n        require(category <= numOfCategories, \"Invalid Category\");\r\n        require(tags.length > 0, \"At least one tag is needed to search\");\r\n        delete searchResults[0];\r\n        if (category == 0) {\r\n            for (uint8 i = 0; i < tags.length; i++) {\r\n                uint256 t = tags[i];\r\n                for (uint256 j = 0; j < tagList[t].length; j++) {\r\n                    searchResults[0].push(tagList[t][j]);\r\n                }\r\n            }\r\n        } else {\r\n            for (uint8 i = 0; i < tags.length; i++) {\r\n                uint256 t = tags[i];\r\n                for (uint256 j = 0; j < tagList[t].length; j++) {\r\n                    searchResults[0].push(searchList[category][t][j]);\r\n                }\r\n            }\r\n        }\r\n        emit searchResult(searchResults[0]);\r\n        return searchResults[0];\r\n    }\r\n\r\n    // Search by category only\r\n    function searchCat(uint256 category) public returns (uint256 [] memory) {\r\n        require(category > 0, \"Invalid Category\");\r\n        require(category <= numOfCategories, \"Invalid Category\");\r\n        emit searchResult(catList[category]);\r\n        return catList[category];\r\n    }\r\n\r\n    // Extra Getters\r\n    \r\n    // Get number of datasets recorded\r\n    function getNumDSetsCreated() public view returns (uint256) {\r\n        return numOfDatasets;\r\n    }\r\n    \r\n    // Get number of categories created\r\n    function getNumCatsCreated() public view returns (uint256) {\r\n        return numOfCategories;\r\n    }\r\n\r\n    // Get number of tags created\r\n    function getNumTagsCreated() public view returns (uint256) {\r\n        return numOfTags;\r\n    }\r\n}\r\n",
  "sourcePath": "C:\\Users\\Anthony Cheang\\Desktop\\University Stuff\\Academics\\Y3S1\\IS4302\\Submissions\\Grp Proj\\Merging_Branch\\is4302_grp19\\is4302_project\\contracts\\Metadata.sol",
  "compiler": {
    "name": "solc",
    "version": "0.5.17+commit.d19bba13.Emscripten.clang"
  },
  "schemaVersion": "3.4.11",
  "updatedAt": "2023-04-05T04:58:40.290Z",
  "networkType": "ethereum",
  "devdoc": {
    "methods": {}
  },
  "userdoc": {
    "methods": {}
  }
}