{
  "contractName": "Metadata",
  "abi": [
    {
      "inputs": [
        {
          "internalType": "contract User",
          "name": "userAddress",
          "type": "address"
        },
        {
          "internalType": "contract Role",
          "name": "roleAddress",
          "type": "address"
        }
      ],
      "payable": false,
      "stateMutability": "nonpayable",
      "type": "constructor"
    },
    {
      "anonymous": false,
      "inputs": [
        {
          "indexed": false,
          "internalType": "string",
          "name": "name",
          "type": "string"
        }
      ],
      "name": "categoryAdded",
      "type": "event"
    },
    {
      "anonymous": false,
      "inputs": [
        {
          "indexed": false,
          "internalType": "string",
          "name": "name",
          "type": "string"
        },
        {
          "indexed": false,
          "internalType": "string",
          "name": "title",
          "type": "string"
        },
        {
          "indexed": false,
          "internalType": "string",
          "name": "desc",
          "type": "string"
        },
        {
          "indexed": false,
          "internalType": "uint256",
          "name": "category",
          "type": "uint256"
        },
        {
          "indexed": false,
          "internalType": "uint256[]",
          "name": "tags",
          "type": "uint256[]"
        },
        {
          "indexed": false,
          "internalType": "string",
          "name": "dateUpdated",
          "type": "string"
        },
        {
          "indexed": false,
          "internalType": "string",
          "name": "owner",
          "type": "string"
        }
      ],
      "name": "metadataAdded",
      "type": "event"
    },
    {
      "anonymous": false,
      "inputs": [
        {
          "indexed": false,
          "internalType": "uint256[]",
          "name": "result",
          "type": "uint256[]"
        }
      ],
      "name": "searchResult",
      "type": "event"
    },
    {
      "anonymous": false,
      "inputs": [
        {
          "indexed": false,
          "internalType": "string",
          "name": "name",
          "type": "string"
        }
      ],
      "name": "tagAdded",
      "type": "event"
    },
    {
      "constant": false,
      "inputs": [
        {
          "internalType": "string",
          "name": "category",
          "type": "string"
        }
      ],
      "name": "addCategory",
      "outputs": [
        {
          "internalType": "uint256",
          "name": "",
          "type": "uint256"
        }
      ],
      "payable": false,
      "stateMutability": "nonpayable",
      "type": "function"
    },
    {
      "constant": false,
      "inputs": [
        {
          "internalType": "string",
          "name": "tag",
          "type": "string"
        }
      ],
      "name": "addTag",
      "outputs": [
        {
          "internalType": "uint256",
          "name": "",
          "type": "uint256"
        }
      ],
      "payable": false,
      "stateMutability": "nonpayable",
      "type": "function"
    },
    {
      "constant": true,
      "inputs": [
        {
          "internalType": "string",
          "name": "category",
          "type": "string"
        }
      ],
      "name": "getCategoryID",
      "outputs": [
        {
          "internalType": "uint256",
          "name": "",
          "type": "uint256"
        }
      ],
      "payable": false,
      "stateMutability": "view",
      "type": "function"
    },
    {
      "constant": true,
      "inputs": [
        {
          "internalType": "string",
          "name": "tag",
          "type": "string"
        }
      ],
      "name": "getTagID",
      "outputs": [
        {
          "internalType": "uint256",
          "name": "",
          "type": "uint256"
        }
      ],
      "payable": false,
      "stateMutability": "view",
      "type": "function"
    },
    {
      "constant": true,
      "inputs": [
        {
          "internalType": "uint256",
          "name": "id",
          "type": "uint256"
        }
      ],
      "name": "getMetadataName",
      "outputs": [
        {
          "internalType": "string",
          "name": "",
          "type": "string"
        }
      ],
      "payable": false,
      "stateMutability": "view",
      "type": "function"
    },
    {
      "constant": false,
      "inputs": [
        {
          "internalType": "string",
          "name": "name",
          "type": "string"
        },
        {
          "internalType": "string",
          "name": "title",
          "type": "string"
        },
        {
          "internalType": "string",
          "name": "desc",
          "type": "string"
        },
        {
          "internalType": "uint256",
          "name": "category",
          "type": "uint256"
        },
        {
          "internalType": "uint256[]",
          "name": "tags",
          "type": "uint256[]"
        },
        {
          "internalType": "string",
          "name": "dateUpdated",
          "type": "string"
        },
        {
          "internalType": "string",
          "name": "owner",
          "type": "string"
        },
        {
          "internalType": "uint256",
          "name": "permissionID",
          "type": "uint256"
        }
      ],
      "name": "addMetadata",
      "outputs": [],
      "payable": false,
      "stateMutability": "nonpayable",
      "type": "function"
    },
    {
      "constant": true,
      "inputs": [
        {
          "internalType": "string",
          "name": "name",
          "type": "string"
        }
      ],
      "name": "getMetadata",
      "outputs": [
        {
          "internalType": "string",
          "name": "",
          "type": "string"
        }
      ],
      "payable": false,
      "stateMutability": "view",
      "type": "function"
    },
    {
      "constant": false,
      "inputs": [
        {
          "internalType": "uint256",
          "name": "category",
          "type": "uint256"
        },
        {
          "internalType": "uint256[]",
          "name": "tags",
          "type": "uint256[]"
        }
      ],
      "name": "searchByTag",
      "outputs": [
        {
          "internalType": "uint256[]",
          "name": "",
          "type": "uint256[]"
        }
      ],
      "payable": false,
      "stateMutability": "nonpayable",
      "type": "function"
    },
    {
      "constant": false,
      "inputs": [
        {
          "internalType": "uint256",
          "name": "category",
          "type": "uint256"
        }
      ],
      "name": "searchCat",
      "outputs": [
        {
          "internalType": "uint256[]",
          "name": "",
          "type": "uint256[]"
        }
      ],
      "payable": false,
      "stateMutability": "nonpayable",
      "type": "function"
    },
    {
      "constant": true,
      "inputs": [],
      "name": "getNumDSetsCreated",
      "outputs": [
        {
          "internalType": "uint256",
          "name": "",
          "type": "uint256"
        }
      ],
      "payable": false,
      "stateMutability": "view",
      "type": "function"
    },
    {
      "constant": true,
      "inputs": [],
      "name": "getNumCatsCreated",
      "outputs": [
        {
          "internalType": "uint256",
          "name": "",
          "type": "uint256"
        }
      ],
      "payable": false,
      "stateMutability": "view",
      "type": "function"
    },
    {
      "constant": true,
      "inputs": [],
      "name": "getNumTagsCreated",
      "outputs": [
        {
          "internalType": "uint256",
          "name": "",
          "type": "uint256"
        }
      ],
      "payable": false,
      "stateMutability": "view",
      "type": "function"
    }
  ],
  "bytecode": "0x608060405260006002556000600355600060045534801561001f57600080fd5b506040516133953803806133958339818101604052604081101561004257600080fd5b810190808051906020019092919080519060200190929190505050816000806101000a81548173ffffffffffffffffffffffffffffffffffffffff021916908373ffffffffffffffffffffffffffffffffffffffff16021790555080600160006101000a81548173ffffffffffffffffffffffffffffffffffffffff021916908373ffffffffffffffffffffffffffffffffffffffff16021790555050506132a6806100ef6000396000f3fe608060405234801561001057600080fd5b50600436106100b45760003560e01c80639cf08b55116100715780639cf08b55146104de578063b80807b8146104fc578063c20c3d82146108bc578063d11a1f07146108da578063de0cc45b14610a0e578063fa6aae2814610add576100b4565b80632e0dcbf7146100b95780633b952c9c146101885780634845a7851461020b57806385ab5f73146102da5780639407e73c146103a95780639914c412146104c0575b600080fd5b610172600480360360208110156100cf57600080fd5b81019080803590602001906401000000008111156100ec57600080fd5b8201836020820111156100fe57600080fd5b8035906020019184600183028401116401000000008311171561012057600080fd5b91908080601f016020809104026020016040519081016040528093929190818152602001838380828437600081840152601f19601f820116905080830192505050505050509192919290505050610b84565b6040518082815260200191505060405180910390f35b6101b46004803603602081101561019e57600080fd5b8101908080359060200190929190505050610e36565b6040518080602001828103825283818151815260200191508051906020019060200280838360005b838110156101f75780820151818401526020810190506101dc565b505050509050019250505060405180910390f35b6102c46004803603602081101561022157600080fd5b810190808035906020019064010000000081111561023e57600080fd5b82018360208201111561025057600080fd5b8035906020019184600183028401116401000000008311171561027257600080fd5b91908080601f016020809104026020016040519081016040528093929190818152602001838380828437600081840152601f19601f820116905080830192505050505050509192919290505050611016565b6040518082815260200191505060405180910390f35b610393600480360360208110156102f057600080fd5b810190808035906020019064010000000081111561030d57600080fd5b82018360208201111561031f57600080fd5b8035906020019184600183028401116401000000008311171561034157600080fd5b91908080601f016020809104026020016040519081016040528093929190818152602001838380828437600081840152601f19601f820116905080830192505050505050509192919290505050611089565b6040518082815260200191505060405180910390f35b610469600480360360408110156103bf57600080fd5b8101908080359060200190929190803590602001906401000000008111156103e657600080fd5b8201836020820111156103f857600080fd5b8035906020019184602083028401116401000000008311171561041a57600080fd5b919080806020026020016040519081016040528093929190818152602001838360200280828437600081840152601f19601f8201169050808301925050505050505091929192905050506110fc565b6040518080602001828103825283818151815260200191508051906020019060200280838360005b838110156104ac578082015181840152602081019050610491565b505050509050019250505060405180910390f35b6104c86114b5565b6040518082815260200191505060405180910390f35b6104e66114bf565b6040518082815260200191505060405180910390f35b6108ba600480360361010081101561051357600080fd5b810190808035906020019064010000000081111561053057600080fd5b82018360208201111561054257600080fd5b8035906020019184600183028401116401000000008311171561056457600080fd5b91908080601f016020809104026020016040519081016040528093929190818152602001838380828437600081840152601f19601f820116905080830192505050505050509192919290803590602001906401000000008111156105c757600080fd5b8201836020820111156105d957600080fd5b803590602001918460018302840111640100000000831117156105fb57600080fd5b91908080601f016020809104026020016040519081016040528093929190818152602001838380828437600081840152601f19601f8201169050808301925050505050505091929192908035906020019064010000000081111561065e57600080fd5b82018360208201111561067057600080fd5b8035906020019184600183028401116401000000008311171561069257600080fd5b91908080601f016020809104026020016040519081016040528093929190818152602001838380828437600081840152601f19601f82011690508083019250505050505050919291929080359060200190929190803590602001906401000000008111156106ff57600080fd5b82018360208201111561071157600080fd5b8035906020019184602083028401116401000000008311171561073357600080fd5b919080806020026020016040519081016040528093929190818152602001838360200280828437600081840152601f19601f8201169050808301925050505050505091929192908035906020019064010000000081111561079357600080fd5b8201836020820111156107a557600080fd5b803590602001918460018302840111640100000000831117156107c757600080fd5b91908080601f016020809104026020016040519081016040528093929190818152602001838380828437600081840152601f19601f8201169050808301925050505050505091929192908035906020019064010000000081111561082a57600080fd5b82018360208201111561083c57600080fd5b8035906020019184600183028401116401000000008311171561085e57600080fd5b91908080601f016020809104026020016040519081016040528093929190818152602001838380828437600081840152601f19601f820116905080830192505050505050509192919290803590602001909291905050506114c9565b005b6108c4612293565b6040518082815260200191505060405180910390f35b610993600480360360208110156108f057600080fd5b810190808035906020019064010000000081111561090d57600080fd5b82018360208201111561091f57600080fd5b8035906020019184600183028401116401000000008311171561094157600080fd5b91908080601f016020809104026020016040519081016040528093929190818152602001838380828437600081840152601f19601f82011690508083019250505050505050919291929050505061229d565b6040518080602001828103825283818151815260200191508051906020019080838360005b838110156109d35780820151818401526020810190506109b8565b50505050905090810190601f168015610a005780820380516001836020036101000a031916815260200191505b509250505060405180910390f35b610ac760048036036020811015610a2457600080fd5b8101908080359060200190640100000000811115610a4157600080fd5b820183602082011115610a5357600080fd5b80359060200191846001830284011164010000000083111715610a7557600080fd5b91908080601f016020809104026020016040519081016040528093929190818152602001838380828437600081840152601f19601f820116905080830192505050505050509192919290505050612bab565b6040518082815260200191505060405180910390f35b610b0960048036036020811015610af357600080fd5b8101908080359060200190929190505050612e5d565b6040518080602001828103825283818151815260200191508051906020019080838360005b83811015610b49578082015181840152602081019050610b2e565b50505050905090810190601f168015610b765780820380516001836020036101000a031916815260200191505b509250505060405180910390f35b6000806001811115610b9257fe5b6000809054906101000a900473ffffffffffffffffffffffffffffffffffffffff1673ffffffffffffffffffffffffffffffffffffffff16639026dee8336040518263ffffffff1660e01b8152600401808273ffffffffffffffffffffffffffffffffffffffff1673ffffffffffffffffffffffffffffffffffffffff16815260200191505060206040518083038186803b158015610c3057600080fd5b505afa158015610c44573d6000803e3d6000fd5b505050506040513d6020811015610c5a57600080fd5b81019080805190602001909291905050506001811115610c7657fe5b14610ce9576040517f08c379a000000000000000000000000000000000000000000000000000000000815260040180806020018281038252600a8152602001807f41646d696e206f6e6c790000000000000000000000000000000000000000000081525060200191505060405180910390fd5b6003600081548092919060010191905055506003546008836040518082805190602001908083835b60208310610d345780518252602082019150602081019050602083039250610d11565b6001836020036101000a038019825116818451168082178552505050505050905001915050908152602001604051809103902081905550816009600060035481526020019081526020016000209080519060200190610d94929190613061565b507fddafded0074b1b128ce75f2ae045634ab8bd5b0519d4b2d29e51bd40587505b8826040518080602001828103825283818151815260200191508051906020019080838360005b83811015610df7578082015181840152602081019050610ddc565b50505050905090810190601f168015610e245780820380516001836020036101000a031916815260200191505b509250505060405180910390a1919050565b606060008211610eae576040517f08c379a00000000000000000000000000000000000000000000000000000000081526004018080602001828103825260108152602001807f496e76616c69642043617465676f72790000000000000000000000000000000081525060200191505060405180910390fd5b600354821115610f26576040517f08c379a00000000000000000000000000000000000000000000000000000000081526004018080602001828103825260108152602001807f496e76616c69642043617465676f72790000000000000000000000000000000081525060200191505060405180910390fd5b7fd21427eb54e1d40e4c0f6f84b7c74450d0176e1471a29af09d84d1a2ae008304600c600084815260200190815260200160002060405180806020018281038252838181548152602001915080548015610f9f57602002820191906000526020600020905b815481526020019060010190808311610f8b575b50509250505060405180910390a1600c600083815260200190815260200160002080548060200260200160405190810160405280929190818152602001828054801561100a57602002820191906000526020600020905b815481526020019060010190808311610ff6575b50505050509050919050565b60006008826040518082805190602001908083835b6020831061104e578051825260208201915060208101905060208303925061102b565b6001836020036101000a0380198251168184511680821785525050505050509050019150509081526020016040518091039020549050919050565b6000600a826040518082805190602001908083835b602083106110c1578051825260208201915060208101905060208303925061109e565b6001836020036101000a0380198251168184511680821785525050505050509050019150509081526020016040518091039020549050919050565b6060600354831115611176576040517f08c379a00000000000000000000000000000000000000000000000000000000081526004018080602001828103825260108152602001807f496e76616c69642043617465676f72790000000000000000000000000000000081525060200191505060405180910390fd5b60008251116111d0576040517f08c379a000000000000000000000000000000000000000000000000000000000815260040180806020018281038252602481526020018061322b6024913960400191505060405180910390fd5b601060008060ff16815260200190815260200160002060006111f291906130e1565b60008314156112d65760008090505b82518160ff1610156112d0576000838260ff168151811061121e57fe5b6020026020010151905060008090505b600d6000838152602001908152602001600020805490508110156112c157601060008060ff168152602001908152602001600020600d6000848152602001908152602001600020828154811061128057fe5b90600052602060002001549080600181540180825580915050906001820390600052602060002001600090919290919091505550808060010191505061122e565b50508080600101915050611201565b506113be565b60008090505b82518160ff1610156113bc576000838260ff16815181106112f957fe5b6020026020010151905060008090505b600d6000838152602001908152602001600020805490508110156113ad57601060008060ff168152602001908152602001600020600e60008881526020019081526020016000206000848152602001908152602001600020828154811061136c57fe5b906000526020600020015490806001815401808255809150509060018203906000526020600020016000909192909190915055508080600101915050611309565b505080806001019150506112dc565b505b7fd21427eb54e1d40e4c0f6f84b7c74450d0176e1471a29af09d84d1a2ae008304601060008060ff1681526020019081526020016000206040518080602001828103825283818154815260200191508054801561143a57602002820191906000526020600020905b815481526020019060010190808311611426575b50509250505060405180910390a1601060008060ff1681526020019081526020016000208054806020026020016040519081016040528092919081815260200182805480156114a857602002820191906000526020600020905b815481526020019060010190808311611494575b5050505050905092915050565b6000600354905090565b6000600254905090565b600160009054906101000a900473ffffffffffffffffffffffffffffffffffffffff1673ffffffffffffffffffffffffffffffffffffffff166321f4629233836040518363ffffffff1660e01b8152600401808373ffffffffffffffffffffffffffffffffffffffff1673ffffffffffffffffffffffffffffffffffffffff1681526020018281526020019250505060206040518083038186803b15801561157057600080fd5b505afa158015611584573d6000803e3d6000fd5b505050506040513d602081101561159a57600080fd5b8101908080519060200190929190505050611600576040517f08c379a000000000000000000000000000000000000000000000000000000000815260040180806020018281038252602381526020018061324f6023913960400191505060405180910390fd5b600354851115611678576040517f08c379a00000000000000000000000000000000000000000000000000000000081526004018080602001828103825260108152602001807f496e76616c69642043617465676f72790000000000000000000000000000000081525060200191505060405180910390fd5b6000809050600060068a6040518082805190602001908083835b602083106116b55780518252602082019150602081019050602083039250611692565b6001836020036101000a03801982511681845116808217855250505050505090500191505090815260200160405180910390205414156117a05760026000815480929190600101919050555088600760006002548152602001908152602001600020908051906020019061172a929190613061565b5060025460068a6040518082805190602001908083835b602083106117645780518252602082019150602081019050602083039250611741565b6001836020036101000a038019825116818451168082178552505050505050905001915050908152602001604051809103902081905550600190505b6117a8613102565b6040518060c001604052808a81526020018981526020018881526020018781526020018681526020018581525090508060058b6040518082805190602001908083835b6020831061180e57805182526020820191506020810190506020830392506117eb565b6001836020036101000a0380198251168184511680821785525050505050509050019150509081526020016040518091039020600082015181600001908051906020019061185d929190613138565b50602082015181600101908051906020019061187a929190613138565b506040820151816002015560608201518160030190805190602001906118a19291906131b8565b5060808201518160040190805190602001906118be929190613138565b5060a08201518160050190805190602001906118db929190613138565b50905050600060068b6040518082805190602001908083835b6020831061191757805182526020820191506020810190506020830392506118f4565b6001836020036101000a038019825116818451168082178552505050505050905001915050908152602001604051809103902054905060006060600960008b81526020019081526020016000208054600181600116156101000203166002900480601f0160208091040260200160405190810160405280929190818152602001828054600181600116156101000203166002900480156119f85780601f106119cd576101008083540402835291602001916119f8565b820191906000526020600020905b8154815290600101906020018083116119db57829003601f168201915b5050505050905084611ab357600f816040518082805190602001908083835b60208310611a3a5780518252602082019150602081019050602083039250611a17565b6001836020036101000a038019825116818451168082178552505050505050905001915050908152602001604051809103902060008481526020019081526020016000205491506000600c60008c81526020019081526020016000206001840381548110611aa457fe5b90600052602060002001819055505b600c60008b8152602001908152602001600020839080600181540180825580915050906001820390600052602060002001600090919290919091505550600c60008b815260200190815260200160002080549050915081600f826040518082805190602001908083835b60208310611b405780518252602082019150602081019050602083039250611b1d565b6001836020036101000a0380198251168184511680821785525050505050509050019150509081526020016040518091039020600085815260200190815260200160002081905550600089511115611fe35760008090505b89518160ff161015611fe15760008a8260ff1681518110611bb557fe5b602002602001015190506060600b60008381526020019081526020016000208054600181600116156101000203166002900480601f016020809104026020016040519081016040528092919081815260200182805460018160011615610100020316600290048015611c685780601f10611c3d57610100808354040283529160200191611c68565b820191906000526020600020905b815481529060010190602001808311611c4b57829003601f168201915b5050505050905087611df457600f816040518082805190602001908083835b60208310611caa5780518252602082019150602081019050602083039250611c87565b6001836020036101000a038019825116818451168082178552505050505050905001915050908152602001604051809103902060008781526020019081526020016000205494506000600d60008481526020019081526020016000206001870381548110611d1457fe5b9060005260206000200181905550600f611d378286612f1290919063ffffffff16565b6040518082805190602001908083835b60208310611d6a5780518252602082019150602081019050602083039250611d47565b6001836020036101000a038019825116818451168082178552505050505050905001915050908152602001604051809103902060008781526020019081526020016000205494506000600e60008f815260200190815260200160002060008481526020019081526020016000206001870381548110611de557fe5b90600052602060002001819055505b600d6000838152602001908152602001600020869080600181540180825580915050906001820390600052602060002001600090919290919091505550600d600083815260200190815260200160002080549050945084600f826040518082805190602001908083835b60208310611e815780518252602082019150602081019050602083039250611e5e565b6001836020036101000a0380198251168184511680821785525050505050509050019150509081526020016040518091039020600088815260200190815260200160002081905550600e60008e81526020019081526020016000206000838152602001908152602001600020869080600181540180825580915050906001820390600052602060002001600090919290919091505550600e60008e8152602001908152602001600020600083815260200190815260200160002080549050945084600f611f578387612f1290919063ffffffff16565b6040518082805190602001908083835b60208310611f8a5780518252602082019150602081019050602083039250611f67565b6001836020036101000a038019825116818451168082178552505050505050905001915050908152602001604051809103902060008881526020019081526020016000208190555050508080600101915050611b98565b505b7f48c418fd2d49e48f868eabc2417bac2aad0f8036b36a105128c2c98089e73dae8d8d8d8d8d8d8d6040518080602001806020018060200188815260200180602001806020018060200187810387528e818151815260200191508051906020019080838360005b8381101561206557808201518184015260208101905061204a565b50505050905090810190601f1680156120925780820380516001836020036101000a031916815260200191505b5087810386528d818151815260200191508051906020019080838360005b838110156120cb5780820151818401526020810190506120b0565b50505050905090810190601f1680156120f85780820380516001836020036101000a031916815260200191505b5087810385528c818151815260200191508051906020019080838360005b83811015612131578082015181840152602081019050612116565b50505050905090810190601f16801561215e5780820380516001836020036101000a031916815260200191505b5087810384528a818151815260200191508051906020019060200280838360005b8381101561219a57808201518184015260208101905061217f565b50505050905001878103835289818151815260200191508051906020019080838360005b838110156121d95780820151818401526020810190506121be565b50505050905090810190601f1680156122065780820380516001836020036101000a031916815260200191505b50878103825288818151815260200191508051906020019080838360005b8381101561223f578082015181840152602081019050612224565b50505050905090810190601f16801561226c5780820380516001836020036101000a031916815260200191505b509d505050505050505050505050505060405180910390a150505050505050505050505050565b6000600454905090565b60606122a7613102565b6005836040518082805190602001908083835b602083106122dd57805182526020820191506020810190506020830392506122ba565b6001836020036101000a03801982511681845116808217855250505050505090500191505090815260200160405180910390206040518060c0016040529081600082018054600181600116156101000203166002900480601f0160208091040260200160405190810160405280929190818152602001828054600181600116156101000203166002900480156123b45780601f10612389576101008083540402835291602001916123b4565b820191906000526020600020905b81548152906001019060200180831161239757829003601f168201915b50505050508152602001600182018054600181600116156101000203166002900480601f0160208091040260200160405190810160405280929190818152602001828054600181600116156101000203166002900480156124565780601f1061242b57610100808354040283529160200191612456565b820191906000526020600020905b81548152906001019060200180831161243957829003601f168201915b5050505050815260200160028201548152602001600382018054806020026020016040519081016040528092919081815260200182805480156124b857602002820191906000526020600020905b8154815260200190600101908083116124a4575b50505050508152602001600482018054600181600116156101000203166002900480601f01602080910402602001604051908101604052809291908181526020018280546001816001161561010002031660029004801561255a5780601f1061252f5761010080835404028352916020019161255a565b820191906000526020600020905b81548152906001019060200180831161253d57829003601f168201915b50505050508152602001600582018054600181600116156101000203166002900480601f0160208091040260200160405190810160405280929190818152602001828054600181600116156101000203166002900480156125fc5780601f106125d1576101008083540402835291602001916125fc565b820191906000526020600020905b8154815290600101906020018083116125df57829003601f168201915b505050505081525050905060606040518060200160405280600081525090506126c06040518060400160405280600281526020017f3b200000000000000000000000000000000000000000000000000000000000008152506126b284600001516126a46040518060400160405280600781526020017f5469746c653a200000000000000000000000000000000000000000000000000081525086612f1290919063ffffffff16565b612f1290919063ffffffff16565b612f1290919063ffffffff16565b90506127676040518060400160405280600281526020017f3b20000000000000000000000000000000000000000000000000000000000000815250612759846020015161274b6040518060400160405280600d81526020017f4465736372697074696f6e3a200000000000000000000000000000000000000081525086612f1290919063ffffffff16565b612f1290919063ffffffff16565b612f1290919063ffffffff16565b90506128b96040518060400160405280600281526020017f3b200000000000000000000000000000000000000000000000000000000000008152506128ab60096000866040015181526020019081526020016000208054600181600116156101000203166002900480601f0160208091040260200160405190810160405280929190818152602001828054600181600116156101000203166002900480156128505780601f1061282557610100808354040283529160200191612850565b820191906000526020600020905b81548152906001019060200180831161283357829003601f168201915b505050505061289d6040518060400160405280600a81526020017f43617465676f72793a200000000000000000000000000000000000000000000081525086612f1290919063ffffffff16565b612f1290919063ffffffff16565b612f1290919063ffffffff16565b90506129036040518060400160405280600681526020017f546167733a20000000000000000000000000000000000000000000000000000081525082612f1290919063ffffffff16565b905060008090505b8260600151518160ff161015612a4f57600083606001518260ff168151811061293057fe5b60200260200101519050612a3f6040518060400160405280600181526020017f2c00000000000000000000000000000000000000000000000000000000000000815250612a31600b60008581526020019081526020016000208054600181600116156101000203166002900480601f016020809104026020016040519081016040528092919081815260200182805460018160011615610100020316600290048015612a1d5780601f106129f257610100808354040283529160200191612a1d565b820191906000526020600020905b815481529060010190602001808311612a0057829003601f168201915b505050505086612f1290919063ffffffff16565b612f1290919063ffffffff16565b925050808060010191505061290b565b50612a986040518060400160405280600281526020017f3b2000000000000000000000000000000000000000000000000000000000000081525082612f1290919063ffffffff16565b9050612b3f6040518060400160405280600281526020017f3b20000000000000000000000000000000000000000000000000000000000000815250612b318460800151612b236040518060400160405280600e81526020017f4461746520557064617465643a2000000000000000000000000000000000000081525086612f1290919063ffffffff16565b612f1290919063ffffffff16565b612f1290919063ffffffff16565b9050612b9f8260a00151612b916040518060400160405280600781526020017f4f776e65723a200000000000000000000000000000000000000000000000000081525084612f1290919063ffffffff16565b612f1290919063ffffffff16565b90508092505050919050565b6000806001811115612bb957fe5b6000809054906101000a900473ffffffffffffffffffffffffffffffffffffffff1673ffffffffffffffffffffffffffffffffffffffff16639026dee8336040518263ffffffff1660e01b8152600401808273ffffffffffffffffffffffffffffffffffffffff1673ffffffffffffffffffffffffffffffffffffffff16815260200191505060206040518083038186803b158015612c5757600080fd5b505afa158015612c6b573d6000803e3d6000fd5b505050506040513d6020811015612c8157600080fd5b81019080805190602001909291905050506001811115612c9d57fe5b14612d10576040517f08c379a000000000000000000000000000000000000000000000000000000000815260040180806020018281038252600a8152602001807f41646d696e206f6e6c790000000000000000000000000000000000000000000081525060200191505060405180910390fd5b600460008154809291906001019190505550600454600a836040518082805190602001908083835b60208310612d5b5780518252602082019150602081019050602083039250612d38565b6001836020036101000a03801982511681845116808217855250505050505090500191505090815260200160405180910390208190555081600b600060045481526020019081526020016000209080519060200190612dbb929190613061565b507fe6d63b97226ddfb2eeef7c01b1ef846de8d93c79db9013ddafab52fe3f4a2fab826040518080602001828103825283818151815260200191508051906020019080838360005b83811015612e1e578082015181840152602081019050612e03565b50505050905090810190601f168015612e4b5780820380516001836020036101000a031916815260200191505b509250505060405180910390a1919050565b6060600760008381526020019081526020016000208054600181600116156101000203166002900480601f016020809104026020016040519081016040528092919081815260200182805460018160011615610100020316600290048015612f065780601f10612edb57610100808354040283529160200191612f06565b820191906000526020600020905b815481529060010190602001808311612ee957829003601f168201915b50505050509050919050565b60608083905060608390506000815111612f2857fe5b606081518351016040519080825280601f01601f191660200182016040528015612f615781602001600182028038833980820191505090505b5090506060819050600080600091505b8551821015612fdf57858281518110612f8657fe5b602001015160f81c60f81b838280600101935081518110612fa357fe5b60200101907effffffffffffffffffffffffffffffffffffffffffffffffffffffffffffff1916908160001a9053508180600101925050612f71565b600091505b845182101561305257848281518110612ff957fe5b602001015160f81c60f81b83828060010193508151811061301657fe5b60200101907effffffffffffffffffffffffffffffffffffffffffffffffffffffffffffff1916908160001a9053508180600101925050612fe4565b82965050505050505092915050565b828054600181600116156101000203166002900490600052602060002090601f016020900481019282601f106130a257805160ff19168380011785556130d0565b828001600101855582156130d0579182015b828111156130cf5782518255916020019190600101906130b4565b5b5090506130dd9190613205565b5090565b50805460008255906000526020600020908101906130ff9190613205565b50565b6040518060c001604052806060815260200160608152602001600081526020016060815260200160608152602001606081525090565b828054600181600116156101000203166002900490600052602060002090601f016020900481019282601f1061317957805160ff19168380011785556131a7565b828001600101855582156131a7579182015b828111156131a657825182559160200191906001019061318b565b5b5090506131b49190613205565b5090565b8280548282559060005260206000209081019282156131f4579160200282015b828111156131f35782518255916020019190600101906131d8565b5b5090506132019190613205565b5090565b61322791905b8082111561322357600081600090555060010161320b565b5090565b9056fe4174206c65617374206f6e6520746167206973206e656564656420746f207365617263685065726d697373696f6e20726571756972656420746f20616464206d65746164617461a265627a7a723158202d433a9fd70588a08a15730ceab4eada0ce5c54ff674853d4971c99b314a9ce964736f6c63430005110032",
  "source": "pragma solidity ^0.5.0;\r\n\r\nimport \"./Strings.sol\";\r\nimport \"./User.sol\";\r\nimport \"./Role.sol\";\r\n\r\ncontract Metadata {\r\n    using Strings for string;\r\n    User userContract;\r\n    Role roleContract;\r\n\r\n    constructor(User userAddress, Role roleAddress) public {\r\n        userContract = userAddress;\r\n        roleContract = roleAddress;\r\n    }\r\n\r\n    struct metadata {\r\n        string title;\r\n        string desc;\r\n        uint256 category;\r\n        uint256 [] _tags;\r\n        string dateUpdated;\r\n        string owner;\r\n    }\r\n    uint256 numOfDatasets = 0;\r\n    uint256 numOfCategories = 0;\r\n    uint256 numOfTags = 0;\r\n    // Maps dataset name to metadata\r\n    mapping(string => metadata) metadatas;\r\n    // Maps name to id\r\n    mapping(string => uint256) nameToID;\r\n    //maps id to name\r\n    mapping(uint256 => string) idToName;\r\n    //maps name to category\r\n    mapping(string => uint256) catToID;\r\n    //maps category to name\r\n    mapping(uint256 => string) idToCat;\r\n    // Maps tag to id\r\n    mapping(string => uint256) tagToID;\r\n    //maps id to tag\r\n    mapping(uint256 => string) idToTag;\r\n    // Maps by category only\r\n    mapping(uint256 => uint256 []) catList;\r\n    // Maps by tag only\r\n    mapping(uint256 => uint256 []) tagList;\r\n    // Maps by category then tag\r\n    mapping(uint256 => mapping(uint256 => uint256 [])) searchList;\r\n    // Mapping of category/tag/both to dataset id to index\r\n    mapping(string => mapping(uint256 => uint256)) indexes;\r\n    // Mapping for search functions\r\n    mapping(uint8 => uint256 []) searchResults;\r\n\r\n    event metadataAdded(string name, string title, string desc, uint256 category, uint256 [] tags, string dateUpdated, string owner);\r\n    event searchResult(uint256 [] result);\r\n    event categoryAdded(string name);\r\n    event tagAdded(string name);\r\n\r\n    function addCategory(string memory category) public returns (uint256) {\r\n        // Admin only\r\n        require(userContract.checkAdmin(msg.sender) == User.adminState.isAdmin, \"Admin only\");\r\n        numOfCategories++;\r\n        catToID[category] = numOfCategories;\r\n        idToCat[numOfCategories] = category;\r\n        emit categoryAdded(category);\r\n    }\r\n\r\n    function addTag(string memory tag) public returns (uint256) {\r\n        // Admin only\r\n        require(userContract.checkAdmin(msg.sender) == User.adminState.isAdmin, \"Admin only\");\r\n        numOfTags++;\r\n        tagToID[tag] = numOfTags;\r\n        idToTag[numOfTags] = tag;\r\n        emit tagAdded(tag);\r\n    }\r\n\r\n    function getCategoryID(string memory category) public view returns (uint256) {\r\n        return catToID[category];\r\n    }\r\n\r\n    function getTagID(string memory tag) public view returns (uint256) {\r\n        return tagToID[tag];\r\n    }\r\n\r\n    function getMetadataName(uint256 id) public view returns (string memory) {\r\n        return idToName[id];\r\n    }\r\n\r\n    // Overwrites current metadata for the dataset\r\n    function addMetadata(string memory name, string memory title, string memory desc, uint256 category, uint256 [] memory tags, string memory dateUpdated, string memory owner, uint256 permissionID) public {\r\n        require(roleContract.checkUserPermission(msg.sender, permissionID), \"Permission required to add metadata\");\r\n        require(category <= numOfCategories, \"Invalid Category\");\r\n        bool isNew = false;\r\n        if (nameToID[name] == 0) {\r\n            numOfDatasets++;\r\n            idToName[numOfDatasets] = name;\r\n            nameToID[name] = numOfDatasets;\r\n            isNew = true;\r\n        }\r\n        metadata memory newMetadata = metadata(title, desc, category, tags, dateUpdated, owner);\r\n        metadatas[name] = newMetadata;\r\n        uint256 id = nameToID[name];\r\n        uint256 index;\r\n        string memory cat = idToCat[category];\r\n        if (!isNew) {\r\n            // 0 means deleted, index starts from 1 so index - 1 is the actual position\r\n            index = indexes[cat][id];\r\n            catList[category][index - 1] = 0;\r\n        }\r\n        catList[category].push(id);\r\n        index = catList[category].length;\r\n        indexes[cat][id] = index;\r\n        if (tags.length > 0) {\r\n            for (uint8 i = 0; i < tags.length; i++) {\r\n                        uint256 t = tags[i];\r\n                        string memory tagStr = idToTag[t];\r\n                        if (!isNew) {\r\n                            // 0 means deleted, index starts from 1 so index - 1 is the actual position\r\n                            index = indexes[tagStr][id];\r\n                            tagList[t][index - 1] = 0;\r\n                            index = indexes[cat.concat(tagStr)][id];\r\n                            searchList[category][t][index - 1] = 0;\r\n                        }\r\n                        tagList[t].push(id);\r\n                        index = tagList[t].length;\r\n                        indexes[tagStr][id] = index;\r\n                        searchList[category][t].push(id);\r\n                        index = searchList[category][t].length;\r\n                        indexes[cat.concat(tagStr)][id] = index;\r\n            }\r\n        }\r\n        emit metadataAdded(name, title, desc, category, tags, dateUpdated, owner);\r\n    }\r\n\r\n    function getMetadata(string memory name) public view returns (string memory) {\r\n        // Print metadata\r\n        metadata memory md = metadatas[name];\r\n        string memory toReturn = \"\";\r\n        toReturn = toReturn.concat(\"Title: \").concat(md.title).concat(\"; \");\r\n        toReturn = toReturn.concat(\"Description: \").concat(md.desc).concat(\"; \");\r\n        toReturn = toReturn.concat(\"Category: \").concat(idToCat[md.category]).concat(\"; \");\r\n        toReturn = toReturn.concat(\"Tags: \");\r\n        for (uint8 i = 0; i < md._tags.length; i++) {\r\n            uint256 t = md._tags[i];\r\n            toReturn = toReturn.concat(idToTag[t]).concat(\",\");\r\n        }\r\n        toReturn = toReturn.concat(\"; \");\r\n        toReturn = toReturn.concat(\"Date Updated: \").concat(md.dateUpdated).concat(\"; \");\r\n        toReturn = toReturn.concat(\"Owner: \").concat(md.owner);\r\n        return toReturn;\r\n    }\r\n\r\n    // Search function for metadata, category = 0 means search for tag only.\r\n    function searchByTag(uint256 category, uint256 [] memory tags) public returns (uint256 [] memory) {\r\n        require(category <= numOfCategories, \"Invalid Category\");\r\n        require(tags.length > 0, \"At least one tag is needed to search\");\r\n        delete searchResults[0];\r\n        if (category == 0) {\r\n            for (uint8 i = 0; i < tags.length; i++) {\r\n                uint256 t = tags[i];\r\n                for (uint256 j = 0; j < tagList[t].length; j++) {\r\n                    searchResults[0].push(tagList[t][j]);\r\n                }\r\n            }\r\n        } else {\r\n            for (uint8 i = 0; i < tags.length; i++) {\r\n                uint256 t = tags[i];\r\n                for (uint256 j = 0; j < tagList[t].length; j++) {\r\n                    searchResults[0].push(searchList[category][t][j]);\r\n                }\r\n            }\r\n        }\r\n        emit searchResult(searchResults[0]);\r\n        return searchResults[0];\r\n    }\r\n\r\n    // Search by category only\r\n    function searchCat(uint256 category) public returns (uint256 [] memory) {\r\n        require(category > 0, \"Invalid Category\");\r\n        require(category <= numOfCategories, \"Invalid Category\");\r\n        emit searchResult(catList[category]);\r\n        return catList[category];\r\n    }\r\n\r\n    // Extra Getters\r\n    \r\n    // Get number of datasets recorded\r\n    function getNumDSetsCreated() public view returns (uint256) {\r\n        return numOfDatasets;\r\n    }\r\n    \r\n    // Get number of categories created\r\n    function getNumCatsCreated() public view returns (uint256) {\r\n        return numOfCategories;\r\n    }\r\n\r\n    // Get number of tags created\r\n    function getNumTagsCreated() public view returns (uint256) {\r\n        return numOfTags;\r\n    }\r\n}\r\n",
  "sourcePath": "C:\\Users\\Anthony Cheang\\Desktop\\University Stuff\\Academics\\Y3S1\\IS4302\\Submissions\\Grp Proj\\Merging_Branch\\is4302_grp19\\is4302_project\\contracts\\Metadata.sol",
  "compiler": {
    "name": "solc",
    "version": "0.5.17+commit.d19bba13.Emscripten.clang"
  },
  "schemaVersion": "3.4.11",
  "updatedAt": "2023-04-01T05:13:35.543Z",
  "devdoc": {
    "methods": {}
  },
  "userdoc": {
    "methods": {}
  }
}