{
  "contractName": "Metadata",
  "abi": [
    {
      "inputs": [
        {
          "internalType": "contract User",
          "name": "userAddress",
          "type": "address"
        },
        {
          "internalType": "contract Role",
          "name": "roleAddress",
          "type": "address"
        }
      ],
      "payable": false,
      "stateMutability": "nonpayable",
      "type": "constructor"
    },
    {
      "anonymous": false,
      "inputs": [
        {
          "indexed": false,
          "internalType": "string",
          "name": "name",
          "type": "string"
        }
      ],
      "name": "categoryAdded",
      "type": "event"
    },
    {
      "anonymous": false,
      "inputs": [
        {
          "indexed": false,
          "internalType": "string",
          "name": "name",
          "type": "string"
        },
        {
          "indexed": false,
          "internalType": "string",
          "name": "title",
          "type": "string"
        },
        {
          "indexed": false,
          "internalType": "string",
          "name": "desc",
          "type": "string"
        },
        {
          "indexed": false,
          "internalType": "uint256",
          "name": "category",
          "type": "uint256"
        },
        {
          "indexed": false,
          "internalType": "uint256[]",
          "name": "tags",
          "type": "uint256[]"
        },
        {
          "indexed": false,
          "internalType": "string",
          "name": "dateUpdated",
          "type": "string"
        },
        {
          "indexed": false,
          "internalType": "string",
          "name": "owner",
          "type": "string"
        }
      ],
      "name": "metadataAdded",
      "type": "event"
    },
    {
      "anonymous": false,
      "inputs": [
        {
          "indexed": false,
          "internalType": "uint256[]",
          "name": "result",
          "type": "uint256[]"
        }
      ],
      "name": "searchResult",
      "type": "event"
    },
    {
      "anonymous": false,
      "inputs": [
        {
          "indexed": false,
          "internalType": "string",
          "name": "name",
          "type": "string"
        }
      ],
      "name": "tagAdded",
      "type": "event"
    },
    {
      "constant": false,
      "inputs": [
        {
          "internalType": "string",
          "name": "category",
          "type": "string"
        }
      ],
      "name": "addCategory",
      "outputs": [
        {
          "internalType": "uint256",
          "name": "",
          "type": "uint256"
        }
      ],
      "payable": false,
      "stateMutability": "nonpayable",
      "type": "function"
    },
    {
      "constant": false,
      "inputs": [
        {
          "internalType": "string",
          "name": "tag",
          "type": "string"
        }
      ],
      "name": "addTag",
      "outputs": [
        {
          "internalType": "uint256",
          "name": "",
          "type": "uint256"
        }
      ],
      "payable": false,
      "stateMutability": "nonpayable",
      "type": "function"
    },
    {
      "constant": true,
      "inputs": [
        {
          "internalType": "string",
          "name": "category",
          "type": "string"
        }
      ],
      "name": "getCategoryID",
      "outputs": [
        {
          "internalType": "uint256",
          "name": "",
          "type": "uint256"
        }
      ],
      "payable": false,
      "stateMutability": "view",
      "type": "function"
    },
    {
      "constant": true,
      "inputs": [
        {
          "internalType": "string",
          "name": "tag",
          "type": "string"
        }
      ],
      "name": "getTagID",
      "outputs": [
        {
          "internalType": "uint256",
          "name": "",
          "type": "uint256"
        }
      ],
      "payable": false,
      "stateMutability": "view",
      "type": "function"
    },
    {
      "constant": true,
      "inputs": [
        {
          "internalType": "uint256",
          "name": "id",
          "type": "uint256"
        }
      ],
      "name": "getMetadataName",
      "outputs": [
        {
          "internalType": "string",
          "name": "",
          "type": "string"
        }
      ],
      "payable": false,
      "stateMutability": "view",
      "type": "function"
    },
    {
      "constant": false,
      "inputs": [
        {
          "internalType": "string",
          "name": "name",
          "type": "string"
        },
        {
          "internalType": "string",
          "name": "title",
          "type": "string"
        },
        {
          "internalType": "string",
          "name": "desc",
          "type": "string"
        },
        {
          "internalType": "uint256",
          "name": "category",
          "type": "uint256"
        },
        {
          "internalType": "uint256[]",
          "name": "tags",
          "type": "uint256[]"
        },
        {
          "internalType": "string",
          "name": "dateUpdated",
          "type": "string"
        },
        {
          "internalType": "string",
          "name": "owner",
          "type": "string"
        },
        {
          "internalType": "uint256",
          "name": "permissionID",
          "type": "uint256"
        }
      ],
      "name": "addMetadata",
      "outputs": [],
      "payable": false,
      "stateMutability": "nonpayable",
      "type": "function"
    },
    {
      "constant": true,
      "inputs": [
        {
          "internalType": "string",
          "name": "name",
          "type": "string"
        }
      ],
      "name": "getMetadata",
      "outputs": [
        {
          "internalType": "string",
          "name": "",
          "type": "string"
        }
      ],
      "payable": false,
      "stateMutability": "view",
      "type": "function"
    },
    {
      "constant": false,
      "inputs": [
        {
          "internalType": "uint256",
          "name": "category",
          "type": "uint256"
        },
        {
          "internalType": "uint256[]",
          "name": "tags",
          "type": "uint256[]"
        }
      ],
      "name": "searchByTag",
      "outputs": [
        {
          "internalType": "uint256[]",
          "name": "",
          "type": "uint256[]"
        }
      ],
      "payable": false,
      "stateMutability": "nonpayable",
      "type": "function"
    },
    {
      "constant": false,
      "inputs": [
        {
          "internalType": "uint256",
          "name": "category",
          "type": "uint256"
        }
      ],
      "name": "searchCat",
      "outputs": [
        {
          "internalType": "uint256[]",
          "name": "",
          "type": "uint256[]"
        }
      ],
      "payable": false,
      "stateMutability": "nonpayable",
      "type": "function"
    }
  ],
  "bytecode": "0x608060405260006002556000600355600060045534801561001f57600080fd5b506040516132fc3803806132fc8339818101604052604081101561004257600080fd5b810190808051906020019092919080519060200190929190505050816000806101000a81548173ffffffffffffffffffffffffffffffffffffffff021916908373ffffffffffffffffffffffffffffffffffffffff16021790555080600160006101000a81548173ffffffffffffffffffffffffffffffffffffffff021916908373ffffffffffffffffffffffffffffffffffffffff160217905550505061320d806100ef6000396000f3fe608060405234801561001057600080fd5b50600436106100935760003560e01c80639407e73c116100665780639407e73c14610388578063b80807b81461049f578063d11a1f071461085f578063de0cc45b14610993578063fa6aae2814610a6257610093565b80632e0dcbf7146100985780633b952c9c146101675780634845a785146101ea57806385ab5f73146102b9575b600080fd5b610151600480360360208110156100ae57600080fd5b81019080803590602001906401000000008111156100cb57600080fd5b8201836020820111156100dd57600080fd5b803590602001918460018302840111640100000000831117156100ff57600080fd5b91908080601f016020809104026020016040519081016040528093929190818152602001838380828437600081840152601f19601f820116905080830192505050505050509192919290505050610b09565b6040518082815260200191505060405180910390f35b6101936004803603602081101561017d57600080fd5b8101908080359060200190929190505050610dbb565b6040518080602001828103825283818151815260200191508051906020019060200280838360005b838110156101d65780820151818401526020810190506101bb565b505050509050019250505060405180910390f35b6102a36004803603602081101561020057600080fd5b810190808035906020019064010000000081111561021d57600080fd5b82018360208201111561022f57600080fd5b8035906020019184600183028401116401000000008311171561025157600080fd5b91908080601f016020809104026020016040519081016040528093929190818152602001838380828437600081840152601f19601f820116905080830192505050505050509192919290505050610f9b565b6040518082815260200191505060405180910390f35b610372600480360360208110156102cf57600080fd5b81019080803590602001906401000000008111156102ec57600080fd5b8201836020820111156102fe57600080fd5b8035906020019184600183028401116401000000008311171561032057600080fd5b91908080601f016020809104026020016040519081016040528093929190818152602001838380828437600081840152601f19601f82011690508083019250505050505050919291929050505061100e565b6040518082815260200191505060405180910390f35b6104486004803603604081101561039e57600080fd5b8101908080359060200190929190803590602001906401000000008111156103c557600080fd5b8201836020820111156103d757600080fd5b803590602001918460208302840111640100000000831117156103f957600080fd5b919080806020026020016040519081016040528093929190818152602001838360200280828437600081840152601f19601f820116905080830192505050505050509192919290505050611081565b6040518080602001828103825283818151815260200191508051906020019060200280838360005b8381101561048b578082015181840152602081019050610470565b505050509050019250505060405180910390f35b61085d60048036036101008110156104b657600080fd5b81019080803590602001906401000000008111156104d357600080fd5b8201836020820111156104e557600080fd5b8035906020019184600183028401116401000000008311171561050757600080fd5b91908080601f016020809104026020016040519081016040528093929190818152602001838380828437600081840152601f19601f8201169050808301925050505050505091929192908035906020019064010000000081111561056a57600080fd5b82018360208201111561057c57600080fd5b8035906020019184600183028401116401000000008311171561059e57600080fd5b91908080601f016020809104026020016040519081016040528093929190818152602001838380828437600081840152601f19601f8201169050808301925050505050505091929192908035906020019064010000000081111561060157600080fd5b82018360208201111561061357600080fd5b8035906020019184600183028401116401000000008311171561063557600080fd5b91908080601f016020809104026020016040519081016040528093929190818152602001838380828437600081840152601f19601f82011690508083019250505050505050919291929080359060200190929190803590602001906401000000008111156106a257600080fd5b8201836020820111156106b457600080fd5b803590602001918460208302840111640100000000831117156106d657600080fd5b919080806020026020016040519081016040528093929190818152602001838360200280828437600081840152601f19601f8201169050808301925050505050505091929192908035906020019064010000000081111561073657600080fd5b82018360208201111561074857600080fd5b8035906020019184600183028401116401000000008311171561076a57600080fd5b91908080601f016020809104026020016040519081016040528093929190818152602001838380828437600081840152601f19601f820116905080830192505050505050509192919290803590602001906401000000008111156107cd57600080fd5b8201836020820111156107df57600080fd5b8035906020019184600183028401116401000000008311171561080157600080fd5b91908080601f016020809104026020016040519081016040528093929190818152602001838380828437600081840152601f19601f8201169050808301925050505050505091929192908035906020019092919050505061143a565b005b6109186004803603602081101561087557600080fd5b810190808035906020019064010000000081111561089257600080fd5b8201836020820111156108a457600080fd5b803590602001918460018302840111640100000000831117156108c657600080fd5b91908080601f016020809104026020016040519081016040528093929190818152602001838380828437600081840152601f19601f820116905080830192505050505050509192919290505050612204565b6040518080602001828103825283818151815260200191508051906020019080838360005b8381101561095857808201518184015260208101905061093d565b50505050905090810190601f1680156109855780820380516001836020036101000a031916815260200191505b509250505060405180910390f35b610a4c600480360360208110156109a957600080fd5b81019080803590602001906401000000008111156109c657600080fd5b8201836020820111156109d857600080fd5b803590602001918460018302840111640100000000831117156109fa57600080fd5b91908080601f016020809104026020016040519081016040528093929190818152602001838380828437600081840152601f19601f820116905080830192505050505050509192919290505050612b12565b6040518082815260200191505060405180910390f35b610a8e60048036036020811015610a7857600080fd5b8101908080359060200190929190505050612dc4565b6040518080602001828103825283818151815260200191508051906020019080838360005b83811015610ace578082015181840152602081019050610ab3565b50505050905090810190601f168015610afb5780820380516001836020036101000a031916815260200191505b509250505060405180910390f35b6000806001811115610b1757fe5b6000809054906101000a900473ffffffffffffffffffffffffffffffffffffffff1673ffffffffffffffffffffffffffffffffffffffff16639026dee8336040518263ffffffff1660e01b8152600401808273ffffffffffffffffffffffffffffffffffffffff1673ffffffffffffffffffffffffffffffffffffffff16815260200191505060206040518083038186803b158015610bb557600080fd5b505afa158015610bc9573d6000803e3d6000fd5b505050506040513d6020811015610bdf57600080fd5b81019080805190602001909291905050506001811115610bfb57fe5b14610c6e576040517f08c379a000000000000000000000000000000000000000000000000000000000815260040180806020018281038252600a8152602001807f41646d696e206f6e6c790000000000000000000000000000000000000000000081525060200191505060405180910390fd5b6003600081548092919060010191905055506003546008836040518082805190602001908083835b60208310610cb95780518252602082019150602081019050602083039250610c96565b6001836020036101000a038019825116818451168082178552505050505050905001915050908152602001604051809103902081905550816009600060035481526020019081526020016000209080519060200190610d19929190612fc8565b507fddafded0074b1b128ce75f2ae045634ab8bd5b0519d4b2d29e51bd40587505b8826040518080602001828103825283818151815260200191508051906020019080838360005b83811015610d7c578082015181840152602081019050610d61565b50505050905090810190601f168015610da95780820380516001836020036101000a031916815260200191505b509250505060405180910390a1919050565b606060008211610e33576040517f08c379a00000000000000000000000000000000000000000000000000000000081526004018080602001828103825260108152602001807f496e76616c69642043617465676f72790000000000000000000000000000000081525060200191505060405180910390fd5b600354821115610eab576040517f08c379a00000000000000000000000000000000000000000000000000000000081526004018080602001828103825260108152602001807f496e76616c69642043617465676f72790000000000000000000000000000000081525060200191505060405180910390fd5b7fd21427eb54e1d40e4c0f6f84b7c74450d0176e1471a29af09d84d1a2ae008304600c600084815260200190815260200160002060405180806020018281038252838181548152602001915080548015610f2457602002820191906000526020600020905b815481526020019060010190808311610f10575b50509250505060405180910390a1600c6000838152602001908152602001600020805480602002602001604051908101604052809291908181526020018280548015610f8f57602002820191906000526020600020905b815481526020019060010190808311610f7b575b50505050509050919050565b60006008826040518082805190602001908083835b60208310610fd35780518252602082019150602081019050602083039250610fb0565b6001836020036101000a0380198251168184511680821785525050505050509050019150509081526020016040518091039020549050919050565b6000600a826040518082805190602001908083835b602083106110465780518252602082019150602081019050602083039250611023565b6001836020036101000a0380198251168184511680821785525050505050509050019150509081526020016040518091039020549050919050565b60606003548311156110fb576040517f08c379a00000000000000000000000000000000000000000000000000000000081526004018080602001828103825260108152602001807f496e76616c69642043617465676f72790000000000000000000000000000000081525060200191505060405180910390fd5b6000825111611155576040517f08c379a00000000000000000000000000000000000000000000000000000000081526004018080602001828103825260248152602001806131926024913960400191505060405180910390fd5b601060008060ff16815260200190815260200160002060006111779190613048565b600083141561125b5760008090505b82518160ff161015611255576000838260ff16815181106111a357fe5b6020026020010151905060008090505b600d60008381526020019081526020016000208054905081101561124657601060008060ff168152602001908152602001600020600d6000848152602001908152602001600020828154811061120557fe5b9060005260206000200154908060018154018082558091505090600182039060005260206000200160009091929091909150555080806001019150506111b3565b50508080600101915050611186565b50611343565b60008090505b82518160ff161015611341576000838260ff168151811061127e57fe5b6020026020010151905060008090505b600d60008381526020019081526020016000208054905081101561133257601060008060ff168152602001908152602001600020600e6000888152602001908152602001600020600084815260200190815260200160002082815481106112f157fe5b90600052602060002001549080600181540180825580915050906001820390600052602060002001600090919290919091505550808060010191505061128e565b50508080600101915050611261565b505b7fd21427eb54e1d40e4c0f6f84b7c74450d0176e1471a29af09d84d1a2ae008304601060008060ff168152602001908152602001600020604051808060200182810382528381815481526020019150805480156113bf57602002820191906000526020600020905b8154815260200190600101908083116113ab575b50509250505060405180910390a1601060008060ff16815260200190815260200160002080548060200260200160405190810160405280929190818152602001828054801561142d57602002820191906000526020600020905b815481526020019060010190808311611419575b5050505050905092915050565b600160009054906101000a900473ffffffffffffffffffffffffffffffffffffffff1673ffffffffffffffffffffffffffffffffffffffff166321f4629233836040518363ffffffff1660e01b8152600401808373ffffffffffffffffffffffffffffffffffffffff1673ffffffffffffffffffffffffffffffffffffffff1681526020018281526020019250505060206040518083038186803b1580156114e157600080fd5b505afa1580156114f5573d6000803e3d6000fd5b505050506040513d602081101561150b57600080fd5b8101908080519060200190929190505050611571576040517f08c379a00000000000000000000000000000000000000000000000000000000081526004018080602001828103825260238152602001806131b66023913960400191505060405180910390fd5b6003548511156115e9576040517f08c379a00000000000000000000000000000000000000000000000000000000081526004018080602001828103825260108152602001807f496e76616c69642043617465676f72790000000000000000000000000000000081525060200191505060405180910390fd5b6000809050600060068a6040518082805190602001908083835b602083106116265780518252602082019150602081019050602083039250611603565b6001836020036101000a03801982511681845116808217855250505050505090500191505090815260200160405180910390205414156117115760026000815480929190600101919050555088600760006002548152602001908152602001600020908051906020019061169b929190612fc8565b5060025460068a6040518082805190602001908083835b602083106116d557805182526020820191506020810190506020830392506116b2565b6001836020036101000a038019825116818451168082178552505050505050905001915050908152602001604051809103902081905550600190505b611719613069565b6040518060c001604052808a81526020018981526020018881526020018781526020018681526020018581525090508060058b6040518082805190602001908083835b6020831061177f578051825260208201915060208101905060208303925061175c565b6001836020036101000a038019825116818451168082178552505050505050905001915050908152602001604051809103902060008201518160000190805190602001906117ce92919061309f565b5060208201518160010190805190602001906117eb92919061309f565b5060408201518160020155606082015181600301908051906020019061181292919061311f565b50608082015181600401908051906020019061182f92919061309f565b5060a082015181600501908051906020019061184c92919061309f565b50905050600060068b6040518082805190602001908083835b602083106118885780518252602082019150602081019050602083039250611865565b6001836020036101000a038019825116818451168082178552505050505050905001915050908152602001604051809103902054905060006060600960008b81526020019081526020016000208054600181600116156101000203166002900480601f0160208091040260200160405190810160405280929190818152602001828054600181600116156101000203166002900480156119695780601f1061193e57610100808354040283529160200191611969565b820191906000526020600020905b81548152906001019060200180831161194c57829003601f168201915b5050505050905084611a2457600f816040518082805190602001908083835b602083106119ab5780518252602082019150602081019050602083039250611988565b6001836020036101000a038019825116818451168082178552505050505050905001915050908152602001604051809103902060008481526020019081526020016000205491506000600c60008c81526020019081526020016000206001840381548110611a1557fe5b90600052602060002001819055505b600c60008b8152602001908152602001600020839080600181540180825580915050906001820390600052602060002001600090919290919091505550600c60008b815260200190815260200160002080549050915081600f826040518082805190602001908083835b60208310611ab15780518252602082019150602081019050602083039250611a8e565b6001836020036101000a0380198251168184511680821785525050505050509050019150509081526020016040518091039020600085815260200190815260200160002081905550600089511115611f545760008090505b89518160ff161015611f525760008a8260ff1681518110611b2657fe5b602002602001015190506060600b60008381526020019081526020016000208054600181600116156101000203166002900480601f016020809104026020016040519081016040528092919081815260200182805460018160011615610100020316600290048015611bd95780601f10611bae57610100808354040283529160200191611bd9565b820191906000526020600020905b815481529060010190602001808311611bbc57829003601f168201915b5050505050905087611d6557600f816040518082805190602001908083835b60208310611c1b5780518252602082019150602081019050602083039250611bf8565b6001836020036101000a038019825116818451168082178552505050505050905001915050908152602001604051809103902060008781526020019081526020016000205494506000600d60008481526020019081526020016000206001870381548110611c8557fe5b9060005260206000200181905550600f611ca88286612e7990919063ffffffff16565b6040518082805190602001908083835b60208310611cdb5780518252602082019150602081019050602083039250611cb8565b6001836020036101000a038019825116818451168082178552505050505050905001915050908152602001604051809103902060008781526020019081526020016000205494506000600e60008f815260200190815260200160002060008481526020019081526020016000206001870381548110611d5657fe5b90600052602060002001819055505b600d6000838152602001908152602001600020869080600181540180825580915050906001820390600052602060002001600090919290919091505550600d600083815260200190815260200160002080549050945084600f826040518082805190602001908083835b60208310611df25780518252602082019150602081019050602083039250611dcf565b6001836020036101000a0380198251168184511680821785525050505050509050019150509081526020016040518091039020600088815260200190815260200160002081905550600e60008e81526020019081526020016000206000838152602001908152602001600020869080600181540180825580915050906001820390600052602060002001600090919290919091505550600e60008e8152602001908152602001600020600083815260200190815260200160002080549050945084600f611ec88387612e7990919063ffffffff16565b6040518082805190602001908083835b60208310611efb5780518252602082019150602081019050602083039250611ed8565b6001836020036101000a038019825116818451168082178552505050505050905001915050908152602001604051809103902060008881526020019081526020016000208190555050508080600101915050611b09565b505b7f48c418fd2d49e48f868eabc2417bac2aad0f8036b36a105128c2c98089e73dae8d8d8d8d8d8d8d6040518080602001806020018060200188815260200180602001806020018060200187810387528e818151815260200191508051906020019080838360005b83811015611fd6578082015181840152602081019050611fbb565b50505050905090810190601f1680156120035780820380516001836020036101000a031916815260200191505b5087810386528d818151815260200191508051906020019080838360005b8381101561203c578082015181840152602081019050612021565b50505050905090810190601f1680156120695780820380516001836020036101000a031916815260200191505b5087810385528c818151815260200191508051906020019080838360005b838110156120a2578082015181840152602081019050612087565b50505050905090810190601f1680156120cf5780820380516001836020036101000a031916815260200191505b5087810384528a818151815260200191508051906020019060200280838360005b8381101561210b5780820151818401526020810190506120f0565b50505050905001878103835289818151815260200191508051906020019080838360005b8381101561214a57808201518184015260208101905061212f565b50505050905090810190601f1680156121775780820380516001836020036101000a031916815260200191505b50878103825288818151815260200191508051906020019080838360005b838110156121b0578082015181840152602081019050612195565b50505050905090810190601f1680156121dd5780820380516001836020036101000a031916815260200191505b509d505050505050505050505050505060405180910390a150505050505050505050505050565b606061220e613069565b6005836040518082805190602001908083835b602083106122445780518252602082019150602081019050602083039250612221565b6001836020036101000a03801982511681845116808217855250505050505090500191505090815260200160405180910390206040518060c0016040529081600082018054600181600116156101000203166002900480601f01602080910402602001604051908101604052809291908181526020018280546001816001161561010002031660029004801561231b5780601f106122f05761010080835404028352916020019161231b565b820191906000526020600020905b8154815290600101906020018083116122fe57829003601f168201915b50505050508152602001600182018054600181600116156101000203166002900480601f0160208091040260200160405190810160405280929190818152602001828054600181600116156101000203166002900480156123bd5780601f10612392576101008083540402835291602001916123bd565b820191906000526020600020905b8154815290600101906020018083116123a057829003601f168201915b50505050508152602001600282015481526020016003820180548060200260200160405190810160405280929190818152602001828054801561241f57602002820191906000526020600020905b81548152602001906001019080831161240b575b50505050508152602001600482018054600181600116156101000203166002900480601f0160208091040260200160405190810160405280929190818152602001828054600181600116156101000203166002900480156124c15780601f10612496576101008083540402835291602001916124c1565b820191906000526020600020905b8154815290600101906020018083116124a457829003601f168201915b50505050508152602001600582018054600181600116156101000203166002900480601f0160208091040260200160405190810160405280929190818152602001828054600181600116156101000203166002900480156125635780601f1061253857610100808354040283529160200191612563565b820191906000526020600020905b81548152906001019060200180831161254657829003601f168201915b505050505081525050905060606040518060200160405280600081525090506126276040518060400160405280600281526020017f3b20000000000000000000000000000000000000000000000000000000000000815250612619846000015161260b6040518060400160405280600781526020017f5469746c653a200000000000000000000000000000000000000000000000000081525086612e7990919063ffffffff16565b612e7990919063ffffffff16565b612e7990919063ffffffff16565b90506126ce6040518060400160405280600281526020017f3b200000000000000000000000000000000000000000000000000000000000008152506126c084602001516126b26040518060400160405280600d81526020017f4465736372697074696f6e3a200000000000000000000000000000000000000081525086612e7990919063ffffffff16565b612e7990919063ffffffff16565b612e7990919063ffffffff16565b90506128206040518060400160405280600281526020017f3b2000000000000000000000000000000000000000000000000000000000000081525061281260096000866040015181526020019081526020016000208054600181600116156101000203166002900480601f0160208091040260200160405190810160405280929190818152602001828054600181600116156101000203166002900480156127b75780601f1061278c576101008083540402835291602001916127b7565b820191906000526020600020905b81548152906001019060200180831161279a57829003601f168201915b50505050506128046040518060400160405280600a81526020017f43617465676f72793a200000000000000000000000000000000000000000000081525086612e7990919063ffffffff16565b612e7990919063ffffffff16565b612e7990919063ffffffff16565b905061286a6040518060400160405280600681526020017f546167733a20000000000000000000000000000000000000000000000000000081525082612e7990919063ffffffff16565b905060008090505b8260600151518160ff1610156129b657600083606001518260ff168151811061289757fe5b602002602001015190506129a66040518060400160405280600181526020017f2c00000000000000000000000000000000000000000000000000000000000000815250612998600b60008581526020019081526020016000208054600181600116156101000203166002900480601f0160208091040260200160405190810160405280929190818152602001828054600181600116156101000203166002900480156129845780601f1061295957610100808354040283529160200191612984565b820191906000526020600020905b81548152906001019060200180831161296757829003601f168201915b505050505086612e7990919063ffffffff16565b612e7990919063ffffffff16565b9250508080600101915050612872565b506129ff6040518060400160405280600281526020017f3b2000000000000000000000000000000000000000000000000000000000000081525082612e7990919063ffffffff16565b9050612aa66040518060400160405280600281526020017f3b20000000000000000000000000000000000000000000000000000000000000815250612a988460800151612a8a6040518060400160405280600e81526020017f4461746520557064617465643a2000000000000000000000000000000000000081525086612e7990919063ffffffff16565b612e7990919063ffffffff16565b612e7990919063ffffffff16565b9050612b068260a00151612af86040518060400160405280600781526020017f4f776e65723a200000000000000000000000000000000000000000000000000081525084612e7990919063ffffffff16565b612e7990919063ffffffff16565b90508092505050919050565b6000806001811115612b2057fe5b6000809054906101000a900473ffffffffffffffffffffffffffffffffffffffff1673ffffffffffffffffffffffffffffffffffffffff16639026dee8336040518263ffffffff1660e01b8152600401808273ffffffffffffffffffffffffffffffffffffffff1673ffffffffffffffffffffffffffffffffffffffff16815260200191505060206040518083038186803b158015612bbe57600080fd5b505afa158015612bd2573d6000803e3d6000fd5b505050506040513d6020811015612be857600080fd5b81019080805190602001909291905050506001811115612c0457fe5b14612c77576040517f08c379a000000000000000000000000000000000000000000000000000000000815260040180806020018281038252600a8152602001807f41646d696e206f6e6c790000000000000000000000000000000000000000000081525060200191505060405180910390fd5b600460008154809291906001019190505550600454600a836040518082805190602001908083835b60208310612cc25780518252602082019150602081019050602083039250612c9f565b6001836020036101000a03801982511681845116808217855250505050505090500191505090815260200160405180910390208190555081600b600060045481526020019081526020016000209080519060200190612d22929190612fc8565b507fe6d63b97226ddfb2eeef7c01b1ef846de8d93c79db9013ddafab52fe3f4a2fab826040518080602001828103825283818151815260200191508051906020019080838360005b83811015612d85578082015181840152602081019050612d6a565b50505050905090810190601f168015612db25780820380516001836020036101000a031916815260200191505b509250505060405180910390a1919050565b6060600760008381526020019081526020016000208054600181600116156101000203166002900480601f016020809104026020016040519081016040528092919081815260200182805460018160011615610100020316600290048015612e6d5780601f10612e4257610100808354040283529160200191612e6d565b820191906000526020600020905b815481529060010190602001808311612e5057829003601f168201915b50505050509050919050565b60608083905060608390506000815111612e8f57fe5b606081518351016040519080825280601f01601f191660200182016040528015612ec85781602001600182028038833980820191505090505b5090506060819050600080600091505b8551821015612f4657858281518110612eed57fe5b602001015160f81c60f81b838280600101935081518110612f0a57fe5b60200101907effffffffffffffffffffffffffffffffffffffffffffffffffffffffffffff1916908160001a9053508180600101925050612ed8565b600091505b8451821015612fb957848281518110612f6057fe5b602001015160f81c60f81b838280600101935081518110612f7d57fe5b60200101907effffffffffffffffffffffffffffffffffffffffffffffffffffffffffffff1916908160001a9053508180600101925050612f4b565b82965050505050505092915050565b828054600181600116156101000203166002900490600052602060002090601f016020900481019282601f1061300957805160ff1916838001178555613037565b82800160010185558215613037579182015b8281111561303657825182559160200191906001019061301b565b5b509050613044919061316c565b5090565b5080546000825590600052602060002090810190613066919061316c565b50565b6040518060c001604052806060815260200160608152602001600081526020016060815260200160608152602001606081525090565b828054600181600116156101000203166002900490600052602060002090601f016020900481019282601f106130e057805160ff191683800117855561310e565b8280016001018555821561310e579182015b8281111561310d5782518255916020019190600101906130f2565b5b50905061311b919061316c565b5090565b82805482825590600052602060002090810192821561315b579160200282015b8281111561315a57825182559160200191906001019061313f565b5b509050613168919061316c565b5090565b61318e91905b8082111561318a576000816000905550600101613172565b5090565b9056fe4174206c65617374206f6e6520746167206973206e656564656420746f207365617263685065726d697373696f6e20726571756972656420746f20616464206d65746164617461a265627a7a7231582005a15721e78ebbf23a3203057efeef096ebaaf1b7b89e66e9cf2f5496080769e64736f6c63430005110032",
  "source": "pragma solidity ^0.5.0;\r\n\r\nimport \"./Strings.sol\";\r\nimport \"./User.sol\";\r\nimport \"./Role.sol\";\r\n\r\ncontract Metadata {\r\n    using Strings for string;\r\n    User userContract;\r\n    Role roleContract;\r\n\r\n    constructor(User userAddress, Role roleAddress) public {\r\n        userContract = userAddress;\r\n        roleContract = roleAddress;\r\n    }\r\n\r\n    struct metadata {\r\n        string title;\r\n        string desc;\r\n        uint256 category;\r\n        uint256 [] _tags;\r\n        string dateUpdated;\r\n        string owner;\r\n    }\r\n    uint256 numOfDatasets = 0;\r\n    uint256 numOfCategories = 0;\r\n    uint256 numOfTags = 0;\r\n    //maps dataset name to metadata\r\n    mapping(string => metadata) metadatas;\r\n    //maps name to id\r\n    mapping(string => uint256) nameToID;\r\n    //maps id to name\r\n    mapping(uint256 => string) idToName;\r\n    //maps name to category\r\n    mapping(string => uint256) catToID;\r\n    //maps category to name\r\n    mapping(uint256 => string) idToCat;\r\n    //maps tag to id\r\n    mapping(string => uint256) tagToID;\r\n    //maps id to tag\r\n    mapping(uint256 => string) idToTag;\r\n    //Maps by category only\r\n    mapping(uint256 => uint256 []) catList;\r\n    //Maps by tag only\r\n    mapping(uint256 => uint256 []) tagList;\r\n    //Maps by category then tag\r\n    mapping(uint256 => mapping(uint256 => uint256 [])) searchList;\r\n    //Mapping of category/tag/both to dataset id to index\r\n    mapping(string => mapping(uint256 => uint256)) indexes;\r\n    //mapping for search functions\r\n    mapping(uint8 => uint256 []) searchResults;\r\n\r\n    event metadataAdded(string name, string title, string desc, uint256 category, uint256 [] tags, string dateUpdated, string owner);\r\n    event searchResult(uint256 [] result);\r\n    event categoryAdded(string name);\r\n    event tagAdded(string name);\r\n\r\n    function addCategory(string memory category) public returns (uint256) {\r\n        //Admin only\r\n        require(userContract.checkAdmin(msg.sender) == User.adminState.isAdmin, \"Admin only\");\r\n        numOfCategories++;\r\n        catToID[category] = numOfCategories;\r\n        idToCat[numOfCategories] = category;\r\n        emit categoryAdded(category);\r\n    }\r\n\r\n    function addTag(string memory tag) public returns (uint256) {\r\n        //Admin only\r\n        require(userContract.checkAdmin(msg.sender) == User.adminState.isAdmin, \"Admin only\");\r\n        numOfTags++;\r\n        tagToID[tag] = numOfTags;\r\n        idToTag[numOfTags] = tag;\r\n        emit tagAdded(tag);\r\n    }\r\n\r\n    function getCategoryID(string memory category) public view returns (uint256) {\r\n        return catToID[category];\r\n    }\r\n\r\n    function getTagID(string memory tag) public view returns (uint256) {\r\n        return tagToID[tag];\r\n    }\r\n\r\n    function getMetadataName(uint256 id) public view returns (string memory) {\r\n        return idToName[id];\r\n    }\r\n\r\n    //Overwrites current metadata for the dataset\r\n    function addMetadata(string memory name, string memory title, string memory desc, uint256 category, uint256 [] memory tags, string memory dateUpdated, string memory owner, uint256 permissionID) public {\r\n        require(roleContract.checkUserPermission(msg.sender, permissionID), \"Permission required to add metadata\");\r\n        require(category <= numOfCategories, \"Invalid Category\");\r\n        bool isNew = false;\r\n        if (nameToID[name] == 0) {\r\n            numOfDatasets++;\r\n            idToName[numOfDatasets] = name;\r\n            nameToID[name] = numOfDatasets;\r\n            isNew = true;\r\n        }\r\n        metadata memory newMetadata = metadata(title, desc, category, tags, dateUpdated, owner);\r\n        metadatas[name] = newMetadata;\r\n        uint256 id = nameToID[name];\r\n        uint256 index;\r\n        string memory cat = idToCat[category];\r\n        if (!isNew) {\r\n            //0 means deleted, index starts from 1 so index - 1 is the actual position\r\n            index = indexes[cat][id];\r\n            catList[category][index - 1] = 0;\r\n        }\r\n        catList[category].push(id);\r\n        index = catList[category].length;\r\n        indexes[cat][id] = index;\r\n        if (tags.length > 0) {\r\n            for (uint8 i = 0; i < tags.length; i++) {\r\n                        uint256 t = tags[i];\r\n                        string memory tagStr = idToTag[t];\r\n                        if (!isNew) {\r\n                            //0 means deleted, index starts from 1 so index - 1 is the actual position\r\n                            index = indexes[tagStr][id];\r\n                            tagList[t][index - 1] = 0;\r\n                            index = indexes[cat.concat(tagStr)][id];\r\n                            searchList[category][t][index - 1] = 0;\r\n                        }\r\n                        tagList[t].push(id);\r\n                        index = tagList[t].length;\r\n                        indexes[tagStr][id] = index;\r\n                        searchList[category][t].push(id);\r\n                        index = searchList[category][t].length;\r\n                        indexes[cat.concat(tagStr)][id] = index;\r\n            }\r\n        }\r\n        emit metadataAdded(name, title, desc, category, tags, dateUpdated, owner);\r\n    }\r\n\r\n    function getMetadata(string memory name) public view returns (string memory) {\r\n        //print metadata\r\n        metadata memory md = metadatas[name];\r\n        string memory toReturn = \"\";\r\n        toReturn = toReturn.concat(\"Title: \").concat(md.title).concat(\"; \");\r\n        toReturn = toReturn.concat(\"Description: \").concat(md.desc).concat(\"; \");\r\n        toReturn = toReturn.concat(\"Category: \").concat(idToCat[md.category]).concat(\"; \");\r\n        toReturn = toReturn.concat(\"Tags: \");\r\n        for (uint8 i = 0; i < md._tags.length; i++) {\r\n            uint256 t = md._tags[i];\r\n            toReturn = toReturn.concat(idToTag[t]).concat(\",\");\r\n        }\r\n        toReturn = toReturn.concat(\"; \");\r\n        toReturn = toReturn.concat(\"Date Updated: \").concat(md.dateUpdated).concat(\"; \");\r\n        toReturn = toReturn.concat(\"Owner: \").concat(md.owner);\r\n        return toReturn;\r\n    }\r\n\r\n    //Search function for metadata, category = 0 means search for tag only.\r\n    function searchByTag(uint256 category, uint256 [] memory tags) public returns (uint256 [] memory) {\r\n        require(category <= numOfCategories, \"Invalid Category\");\r\n        require(tags.length > 0, \"At least one tag is needed to search\");\r\n        delete searchResults[0];\r\n        if (category == 0) {\r\n            for (uint8 i = 0; i < tags.length; i++) {\r\n                uint256 t = tags[i];\r\n                for (uint256 j = 0; j < tagList[t].length; j++) {\r\n                    searchResults[0].push(tagList[t][j]);\r\n                }\r\n            }\r\n        } else {\r\n            for (uint8 i = 0; i < tags.length; i++) {\r\n                uint256 t = tags[i];\r\n                for (uint256 j = 0; j < tagList[t].length; j++) {\r\n                    searchResults[0].push(searchList[category][t][j]);\r\n                }\r\n            }\r\n        }\r\n        emit searchResult(searchResults[0]);\r\n        return searchResults[0];\r\n    }\r\n\r\n    //search by category only\r\n    function searchCat(uint256 category) public returns (uint256 [] memory) {\r\n        require(category > 0, \"Invalid Category\");\r\n        require(category <= numOfCategories, \"Invalid Category\");\r\n        emit searchResult(catList[category]);\r\n        return catList[category];\r\n    }\r\n\r\n}\r\n",
  "sourcePath": "C:\\Users\\chang\\OneDrive - National University of Singapore\\Documents\\IS4302 Code Merge\\is4302_project\\contracts\\Metadata.sol",
  "compiler": {
    "name": "solc",
    "version": "0.5.17+commit.d19bba13.Emscripten.clang"
  },
  "schemaVersion": "3.4.11",
  "updatedAt": "2023-03-27T14:12:37.363Z",
  "networkType": "ethereum",
  "devdoc": {
    "methods": {}
  },
  "userdoc": {
    "methods": {}
  }
}