{
  "contractName": "Permission",
  "abi": [
    {
      "inputs": [
        {
          "internalType": "contract User",
          "name": "users",
          "type": "address"
        }
      ],
      "payable": false,
      "stateMutability": "nonpayable",
      "type": "constructor"
    },
    {
      "constant": true,
      "inputs": [
        {
          "internalType": "uint256",
          "name": "permissionID",
          "type": "uint256"
        }
      ],
      "name": "validPermission",
      "outputs": [],
      "payable": false,
      "stateMutability": "view",
      "type": "function"
    },
    {
      "constant": false,
      "inputs": [
        {
          "internalType": "string",
          "name": "name",
          "type": "string"
        }
      ],
      "name": "createPermission",
      "outputs": [
        {
          "internalType": "uint256",
          "name": "",
          "type": "uint256"
        }
      ],
      "payable": false,
      "stateMutability": "nonpayable",
      "type": "function"
    }
  ],
  "bytecode": "0x6080604052600060015534801561001557600080fd5b506040516104d13803806104d18339818101604052602081101561003857600080fd5b8101908080519060200190929190505050806000806101000a81548173ffffffffffffffffffffffffffffffffffffffff021916908373ffffffffffffffffffffffffffffffffffffffff16021790555050610438806100996000396000f3fe608060405234801561001057600080fd5b50600436106100365760003560e01c8063293a42ed1461003b578063fe64a0d014610069575b600080fd5b6100676004803603602081101561005157600080fd5b8101908080359060200190929190505050610138565b005b6101226004803603602081101561007f57600080fd5b810190808035906020019064010000000081111561009c57600080fd5b8201836020820111156100ae57600080fd5b803590602001918460018302840111640100000000831117156100d057600080fd5b91908080601f016020809104026020016040519081016040528093929190818152602001838380828437600081840152601f19601f8201169050808301925050505050505091929192905050506101b2565b6040518082815260200191505060405180910390f35b60015481106101af576040517f08c379a00000000000000000000000000000000000000000000000000000000081526004018080602001828103825260198152602001807f5065726d697373696f6e20646f6573206e6f742065786973740000000000000081525060200191505060405180910390fd5b50565b6000808251141561022b576040517f08c379a00000000000000000000000000000000000000000000000000000000081526004018080602001828103825260148152602001807f4e616d652063616e6e6f7420626520626c616e6b00000000000000000000000081525060200191505060405180910390fd5b6000809054906101000a900473ffffffffffffffffffffffffffffffffffffffff1673ffffffffffffffffffffffffffffffffffffffff1663cff80797336040518263ffffffff1660e01b8152600401808273ffffffffffffffffffffffffffffffffffffffff1673ffffffffffffffffffffffffffffffffffffffff16815260200191505060006040518083038186803b1580156102c957600080fd5b505afa1580156102dd573d6000803e3d6000fd5b505050506102e961034b565b604051806020016040528084815250905080600260006001548152602001908152602001600020600082015181600001908051906020019061032c92919061035e565b5090505060018060008282540192505081905550600154915050919050565b6040518060200160405280606081525090565b828054600181600116156101000203166002900490600052602060002090601f016020900481019282601f1061039f57805160ff19168380011785556103cd565b828001600101855582156103cd579182015b828111156103cc5782518255916020019190600101906103b1565b5b5090506103da91906103de565b5090565b61040091905b808211156103fc5760008160009055506001016103e4565b5090565b9056fea265627a7a723158200f1b901a0154cc1c17b33100f98e795ec8576a4e6187012f01cb7e69bb1e70cc64736f6c63430005110032",
  "source": "pragma solidity ^0.5.17;\r\nimport \"./User.sol\";\r\n\r\ncontract Permission {\r\n    User userContract;\r\n    uint256 numPermissions = 0;\r\n    mapping(uint256 => permission) permissionsCreated;\r\n\r\n    struct permission{\r\n        string name;\r\n    }\r\n\r\n    constructor(User users) public {\r\n        userContract = users;\r\n    }\r\n\r\n    // Created as a function for use in other contracts\r\n    function validPermission(uint256 permissionID) public view {\r\n        require(permissionID < numPermissions, \"Permission does not exist\");\r\n    }\r\n\r\n    // For creating permissions\r\n    function createPermission(string memory name) public returns(uint256) {\r\n        require(bytes(name).length != 0, \"Name cannot be blank\");\r\n        userContract.adminOnly(msg.sender);\r\n        permission memory perm = permission(name);\r\n        permissionsCreated[numPermissions] = perm;\r\n        numPermissions += 1;\r\n        return numPermissions;\r\n    }\r\n}",
  "sourcePath": "C:\\Users\\chang\\OneDrive - National University of Singapore\\Documents\\IS4302 Code Merge\\is4302_project\\contracts\\Permission.sol",
  "compiler": {
    "name": "solc",
    "version": "0.5.17+commit.d19bba13.Emscripten.clang"
  },
  "schemaVersion": "3.4.11",
  "updatedAt": "2023-03-27T14:12:37.278Z",
  "networkType": "ethereum",
  "devdoc": {
    "methods": {}
  },
  "userdoc": {
    "methods": {}
  }
}