{
  "contractName": "Permission",
  "abi": [
    {
      "inputs": [
        {
          "internalType": "contract User",
          "name": "users",
          "type": "address"
        }
      ],
      "payable": false,
      "stateMutability": "nonpayable",
      "type": "constructor"
    },
    {
      "constant": true,
      "inputs": [
        {
          "internalType": "uint256",
          "name": "permissionID",
          "type": "uint256"
        }
      ],
      "name": "validPermission",
      "outputs": [],
      "payable": false,
      "stateMutability": "view",
      "type": "function"
    },
    {
      "constant": false,
      "inputs": [
        {
          "internalType": "string",
          "name": "name",
          "type": "string"
        }
      ],
      "name": "createPermission",
      "outputs": [
        {
          "internalType": "uint256",
          "name": "",
          "type": "uint256"
        }
      ],
      "payable": false,
      "stateMutability": "nonpayable",
      "type": "function"
    },
    {
      "constant": true,
      "inputs": [],
      "name": "getNumPermissions",
      "outputs": [
        {
          "internalType": "uint256",
          "name": "",
          "type": "uint256"
        }
      ],
      "payable": false,
      "stateMutability": "view",
      "type": "function"
    }
  ],
  "bytecode": "0x6080604052600060015534801561001557600080fd5b506040516105063803806105068339818101604052602081101561003857600080fd5b8101908080519060200190929190505050806000806101000a81548173ffffffffffffffffffffffffffffffffffffffff021916908373ffffffffffffffffffffffffffffffffffffffff1602179055505061046d806100996000396000f3fe608060405234801561001057600080fd5b50600436106100415760003560e01c8063293a42ed146100465780636121785c14610074578063fe64a0d014610092575b600080fd5b6100726004803603602081101561005c57600080fd5b8101908080359060200190929190505050610161565b005b61007c6101db565b6040518082815260200191505060405180910390f35b61014b600480360360208110156100a857600080fd5b81019080803590602001906401000000008111156100c557600080fd5b8201836020820111156100d757600080fd5b803590602001918460018302840111640100000000831117156100f957600080fd5b91908080601f016020809104026020016040519081016040528093929190818152602001838380828437600081840152601f19601f8201169050808301925050505050505091929192905050506101e5565b6040518082815260200191505060405180910390f35b60015481106101d8576040517f08c379a00000000000000000000000000000000000000000000000000000000081526004018080602001828103825260198152602001807f5065726d697373696f6e20646f6573206e6f742065786973740000000000000081525060200191505060405180910390fd5b50565b6000600154905090565b6000808251141561025e576040517f08c379a00000000000000000000000000000000000000000000000000000000081526004018080602001828103825260148152602001807f4e616d652063616e6e6f7420626520626c616e6b00000000000000000000000081525060200191505060405180910390fd5b6000809054906101000a900473ffffffffffffffffffffffffffffffffffffffff1673ffffffffffffffffffffffffffffffffffffffff1663cff80797336040518263ffffffff1660e01b8152600401808273ffffffffffffffffffffffffffffffffffffffff1673ffffffffffffffffffffffffffffffffffffffff16815260200191505060006040518083038186803b1580156102fc57600080fd5b505afa158015610310573d6000803e3d6000fd5b5050505061031c610380565b604051806020016040528084815250905080600260006001548152602001908152602001600020600082015181600001908051906020019061035f929190610393565b50905050600180600082825401925050819055506001805403915050919050565b6040518060200160405280606081525090565b828054600181600116156101000203166002900490600052602060002090601f016020900481019282601f106103d457805160ff1916838001178555610402565b82800160010185558215610402579182015b828111156104015782518255916020019190600101906103e6565b5b50905061040f9190610413565b5090565b61043591905b80821115610431576000816000905550600101610419565b5090565b9056fea265627a7a72315820ba6a5875ede133cf636c43c5efab620789ffd5d024e71035a2bf62b6f94c4d2564736f6c63430005110032",
  "source": "pragma solidity ^0.5.17;\r\nimport \"./User.sol\";\r\n\r\ncontract Permission {\r\n    User userContract;\r\n    uint256 numPermissions = 0;\r\n    mapping(uint256 => permission) permissionsCreated;\r\n\r\n    struct permission{\r\n        string name;\r\n    }\r\n\r\n    constructor(User users) public {\r\n        userContract = users;\r\n    }\r\n\r\n    // Created as a function for use in other contracts\r\n    function validPermission(uint256 permissionID) public view {\r\n        require(permissionID < numPermissions, \"Permission does not exist\");\r\n    }\r\n\r\n    // For creating permissions\r\n    function createPermission(string memory name) public returns(uint256) {\r\n        require(bytes(name).length != 0, \"Name cannot be blank\");\r\n        userContract.adminOnly(msg.sender);\r\n        permission memory perm = permission(name);\r\n        permissionsCreated[numPermissions] = perm;\r\n        numPermissions += 1;\r\n        return numPermissions - 1; // in order to return the id of the created permission\r\n    }\r\n\r\n    function getNumPermissions() public view returns(uint256) {\r\n        return numPermissions;\r\n    }\r\n}",
  "sourcePath": "C:\\Users\\Anthony Cheang\\Desktop\\University Stuff\\Academics\\Y3S1\\IS4302\\Submissions\\Grp Proj\\Merging_Branch\\is4302_grp19\\is4302_project\\contracts\\Permission.sol",
  "compiler": {
    "name": "solc",
    "version": "0.5.17+commit.d19bba13.Emscripten.clang"
  },
  "schemaVersion": "3.4.11",
  "updatedAt": "2023-04-06T01:16:22.238Z",
  "devdoc": {
    "methods": {}
  },
  "userdoc": {
    "methods": {}
  }
}