{
  "contractName": "Pointer",
  "abi": [
    {
      "constant": false,
      "inputs": [
        {
          "internalType": "string",
          "name": "name",
          "type": "string"
        }
      ],
      "name": "addPointer",
      "outputs": [],
      "payable": false,
      "stateMutability": "nonpayable",
      "type": "function"
    },
    {
      "constant": true,
      "inputs": [
        {
          "internalType": "uint256",
          "name": "id",
          "type": "uint256"
        }
      ],
      "name": "getName",
      "outputs": [
        {
          "internalType": "string",
          "name": "",
          "type": "string"
        }
      ],
      "payable": false,
      "stateMutability": "view",
      "type": "function"
    }
  ],
  "bytecode": "0x6080604052600060015534801561001557600080fd5b50610386806100256000396000f3fe608060405234801561001057600080fd5b50600436106100365760003560e01c80636b8ff5741461003b578063f5252299146100e2575b600080fd5b6100676004803603602081101561005157600080fd5b810190808035906020019092919050505061019d565b6040518080602001828103825283818151815260200191508051906020019080838360005b838110156100a757808201518184015260208101905061008c565b50505050905090810190601f1680156100d45780820380516001836020036101000a031916815260200191505b509250505060405180910390f35b61019b600480360360208110156100f857600080fd5b810190808035906020019064010000000081111561011557600080fd5b82018360208201111561012757600080fd5b8035906020019184600183028401116401000000008311171561014957600080fd5b91908080601f016020809104026020016040519081016040528093929190818152602001838380828437600081840152601f19601f820116905080830192505050505050509192919290505050610254565b005b60606000808381526020019081526020016000206000018054600181600116156101000203166002900480601f0160208091040260200160405190810160405280929190818152602001828054600181600116156101000203166002900480156102485780601f1061021d57610100808354040283529160200191610248565b820191906000526020600020905b81548152906001019060200180831161022b57829003601f168201915b50505050509050919050565b604051806020016040528082815250600080600154815260200190815260200160002060008201518160000190805190602001906102939291906102ac565b5090505060016000815480929190600101919050555050565b828054600181600116156101000203166002900490600052602060002090601f016020900481019282601f106102ed57805160ff191683800117855561031b565b8280016001018555821561031b579182015b8281111561031a5782518255916020019190600101906102ff565b5b509050610328919061032c565b5090565b61034e91905b8082111561034a576000816000905550600101610332565b5090565b9056fea265627a7a723158200bc7df1caaf90de53d39ffb1f66350b662d4505c6951afe229c89d3d662d25e264736f6c63430005110032",
  "source": "pragma solidity ^0.5.0;\r\n\r\ncontract Pointer {\r\n    //This is a dummy contract to simulate an actual pointer.\r\n    struct pointer {\r\n        string name;\r\n    }\r\n\r\n    mapping(uint256 => pointer) points;\r\n    uint256 numOfPointers = 0;\r\n\r\n    function addPointer(string memory name) public {\r\n        points[numOfPointers] = pointer(name);\r\n        numOfPointers++;\r\n    }\r\n\r\n    function getName(uint256 id) public view returns(string memory) {\r\n        return points[id].name;\r\n    }\r\n}",
  "sourcePath": "C:\\Users\\chang\\OneDrive - National University of Singapore\\Documents\\IS4302 Code Merge\\is4302_project\\contracts\\Pointer.sol",
  "compiler": {
    "name": "solc",
    "version": "0.5.17+commit.d19bba13.Emscripten.clang"
  },
  "schemaVersion": "3.4.11",
  "updatedAt": "2023-03-27T14:12:37.351Z",
  "networkType": "ethereum",
  "devdoc": {
    "methods": {}
  },
  "userdoc": {
    "methods": {}
  }
}