{
  "contractName": "QueueSystem",
  "abi": [
    {
      "inputs": [
        {
          "internalType": "contract DataLineage",
          "name": "_dataLineage",
          "type": "address"
        },
        {
          "internalType": "contract User",
          "name": "_user",
          "type": "address"
        }
      ],
      "payable": false,
      "stateMutability": "nonpayable",
      "type": "constructor"
    },
    {
      "constant": true,
      "inputs": [],
      "name": "PQdata",
      "outputs": [
        {
          "internalType": "uint256",
          "name": "idCount",
          "type": "uint256"
        }
      ],
      "payable": false,
      "stateMutability": "view",
      "type": "function"
    },
    {
      "constant": false,
      "inputs": [
        {
          "internalType": "string",
          "name": "_new_id",
          "type": "string"
        },
        {
          "internalType": "string",
          "name": "_pointer",
          "type": "string"
        },
        {
          "internalType": "string",
          "name": "_query",
          "type": "string"
        },
        {
          "internalType": "string",
          "name": "_parent",
          "type": "string"
        },
        {
          "internalType": "uint256",
          "name": "_numTokens",
          "type": "uint256"
        },
        {
          "internalType": "address",
          "name": "_reqSender",
          "type": "address"
        },
        {
          "internalType": "bool",
          "name": "_isPermChange",
          "type": "bool"
        }
      ],
      "name": "createRequestEnqueue",
      "outputs": [],
      "payable": false,
      "stateMutability": "nonpayable",
      "type": "function"
    },
    {
      "constant": false,
      "inputs": [
        {
          "internalType": "uint256",
          "name": "requestId",
          "type": "uint256"
        }
      ],
      "name": "withdraw",
      "outputs": [],
      "payable": false,
      "stateMutability": "nonpayable",
      "type": "function"
    },
    {
      "constant": false,
      "inputs": [],
      "name": "pop",
      "outputs": [],
      "payable": false,
      "stateMutability": "nonpayable",
      "type": "function"
    },
    {
      "constant": true,
      "inputs": [],
      "name": "getQueueLength",
      "outputs": [
        {
          "internalType": "uint256",
          "name": "",
          "type": "uint256"
        }
      ],
      "payable": false,
      "stateMutability": "view",
      "type": "function"
    },
    {
      "constant": false,
      "inputs": [
        {
          "internalType": "uint256",
          "name": "requestId",
          "type": "uint256"
        }
      ],
      "name": "deleteRecords",
      "outputs": [],
      "payable": false,
      "stateMutability": "nonpayable",
      "type": "function"
    }
  ],
  "bytecode": "0x6080604052600060045534801561001557600080fd5b506040516118913803806118918339818101604052604081101561003857600080fd5b81019080805190602001909291908051906020019092919050505033600360006101000a81548173ffffffffffffffffffffffffffffffffffffffff021916908373ffffffffffffffffffffffffffffffffffffffff1602179055506100a8600061013160201b6112361760201c565b81600560006101000a81548173ffffffffffffffffffffffffffffffffffffffff021916908373ffffffffffffffffffffffffffffffffffffffff16021790555080600660006101000a81548173ffffffffffffffffffffffffffffffffffffffff021916908373ffffffffffffffffffffffffffffffffffffffff16021790555050506101a2565b60008160010180549050141561019f578060010160405180604001604052806000815260200160008152509080600181540180825580915050906001820390600052602060002090600202016000909192909190915060008201518160000155602082015181600101555050505b50565b6116e0806101b16000396000f3fe608060405234801561001057600080fd5b50600436106100625760003560e01c80632e1a7d4d146100675780633d244f81146100955780639f627b0c146100c3578063a4ece52c14610379578063b8f7700514610383578063e7ee176c146103a1575b600080fd5b6100936004803603602081101561007d57600080fd5b81019080803590602001909291905050506103bf565b005b6100c1600480360360208110156100ab57600080fd5b8101908080359060200190929190505050610505565b005b610377600480360360e08110156100d957600080fd5b81019080803590602001906401000000008111156100f657600080fd5b82018360208201111561010857600080fd5b8035906020019184600183028401116401000000008311171561012a57600080fd5b91908080601f016020809104026020016040519081016040528093929190818152602001838380828437600081840152601f19601f8201169050808301925050505050505091929192908035906020019064010000000081111561018d57600080fd5b82018360208201111561019f57600080fd5b803590602001918460018302840111640100000000831117156101c157600080fd5b91908080601f016020809104026020016040519081016040528093929190818152602001838380828437600081840152601f19601f8201169050808301925050505050505091929192908035906020019064010000000081111561022457600080fd5b82018360208201111561023657600080fd5b8035906020019184600183028401116401000000008311171561025857600080fd5b91908080601f016020809104026020016040519081016040528093929190818152602001838380828437600081840152601f19601f820116905080830192505050505050509192919290803590602001906401000000008111156102bb57600080fd5b8201836020820111156102cd57600080fd5b803590602001918460018302840111640100000000831117156102ef57600080fd5b91908080601f016020809104026020016040519081016040528093929190818152602001838380828437600081840152601f19601f82011690508083019250505050505050919291929080359060200190929190803573ffffffffffffffffffffffffffffffffffffffff1690602001909291908035151590602001909291905050506105a1565b005b61038161077d565b005b61038b610db3565b6040518082815260200191505060405180910390f35b6103a9610dc4565b6040518082815260200191505060405180910390f35b604051602001806000019050604051602081830303815290604052805190602001206007600083815260200190815260200160002060000160405160200180828054600181600116156101000203166002900480156104555780601f10610433576101008083540402835291820191610455565b820191906000526020600020905b815481529060010190602001808311610441575b50509150506040516020818303038152906040528051906020012014156104e4576040517f08c379a00000000000000000000000000000000000000000000000000000000081526004018080602001828103825260148152602001807f517565727920646f6573206e6f7420657869737400000000000000000000000081525060200191505060405180910390fd5b6104f8816000610dd090919063ffffffff16565b5061050281610dff565b50565b600760008281526020019081526020016000206000808201600061052991906114ee565b60018201600061053991906114ee565b60028201600061054991906114ee565b60038201600061055991906114ee565b60048201600090556005820160006101000a81549073ffffffffffffffffffffffffffffffffffffffff02191690556005820160146101000a81549060ff0219169055505050565b3373ffffffffffffffffffffffffffffffffffffffff16600360009054906101000a900473ffffffffffffffffffffffffffffffffffffffff1673ffffffffffffffffffffffffffffffffffffffff16146105fb57600080fd5b6000610611846000610f2490919063ffffffff16565b60000151905061061f611536565b6040518060e001604052808a81526020018981526020018881526020018781526020018681526020018573ffffffffffffffffffffffffffffffffffffffff16815260200184151581525090508060076000848152602001908152602001600020600082015181600001908051906020019061069c92919061158b565b5060208201518160010190805190602001906106b992919061158b565b5060408201518160020190805190602001906106d692919061158b565b5060608201518160030190805190602001906106f392919061158b565b506080820151816004015560a08201518160050160006101000a81548173ffffffffffffffffffffffffffffffffffffffff021916908373ffffffffffffffffffffffffffffffffffffffff16021790555060c08201518160050160146101000a81548160ff0219169083151502179055509050506107728486610fb3565b505050505050505050565b3373ffffffffffffffffffffffffffffffffffffffff16600360009054906101000a900473ffffffffffffffffffffffffffffffffffffffff1673ffffffffffffffffffffffffffffffffffffffff16146107d757600080fd5b60006107e36000611078565b6000015190506107f1611536565b600760008381526020019081526020016000206040518060e0016040529081600082018054600181600116156101000203166002900480601f0160208091040260200160405190810160405280929190818152602001828054600181600116156101000203166002900480156108a85780601f1061087d576101008083540402835291602001916108a8565b820191906000526020600020905b81548152906001019060200180831161088b57829003601f168201915b50505050508152602001600182018054600181600116156101000203166002900480601f01602080910402602001604051908101604052809291908181526020018280546001816001161561010002031660029004801561094a5780601f1061091f5761010080835404028352916020019161094a565b820191906000526020600020905b81548152906001019060200180831161092d57829003601f168201915b50505050508152602001600282018054600181600116156101000203166002900480601f0160208091040260200160405190810160405280929190818152602001828054600181600116156101000203166002900480156109ec5780601f106109c1576101008083540402835291602001916109ec565b820191906000526020600020905b8154815290600101906020018083116109cf57829003601f168201915b50505050508152602001600382018054600181600116156101000203166002900480601f016020809104026020016040519081016040528092919081815260200182805460018160011615610100020316600290048015610a8e5780601f10610a6357610100808354040283529160200191610a8e565b820191906000526020600020905b815481529060010190602001808311610a7157829003601f168201915b50505050508152602001600482015481526020016005820160009054906101000a900473ffffffffffffffffffffffffffffffffffffffff1673ffffffffffffffffffffffffffffffffffffffff1673ffffffffffffffffffffffffffffffffffffffff1681526020016005820160149054906101000a900460ff161515151581525050905060008160c0015190508015610da557600560009054906101000a900473ffffffffffffffffffffffffffffffffffffffff1673ffffffffffffffffffffffffffffffffffffffff1663e656aa8b836000015184602001518560a00151866040015187606001516040518663ffffffff1660e01b81526004018080602001806020018673ffffffffffffffffffffffffffffffffffffffff1673ffffffffffffffffffffffffffffffffffffffff168152602001806020018060200185810385528a818151815260200191508051906020019080838360005b83811015610c07578082015181840152602081019050610bec565b50505050905090810190601f168015610c345780820380516001836020036101000a031916815260200191505b50858103845289818151815260200191508051906020019080838360005b83811015610c6d578082015181840152602081019050610c52565b50505050905090810190601f168015610c9a5780820380516001836020036101000a031916815260200191505b50858103835287818151815260200191508051906020019080838360005b83811015610cd3578082015181840152602081019050610cb8565b50505050905090810190601f168015610d005780820380516001836020036101000a031916815260200191505b50858103825286818151815260200191508051906020019080838360005b83811015610d39578082015181840152602081019050610d1e565b50505050905090810190601f168015610d665780820380516001836020036101000a031916815260200191505b509950505050505050505050600060405180830381600087803b158015610d8c57600080fd5b505af1158015610da0573d6000803e3d6000fd5b505050505b610dae83610505565b505050565b6000610dbf6000611092565b905090565b60008060000154905081565b610dd861160b565b610df783846002016000858152602001908152602001600020546110bc565b905092915050565b60006007600083815260200190815260200160002060050160009054906101000a900473ffffffffffffffffffffffffffffffffffffffff169050600060076000848152602001908152602001600020600401549050600660009054906101000a900473ffffffffffffffffffffffffffffffffffffffff1673ffffffffffffffffffffffffffffffffffffffff166368dc952883836040518363ffffffff1660e01b8152600401808373ffffffffffffffffffffffffffffffffffffffff1673ffffffffffffffffffffffffffffffffffffffff16815260200182815260200192505050600060405180830381600087803b158015610efe57600080fd5b505af1158015610f12573d6000803e3d6000fd5b50505050610f1f83610505565b505050565b610f2c61160b565b600083600101805490501415610f4657610f4583611236565b5b8260000160008154809291906001019190505550826001018054809190600101610f709190611625565b50610f7961160b565b604051806040016040528085600001548152602001848152509050610fa9848260018760010180549050036112a7565b8091505092915050565b600660009054906101000a900473ffffffffffffffffffffffffffffffffffffffff1673ffffffffffffffffffffffffffffffffffffffff1663b126d0e983836040518363ffffffff1660e01b8152600401808373ffffffffffffffffffffffffffffffffffffffff1673ffffffffffffffffffffffffffffffffffffffff16815260200182815260200192505050600060405180830381600087803b15801561105c57600080fd5b505af1158015611070573d6000803e3d6000fd5b505050505050565b61108061160b565b61108b8260016110bc565b9050919050565b6000808260010180549050116110a95760006110b5565b60018260010180549050035b9050919050565b6110c461160b565b8183600101805490501115806110db575060008211155b156110fe5760405180604001604052806000815260200160008152509050611230565b61110661160b565b83600101838154811061111557fe5b9060005260206000209060020201604051806040016040529081600082015481526020016001820154815250509050836002016000826000015181526020019081526020016000206000905561116961160b565b8460010160018660010180549050038154811061118257fe5b9060005260206000209060020201604051806040016040529081600082015481526020016001820154815250509050846001018054809190600190036111c89190611625565b50846001018054905084101561122a576111e38582866112a7565b611229858660010186815481106111f657fe5b90600052602060002090600202016040518060400160405290816000820154815260200160018201548152505086611364565b5b81925050505b92915050565b6000816001018054905014156112a4578060010160405180604001604052806000815260200160008152509080600181540180825580915050906001820390600052602060002090600202016000909192909190915060008201518160000155602082015181600101555050505b50565b60018114806112e4575082600101600282816112bf57fe5b04815481106112ca57fe5b906000526020600020906002020160010154826020015111155b156112f9576112f4838383611496565b61135f565b61134983846001016002848161130b57fe5b048154811061131657fe5b90600052602060002090600202016040518060400160405290816000820154815260200160018201548152505083611496565b61135e83836002848161135857fe5b046112a7565b5b505050565b600083600101805490509050600060028302905080821161138f5761138a858585611496565b61148f565b61139761160b565b8560010182815481106113a657fe5b9060005260206000209060020201604051806040016040529081600082015481526020016001820154815250509050600182018311801561140d575080602001518660010160018401815481106113f957fe5b906000526020600020906002020160010154115b156114575785600101826001019250828154811061142757fe5b90600052602060002090600202016040518060400160405290816000820154815260200160018201548152505090505b846020015181602001511161147657611471868686611496565b61148d565b611481868286611496565b61148c868684611364565b5b505b5050505050565b818360010182815481106114a657fe5b90600052602060002090600202016000820151816000015560208201518160010155905050808360020160008460000151815260200190815260200160002081905550505050565b50805460018160011615610100020316600290046000825580601f106115145750611533565b601f0160209004906000526020600020908101906115329190611657565b5b50565b6040518060e001604052806060815260200160608152602001606081526020016060815260200160008152602001600073ffffffffffffffffffffffffffffffffffffffff1681526020016000151581525090565b828054600181600116156101000203166002900490600052602060002090601f016020900481019282601f106115cc57805160ff19168380011785556115fa565b828001600101855582156115fa579182015b828111156115f95782518255916020019190600101906115de565b5b5090506116079190611657565b5090565b604051806040016040528060008152602001600081525090565b81548183558181111561165257600202816002028360005260206000209182019101611651919061167c565b5b505050565b61167991905b8082111561167557600081600090555060010161165d565b5090565b90565b6116a891905b808211156116a457600080820160009055600182016000905550600201611682565b5090565b9056fea265627a7a7231582085a3b453024b0756954d97ba3d83e113172b8c4d0b59f9a4fc50eec115b3785664736f6c63430005110032",
  "source": "pragma solidity ^0.5.0;\r\n\r\n// Self-Abstraction\r\nimport \"./PriorityQueue.sol\";\r\n\r\n// Upstream\r\nimport \"./User.sol\";\r\nimport \"./Pointer.sol\";\r\n\r\n// Downstream \r\nimport \"./DataLineage.sol\";\r\n\r\n\r\ncontract QueueSystem {\r\n    using PriorityQueue for PriorityQueue.Data;\r\n    PriorityQueue.Data public PQdata; \r\n\r\n    // will be admin when deployed\r\n    address owner;   \r\n\r\n    // number of querys every in queue (incl deleted ones) to prevent Overridding when popped\r\n    uint256 numQueue = 0; \r\n\r\n    DataLineage DLContract;\r\n    User UserContract;\r\n\r\n    // include the address of the admin in the constructor \r\n    constructor(DataLineage _dataLineage, User _user) public {\r\n        owner = msg.sender;\r\n        PQdata.init();\r\n        DLContract = _dataLineage;\r\n        UserContract = _user;\r\n    }\r\n\r\n    struct Request {\r\n        string new_id; // dataset ID\r\n        string pointer;\r\n        string query;\r\n        string parent;\r\n        uint256 numTokens;\r\n        address reqSender;\r\n        bool isPermChange;\r\n    }\r\n\r\n    // key will be the unique Node ID\r\n    mapping(uint256 => Request) queryIDtoRequest;\r\n\r\n    // only the admin can run the functions\r\n    modifier ownerOnly() {\r\n        require(owner == msg.sender);\r\n        _;\r\n    }\r\n\r\n    // main functions      \r\n    // will be called by QueryDataset after validation\r\n    // number of tokens will be manually inputted by user (msg.value)\r\n    // note: no way to obtain position in queue because heap is unsorted\r\n    function createRequestEnqueue(string memory _new_id, string memory _pointer, string memory _query, string memory _parent, uint256 _numTokens, address _reqSender, bool _isPermChange) public ownerOnly() {\r\n        // queue insertion returns a node\r\n        uint256 numberInQueue = PQdata.insert(_numTokens).id; \r\n        Request memory request = Request(_new_id,_pointer, _query, _parent, _numTokens, _reqSender, _isPermChange);\r\n\r\n        // key: nodeID, value: request\r\n        queryIDtoRequest[numberInQueue] = request;\r\n        \r\n        // take payment from user -- checking that token balance is valid done in QueryDataset\r\n        acceptPayment(_reqSender, _numTokens);\r\n    }  \r\n\r\n\r\n    // Token functions -- only applicable to PQ\r\n    function acceptPayment(address reqSender, uint256 numTokens) private {\r\n        UserContract.deductTokens(reqSender, numTokens);\r\n    }\r\n\r\n    function returnPayment(uint256 requestId) private {\r\n        // return tokens to user \r\n        address reciepient = queryIDtoRequest[requestId].reqSender;\r\n        uint256 payment = queryIDtoRequest[requestId].numTokens;\r\n        UserContract.giveTokens(reciepient, payment);\r\n\r\n        // remove from mapping\r\n        deleteRecords(requestId);\r\n        \r\n    }\r\n\r\n    // Queue Functions\r\n    function withdraw(uint requestId) public {\r\n        require(keccak256(abi.encodePacked(queryIDtoRequest[requestId].new_id)) != keccak256(abi.encodePacked(\"\")), \"Query does not exist\");\r\n        // remove from queue\r\n        PQdata.extractById(requestId);\r\n        // return tokens to user and delete from Queue memory\r\n        returnPayment(requestId);\r\n    }\r\n\r\n    // PQ will be run manually -- every pop will be clicked by the admin to release the next task\r\n    // require only admin can pop\r\n    function pop() public ownerOnly() {\r\n        uint256 popped = PQdata.extractMax().id ; \r\n        Request memory request = queryIDtoRequest[popped];\r\n\r\n        // check if query belongs to a permernant change. if True, pass to data lineage, else do nothing\r\n        bool isPermChange = request.isPermChange;\r\n        if (isPermChange) {\r\n            DLContract.changeExistingDataset(request.new_id, request.pointer, request.reqSender, request.query, request.parent);\r\n        }\r\n\r\n        // remove from Request mappings\r\n        deleteRecords(popped);\r\n    }\r\n\r\n    // Getters\r\n    function getQueueLength() public view returns (uint256) {\r\n        return PQdata.size();\r\n    }\r\n\r\n    // returns the next stage of pipeline by calling checkQuery\r\n    // delete from all mappings once request is passed (if permentant change)\r\n    function deleteRecords(uint256 requestId) public {\r\n        delete queryIDtoRequest[requestId];\r\n    }\r\n}",
  "sourcePath": "C:\\Users\\chang\\OneDrive - National University of Singapore\\Documents\\IS4302 Code Merge\\is4302_project\\contracts\\QueueSystem.sol",
  "compiler": {
    "name": "solc",
    "version": "0.5.17+commit.d19bba13.Emscripten.clang"
  },
  "schemaVersion": "3.4.11",
  "updatedAt": "2023-03-27T14:12:37.384Z",
  "networkType": "ethereum",
  "devdoc": {
    "methods": {}
  },
  "userdoc": {
    "methods": {}
  }
}