{
  "contractName": "QueueSystem",
  "abi": [
    {
      "inputs": [
        {
          "internalType": "contract DataLineage",
          "name": "_dataLineage",
          "type": "address"
        },
        {
          "internalType": "contract User",
          "name": "_user",
          "type": "address"
        }
      ],
      "payable": false,
      "stateMutability": "nonpayable",
      "type": "constructor"
    },
    {
      "anonymous": false,
      "inputs": [
        {
          "indexed": false,
          "internalType": "string",
          "name": "query",
          "type": "string"
        }
      ],
      "name": "queryExecuted",
      "type": "event"
    },
    {
      "constant": true,
      "inputs": [],
      "name": "PQdata",
      "outputs": [
        {
          "internalType": "uint256",
          "name": "idCount",
          "type": "uint256"
        }
      ],
      "payable": false,
      "stateMutability": "view",
      "type": "function"
    },
    {
      "constant": false,
      "inputs": [
        {
          "internalType": "string",
          "name": "_new_id",
          "type": "string"
        },
        {
          "internalType": "string",
          "name": "_pointer",
          "type": "string"
        },
        {
          "internalType": "string",
          "name": "_query",
          "type": "string"
        },
        {
          "internalType": "string",
          "name": "_parent",
          "type": "string"
        },
        {
          "internalType": "uint256",
          "name": "_numTokens",
          "type": "uint256"
        },
        {
          "internalType": "address",
          "name": "_reqSender",
          "type": "address"
        },
        {
          "internalType": "bool",
          "name": "_isPermChange",
          "type": "bool"
        }
      ],
      "name": "createRequestEnqueue",
      "outputs": [],
      "payable": false,
      "stateMutability": "nonpayable",
      "type": "function"
    },
    {
      "constant": false,
      "inputs": [
        {
          "internalType": "uint256",
          "name": "requestId",
          "type": "uint256"
        }
      ],
      "name": "withdraw",
      "outputs": [],
      "payable": false,
      "stateMutability": "nonpayable",
      "type": "function"
    },
    {
      "constant": false,
      "inputs": [],
      "name": "pop",
      "outputs": [],
      "payable": false,
      "stateMutability": "nonpayable",
      "type": "function"
    },
    {
      "constant": true,
      "inputs": [],
      "name": "getQueueLength",
      "outputs": [
        {
          "internalType": "uint256",
          "name": "",
          "type": "uint256"
        }
      ],
      "payable": false,
      "stateMutability": "view",
      "type": "function"
    },
    {
      "constant": false,
      "inputs": [
        {
          "internalType": "uint256",
          "name": "requestId",
          "type": "uint256"
        }
      ],
      "name": "deleteRecords",
      "outputs": [],
      "payable": false,
      "stateMutability": "nonpayable",
      "type": "function"
    }
  ],
  "bytecode": "0x6080604052600060045534801561001557600080fd5b506040516119eb3803806119eb8339818101604052604081101561003857600080fd5b81019080805190602001909291908051906020019092919050505033600360006101000a81548173ffffffffffffffffffffffffffffffffffffffff021916908373ffffffffffffffffffffffffffffffffffffffff1602179055506100a8600061013160201b6113901760201c565b81600560006101000a81548173ffffffffffffffffffffffffffffffffffffffff021916908373ffffffffffffffffffffffffffffffffffffffff16021790555080600660006101000a81548173ffffffffffffffffffffffffffffffffffffffff021916908373ffffffffffffffffffffffffffffffffffffffff16021790555050506101a2565b60008160010180549050141561019f578060010160405180604001604052806000815260200160008152509080600181540180825580915050906001820390600052602060002090600202016000909192909190915060008201518160000155602082015181600101555050505b50565b61183a806101b16000396000f3fe608060405234801561001057600080fd5b50600436106100625760003560e01c80632e1a7d4d146100675780633d244f81146100955780639f627b0c146100c3578063a4ece52c14610379578063b8f7700514610383578063e7ee176c146103a1575b600080fd5b6100936004803603602081101561007d57600080fd5b81019080803590602001909291905050506103bf565b005b6100c1600480360360208110156100ab57600080fd5b8101908080359060200190929190505050610505565b005b610377600480360360e08110156100d957600080fd5b81019080803590602001906401000000008111156100f657600080fd5b82018360208201111561010857600080fd5b8035906020019184600183028401116401000000008311171561012a57600080fd5b91908080601f016020809104026020016040519081016040528093929190818152602001838380828437600081840152601f19601f8201169050808301925050505050505091929192908035906020019064010000000081111561018d57600080fd5b82018360208201111561019f57600080fd5b803590602001918460018302840111640100000000831117156101c157600080fd5b91908080601f016020809104026020016040519081016040528093929190818152602001838380828437600081840152601f19601f8201169050808301925050505050505091929192908035906020019064010000000081111561022457600080fd5b82018360208201111561023657600080fd5b8035906020019184600183028401116401000000008311171561025857600080fd5b91908080601f016020809104026020016040519081016040528093929190818152602001838380828437600081840152601f19601f820116905080830192505050505050509192919290803590602001906401000000008111156102bb57600080fd5b8201836020820111156102cd57600080fd5b803590602001918460018302840111640100000000831117156102ef57600080fd5b91908080601f016020809104026020016040519081016040528093929190818152602001838380828437600081840152601f19601f82011690508083019250505050505050919291929080359060200190929190803573ffffffffffffffffffffffffffffffffffffffff1690602001909291908035151590602001909291905050506105a1565b005b6103816107da565b005b61038b610f0d565b6040518082815260200191505060405180910390f35b6103a9610f1e565b6040518082815260200191505060405180910390f35b604051602001806000019050604051602081830303815290604052805190602001206007600083815260200190815260200160002060000160405160200180828054600181600116156101000203166002900480156104555780601f10610433576101008083540402835291820191610455565b820191906000526020600020905b815481529060010190602001808311610441575b50509150506040516020818303038152906040528051906020012014156104e4576040517f08c379a00000000000000000000000000000000000000000000000000000000081526004018080602001828103825260148152602001807f517565727920646f6573206e6f7420657869737400000000000000000000000081525060200191505060405180910390fd5b6104f8816000610f2a90919063ffffffff16565b5061050281610f59565b50565b60076000828152602001908152602001600020600080820160006105299190611648565b6001820160006105399190611648565b6002820160006105499190611648565b6003820160006105599190611648565b60048201600090556005820160006101000a81549073ffffffffffffffffffffffffffffffffffffffff02191690556005820160146101000a81549060ff0219169055505050565b600660009054906101000a900473ffffffffffffffffffffffffffffffffffffffff1673ffffffffffffffffffffffffffffffffffffffff1663cff80797336040518263ffffffff1660e01b8152600401808273ffffffffffffffffffffffffffffffffffffffff1673ffffffffffffffffffffffffffffffffffffffff16815260200191505060006040518083038186803b15801561064057600080fd5b505afa158015610654573d6000803e3d6000fd5b50505050600061066e84600061107e90919063ffffffff16565b60000151905061067c611690565b6040518060e001604052808a81526020018981526020018881526020018781526020018681526020018573ffffffffffffffffffffffffffffffffffffffff1681526020018415158152509050806007600084815260200190815260200160002060008201518160000190805190602001906106f99291906116e5565b5060208201518160010190805190602001906107169291906116e5565b5060408201518160020190805190602001906107339291906116e5565b5060608201518160030190805190602001906107509291906116e5565b506080820151816004015560a08201518160050160006101000a81548173ffffffffffffffffffffffffffffffffffffffff021916908373ffffffffffffffffffffffffffffffffffffffff16021790555060c08201518160050160146101000a81548160ff0219169083151502179055509050506107cf848661110d565b505050505050505050565b600660009054906101000a900473ffffffffffffffffffffffffffffffffffffffff1673ffffffffffffffffffffffffffffffffffffffff1663cff80797336040518263ffffffff1660e01b8152600401808273ffffffffffffffffffffffffffffffffffffffff1673ffffffffffffffffffffffffffffffffffffffff16815260200191505060006040518083038186803b15801561087957600080fd5b505afa15801561088d573d6000803e3d6000fd5b50505050600061089d60006111d2565b6000015190506108ab611690565b600760008381526020019081526020016000206040518060e0016040529081600082018054600181600116156101000203166002900480601f0160208091040260200160405190810160405280929190818152602001828054600181600116156101000203166002900480156109625780601f1061093757610100808354040283529160200191610962565b820191906000526020600020905b81548152906001019060200180831161094557829003601f168201915b50505050508152602001600182018054600181600116156101000203166002900480601f016020809104026020016040519081016040528092919081815260200182805460018160011615610100020316600290048015610a045780601f106109d957610100808354040283529160200191610a04565b820191906000526020600020905b8154815290600101906020018083116109e757829003601f168201915b50505050508152602001600282018054600181600116156101000203166002900480601f016020809104026020016040519081016040528092919081815260200182805460018160011615610100020316600290048015610aa65780601f10610a7b57610100808354040283529160200191610aa6565b820191906000526020600020905b815481529060010190602001808311610a8957829003601f168201915b50505050508152602001600382018054600181600116156101000203166002900480601f016020809104026020016040519081016040528092919081815260200182805460018160011615610100020316600290048015610b485780601f10610b1d57610100808354040283529160200191610b48565b820191906000526020600020905b815481529060010190602001808311610b2b57829003601f168201915b50505050508152602001600482015481526020016005820160009054906101000a900473ffffffffffffffffffffffffffffffffffffffff1673ffffffffffffffffffffffffffffffffffffffff1673ffffffffffffffffffffffffffffffffffffffff1681526020016005820160149054906101000a900460ff161515151581525050905060008160c0015190508015610e5f57600560009054906101000a900473ffffffffffffffffffffffffffffffffffffffff1673ffffffffffffffffffffffffffffffffffffffff1663e656aa8b836000015184602001518560a00151866040015187606001516040518663ffffffff1660e01b81526004018080602001806020018673ffffffffffffffffffffffffffffffffffffffff1673ffffffffffffffffffffffffffffffffffffffff168152602001806020018060200185810385528a818151815260200191508051906020019080838360005b83811015610cc1578082015181840152602081019050610ca6565b50505050905090810190601f168015610cee5780820380516001836020036101000a031916815260200191505b50858103845289818151815260200191508051906020019080838360005b83811015610d27578082015181840152602081019050610d0c565b50505050905090810190601f168015610d545780820380516001836020036101000a031916815260200191505b50858103835287818151815260200191508051906020019080838360005b83811015610d8d578082015181840152602081019050610d72565b50505050905090810190601f168015610dba5780820380516001836020036101000a031916815260200191505b50858103825286818151815260200191508051906020019080838360005b83811015610df3578082015181840152602081019050610dd8565b50505050905090810190601f168015610e205780820380516001836020036101000a031916815260200191505b509950505050505050505050600060405180830381600087803b158015610e4657600080fd5b505af1158015610e5a573d6000803e3d6000fd5b505050505b610e6883610505565b7f59bce6f74735fc9f9ad4091895e94dbe0f546c9e44fd1cdfe23228cd90329bcf82604001516040518080602001828103825283818151815260200191508051906020019080838360005b83811015610ece578082015181840152602081019050610eb3565b50505050905090810190601f168015610efb5780820380516001836020036101000a031916815260200191505b509250505060405180910390a1505050565b6000610f1960006111ec565b905090565b60008060000154905081565b610f32611765565b610f518384600201600085815260200190815260200160002054611216565b905092915050565b60006007600083815260200190815260200160002060050160009054906101000a900473ffffffffffffffffffffffffffffffffffffffff169050600060076000848152602001908152602001600020600401549050600660009054906101000a900473ffffffffffffffffffffffffffffffffffffffff1673ffffffffffffffffffffffffffffffffffffffff166368dc952883836040518363ffffffff1660e01b8152600401808373ffffffffffffffffffffffffffffffffffffffff1673ffffffffffffffffffffffffffffffffffffffff16815260200182815260200192505050600060405180830381600087803b15801561105857600080fd5b505af115801561106c573d6000803e3d6000fd5b5050505061107983610505565b505050565b611086611765565b6000836001018054905014156110a05761109f83611390565b5b82600001600081548092919060010191905055508260010180548091906001016110ca919061177f565b506110d3611765565b60405180604001604052808560000154815260200184815250905061110384826001876001018054905003611401565b8091505092915050565b600660009054906101000a900473ffffffffffffffffffffffffffffffffffffffff1673ffffffffffffffffffffffffffffffffffffffff1663b126d0e983836040518363ffffffff1660e01b8152600401808373ffffffffffffffffffffffffffffffffffffffff1673ffffffffffffffffffffffffffffffffffffffff16815260200182815260200192505050600060405180830381600087803b1580156111b657600080fd5b505af11580156111ca573d6000803e3d6000fd5b505050505050565b6111da611765565b6111e5826001611216565b9050919050565b60008082600101805490501161120357600061120f565b60018260010180549050035b9050919050565b61121e611765565b818360010180549050111580611235575060008211155b15611258576040518060400160405280600081526020016000815250905061138a565b611260611765565b83600101838154811061126f57fe5b906000526020600020906002020160405180604001604052908160008201548152602001600182015481525050905083600201600082600001518152602001908152602001600020600090556112c3611765565b846001016001866001018054905003815481106112dc57fe5b906000526020600020906002020160405180604001604052908160008201548152602001600182015481525050905084600101805480919060019003611322919061177f565b5084600101805490508410156113845761133d858286611401565b6113838586600101868154811061135057fe5b906000526020600020906002020160405180604001604052908160008201548152602001600182015481525050866114be565b5b81925050505b92915050565b6000816001018054905014156113fe578060010160405180604001604052806000815260200160008152509080600181540180825580915050906001820390600052602060002090600202016000909192909190915060008201518160000155602082015181600101555050505b50565b600181148061143e5750826001016002828161141957fe5b048154811061142457fe5b906000526020600020906002020160010154826020015111155b156114535761144e8383836115f0565b6114b9565b6114a383846001016002848161146557fe5b048154811061147057fe5b906000526020600020906002020160405180604001604052908160008201548152602001600182015481525050836115f0565b6114b88383600284816114b257fe5b04611401565b5b505050565b60008360010180549050905060006002830290508082116114e9576114e48585856115f0565b6115e9565b6114f1611765565b85600101828154811061150057fe5b906000526020600020906002020160405180604001604052908160008201548152602001600182015481525050905060018201831180156115675750806020015186600101600184018154811061155357fe5b906000526020600020906002020160010154115b156115b15785600101826001019250828154811061158157fe5b90600052602060002090600202016040518060400160405290816000820154815260200160018201548152505090505b84602001518160200151116115d0576115cb8686866115f0565b6115e7565b6115db8682866115f0565b6115e68686846114be565b5b505b5050505050565b8183600101828154811061160057fe5b90600052602060002090600202016000820151816000015560208201518160010155905050808360020160008460000151815260200190815260200160002081905550505050565b50805460018160011615610100020316600290046000825580601f1061166e575061168d565b601f01602090049060005260206000209081019061168c91906117b1565b5b50565b6040518060e001604052806060815260200160608152602001606081526020016060815260200160008152602001600073ffffffffffffffffffffffffffffffffffffffff1681526020016000151581525090565b828054600181600116156101000203166002900490600052602060002090601f016020900481019282601f1061172657805160ff1916838001178555611754565b82800160010185558215611754579182015b82811115611753578251825591602001919060010190611738565b5b50905061176191906117b1565b5090565b604051806040016040528060008152602001600081525090565b8154818355818111156117ac576002028160020283600052602060002091820191016117ab91906117d6565b5b505050565b6117d391905b808211156117cf5760008160009055506001016117b7565b5090565b90565b61180291905b808211156117fe576000808201600090556001820160009055506002016117dc565b5090565b9056fea265627a7a72315820320ba376fb85f49b15dfbc8ccb218a140ebdac2f4255e88d8c326bc6f4d1cb8664736f6c63430005110032",
  "source": "pragma solidity ^0.5.0;\r\n\r\n// Self-Abstraction\r\nimport \"./PriorityQueue.sol\";\r\n\r\n// Upstream\r\nimport \"./User.sol\";\r\nimport \"./Pointer.sol\";\r\n\r\n// Downstream \r\nimport \"./DataLineage.sol\";\r\n\r\n\r\ncontract QueueSystem {\r\n    using PriorityQueue for PriorityQueue.Data;\r\n    PriorityQueue.Data public PQdata; \r\n\r\n    // will be admin when deployed\r\n    address owner;   \r\n\r\n    // number of querys every in queue (incl deleted ones) to prevent Overridding when popped\r\n    uint256 numQueue = 0; \r\n\r\n    DataLineage DLContract;\r\n    User UserContract;\r\n\r\n    // include the address of the admin in the constructor \r\n    constructor(DataLineage _dataLineage, User _user) public {\r\n        owner = msg.sender;\r\n        PQdata.init();\r\n        DLContract = _dataLineage;\r\n        UserContract = _user;\r\n    }\r\n\r\n    struct Request {\r\n        string new_id; // dataset ID\r\n        string pointer;\r\n        string query;\r\n        string parent;\r\n        uint256 numTokens;\r\n        address reqSender;\r\n        bool isPermChange;\r\n    }\r\n\r\n    // Kwy will be the unique Node ID\r\n    mapping(uint256 => Request) queryIDtoRequest;\r\n\r\n    event queryExecuted(string query);\r\n\r\n    // only the admin can run the functions\r\n    // modifier ownerOnly() {\r\n    //     require(owner == msg.sender);\r\n    //     _;\r\n    // }\r\n\r\n    // main functions      \r\n    // will be called by QueryDataset after validation\r\n    // number of tokens will be manually inputted by user (msg.value)\r\n    // note: no way to obtain position in queue because heap is unsorted\r\n    function createRequestEnqueue(string memory _new_id, string memory _pointer, string memory _query, string memory _parent, uint256 _numTokens, address _reqSender, bool _isPermChange) public {\r\n        UserContract.adminOnly(msg.sender);\r\n        // queue insertion returns a node\r\n        uint256 numberInQueue = PQdata.insert(_numTokens).id; \r\n        Request memory request = Request(_new_id,_pointer, _query, _parent, _numTokens, _reqSender, _isPermChange);\r\n\r\n        // key: nodeID, value: request\r\n        queryIDtoRequest[numberInQueue] = request;\r\n        \r\n        // take payment from user -- checking that token balance is valid done in QueryDataset\r\n        acceptPayment(_reqSender, _numTokens);\r\n    }  \r\n\r\n\r\n    // Token functions -- only applicable to PQ\r\n    function acceptPayment(address reqSender, uint256 numTokens) private {\r\n        UserContract.deductTokens(reqSender, numTokens);\r\n    }\r\n\r\n    function returnPayment(uint256 requestId) private {\r\n        // return tokens to user \r\n        address reciepient = queryIDtoRequest[requestId].reqSender;\r\n        uint256 payment = queryIDtoRequest[requestId].numTokens;\r\n        UserContract.giveTokens(reciepient, payment);\r\n\r\n        // remove from mapping\r\n        deleteRecords(requestId);\r\n        \r\n    }\r\n\r\n    // Queue Functions\r\n    function withdraw(uint requestId) public {\r\n        require(keccak256(abi.encodePacked(queryIDtoRequest[requestId].new_id)) != keccak256(abi.encodePacked(\"\")), \"Query does not exist\");\r\n        // remove from queue\r\n        PQdata.extractById(requestId);\r\n        // return tokens to user and delete from Queue memory\r\n        returnPayment(requestId);\r\n    }\r\n\r\n    // PQ will be run manually -- every pop will be clicked by the admin to release the next task\r\n    // require only admin can pop\r\n    function pop() public {\r\n        UserContract.adminOnly(msg.sender);\r\n        uint256 popped = PQdata.extractMax().id ; \r\n        Request memory request = queryIDtoRequest[popped];\r\n\r\n        // check if query belongs to a permernant change. if True, pass to data lineage, else do nothing\r\n        bool isPermChange = request.isPermChange;\r\n        if (isPermChange) {\r\n            DLContract.changeExistingDataset(request.new_id, request.pointer, request.reqSender, request.query, request.parent);\r\n        }\r\n\r\n        // remove from Request mappings\r\n        deleteRecords(popped);\r\n        emit queryExecuted(request.query);\r\n    }\r\n\r\n    // Getters\r\n    function getQueueLength() public view returns (uint256) {\r\n        return PQdata.size();\r\n    }\r\n\r\n    // returns the next stage of pipeline by calling checkQuery\r\n    // delete from all mappings once request is passed (if permentant change)\r\n    function deleteRecords(uint256 requestId) public {\r\n        delete queryIDtoRequest[requestId];\r\n    }\r\n}",
  "sourcePath": "C:\\Users\\Anthony Cheang\\Desktop\\University Stuff\\Academics\\Y3S1\\IS4302\\Submissions\\Grp Proj\\Merging_Branch\\is4302_grp19\\is4302_project\\contracts\\QueueSystem.sol",
  "compiler": {
    "name": "solc",
    "version": "0.5.17+commit.d19bba13.Emscripten.clang"
  },
  "schemaVersion": "3.4.11",
  "updatedAt": "2023-04-05T04:58:40.311Z",
  "networkType": "ethereum",
  "devdoc": {
    "methods": {}
  },
  "userdoc": {
    "methods": {}
  }
}