{
  "contractName": "RequestApprovalManagement",
  "abi": [
    {
      "inputs": [
        {
          "internalType": "contract User",
          "name": "userAddress",
          "type": "address"
        },
        {
          "internalType": "contract Permission",
          "name": "permissionAddress",
          "type": "address"
        },
        {
          "internalType": "contract Role",
          "name": "roleAddress",
          "type": "address"
        },
        {
          "internalType": "contract DatasetUploader",
          "name": "datasetUploaderAddress",
          "type": "address"
        }
      ],
      "payable": false,
      "stateMutability": "nonpayable",
      "type": "constructor"
    },
    {
      "anonymous": false,
      "inputs": [
        {
          "indexed": false,
          "internalType": "uint256",
          "name": "permissionID",
          "type": "uint256"
        },
        {
          "indexed": false,
          "internalType": "uint256",
          "name": "roleID",
          "type": "uint256"
        }
      ],
      "name": "addExistingDatasetToRolesRequestApproved",
      "type": "event"
    },
    {
      "anonymous": false,
      "inputs": [
        {
          "indexed": false,
          "internalType": "address",
          "name": "userID",
          "type": "address"
        },
        {
          "indexed": false,
          "internalType": "uint256",
          "name": "roleID",
          "type": "uint256"
        }
      ],
      "name": "addUsersToRolesRequestApproved",
      "type": "event"
    },
    {
      "anonymous": false,
      "inputs": [
        {
          "indexed": false,
          "internalType": "string",
          "name": "roleName",
          "type": "string"
        }
      ],
      "name": "createNewRoleRequestApproved",
      "type": "event"
    },
    {
      "anonymous": false,
      "inputs": [
        {
          "indexed": false,
          "internalType": "uint256",
          "name": "requestID",
          "type": "uint256"
        }
      ],
      "name": "rejectRequestEvent",
      "type": "event"
    },
    {
      "anonymous": false,
      "inputs": [
        {
          "indexed": false,
          "internalType": "uint256",
          "name": "permissionID",
          "type": "uint256"
        },
        {
          "indexed": false,
          "internalType": "uint256",
          "name": "roleID",
          "type": "uint256"
        }
      ],
      "name": "removeDatasetFromRolesRequestApproved",
      "type": "event"
    },
    {
      "anonymous": false,
      "inputs": [
        {
          "indexed": false,
          "internalType": "uint256",
          "name": "roleID",
          "type": "uint256"
        },
        {
          "indexed": false,
          "internalType": "address",
          "name": "userID",
          "type": "address"
        }
      ],
      "name": "removeRoleRequestApproved",
      "type": "event"
    },
    {
      "anonymous": false,
      "inputs": [
        {
          "indexed": false,
          "internalType": "address",
          "name": "userID",
          "type": "address"
        },
        {
          "indexed": false,
          "internalType": "uint256",
          "name": "roleID",
          "type": "uint256"
        }
      ],
      "name": "removeUsersFromRolesRequestApproved",
      "type": "event"
    },
    {
      "anonymous": false,
      "inputs": [
        {
          "indexed": false,
          "internalType": "string",
          "name": "datasetIdentifier",
          "type": "string"
        },
        {
          "indexed": false,
          "internalType": "uint256",
          "name": "roleID",
          "type": "uint256"
        },
        {
          "indexed": false,
          "internalType": "string",
          "name": "pointer",
          "type": "string"
        },
        {
          "indexed": false,
          "internalType": "address",
          "name": "requestor",
          "type": "address"
        },
        {
          "indexed": false,
          "internalType": "string",
          "name": "permissionName",
          "type": "string"
        }
      ],
      "name": "uploadDatasetToExistingRoleRequestApproved",
      "type": "event"
    },
    {
      "anonymous": false,
      "inputs": [
        {
          "indexed": false,
          "internalType": "string",
          "name": "datasetIdentifier",
          "type": "string"
        },
        {
          "indexed": false,
          "internalType": "string",
          "name": "roleName",
          "type": "string"
        },
        {
          "indexed": false,
          "internalType": "string",
          "name": "pointer",
          "type": "string"
        },
        {
          "indexed": false,
          "internalType": "address",
          "name": "requestor",
          "type": "address"
        },
        {
          "indexed": false,
          "internalType": "string",
          "name": "permissionName",
          "type": "string"
        }
      ],
      "name": "uploadDatasetToNewRoleRequestApproved",
      "type": "event"
    },
    {
      "constant": true,
      "inputs": [],
      "name": "letters",
      "outputs": [
        {
          "internalType": "string",
          "name": "",
          "type": "string"
        }
      ],
      "payable": false,
      "stateMutability": "view",
      "type": "function"
    },
    {
      "constant": true,
      "inputs": [
        {
          "internalType": "uint256",
          "name": "",
          "type": "uint256"
        }
      ],
      "name": "requestsMapping",
      "outputs": [
        {
          "internalType": "address",
          "name": "requesterAddress",
          "type": "address"
        },
        {
          "internalType": "address",
          "name": "adminAddress",
          "type": "address"
        },
        {
          "internalType": "enum RequestApprovalManagement.statusEnum",
          "name": "requestStatus",
          "type": "uint8"
        },
        {
          "internalType": "enum RequestApprovalManagement.requestTypeEnum",
          "name": "requestType",
          "type": "uint8"
        },
        {
          "internalType": "uint256",
          "name": "creationDateTime",
          "type": "uint256"
        },
        {
          "internalType": "uint256",
          "name": "updatedDateTime",
          "type": "uint256"
        },
        {
          "internalType": "string",
          "name": "roleName",
          "type": "string"
        },
        {
          "internalType": "string",
          "name": "datasetIdentifier",
          "type": "string"
        },
        {
          "internalType": "uint256",
          "name": "roleID",
          "type": "uint256"
        },
        {
          "internalType": "uint256",
          "name": "permissionID",
          "type": "uint256"
        },
        {
          "internalType": "address",
          "name": "userID",
          "type": "address"
        },
        {
          "internalType": "string",
          "name": "permissionName",
          "type": "string"
        }
      ],
      "payable": false,
      "stateMutability": "view",
      "type": "function"
    },
    {
      "constant": false,
      "inputs": [
        {
          "internalType": "uint256",
          "name": "requestID",
          "type": "uint256"
        }
      ],
      "name": "approveRequest",
      "outputs": [],
      "payable": false,
      "stateMutability": "nonpayable",
      "type": "function"
    },
    {
      "constant": false,
      "inputs": [
        {
          "internalType": "uint256",
          "name": "requestID",
          "type": "uint256"
        }
      ],
      "name": "rejectRequest",
      "outputs": [],
      "payable": false,
      "stateMutability": "nonpayable",
      "type": "function"
    },
    {
      "constant": false,
      "inputs": [
        {
          "internalType": "string",
          "name": "roleName",
          "type": "string"
        }
      ],
      "name": "createNewRoleRequest",
      "outputs": [],
      "payable": false,
      "stateMutability": "nonpayable",
      "type": "function"
    },
    {
      "constant": false,
      "inputs": [
        {
          "internalType": "uint256",
          "name": "permissionID",
          "type": "uint256"
        },
        {
          "internalType": "uint256",
          "name": "roleID",
          "type": "uint256"
        }
      ],
      "name": "addExistingDatasetToRoleRequest",
      "outputs": [],
      "payable": false,
      "stateMutability": "nonpayable",
      "type": "function"
    },
    {
      "constant": false,
      "inputs": [
        {
          "internalType": "uint256",
          "name": "permissionID",
          "type": "uint256"
        },
        {
          "internalType": "uint256",
          "name": "roleID",
          "type": "uint256"
        }
      ],
      "name": "removeDatasetFromRoleRequest",
      "outputs": [],
      "payable": false,
      "stateMutability": "nonpayable",
      "type": "function"
    },
    {
      "constant": false,
      "inputs": [
        {
          "internalType": "address",
          "name": "userID",
          "type": "address"
        },
        {
          "internalType": "uint256",
          "name": "roleID",
          "type": "uint256"
        }
      ],
      "name": "addUsersToRoleRequest",
      "outputs": [],
      "payable": false,
      "stateMutability": "nonpayable",
      "type": "function"
    },
    {
      "constant": false,
      "inputs": [
        {
          "internalType": "address",
          "name": "userID",
          "type": "address"
        },
        {
          "internalType": "uint256",
          "name": "roleID",
          "type": "uint256"
        }
      ],
      "name": "removeUsersFromRoleRequest",
      "outputs": [],
      "payable": false,
      "stateMutability": "nonpayable",
      "type": "function"
    },
    {
      "constant": false,
      "inputs": [
        {
          "internalType": "string",
          "name": "datasetIdentifier",
          "type": "string"
        },
        {
          "internalType": "string",
          "name": "roleName",
          "type": "string"
        },
        {
          "internalType": "string",
          "name": "permissionName",
          "type": "string"
        },
        {
          "internalType": "uint256",
          "name": "permissionID",
          "type": "uint256"
        }
      ],
      "name": "uploadDatasetToNewRoleRequest",
      "outputs": [],
      "payable": false,
      "stateMutability": "nonpayable",
      "type": "function"
    },
    {
      "constant": false,
      "inputs": [
        {
          "internalType": "string",
          "name": "datasetIdentifier",
          "type": "string"
        },
        {
          "internalType": "uint256",
          "name": "roleID",
          "type": "uint256"
        },
        {
          "internalType": "string",
          "name": "permissionName",
          "type": "string"
        },
        {
          "internalType": "uint256",
          "name": "permissionID",
          "type": "uint256"
        }
      ],
      "name": "uploadDatasetToExistingRoleRequest",
      "outputs": [],
      "payable": false,
      "stateMutability": "nonpayable",
      "type": "function"
    },
    {
      "constant": true,
      "inputs": [
        {
          "internalType": "uint256",
          "name": "requestID",
          "type": "uint256"
        }
      ],
      "name": "getRequestStatus",
      "outputs": [
        {
          "internalType": "enum RequestApprovalManagement.requestTypeEnum",
          "name": "",
          "type": "uint8"
        }
      ],
      "payable": false,
      "stateMutability": "view",
      "type": "function"
    },
    {
      "constant": true,
      "inputs": [],
      "name": "getTotalNumberOfRequests",
      "outputs": [
        {
          "internalType": "uint256",
          "name": "",
          "type": "uint256"
        }
      ],
      "payable": false,
      "stateMutability": "view",
      "type": "function"
    },
    {
      "constant": false,
      "inputs": [
        {
          "internalType": "string",
          "name": "roleName",
          "type": "string"
        }
      ],
      "name": "createNewRole",
      "outputs": [],
      "payable": false,
      "stateMutability": "nonpayable",
      "type": "function"
    },
    {
      "constant": false,
      "inputs": [
        {
          "internalType": "uint256",
          "name": "permissionID",
          "type": "uint256"
        },
        {
          "internalType": "uint256",
          "name": "roleID",
          "type": "uint256"
        }
      ],
      "name": "addExistingDatasetToRole",
      "outputs": [],
      "payable": false,
      "stateMutability": "nonpayable",
      "type": "function"
    },
    {
      "constant": false,
      "inputs": [
        {
          "internalType": "uint256",
          "name": "permissionID",
          "type": "uint256"
        },
        {
          "internalType": "uint256",
          "name": "roleID",
          "type": "uint256"
        }
      ],
      "name": "removeDatasetFromRole",
      "outputs": [],
      "payable": false,
      "stateMutability": "nonpayable",
      "type": "function"
    },
    {
      "constant": false,
      "inputs": [
        {
          "internalType": "address",
          "name": "userID",
          "type": "address"
        },
        {
          "internalType": "uint256",
          "name": "roleID",
          "type": "uint256"
        }
      ],
      "name": "addUsersToRole",
      "outputs": [],
      "payable": false,
      "stateMutability": "nonpayable",
      "type": "function"
    },
    {
      "constant": false,
      "inputs": [
        {
          "internalType": "address",
          "name": "userID",
          "type": "address"
        },
        {
          "internalType": "uint256",
          "name": "roleID",
          "type": "uint256"
        }
      ],
      "name": "removeUsersFromRole",
      "outputs": [],
      "payable": false,
      "stateMutability": "nonpayable",
      "type": "function"
    },
    {
      "constant": false,
      "inputs": [
        {
          "internalType": "string",
          "name": "datasetIdentifier",
          "type": "string"
        },
        {
          "internalType": "string",
          "name": "roleName",
          "type": "string"
        },
        {
          "internalType": "address",
          "name": "requestor",
          "type": "address"
        },
        {
          "internalType": "string",
          "name": "permissionName",
          "type": "string"
        },
        {
          "internalType": "uint256",
          "name": "permissionID",
          "type": "uint256"
        }
      ],
      "name": "uploadDatasetToNewRole",
      "outputs": [],
      "payable": false,
      "stateMutability": "nonpayable",
      "type": "function"
    },
    {
      "constant": false,
      "inputs": [
        {
          "internalType": "string",
          "name": "datasetIdentifier",
          "type": "string"
        },
        {
          "internalType": "uint256",
          "name": "roleID",
          "type": "uint256"
        },
        {
          "internalType": "address",
          "name": "requestor",
          "type": "address"
        },
        {
          "internalType": "string",
          "name": "permissionName",
          "type": "string"
        },
        {
          "internalType": "uint256",
          "name": "permissionID",
          "type": "uint256"
        }
      ],
      "name": "uploadDatasetToExistingRole",
      "outputs": [],
      "payable": false,
      "stateMutability": "nonpayable",
      "type": "function"
    },
    {
      "constant": false,
      "inputs": [
        {
          "internalType": "uint256",
          "name": "size",
          "type": "uint256"
        }
      ],
      "name": "randomString",
      "outputs": [
        {
          "internalType": "string",
          "name": "",
          "type": "string"
        }
      ],
      "payable": false,
      "stateMutability": "nonpayable",
      "type": "function"
    },
    {
      "constant": false,
      "inputs": [
        {
          "internalType": "uint256",
          "name": "number",
          "type": "uint256"
        }
      ],
      "name": "random",
      "outputs": [
        {
          "internalType": "uint256",
          "name": "",
          "type": "uint256"
        }
      ],
      "payable": false,
      "stateMutability": "nonpayable",
      "type": "function"
    }
  ],
  "bytecode": "0x60806040526040518060400160405280601a81526020017f6162636465666768696a6b6c6d6e6f707172737475767778797a0000000000008152506006908051906020019062000051929190620001ce565b5060016007553480156200006457600080fd5b50604051620043bf380380620043bf833981810160405260808110156200008a57600080fd5b8101908080519060200190929190805190602001909291908051906020019092919080519060200190929190505050836000806101000a81548173ffffffffffffffffffffffffffffffffffffffff021916908373ffffffffffffffffffffffffffffffffffffffff16021790555082600160006101000a81548173ffffffffffffffffffffffffffffffffffffffff021916908373ffffffffffffffffffffffffffffffffffffffff16021790555081600260006101000a81548173ffffffffffffffffffffffffffffffffffffffff021916908373ffffffffffffffffffffffffffffffffffffffff16021790555080600360006101000a81548173ffffffffffffffffffffffffffffffffffffffff021916908373ffffffffffffffffffffffffffffffffffffffff1602179055506000600581905550505050506200027d565b828054600181600116156101000203166002900490600052602060002090601f016020900481019282601f106200021157805160ff191683800117855562000242565b8280016001018555821562000242579182015b828111156200024157825182559160200191906001019062000224565b5b50905062000251919062000255565b5090565b6200027a91905b80821115620002765760008160009055506001016200025c565b5090565b90565b614132806200028d6000396000f3fe608060405234801561001057600080fd5b50600436106101425760003560e01c8063b863bd37116100b8578063d8a4676f1161007c578063d8a4676f14610b53578063e2a7430014610ba3578063e3fc582814610bdb578063ea49978b14610e39578063f5713f0b14610e87578063fafa5e9c1461100d57610142565b8063b863bd37146106a5578063bd3ad78e146106e7578063c7d962d81461071f578063d7d1bbdb14610912578063d88c6dc61461094057610142565b80633c7a0c341161010a5780633c7a0c34146103395780635152da1e146103f45780635bf9d6de1461044257806378281dd1146104e95780637ada953014610507578063ab1e6a8b1461066d57610142565b80630a454795146101475780632040a4651461017f5780632bead3e8146102025780632d7788db146102bd5780633c1a9b24146102eb575b600080fd5b61017d6004803603604081101561015d57600080fd5b81019080803590602001909291908035906020019092919050505061105b565b005b610187611133565b6040518080602001828103825283818151815260200191508051906020019080838360005b838110156101c75780820151818401526020810190506101ac565b50505050905090810190601f1680156101f45780820380516001836020036101000a031916815260200191505b509250505060405180910390f35b6102bb6004803603602081101561021857600080fd5b810190808035906020019064010000000081111561023557600080fd5b82018360208201111561024757600080fd5b8035906020019184600183028401116401000000008311171561026957600080fd5b91908080601f016020809104026020016040519081016040528093929190818152602001838380828437600081840152601f19601f8201169050808301925050505050505091929192905050506111d1565b005b6102e9600480360360208110156102d357600080fd5b810190808035906020019092919050505061147c565b005b6103376004803603604081101561030157600080fd5b81019080803573ffffffffffffffffffffffffffffffffffffffff169060200190929190803590602001909291905050506114ee565b005b6103f26004803603602081101561034f57600080fd5b810190808035906020019064010000000081111561036c57600080fd5b82018360208201111561037e57600080fd5b803590602001918460018302840111640100000000831117156103a057600080fd5b91908080601f016020809104026020016040519081016040528093929190818152602001838380828437600081840152601f19601f8201169050808301925050505050505091929192905050506117a7565b005b6104406004803603604081101561040a57600080fd5b81019080803573ffffffffffffffffffffffffffffffffffffffff1690602001909291908035906020019092919050505061195c565b005b61046e6004803603602081101561045857600080fd5b8101908080359060200190929190505050611a8c565b6040518080602001828103825283818151815260200191508051906020019080838360005b838110156104ae578082015181840152602081019050610493565b50505050905090810190601f1680156104db5780820380516001836020036101000a031916815260200191505b509250505060405180910390f35b6104f1611bbd565b6040518082815260200191505060405180910390f35b61066b6004803603608081101561051d57600080fd5b810190808035906020019064010000000081111561053a57600080fd5b82018360208201111561054c57600080fd5b8035906020019184600183028401116401000000008311171561056e57600080fd5b91908080601f016020809104026020016040519081016040528093929190818152602001838380828437600081840152601f19601f82011690508083019250505050505050919291929080359060200190929190803590602001906401000000008111156105db57600080fd5b8201836020820111156105ed57600080fd5b8035906020019184600183028401116401000000008311171561060f57600080fd5b91908080601f016020809104026020016040519081016040528093929190818152602001838380828437600081840152601f19601f82011690508083019250505050505050919291929080359060200190929190505050611bc7565b005b6106a36004803603604081101561068357600080fd5b810190808035906020019092919080359060200190929190505050611e63565b005b6106d1600480360360208110156106bb57600080fd5b8101908080359060200190929190505050611f3b565b6040518082815260200191505060405180910390f35b61071d600480360360408110156106fd57600080fd5b810190808035906020019092919080359060200190929190505050611fd2565b005b6109106004803603608081101561073557600080fd5b810190808035906020019064010000000081111561075257600080fd5b82018360208201111561076457600080fd5b8035906020019184600183028401116401000000008311171561078657600080fd5b91908080601f016020809104026020016040519081016040528093929190818152602001838380828437600081840152601f19601f820116905080830192505050505050509192919290803590602001906401000000008111156107e957600080fd5b8201836020820111156107fb57600080fd5b8035906020019184600183028401116401000000008311171561081d57600080fd5b91908080601f016020809104026020016040519081016040528093929190818152602001838380828437600081840152601f19601f8201169050808301925050505050505091929192908035906020019064010000000081111561088057600080fd5b82018360208201111561089257600080fd5b803590602001918460018302840111640100000000831117156108b457600080fd5b91908080601f016020809104026020016040519081016040528093929190818152602001838380828437600081840152601f19601f8201169050808301925050505050505091929192908035906020019092919050505061228b565b005b61093e6004803603602081101561092857600080fd5b810190808035906020019092919050505061251a565b005b610b51600480360360a081101561095657600080fd5b810190808035906020019064010000000081111561097357600080fd5b82018360208201111561098557600080fd5b803590602001918460018302840111640100000000831117156109a757600080fd5b91908080601f016020809104026020016040519081016040528093929190818152602001838380828437600081840152601f19601f82011690508083019250505050505050919291929080359060200190640100000000811115610a0a57600080fd5b820183602082011115610a1c57600080fd5b80359060200191846001830284011164010000000083111715610a3e57600080fd5b91908080601f016020809104026020016040519081016040528093929190818152602001838380828437600081840152601f19601f820116905080830192505050505050509192919290803573ffffffffffffffffffffffffffffffffffffffff16906020019092919080359060200190640100000000811115610ac157600080fd5b820183602082011115610ad357600080fd5b80359060200191846001830284011164010000000083111715610af557600080fd5b91908080601f016020809104026020016040519081016040528093929190818152602001838380828437600081840152601f19601f82011690508083019250505050505050919291929080359060200190929190505050612db4565b005b610b7f60048036036020811015610b6957600080fd5b8101908080359060200190929190505050613256565b60405180826006811115610b8f57fe5b60ff16815260200191505060405180910390f35b610bd960048036036040811015610bb957600080fd5b810190808035906020019092919080359060200190929190505050613283565b005b610c0760048036036020811015610bf157600080fd5b810190808035906020019092919050505061353c565b604051808d73ffffffffffffffffffffffffffffffffffffffff1673ffffffffffffffffffffffffffffffffffffffff1681526020018c73ffffffffffffffffffffffffffffffffffffffff1673ffffffffffffffffffffffffffffffffffffffff1681526020018b6002811115610c7b57fe5b60ff1681526020018a6006811115610c8f57fe5b60ff16815260200189815260200188815260200180602001806020018781526020018681526020018573ffffffffffffffffffffffffffffffffffffffff1673ffffffffffffffffffffffffffffffffffffffff1681526020018060200184810384528a818151815260200191508051906020019080838360005b83811015610d25578082015181840152602081019050610d0a565b50505050905090810190601f168015610d525780820380516001836020036101000a031916815260200191505b50848103835289818151815260200191508051906020019080838360005b83811015610d8b578082015181840152602081019050610d70565b50505050905090810190601f168015610db85780820380516001836020036101000a031916815260200191505b50848103825285818151815260200191508051906020019080838360005b83811015610df1578082015181840152602081019050610dd6565b50505050905090810190601f168015610e1e5780820380516001836020036101000a031916815260200191505b509f5050505050505050505050505050505060405180910390f35b610e8560048036036040811015610e4f57600080fd5b81019080803573ffffffffffffffffffffffffffffffffffffffff169060200190929190803590602001909291905050506137de565b005b61100b600480360360a0811015610e9d57600080fd5b8101908080359060200190640100000000811115610eba57600080fd5b820183602082011115610ecc57600080fd5b80359060200191846001830284011164010000000083111715610eee57600080fd5b91908080601f016020809104026020016040519081016040528093929190818152602001838380828437600081840152601f19601f82011690508083019250505050505050919291929080359060200190929190803573ffffffffffffffffffffffffffffffffffffffff16906020019092919080359060200190640100000000811115610f7b57600080fd5b820183602082011115610f8d57600080fd5b80359060200191846001830284011164010000000083111715610faf57600080fd5b91908080601f016020809104026020016040519081016040528093929190818152602001838380828437600081840152601f19601f8201169050808301925050505050505091929192908035906020019092919050505061390e565b005b6110596004803603604081101561102357600080fd5b81019080803573ffffffffffffffffffffffffffffffffffffffff16906020019092919080359060200190929190505050613ce6565b005b600260009054906101000a900473ffffffffffffffffffffffffffffffffffffffff1673ffffffffffffffffffffffffffffffffffffffff1663f19ba94b82846040518363ffffffff1660e01b81526004018083815260200182815260200192505050600060405180830381600087803b1580156110d857600080fd5b505af11580156110ec573d6000803e3d6000fd5b505050507f6cecdfdd8d32024ca260a355a0db20cc6cb3b8e8bec573020091f66e646322b38282604051808381526020018281526020019250505060405180910390a15050565b60068054600181600116156101000203166002900480601f0160208091040260200160405190810160405280929190818152602001828054600181600116156101000203166002900480156111c95780601f1061119e576101008083540402835291602001916111c9565b820191906000526020600020905b8154815290600101906020018083116111ac57829003601f168201915b505050505081565b6111d9613f9f565b6040518061018001604052803373ffffffffffffffffffffffffffffffffffffffff168152602001600073ffffffffffffffffffffffffffffffffffffffff1681526020016000600281111561122b57fe5b81526020016000600681111561123d57fe5b81526020014281526020014281526020018381526020016040518060200160405280600081525081526020016000815260200160008152602001600073ffffffffffffffffffffffffffffffffffffffff1681526020016040518060200160405280600081525081525090508060046000600554815260200190815260200160002060008201518160000160006101000a81548173ffffffffffffffffffffffffffffffffffffffff021916908373ffffffffffffffffffffffffffffffffffffffff16021790555060208201518160010160006101000a81548173ffffffffffffffffffffffffffffffffffffffff021916908373ffffffffffffffffffffffffffffffffffffffff16021790555060408201518160010160146101000a81548160ff0219169083600281111561137157fe5b021790555060608201518160010160156101000a81548160ff0219169083600681111561139a57fe5b02179055506080820151816002015560a0820151816003015560c08201518160040190805190602001906113cf929190614058565b5060e08201518160050190805190602001906113ec929190614058565b50610100820151816006015561012082015181600701556101408201518160080160006101000a81548173ffffffffffffffffffffffffffffffffffffffff021916908373ffffffffffffffffffffffffffffffffffffffff160217905550610160820151816009019080519060200190611468929190614058565b509050506001600554016005819055505050565b60026004600083815260200190815260200160002060010160146101000a81548160ff021916908360028111156114af57fe5b02179055507fceba7613daa5b045ce6692216e891f1213703eb788f15a8dfe8bf60ae2ef74f4816040518082815260200191505060405180910390a150565b6114f6613f9f565b6040518061018001604052803373ffffffffffffffffffffffffffffffffffffffff168152602001600073ffffffffffffffffffffffffffffffffffffffff1681526020016000600281111561154857fe5b81526020016003600681111561155a57fe5b8152602001428152602001428152602001604051806020016040528060008152508152602001604051806020016040528060008152508152602001838152602001600081526020018473ffffffffffffffffffffffffffffffffffffffff1681526020016040518060200160405280600081525081525090508060046000600554815260200190815260200160002060008201518160000160006101000a81548173ffffffffffffffffffffffffffffffffffffffff021916908373ffffffffffffffffffffffffffffffffffffffff16021790555060208201518160010160006101000a81548173ffffffffffffffffffffffffffffffffffffffff021916908373ffffffffffffffffffffffffffffffffffffffff16021790555060408201518160010160146101000a81548160ff0219169083600281111561169b57fe5b021790555060608201518160010160156101000a81548160ff021916908360068111156116c457fe5b02179055506080820151816002015560a0820151816003015560c08201518160040190805190602001906116f9929190614058565b5060e0820151816005019080519060200190611716929190614058565b50610100820151816006015561012082015181600701556101408201518160080160006101000a81548173ffffffffffffffffffffffffffffffffffffffff021916908373ffffffffffffffffffffffffffffffffffffffff160217905550610160820151816009019080519060200190611792929190614058565b50905050600160055401600581905550505050565b600260009054906101000a900473ffffffffffffffffffffffffffffffffffffffff1673ffffffffffffffffffffffffffffffffffffffff1663af17d38a826040518263ffffffff1660e01b81526004018080602001828103825283818151815260200191508051906020019080838360005b8381101561183557808201518184015260208101905061181a565b50505050905090810190601f1680156118625780820380516001836020036101000a031916815260200191505b5092505050602060405180830381600087803b15801561188157600080fd5b505af1158015611895573d6000803e3d6000fd5b505050506040513d60208110156118ab57600080fd5b8101908080519060200190929190505050507f32b47ce6cb2f21c2a9f56b2f9f4dfb101ca6a4d0412a0a40a773478bfd764ce3816040518080602001828103825283818151815260200191508051906020019080838360005b8381101561191f578082015181840152602081019050611904565b50505050905090810190601f16801561194c5780820380516001836020036101000a031916815260200191505b509250505060405180910390a150565b600260009054906101000a900473ffffffffffffffffffffffffffffffffffffffff1673ffffffffffffffffffffffffffffffffffffffff16638b4c637a83836040518363ffffffff1660e01b8152600401808373ffffffffffffffffffffffffffffffffffffffff1673ffffffffffffffffffffffffffffffffffffffff16815260200182815260200192505050600060405180830381600087803b158015611a0557600080fd5b505af1158015611a19573d6000803e3d6000fd5b505050507f1d7ea454250c80d8537b5b154c16038fd3a2f514a447b72ec326c4bacbcffdcc8282604051808373ffffffffffffffffffffffffffffffffffffffff1673ffffffffffffffffffffffffffffffffffffffff1681526020018281526020019250505060405180910390a15050565b606080826040519080825280601f01601f191660200182016040528015611ac25781602001600182028038833980820191505090505b5090506060601a6040519080825280601f01601f191660200182016040528015611afb5781602001600182028038833980820191505090505b5090506040518060400160405280601a81526020017f6162636465666768696a6b6c6d6e6f707172737475767778797a000000000000815250905060008090505b84811015611bb2576000611b50601a611f3b565b9050828181518110611b5e57fe5b602001015160f81c60f81b848381518110611b7557fe5b60200101907effffffffffffffffffffffffffffffffffffffffffffffffffffffffffffff1916908160001a905350508080600101915050611b3c565b508192505050919050565b6000600554905090565b611bcf613f9f565b6040518061018001604052803373ffffffffffffffffffffffffffffffffffffffff168152602001600073ffffffffffffffffffffffffffffffffffffffff16815260200160006002811115611c2157fe5b8152602001600680811115611c3257fe5b8152602001428152602001428152602001604051806020016040528060008152508152602001868152602001858152602001838152602001600073ffffffffffffffffffffffffffffffffffffffff1681526020018481525090508060046000600554815260200190815260200160002060008201518160000160006101000a81548173ffffffffffffffffffffffffffffffffffffffff021916908373ffffffffffffffffffffffffffffffffffffffff16021790555060208201518160010160006101000a81548173ffffffffffffffffffffffffffffffffffffffff021916908373ffffffffffffffffffffffffffffffffffffffff16021790555060408201518160010160146101000a81548160ff02191690836002811115611d5557fe5b021790555060608201518160010160156101000a81548160ff02191690836006811115611d7e57fe5b02179055506080820151816002015560a0820151816003015560c0820151816004019080519060200190611db3929190614058565b5060e0820151816005019080519060200190611dd0929190614058565b50610100820151816006015561012082015181600701556101408201518160080160006101000a81548173ffffffffffffffffffffffffffffffffffffffff021916908373ffffffffffffffffffffffffffffffffffffffff160217905550610160820151816009019080519060200190611e4c929190614058565b509050506001600554016005819055505050505050565b600260009054906101000a900473ffffffffffffffffffffffffffffffffffffffff1673ffffffffffffffffffffffffffffffffffffffff1663ad9abec582846040518363ffffffff1660e01b81526004018083815260200182815260200192505050600060405180830381600087803b158015611ee057600080fd5b505af1158015611ef4573d6000803e3d6000fd5b505050507f0a0775ecb238de39dd904b9cb98430e9ed571b7fcea40971217700ece19d99658282604051808381526020018281526020019250505060405180910390a15050565b600060076000815480929190600101919050555081424433600754604051602001808581526020018481526020018373ffffffffffffffffffffffffffffffffffffffff1673ffffffffffffffffffffffffffffffffffffffff1660601b81526014018281526020019450505050506040516020818303038152906040528051906020012060001c81611fca57fe5b069050919050565b611fda613f9f565b6040518061018001604052803373ffffffffffffffffffffffffffffffffffffffff168152602001600073ffffffffffffffffffffffffffffffffffffffff1681526020016000600281111561202c57fe5b81526020016001600681111561203e57fe5b8152602001428152602001428152602001604051806020016040528060008152508152602001604051806020016040528060008152508152602001838152602001848152602001600073ffffffffffffffffffffffffffffffffffffffff1681526020016040518060200160405280600081525081525090508060046000600554815260200190815260200160002060008201518160000160006101000a81548173ffffffffffffffffffffffffffffffffffffffff021916908373ffffffffffffffffffffffffffffffffffffffff16021790555060208201518160010160006101000a81548173ffffffffffffffffffffffffffffffffffffffff021916908373ffffffffffffffffffffffffffffffffffffffff16021790555060408201518160010160146101000a81548160ff0219169083600281111561217f57fe5b021790555060608201518160010160156101000a81548160ff021916908360068111156121a857fe5b02179055506080820151816002015560a0820151816003015560c08201518160040190805190602001906121dd929190614058565b5060e08201518160050190805190602001906121fa929190614058565b50610100820151816006015561012082015181600701556101408201518160080160006101000a81548173ffffffffffffffffffffffffffffffffffffffff021916908373ffffffffffffffffffffffffffffffffffffffff160217905550610160820151816009019080519060200190612276929190614058565b50905050600160055401600581905550505050565b612293613f9f565b6040518061018001604052803373ffffffffffffffffffffffffffffffffffffffff168152602001600073ffffffffffffffffffffffffffffffffffffffff168152602001600060028111156122e557fe5b8152602001600560068111156122f757fe5b815260200142815260200142815260200185815260200186815260200160008152602001838152602001600073ffffffffffffffffffffffffffffffffffffffff1681526020018481525090508060046000600554815260200190815260200160002060008201518160000160006101000a81548173ffffffffffffffffffffffffffffffffffffffff021916908373ffffffffffffffffffffffffffffffffffffffff16021790555060208201518160010160006101000a81548173ffffffffffffffffffffffffffffffffffffffff021916908373ffffffffffffffffffffffffffffffffffffffff16021790555060408201518160010160146101000a81548160ff0219169083600281111561240c57fe5b021790555060608201518160010160156101000a81548160ff0219169083600681111561243557fe5b02179055506080820151816002015560a0820151816003015560c082015181600401908051906020019061246a929190614058565b5060e0820151816005019080519060200190612487929190614058565b50610100820151816006015561012082015181600701556101408201518160080160006101000a81548173ffffffffffffffffffffffffffffffffffffffff021916908373ffffffffffffffffffffffffffffffffffffffff160217905550610160820151816009019080519060200190612503929190614058565b509050506001600554016005819055505050505050565b6000600681111561252757fe5b6004600083815260200190815260200160002060010160159054906101000a900460ff16600681111561255657fe5b141561261857612613600460008381526020019081526020016000206004018054600181600116156101000203166002900480601f0160208091040260200160405190810160405280929190818152602001828054600181600116156101000203166002900480156126095780601f106125de57610100808354040283529160200191612609565b820191906000526020600020905b8154815290600101906020018083116125ec57829003601f168201915b50505050506117a7565b612d09565b6001600681111561262557fe5b6004600083815260200190815260200160002060010160159054906101000a900460ff16600681111561265457fe5b14156126955761269060046000838152602001908152602001600020600701546004600084815260200190815260200160002060060154611e63565b612d08565b600260068111156126a257fe5b6004600083815260200190815260200160002060010160159054906101000a900460ff1660068111156126d157fe5b14156127125761270d6004600083815260200190815260200160002060070154600460008481526020019081526020016000206006015461105b565b612d07565b6003600681111561271f57fe5b6004600083815260200190815260200160002060010160159054906101000a900460ff16600681111561274e57fe5b14156127af576127aa6004600083815260200190815260200160002060080160009054906101000a900473ffffffffffffffffffffffffffffffffffffffff1660046000848152602001908152602001600020600601546137de565b612d06565b600460068111156127bc57fe5b6004600083815260200190815260200160002060010160159054906101000a900460ff1660068111156127eb57fe5b141561284c576128476004600083815260200190815260200160002060080160009054906101000a900473ffffffffffffffffffffffffffffffffffffffff16600460008481526020019081526020016000206006015461195c565b612d05565b6005600681111561285957fe5b6004600083815260200190815260200160002060010160159054906101000a900460ff16600681111561288857fe5b1415612af657612af1600460008381526020019081526020016000206005018054600181600116156101000203166002900480601f01602080910402602001604051908101604052809291908181526020018280546001816001161561010002031660029004801561293b5780601f106129105761010080835404028352916020019161293b565b820191906000526020600020905b81548152906001019060200180831161291e57829003601f168201915b5050505050600460008481526020019081526020016000206004018054600181600116156101000203166002900480601f0160208091040260200160405190810160405280929190818152602001828054600181600116156101000203166002900480156129ea5780601f106129bf576101008083540402835291602001916129ea565b820191906000526020600020905b8154815290600101906020018083116129cd57829003601f168201915b50505050506004600085815260200190815260200160002060000160009054906101000a900473ffffffffffffffffffffffffffffffffffffffff16600460008681526020019081526020016000206009018054600181600116156101000203166002900480601f016020809104026020016040519081016040528092919081815260200182805460018160011615610100020316600290048015612ad05780601f10612aa557610100808354040283529160200191612ad0565b820191906000526020600020905b815481529060010190602001808311612ab357829003601f168201915b50505050506004600087815260200190815260200160002060070154612db4565b612d04565b600680811115612b0257fe5b6004600083815260200190815260200160002060010160159054906101000a900460ff166006811115612b3157fe5b1415612d0357612d02600460008381526020019081526020016000206005018054600181600116156101000203166002900480601f016020809104026020016040519081016040528092919081815260200182805460018160011615610100020316600290048015612be45780601f10612bb957610100808354040283529160200191612be4565b820191906000526020600020905b815481529060010190602001808311612bc757829003601f168201915b505050505060046000848152602001908152602001600020600601546004600085815260200190815260200160002060000160009054906101000a900473ffffffffffffffffffffffffffffffffffffffff16600460008681526020019081526020016000206009018054600181600116156101000203166002900480601f016020809104026020016040519081016040528092919081815260200182805460018160011615610100020316600290048015612ce15780601f10612cb657610100808354040283529160200191612ce1565b820191906000526020600020905b815481529060010190602001808311612cc457829003601f168201915b5050505050600460008781526020019081526020016000206007015461390e565b5b5b5b5b5b5b5b426004600083815260200190815260200160002060030181905550336004600083815260200190815260200160002060010160006101000a81548173ffffffffffffffffffffffffffffffffffffffff021916908373ffffffffffffffffffffffffffffffffffffffff16021790555060016004600083815260200190815260200160002060010160146101000a81548160ff02191690836002811115612dac57fe5b021790555050565b6060612dc0600a611a8c565b9050600360009054906101000a900473ffffffffffffffffffffffffffffffffffffffff1673ffffffffffffffffffffffffffffffffffffffff166382be3f6c8787848888886040518763ffffffff1660e01b8152600401808060200180602001806020018773ffffffffffffffffffffffffffffffffffffffff1673ffffffffffffffffffffffffffffffffffffffff1681526020018060200186815260200185810385528b818151815260200191508051906020019080838360005b83811015612e99578082015181840152602081019050612e7e565b50505050905090810190601f168015612ec65780820380516001836020036101000a031916815260200191505b5085810384528a818151815260200191508051906020019080838360005b83811015612eff578082015181840152602081019050612ee4565b50505050905090810190601f168015612f2c5780820380516001836020036101000a031916815260200191505b50858103835289818151815260200191508051906020019080838360005b83811015612f65578082015181840152602081019050612f4a565b50505050905090810190601f168015612f925780820380516001836020036101000a031916815260200191505b50858103825287818151815260200191508051906020019080838360005b83811015612fcb578082015181840152602081019050612fb0565b50505050905090810190601f168015612ff85780820380516001836020036101000a031916815260200191505b509a5050505050505050505050600060405180830381600087803b15801561301f57600080fd5b505af1158015613033573d6000803e3d6000fd5b505050507fe0ee34564e2b49abbfdf9160835665c67034141950c40c63d52e2d8024368dd28686838787604051808060200180602001806020018673ffffffffffffffffffffffffffffffffffffffff1673ffffffffffffffffffffffffffffffffffffffff1681526020018060200185810385528a818151815260200191508051906020019080838360005b838110156130db5780820151818401526020810190506130c0565b50505050905090810190601f1680156131085780820380516001836020036101000a031916815260200191505b50858103845289818151815260200191508051906020019080838360005b83811015613141578082015181840152602081019050613126565b50505050905090810190601f16801561316e5780820380516001836020036101000a031916815260200191505b50858103835288818151815260200191508051906020019080838360005b838110156131a757808201518184015260208101905061318c565b50505050905090810190601f1680156131d45780820380516001836020036101000a031916815260200191505b50858103825286818151815260200191508051906020019080838360005b8381101561320d5780820151818401526020810190506131f2565b50505050905090810190601f16801561323a5780820380516001836020036101000a031916815260200191505b50995050505050505050505060405180910390a1505050505050565b60006004600083815260200190815260200160002060010160159054906101000a900460ff169050919050565b61328b613f9f565b6040518061018001604052803373ffffffffffffffffffffffffffffffffffffffff168152602001600073ffffffffffffffffffffffffffffffffffffffff168152602001600060028111156132dd57fe5b8152602001600260068111156132ef57fe5b8152602001428152602001428152602001604051806020016040528060008152508152602001604051806020016040528060008152508152602001838152602001848152602001600073ffffffffffffffffffffffffffffffffffffffff1681526020016040518060200160405280600081525081525090508060046000600554815260200190815260200160002060008201518160000160006101000a81548173ffffffffffffffffffffffffffffffffffffffff021916908373ffffffffffffffffffffffffffffffffffffffff16021790555060208201518160010160006101000a81548173ffffffffffffffffffffffffffffffffffffffff021916908373ffffffffffffffffffffffffffffffffffffffff16021790555060408201518160010160146101000a81548160ff0219169083600281111561343057fe5b021790555060608201518160010160156101000a81548160ff0219169083600681111561345957fe5b02179055506080820151816002015560a0820151816003015560c082015181600401908051906020019061348e929190614058565b5060e08201518160050190805190602001906134ab929190614058565b50610100820151816006015561012082015181600701556101408201518160080160006101000a81548173ffffffffffffffffffffffffffffffffffffffff021916908373ffffffffffffffffffffffffffffffffffffffff160217905550610160820151816009019080519060200190613527929190614058565b50905050600160055401600581905550505050565b60046020528060005260406000206000915090508060000160009054906101000a900473ffffffffffffffffffffffffffffffffffffffff16908060010160009054906101000a900473ffffffffffffffffffffffffffffffffffffffff16908060010160149054906101000a900460ff16908060010160159054906101000a900460ff1690806002015490806003015490806004018054600181600116156101000203166002900480601f0160208091040260200160405190810160405280929190818152602001828054600181600116156101000203166002900480156136665780601f1061363b57610100808354040283529160200191613666565b820191906000526020600020905b81548152906001019060200180831161364957829003601f168201915b505050505090806005018054600181600116156101000203166002900480601f0160208091040260200160405190810160405280929190818152602001828054600181600116156101000203166002900480156137045780601f106136d957610100808354040283529160200191613704565b820191906000526020600020905b8154815290600101906020018083116136e757829003601f168201915b5050505050908060060154908060070154908060080160009054906101000a900473ffffffffffffffffffffffffffffffffffffffff1690806009018054600181600116156101000203166002900480601f0160208091040260200160405190810160405280929190818152602001828054600181600116156101000203166002900480156137d45780601f106137a9576101008083540402835291602001916137d4565b820191906000526020600020905b8154815290600101906020018083116137b757829003601f168201915b505050505090508c565b600260009054906101000a900473ffffffffffffffffffffffffffffffffffffffff1673ffffffffffffffffffffffffffffffffffffffff16633331056f83836040518363ffffffff1660e01b8152600401808373ffffffffffffffffffffffffffffffffffffffff1673ffffffffffffffffffffffffffffffffffffffff16815260200182815260200192505050600060405180830381600087803b15801561388757600080fd5b505af115801561389b573d6000803e3d6000fd5b505050507f0ce8ab5ebacf7596aada7f8908ceebb1c8bff3d9c463052135af63ed6539e2e38282604051808373ffffffffffffffffffffffffffffffffffffffff1673ffffffffffffffffffffffffffffffffffffffff1681526020018281526020019250505060405180910390a15050565b606061391a600a611a8c565b9050600360009054906101000a900473ffffffffffffffffffffffffffffffffffffffff1673ffffffffffffffffffffffffffffffffffffffff1663196e874d8787848888886040518763ffffffff1660e01b81526004018080602001878152602001806020018673ffffffffffffffffffffffffffffffffffffffff1673ffffffffffffffffffffffffffffffffffffffff1681526020018060200185815260200184810384528a818151815260200191508051906020019080838360005b838110156139f55780820151818401526020810190506139da565b50505050905090810190601f168015613a225780820380516001836020036101000a031916815260200191505b50848103835288818151815260200191508051906020019080838360005b83811015613a5b578082015181840152602081019050613a40565b50505050905090810190601f168015613a885780820380516001836020036101000a031916815260200191505b50848103825286818151815260200191508051906020019080838360005b83811015613ac1578082015181840152602081019050613aa6565b50505050905090810190601f168015613aee5780820380516001836020036101000a031916815260200191505b509950505050505050505050600060405180830381600087803b158015613b1457600080fd5b505af1158015613b28573d6000803e3d6000fd5b505050507f145ae2ef407de20a6c4c3eaf52381b0a9ddff2e84011c123de14013a42317f5f86868387876040518080602001868152602001806020018573ffffffffffffffffffffffffffffffffffffffff1673ffffffffffffffffffffffffffffffffffffffff16815260200180602001848103845289818151815260200191508051906020019080838360005b83811015613bd2578082015181840152602081019050613bb7565b50505050905090810190601f168015613bff5780820380516001836020036101000a031916815260200191505b50848103835287818151815260200191508051906020019080838360005b83811015613c38578082015181840152602081019050613c1d565b50505050905090810190601f168015613c655780820380516001836020036101000a031916815260200191505b50848103825285818151815260200191508051906020019080838360005b83811015613c9e578082015181840152602081019050613c83565b50505050905090810190601f168015613ccb5780820380516001836020036101000a031916815260200191505b509850505050505050505060405180910390a1505050505050565b613cee613f9f565b6040518061018001604052803373ffffffffffffffffffffffffffffffffffffffff168152602001600073ffffffffffffffffffffffffffffffffffffffff16815260200160006002811115613d4057fe5b815260200160046006811115613d5257fe5b8152602001428152602001428152602001604051806020016040528060008152508152602001604051806020016040528060008152508152602001838152602001600081526020018473ffffffffffffffffffffffffffffffffffffffff1681526020016040518060200160405280600081525081525090508060046000600554815260200190815260200160002060008201518160000160006101000a81548173ffffffffffffffffffffffffffffffffffffffff021916908373ffffffffffffffffffffffffffffffffffffffff16021790555060208201518160010160006101000a81548173ffffffffffffffffffffffffffffffffffffffff021916908373ffffffffffffffffffffffffffffffffffffffff16021790555060408201518160010160146101000a81548160ff02191690836002811115613e9357fe5b021790555060608201518160010160156101000a81548160ff02191690836006811115613ebc57fe5b02179055506080820151816002015560a0820151816003015560c0820151816004019080519060200190613ef1929190614058565b5060e0820151816005019080519060200190613f0e929190614058565b50610100820151816006015561012082015181600701556101408201518160080160006101000a81548173ffffffffffffffffffffffffffffffffffffffff021916908373ffffffffffffffffffffffffffffffffffffffff160217905550610160820151816009019080519060200190613f8a929190614058565b50905050600160055401600581905550505050565b604051806101800160405280600073ffffffffffffffffffffffffffffffffffffffff168152602001600073ffffffffffffffffffffffffffffffffffffffff16815260200160006002811115613ff257fe5b81526020016000600681111561400457fe5b8152602001600081526020016000815260200160608152602001606081526020016000815260200160008152602001600073ffffffffffffffffffffffffffffffffffffffff168152602001606081525090565b828054600181600116156101000203166002900490600052602060002090601f016020900481019282601f1061409957805160ff19168380011785556140c7565b828001600101855582156140c7579182015b828111156140c65782518255916020019190600101906140ab565b5b5090506140d491906140d8565b5090565b6140fa91905b808211156140f65760008160009055506001016140de565b5090565b9056fea265627a7a72315820e458f2f5c4e69aa39dd33100eb9adefe40abf2fceacd3e3cf8dc58b76a984d1964736f6c63430005110032",
  "source": "pragma solidity ^0.5.0;\r\n\r\nimport \"./User.sol\";\r\nimport \"./Permission.sol\";\r\nimport \"./Role.sol\";\r\nimport \"./DatasetUploader.sol\";\r\n\r\n// import \"hardhat/console.sol\";\r\n\r\ncontract RequestApprovalManagement {\r\n    enum statusEnum {\r\n        pending,\r\n        approved,\r\n        rejected\r\n    }\r\n\r\n    enum requestTypeEnum {\r\n        createNewRoleRequest,\r\n        addExistingDatasetToRoleRequest,\r\n        removeDatasetFromRoleRequest,\r\n        addUserToRoleRequest,\r\n        removeUserFromRoleRequest,\r\n        uploadDatasetToNewRoleRequest,\r\n        uploadDatasetToExistingRoleRequest\r\n    }\r\n\r\n    struct Request {\r\n        address requesterAddress;\r\n        address adminAddress;\r\n        statusEnum requestStatus;\r\n        requestTypeEnum requestType;\r\n        uint256 creationDateTime;\r\n        uint256 updatedDateTime;\r\n        string roleName;\r\n        string datasetIdentifier;\r\n        uint256 roleID; \r\n        uint256 permissionID;\r\n        address userID;\r\n        string permissionName;\r\n    }\r\n\r\n    User userContract;\r\n    Permission permissionContract;\r\n    Role roleContract;   \r\n    DatasetUploader datasetuploaderContract;  \r\n\r\n    mapping(uint256 => Request) public requestsMapping;\r\n\r\n    uint256 totalNumberOfRequest;\r\n\r\n    event createNewRoleRequestApproved(string roleName);\r\n    event removeRoleRequestApproved(uint256 roleID, address userID);\r\n    event addExistingDatasetToRolesRequestApproved(uint256 permissionID, uint256 roleID);\r\n    event removeDatasetFromRolesRequestApproved(uint256 permissionID, uint256 roleID);\r\n    event addUsersToRolesRequestApproved(address userID, uint256 roleID);\r\n    event removeUsersFromRolesRequestApproved(address userID, uint256 roleID);\r\n    event uploadDatasetToNewRoleRequestApproved(string datasetIdentifier, string roleName, string pointer, address requestor, string permissionName);\r\n    event uploadDatasetToExistingRoleRequestApproved(string datasetIdentifier, uint256 roleID, string pointer, address requestor, string permissionName);\r\n\r\n    event rejectRequestEvent(uint256 requestID);\r\n\r\n    constructor(User userAddress, Permission permissionAddress, Role roleAddress, DatasetUploader datasetUploaderAddress) public {\r\n        userContract = userAddress;\r\n        permissionContract = permissionAddress;\r\n        roleContract = roleAddress;\r\n        datasetuploaderContract = datasetUploaderAddress;\r\n        totalNumberOfRequest = 0;\r\n    }\r\n\r\n    // Admin functions\r\n    function approveRequest(uint256 requestID) public {\r\n        if (requestsMapping[requestID].requestType == requestTypeEnum.createNewRoleRequest) {\r\n\r\n            createNewRole(requestsMapping[requestID].roleName);\r\n\r\n        } else if (requestsMapping[requestID].requestType == requestTypeEnum.addExistingDatasetToRoleRequest) {\r\n\r\n            addExistingDatasetToRole(requestsMapping[requestID].permissionID, requestsMapping[requestID].roleID);\r\n\r\n        } else if (requestsMapping[requestID].requestType == requestTypeEnum.removeDatasetFromRoleRequest) {\r\n\r\n            removeDatasetFromRole(requestsMapping[requestID].permissionID, requestsMapping[requestID].roleID);\r\n\r\n        } else if (requestsMapping[requestID].requestType == requestTypeEnum.addUserToRoleRequest) {\r\n\r\n            addUsersToRole(requestsMapping[requestID].userID, requestsMapping[requestID].roleID);\r\n\r\n        } else if (requestsMapping[requestID].requestType == requestTypeEnum.removeUserFromRoleRequest) {\r\n\r\n            removeUsersFromRole(requestsMapping[requestID].userID, requestsMapping[requestID].roleID);\r\n\r\n        } else if (requestsMapping[requestID].requestType == requestTypeEnum.uploadDatasetToNewRoleRequest) {\r\n\r\n            uploadDatasetToNewRole(requestsMapping[requestID].datasetIdentifier, requestsMapping[requestID].roleName, requestsMapping[requestID].requesterAddress, requestsMapping[requestID].permissionName, requestsMapping[requestID].permissionID);\r\n\r\n        } else if (requestsMapping[requestID].requestType == requestTypeEnum.uploadDatasetToExistingRoleRequest) {\r\n\r\n            uploadDatasetToExistingRole(requestsMapping[requestID].datasetIdentifier, requestsMapping[requestID].roleID, requestsMapping[requestID].requesterAddress, requestsMapping[requestID].permissionName, requestsMapping[requestID].permissionID);\r\n\r\n        }       \r\n\r\n        requestsMapping[requestID].updatedDateTime = block.timestamp;\r\n        requestsMapping[requestID].adminAddress = msg.sender;\r\n        requestsMapping[requestID].requestStatus = statusEnum.approved;\r\n    }\r\n\r\n    function rejectRequest(uint256 requestID) public {\r\n        requestsMapping[requestID].requestStatus = statusEnum.rejected;\r\n        emit rejectRequestEvent(requestID);\r\n    }\r\n\r\n    // Creating Requests\r\n\r\n    function createNewRoleRequest(string memory roleName) public {\r\n        Request memory newRequest = Request(msg.sender, address(0), statusEnum.pending, requestTypeEnum.createNewRoleRequest, block.timestamp,block.timestamp, roleName, \"\", 0,0,address(0), \"\");\r\n        requestsMapping[totalNumberOfRequest] = newRequest;\r\n        totalNumberOfRequest = totalNumberOfRequest + 1;\r\n    }\r\n\r\n    // function removeRoleRequest(uint256 roleID, address userID) public {\r\n    //     Request memory newRequest = Request(msg.sender, address(0), statusEnum.pending, requestTypeEnum.removeRoleRequest, block.timestamp,block.timestamp, \"\", \"\", roleID,0,userID, \"\");\r\n    //     requestsMapping[totalNumberOfRequest] = newRequest;\r\n    //     totalNumberOfRequest = totalNumberOfRequest + 1;\r\n    // }\r\n\r\n    function addExistingDatasetToRoleRequest(uint256 permissionID, uint256 roleID) public {\r\n        Request memory newRequest = Request(msg.sender, address(0), statusEnum.pending, requestTypeEnum.addExistingDatasetToRoleRequest, block.timestamp,block.timestamp, \"\", \"\", roleID,permissionID,address(0), \"\");\r\n        requestsMapping[totalNumberOfRequest] = newRequest;\r\n        totalNumberOfRequest = totalNumberOfRequest + 1;\r\n    }\r\n\r\n    function removeDatasetFromRoleRequest(uint256 permissionID, uint256 roleID) public {\r\n        Request memory newRequest = Request(msg.sender, address(0), statusEnum.pending, requestTypeEnum.removeDatasetFromRoleRequest, block.timestamp,block.timestamp, \"\", \"\", roleID, permissionID,address(0), \"\");\r\n        requestsMapping[totalNumberOfRequest] = newRequest;\r\n        totalNumberOfRequest = totalNumberOfRequest + 1;\r\n    }\r\n\r\n    function addUsersToRoleRequest(address userID, uint256 roleID) public {\r\n        Request memory newRequest = Request(msg.sender, address(0), statusEnum.pending, requestTypeEnum.addUserToRoleRequest, block.timestamp,block.timestamp, \"\", \"\", roleID, 0, userID, \"\");\r\n        requestsMapping[totalNumberOfRequest] = newRequest;\r\n        totalNumberOfRequest = totalNumberOfRequest + 1;\r\n    }\r\n\r\n    function removeUsersFromRoleRequest(address userID, uint256 roleID) public {\r\n        Request memory newRequest = Request(msg.sender, address(0), statusEnum.pending, requestTypeEnum.removeUserFromRoleRequest , block.timestamp,block.timestamp, \"\", \"\", roleID, 0, userID, \"\");\r\n        requestsMapping[totalNumberOfRequest] = newRequest;\r\n        totalNumberOfRequest = totalNumberOfRequest + 1;\r\n    }\r\n\r\n    function uploadDatasetToNewRoleRequest(string memory datasetIdentifier, string memory roleName, string memory permissionName, uint256 permissionID) public {\r\n        Request memory newRequest = Request(msg.sender, address(0), statusEnum.pending, requestTypeEnum.uploadDatasetToNewRoleRequest , block.timestamp,block.timestamp, roleName, datasetIdentifier, 0, permissionID, address(0), permissionName);\r\n        requestsMapping[totalNumberOfRequest] = newRequest;\r\n        totalNumberOfRequest = totalNumberOfRequest + 1;\r\n    }\r\n\r\n    function uploadDatasetToExistingRoleRequest(string memory datasetIdentifier, uint256 roleID, string memory permissionName, uint256 permissionID) public {\r\n        Request memory newRequest = Request(msg.sender, address(0), statusEnum.pending, requestTypeEnum.uploadDatasetToExistingRoleRequest , block.timestamp,block.timestamp, \"\", datasetIdentifier, roleID, permissionID, address(0), permissionName);\r\n        requestsMapping[totalNumberOfRequest] = newRequest;\r\n        totalNumberOfRequest = totalNumberOfRequest + 1;\r\n    }\r\n\r\n\r\n    // Getters\r\n\r\n    function getRequestStatus(uint256 requestID) public view returns(requestTypeEnum) {\r\n        return requestsMapping[requestID].requestType;\r\n    }\r\n\r\n    function getTotalNumberOfRequests() public view returns(uint256) {\r\n        return totalNumberOfRequest;\r\n    }\r\n\r\n\r\n\r\n    // Helper functions\r\n    \r\n    function createNewRole(string memory roleName) public {\r\n        // Role Creation\r\n        roleContract.createRole(roleName);\r\n\r\n        emit createNewRoleRequestApproved(roleName);\r\n    }\r\n\r\n    // function removeRole(uint256 roleID, address userID) public {\r\n    //     //  Remove role\r\n    //     roleContract.removeRoleUser(roleID, userID);\r\n\r\n    //     emit removeRoleRequestApproved(roleID, userID);\r\n    // }\r\n\r\n    function addExistingDatasetToRole(uint256 permissionID, uint256 roleID) public {\r\n\r\n        roleContract.assignPermission(roleID, permissionID);\r\n\r\n        emit addExistingDatasetToRolesRequestApproved(permissionID, roleID);\r\n    }\r\n\r\n    function removeDatasetFromRole(uint256 permissionID, uint256 roleID) public {\r\n      \r\n        roleContract.removePermission(roleID, permissionID); \r\n             \r\n        emit removeDatasetFromRolesRequestApproved(permissionID, roleID);\r\n    }\r\n\r\n    function addUsersToRole(address userID, uint256 roleID) public {\r\n\r\n        roleContract.giveUserRole(userID, roleID);\r\n\r\n        emit addUsersToRolesRequestApproved(userID, roleID);\r\n    }\r\n\r\n    function removeUsersFromRole(address userID, uint256 roleID) public {\r\n\r\n        roleContract.removeUserRole(userID, roleID);\r\n\r\n        emit removeUsersFromRolesRequestApproved(userID, roleID);\r\n    }\r\n\r\n    function uploadDatasetToNewRole(string memory datasetIdentifier, string memory roleName, address requestor, string memory permissionName, uint256 permissionID) public {\r\n     \r\n        //This pointer is a simulation --> This by right links to external DB\r\n        //  We are now simulating it by generating a random string of length 10\r\n        string memory pointer = randomString(10);\r\n\r\n        // Upload dataset\r\n        datasetuploaderContract.uploadDatasetToNewRole(datasetIdentifier,roleName, pointer, requestor,permissionName,permissionID);\r\n\r\n        emit uploadDatasetToNewRoleRequestApproved(datasetIdentifier, roleName, pointer, requestor, permissionName);\r\n    }\r\n\r\n    function uploadDatasetToExistingRole(string memory datasetIdentifier, uint256 roleID, address requestor, string memory permissionName, uint256 permissionID) public {\r\n        \r\n        //This pointer is a simulation --> This by right links to external DB\r\n        //  We are now simulating it by generating a random string of length 10\r\n        string memory pointer = randomString(10);\r\n\r\n        // Upload dataset\r\n        datasetuploaderContract.uploadDatasetToExistingRole(datasetIdentifier, roleID, pointer, requestor, permissionName,permissionID); \r\n\r\n        emit uploadDatasetToExistingRoleRequestApproved(datasetIdentifier, roleID, pointer, requestor, permissionName);\r\n    }\r\n\r\n\r\n\r\n\r\n    // Random String Generator\r\n    string public letters = \"abcdefghijklmnopqrstuvwxyz\";\r\n    // I needed to add this to the random function to generate a different random number\r\n    uint counter =1;\r\n\r\n    // size is length of word\r\n    function randomString(uint size) public returns(string memory){\r\n        bytes memory randomWord=new bytes(size);\r\n        // since we have 26 letters\r\n        bytes memory chars = new bytes(26);\r\n        chars=\"abcdefghijklmnopqrstuvwxyz\";\r\n        for (uint i=0;i<size;i++){\r\n            uint randomNumber=random(26);\r\n            // Index access for string is not possible\r\n            randomWord[i]=chars[randomNumber];\r\n        }\r\n        return string(randomWord);\r\n    }\r\n\r\n    function random(uint number) public returns(uint){\r\n        counter++;\r\n        return uint(keccak256(abi.encodePacked(block.timestamp,block.difficulty,  \r\n        msg.sender,counter))) % number;\r\n    }\r\n\r\n\r\n}\r\n",
  "sourcePath": "C:\\Users\\chang\\OneDrive - National University of Singapore\\Documents\\IS4302 Code Merge\\is4302_project\\contracts\\RequestApprovalManagement.sol",
  "compiler": {
    "name": "solc",
    "version": "0.5.17+commit.d19bba13.Emscripten.clang"
  },
  "schemaVersion": "3.4.11",
  "updatedAt": "2023-03-27T14:12:37.307Z",
  "networkType": "ethereum",
  "devdoc": {
    "methods": {}
  },
  "userdoc": {
    "methods": {}
  }
}