{
  "contractName": "Role",
  "abi": [
    {
      "inputs": [
        {
          "internalType": "contract User",
          "name": "users",
          "type": "address"
        },
        {
          "internalType": "contract Permission",
          "name": "perms",
          "type": "address"
        }
      ],
      "payable": false,
      "stateMutability": "nonpayable",
      "type": "constructor"
    },
    {
      "constant": false,
      "inputs": [
        {
          "internalType": "string",
          "name": "name",
          "type": "string"
        }
      ],
      "name": "createRole",
      "outputs": [
        {
          "internalType": "uint256",
          "name": "",
          "type": "uint256"
        }
      ],
      "payable": false,
      "stateMutability": "nonpayable",
      "type": "function"
    },
    {
      "constant": false,
      "inputs": [
        {
          "internalType": "uint256",
          "name": "roleToInherit",
          "type": "uint256"
        },
        {
          "internalType": "uint256",
          "name": "inheritingRole",
          "type": "uint256"
        }
      ],
      "name": "inheritRole",
      "outputs": [],
      "payable": false,
      "stateMutability": "nonpayable",
      "type": "function"
    },
    {
      "constant": false,
      "inputs": [
        {
          "internalType": "uint256",
          "name": "roleID",
          "type": "uint256"
        },
        {
          "internalType": "uint256",
          "name": "permission",
          "type": "uint256"
        }
      ],
      "name": "assignPermission",
      "outputs": [],
      "payable": false,
      "stateMutability": "nonpayable",
      "type": "function"
    },
    {
      "constant": false,
      "inputs": [
        {
          "internalType": "uint256",
          "name": "roleID",
          "type": "uint256"
        },
        {
          "internalType": "uint256",
          "name": "permission",
          "type": "uint256"
        }
      ],
      "name": "removePermission",
      "outputs": [],
      "payable": false,
      "stateMutability": "nonpayable",
      "type": "function"
    },
    {
      "constant": false,
      "inputs": [
        {
          "internalType": "address",
          "name": "userID",
          "type": "address"
        },
        {
          "internalType": "uint256",
          "name": "roleID",
          "type": "uint256"
        }
      ],
      "name": "giveUserRole",
      "outputs": [],
      "payable": false,
      "stateMutability": "nonpayable",
      "type": "function"
    },
    {
      "constant": false,
      "inputs": [
        {
          "internalType": "address",
          "name": "userID",
          "type": "address"
        },
        {
          "internalType": "uint256",
          "name": "roleID",
          "type": "uint256"
        }
      ],
      "name": "removeUserRole",
      "outputs": [],
      "payable": false,
      "stateMutability": "nonpayable",
      "type": "function"
    },
    {
      "constant": true,
      "inputs": [
        {
          "internalType": "address",
          "name": "userID",
          "type": "address"
        },
        {
          "internalType": "uint256",
          "name": "permission",
          "type": "uint256"
        }
      ],
      "name": "checkUserPermission",
      "outputs": [
        {
          "internalType": "bool",
          "name": "",
          "type": "bool"
        }
      ],
      "payable": false,
      "stateMutability": "view",
      "type": "function"
    },
    {
      "constant": true,
      "inputs": [],
      "name": "getNumRoles",
      "outputs": [
        {
          "internalType": "uint256",
          "name": "",
          "type": "uint256"
        }
      ],
      "payable": false,
      "stateMutability": "view",
      "type": "function"
    },
    {
      "constant": true,
      "inputs": [
        {
          "internalType": "uint256",
          "name": "permissionID",
          "type": "uint256"
        }
      ],
      "name": "numRolesGivenToPermission",
      "outputs": [
        {
          "internalType": "uint256",
          "name": "",
          "type": "uint256"
        }
      ],
      "payable": false,
      "stateMutability": "view",
      "type": "function"
    },
    {
      "constant": true,
      "inputs": [
        {
          "internalType": "address",
          "name": "userID",
          "type": "address"
        }
      ],
      "name": "numRolesGrantedToUser",
      "outputs": [
        {
          "internalType": "uint256",
          "name": "",
          "type": "uint256"
        }
      ],
      "payable": false,
      "stateMutability": "view",
      "type": "function"
    }
  ],
  "bytecode": "0x608060405234801561001057600080fd5b506040516117d23803806117d28339818101604052604081101561003357600080fd5b810190808051906020019092919080519060200190929190505050816000806101000a81548173ffffffffffffffffffffffffffffffffffffffff021916908373ffffffffffffffffffffffffffffffffffffffff16021790555080600160006101000a81548173ffffffffffffffffffffffffffffffffffffffff021916908373ffffffffffffffffffffffffffffffffffffffff16021790555050506116f2806100e06000396000f3fe608060405234801561001057600080fd5b506004361061009e5760003560e01c80638b4c637a116100665780638b4c637a14610205578063ad9abec514610253578063af17d38a1461028b578063b9cbe9f31461035a578063f19ba94b1461039c5761009e565b806301e63fcb146100a357806321f46292146100c15780633331056f146101275780634d1f93d7146101755780634d436684146101cd575b600080fd5b6100ab6103d4565b6040518082815260200191505060405180910390f35b61010d600480360360408110156100d757600080fd5b81019080803573ffffffffffffffffffffffffffffffffffffffff169060200190929190803590602001909291905050506103de565b604051808215151515815260200191505060405180910390f35b6101736004803603604081101561013d57600080fd5b81019080803573ffffffffffffffffffffffffffffffffffffffff16906020019092919080359060200190929190505050610578565b005b6101b76004803603602081101561018b57600080fd5b81019080803573ffffffffffffffffffffffffffffffffffffffff16906020019092919050505061085a565b6040518082815260200191505060405180910390f35b610203600480360360408110156101e357600080fd5b8101908080359060200190929190803590602001909291905050506108a6565b005b6102516004803603604081101561021b57600080fd5b81019080803573ffffffffffffffffffffffffffffffffffffffff16906020019092919080359060200190929190505050610b40565b005b6102896004803603604081101561026957600080fd5b810190808035906020019092919080359060200190929190505050610e9d565b005b610344600480360360208110156102a157600080fd5b81019080803590602001906401000000008111156102be57600080fd5b8201836020820111156102d057600080fd5b803590602001918460018302840111640100000000831117156102f257600080fd5b91908080601f016020809104026020016040519081016040528093929190818152602001838380828437600081840152601f19601f820116905080830192505050505050509192919290505050611169565b6040518082815260200191505060405180910390f35b6103866004803603602081101561037057600080fd5b8101908080359060200190929190505050611250565b6040518082815260200191505060405180910390f35b6103d2600480360360408110156103b257600080fd5b810190808035906020019092919080359060200190929190505050611270565b005b6000600254905090565b6000600160009054906101000a900473ffffffffffffffffffffffffffffffffffffffff1673ffffffffffffffffffffffffffffffffffffffff1663293a42ed836040518263ffffffff1660e01b81526004018082815260200191505060006040518083038186803b15801561045357600080fd5b505afa158015610467573d6000803e3d6000fd5b505050506060600560008573ffffffffffffffffffffffffffffffffffffffff1673ffffffffffffffffffffffffffffffffffffffff1681526020019081526020016000208054806020026020016040519081016040528092919081815260200182805480156104f657602002820191906000526020600020905b8154815260200190600101908083116104e2575b5050505050905060008090505b815181101561056b576000600360008381526020019081526020016000209050600181600101600087815260200190815260200160002060009054906101000a900460ff1660ff16141561055d5760019350505050610572565b508080600101915050610503565b5060009150505b92915050565b8060025481106105f0576040517f08c379a00000000000000000000000000000000000000000000000000000000081526004018080602001828103825260138152602001807f526f6c6520646f6573206e6f742065786973740000000000000000000000000081525060200191505060405180910390fd5b60006003600084815260200190815260200160002060020160008573ffffffffffffffffffffffffffffffffffffffff1673ffffffffffffffffffffffffffffffffffffffff16815260200190815260200160002060009054906101000a900460ff1660ff16146106c9576040517f08c379a000000000000000000000000000000000000000000000000000000000815260040180806020018281038252601e8152602001807f526f6c652068617320616c7265616479206265656e2061737369676e6564000081525060200191505060405180910390fd5b6000809054906101000a900473ffffffffffffffffffffffffffffffffffffffff1673ffffffffffffffffffffffffffffffffffffffff1663cff80797336040518263ffffffff1660e01b8152600401808273ffffffffffffffffffffffffffffffffffffffff1673ffffffffffffffffffffffffffffffffffffffff16815260200191505060006040518083038186803b15801561076757600080fd5b505afa15801561077b573d6000803e3d6000fd5b50505050600560008473ffffffffffffffffffffffffffffffffffffffff1673ffffffffffffffffffffffffffffffffffffffff16815260200190815260200160002082908060018154018082558091505090600182039060005260206000200160009091929091909150555060016003600084815260200190815260200160002060020160008573ffffffffffffffffffffffffffffffffffffffff1673ffffffffffffffffffffffffffffffffffffffff16815260200190815260200160002060006101000a81548160ff021916908360ff160217905550505050565b6000600560008373ffffffffffffffffffffffffffffffffffffffff1673ffffffffffffffffffffffffffffffffffffffff168152602001908152602001600020805490509050919050565b81600254811061091e576040517f08c379a00000000000000000000000000000000000000000000000000000000081526004018080602001828103825260138152602001807f526f6c6520646f6573206e6f742065786973740000000000000000000000000081525060200191505060405180910390fd5b816002548110610996576040517f08c379a00000000000000000000000000000000000000000000000000000000081526004018080602001828103825260138152602001807f526f6c6520646f6573206e6f742065786973740000000000000000000000000081525060200191505060405180910390fd5b600060036000858152602001908152602001600020600301600086815260200190815260200160002060009054906101000a900460ff1660ff1614610a43576040517f08c379a00000000000000000000000000000000000000000000000000000000081526004018080602001828103825260168152602001807f526f6c6520616c726561647920696e686572697465640000000000000000000081525060200191505060405180910390fd5b6000809054906101000a900473ffffffffffffffffffffffffffffffffffffffff1673ffffffffffffffffffffffffffffffffffffffff1663cff80797336040518263ffffffff1660e01b8152600401808273ffffffffffffffffffffffffffffffffffffffff1673ffffffffffffffffffffffffffffffffffffffff16815260200191505060006040518083038186803b158015610ae157600080fd5b505afa158015610af5573d6000803e3d6000fd5b50505050600160036000858152602001908152602001600020600301600086815260200190815260200160002060006101000a81548160ff021916908360ff16021790555050505050565b806002548110610bb8576040517f08c379a00000000000000000000000000000000000000000000000000000000081526004018080602001828103825260138152602001807f526f6c6520646f6573206e6f742065786973740000000000000000000000000081525060200191505060405180910390fd5b60016003600084815260200190815260200160002060020160008573ffffffffffffffffffffffffffffffffffffffff1673ffffffffffffffffffffffffffffffffffffffff16815260200190815260200160002060009054906101000a900460ff1660ff1614610c91576040517f08c379a00000000000000000000000000000000000000000000000000000000081526004018080602001828103825260208152602001807f5573657220646f6573206e6f742068617665207468697320726f6c652079657481525060200191505060405180910390fd5b6000809054906101000a900473ffffffffffffffffffffffffffffffffffffffff1673ffffffffffffffffffffffffffffffffffffffff1663cff80797336040518263ffffffff1660e01b8152600401808273ffffffffffffffffffffffffffffffffffffffff1673ffffffffffffffffffffffffffffffffffffffff16815260200191505060006040518083038186803b158015610d2f57600080fd5b505afa158015610d43573d6000803e3d6000fd5b505050506060600560008573ffffffffffffffffffffffffffffffffffffffff1673ffffffffffffffffffffffffffffffffffffffff168152602001908152602001600020805480602002602001604051908101604052809291908181526020018280548015610dd257602002820191906000526020600020905b815481526020019060010190808311610dbe575b5050505050905060008090505b8151811015610e295783828281518110610df557fe5b60200260200101511415610e1c57818181518110610e0f57fe5b6020026020010160008152505b8080600101915050610ddf565b5060006003600085815260200190815260200160002060020160008673ffffffffffffffffffffffffffffffffffffffff1673ffffffffffffffffffffffffffffffffffffffff16815260200190815260200160002060006101000a81548160ff021916908360ff16021790555050505050565b816002548110610f15576040517f08c379a00000000000000000000000000000000000000000000000000000000081526004018080602001828103825260138152602001807f526f6c6520646f6573206e6f742065786973740000000000000000000000000081525060200191505060405180910390fd5b600060036000858152602001908152602001600020600101600084815260200190815260200160002060009054906101000a900460ff1660ff1614610fa5576040517f08c379a00000000000000000000000000000000000000000000000000000000081526004018080602001828103825260288152602001806116966028913960400191505060405180910390fd5b6000809054906101000a900473ffffffffffffffffffffffffffffffffffffffff1673ffffffffffffffffffffffffffffffffffffffff1663cff80797336040518263ffffffff1660e01b8152600401808273ffffffffffffffffffffffffffffffffffffffff1673ffffffffffffffffffffffffffffffffffffffff16815260200191505060006040518083038186803b15801561104357600080fd5b505afa158015611057573d6000803e3d6000fd5b50505050600160009054906101000a900473ffffffffffffffffffffffffffffffffffffffff1673ffffffffffffffffffffffffffffffffffffffff1663293a42ed836040518263ffffffff1660e01b81526004018082815260200191505060006040518083038186803b1580156110ce57600080fd5b505afa1580156110e2573d6000803e3d6000fd5b5050505060046000838152602001908152602001600020839080600181540180825580915050906001820390600052602060002001600090919290919091505550600160036000858152602001908152602001600020600101600084815260200190815260200160002060006101000a81548160ff021916908360ff160217905550505050565b600080825114156111e2576040517f08c379a00000000000000000000000000000000000000000000000000000000081526004018080602001828103825260148152602001807f4e616d652063616e6e6f7420626520626c616e6b00000000000000000000000081525060200191505060405180910390fd5b6111ea6115b7565b604051806020016040528084815250905080600360006002548152602001908152602001600020600082015181600001908051906020019061122d9291906115ca565b509050506001600260008282540192505081905550600160025403915050919050565b600060046000838152602001908152602001600020805490509050919050565b8160025481106112e8576040517f08c379a00000000000000000000000000000000000000000000000000000000081526004018080602001828103825260138152602001807f526f6c6520646f6573206e6f742065786973740000000000000000000000000081525060200191505060405180910390fd5b600160036000858152602001908152602001600020600101600084815260200190815260200160002060009054906101000a900460ff1660ff1614611378576040517f08c379a00000000000000000000000000000000000000000000000000000000081526004018080602001828103825260268152602001806116706026913960400191505060405180910390fd5b6000809054906101000a900473ffffffffffffffffffffffffffffffffffffffff1673ffffffffffffffffffffffffffffffffffffffff1663cff80797336040518263ffffffff1660e01b8152600401808273ffffffffffffffffffffffffffffffffffffffff1673ffffffffffffffffffffffffffffffffffffffff16815260200191505060006040518083038186803b15801561141657600080fd5b505afa15801561142a573d6000803e3d6000fd5b50505050600160009054906101000a900473ffffffffffffffffffffffffffffffffffffffff1673ffffffffffffffffffffffffffffffffffffffff1663293a42ed836040518263ffffffff1660e01b81526004018082815260200191505060006040518083038186803b1580156114a157600080fd5b505afa1580156114b5573d6000803e3d6000fd5b5050505060606004600084815260200190815260200160002080548060200260200160405190810160405280929190818152602001828054801561151857602002820191906000526020600020905b815481526020019060010190808311611504575b5050505050905060008090505b815181101561156f578482828151811061153b57fe5b602002602001015114156115625781818151811061155557fe5b6020026020010160008152505b8080600101915050611525565b50600060036000868152602001908152602001600020600101600085815260200190815260200160002060006101000a81548160ff021916908360ff16021790555050505050565b6040518060200160405280606081525090565b828054600181600116156101000203166002900490600052602060002090601f016020900481019282601f1061160b57805160ff1916838001178555611639565b82800160010185558215611639579182015b8281111561163857825182559160200191906001019061161d565b5b509050611646919061164a565b5090565b61166c91905b80821115611668576000816000905550600101611650565b5090565b9056fe526f6c6520646f6573206e6f7420686176652074686973207065726d697373696f6e207965745065726d697373696f6e20616c72656164792061737369676e656420746f207468697320726f6c65a265627a7a7231582078f93e3a6454b90a16ac000fa087b0444ac41430ef522f68b935578d1f0bfb8a64736f6c63430005110032",
  "source": "pragma solidity ^0.5.17;\r\nimport \"./User.sol\";\r\nimport \"./Permission.sol\";\r\n\r\ncontract Role {\r\n    User userContract;\r\n    Permission permContract;\r\n    uint256 numRoles;\r\n    mapping(uint256 => role) rolesCreated;\r\n    mapping(uint256 => uint256 []) rolesGivenPermission; // Roles that are given a particular permission\r\n    mapping(address => uint256 []) rolesGrantedToUser; // Roles that are granted to a user\r\n\r\n    struct role {\r\n        string name;\r\n        mapping(uint256 => uint8) assignedPermissions;\r\n        mapping(address => uint8) assignedUsers;\r\n        mapping(uint256 => uint8) inheritedRoles;\r\n    }\r\n\r\n    constructor(User users, Permission perms) public {\r\n        userContract = users;\r\n        permContract = perms;\r\n    }\r\n\r\n    modifier validRole(uint256 id) {\r\n        require(id < numRoles, \"Role does not exist\");\r\n        _;\r\n    }\r\n\r\n\r\n    // For creating roles\r\n    function createRole(string memory name) public returns(uint256) {\r\n        require(bytes(name).length != 0, \"Name cannot be blank\");\r\n        role memory createdRole = role(name);\r\n        rolesCreated[numRoles] = createdRole;\r\n        numRoles += 1;\r\n        return numRoles - 1; // in order to return the id of the created rolecheckUserPermission\r\n    }\r\n\r\n    // For role to inherit another role\r\n    function inheritRole(uint256 roleToInherit, uint256 inheritingRole) validRole(roleToInherit) validRole(inheritingRole) public {\r\n        // Check that role has not already been inherited\r\n        require(rolesCreated[inheritingRole].inheritedRoles[roleToInherit] == 0, \"Role already inherited\");\r\n        userContract.adminOnly(msg.sender);\r\n\r\n        rolesCreated[inheritingRole].inheritedRoles[roleToInherit] = 1; // Inherit\r\n    }\r\n\r\n    // For assigning permissions to a role\r\n    function assignPermission(uint256 roleID, uint256 permission) validRole(roleID) public {\r\n        // Check that permission has not already been assigned\r\n        require(rolesCreated[roleID].assignedPermissions[permission] == 0, \"Permission already assigned to this role\");\r\n        userContract.adminOnly(msg.sender);\r\n        permContract.validPermission(permission);\r\n        \r\n        rolesGivenPermission[permission].push(roleID); // Update rolesGivenPermission\r\n        rolesCreated[roleID].assignedPermissions[permission] = 1; // Assign permission\r\n    }\r\n\r\n    // For removing permissions from a role\r\n    function removePermission(uint256 roleID, uint256 permission) validRole(roleID) public {\r\n        // Check that permission has already been assigned\r\n        require(rolesCreated[roleID].assignedPermissions[permission] == 1, \"Role does not have this permission yet\");\r\n        userContract.adminOnly(msg.sender);\r\n        permContract.validPermission(permission);\r\n\r\n        // Update rolesGivenPermission\r\n        uint256 [] memory roles = rolesGivenPermission[permission]; \r\n        for (uint i = 0; i < roles.length; i++) {\r\n            if (roles[i] == roleID) {\r\n                delete(roles[i]);\r\n            }\r\n        }\r\n        rolesCreated[roleID].assignedPermissions[permission] = 0; // Remove permission\r\n    }\r\n\r\n    // For assigning role to a user\r\n    function giveUserRole(address userID, uint256 roleID) validRole(roleID) public {\r\n        // Check that role has not already been assigned\r\n        require(rolesCreated[roleID].assignedUsers[userID] == 0, \"Role has already been assigned\");\r\n        userContract.adminOnly(msg.sender);\r\n\r\n        rolesGrantedToUser[userID].push(roleID); // Update rolesGrantedToUser\r\n        rolesCreated[roleID].assignedUsers[userID] = 1; // Assign role\r\n    }\r\n\r\n    // For removing role assigned to a user\r\n    function removeUserRole(address userID, uint256 roleID) validRole(roleID) public {\r\n        require(rolesCreated[roleID].assignedUsers[userID] == 1, \"User does not have this role yet\");\r\n        userContract.adminOnly(msg.sender);\r\n\r\n        // Update rolesGrantedToUser\r\n        uint256 [] memory roles = rolesGrantedToUser[userID];\r\n        for (uint i = 0; i < roles.length; i++){\r\n            if (roles[i] == roleID) {\r\n                delete(roles[i]);\r\n            }\r\n\r\n        }\r\n        rolesCreated[roleID].assignedUsers[userID] = 0; // Remove role\r\n    }\r\n\r\n    // Check whether user has a particular permission\r\n    function checkUserPermission(address userID, uint256 permission) view public returns (bool) {\r\n        // Check validity of permission\r\n        permContract.validPermission(permission);\r\n\r\n        uint256 [] memory roles = rolesGrantedToUser[userID];\r\n        for (uint i = 0; i < roles.length; i++) {\r\n            role storage r = rolesCreated[i];\r\n            if (r.assignedPermissions[permission] == 1) {\r\n                return true;\r\n            }\r\n        }\r\n        return false;\r\n    }\r\n\r\n\r\n    function getNumRoles() public view returns(uint256) {\r\n        return numRoles;\r\n    }\r\n\r\n    function numRolesGivenToPermission(uint256 permissionID) public view returns(uint256) {\r\n        return rolesGivenPermission[permissionID].length;\r\n    }\r\n\r\n    function numRolesGrantedToUser(address userID) public view returns(uint256) {\r\n        return rolesGrantedToUser[userID].length;\r\n    }\r\n    \r\n\r\n    // Getter Functions\r\n    // Get roles that are given this particular permission\r\n    // function getRolesGiven(uint256 permissionID) validPermission(permissionID) public returns(mapping(uint256 => uint8) memory) {\r\n    //     return rolesGivenPermission[permissionID];\r\n    // }\r\n\r\n    // // Get roles that are granted to this user\r\n    // function getRolesGranted(address userID) public returns(mapping(uint256 => uint8) memory) {\r\n    //     return rolesGrantedToUser[userID];\r\n    // }\r\n\r\n    // // Get permissions that are assigned to this role\r\n    // function getAssignedPermissions(uint256 roleID) validRole(roleID) public returns(mapping(uint256 => uint256) memory) {\r\n    //     return rolesCreated[roleID].assignedPermissions;\r\n    // }\r\n\r\n    // // Get users that are assigned with this role\r\n    // function getAssignedUsers(uint256 roleID) validRole(roleID) public returns(mapping(address => uint256) memory) {\r\n    //     return rolesCreated[roleID].assignedUsers;\r\n    // }\r\n    \r\n    // // Get roles that this role has inherited\r\n    // function getInheritedRoles(uint256 roleID) validRole(roleID) public returns(mapping(uint256 => uint256) memory) {\r\n    //     return rolesCreated[roleID].inheritedRoles;\r\n    // }\r\n}",
  "sourcePath": "C:\\Users\\Anthony Cheang\\Desktop\\University Stuff\\Academics\\Y3S1\\IS4302\\Submissions\\Grp Proj\\Merging_Branch\\is4302_grp19\\is4302_project\\contracts\\Role.sol",
  "compiler": {
    "name": "solc",
    "version": "0.5.17+commit.d19bba13.Emscripten.clang"
  },
  "schemaVersion": "3.4.11",
  "updatedAt": "2023-04-01T05:13:35.606Z",
  "devdoc": {
    "methods": {}
  },
  "userdoc": {
    "methods": {}
  }
}