{
  "contractName": "User",
  "abi": [
    {
      "inputs": [
        {
          "internalType": "string",
          "name": "name",
          "type": "string"
        }
      ],
      "payable": false,
      "stateMutability": "nonpayable",
      "type": "constructor"
    },
    {
      "constant": true,
      "inputs": [
        {
          "internalType": "address",
          "name": "caller",
          "type": "address"
        }
      ],
      "name": "adminOnly",
      "outputs": [],
      "payable": false,
      "stateMutability": "view",
      "type": "function"
    },
    {
      "constant": false,
      "inputs": [
        {
          "internalType": "string",
          "name": "name",
          "type": "string"
        }
      ],
      "name": "createUser",
      "outputs": [],
      "payable": false,
      "stateMutability": "nonpayable",
      "type": "function"
    },
    {
      "constant": false,
      "inputs": [
        {
          "internalType": "address",
          "name": "userID",
          "type": "address"
        }
      ],
      "name": "deleteuser",
      "outputs": [],
      "payable": false,
      "stateMutability": "nonpayable",
      "type": "function"
    },
    {
      "constant": false,
      "inputs": [
        {
          "internalType": "address",
          "name": "userID",
          "type": "address"
        }
      ],
      "name": "giveAdmin",
      "outputs": [],
      "payable": false,
      "stateMutability": "nonpayable",
      "type": "function"
    },
    {
      "constant": false,
      "inputs": [
        {
          "internalType": "address",
          "name": "userID",
          "type": "address"
        }
      ],
      "name": "removeAdmin",
      "outputs": [],
      "payable": false,
      "stateMutability": "nonpayable",
      "type": "function"
    },
    {
      "constant": false,
      "inputs": [
        {
          "internalType": "address",
          "name": "userID",
          "type": "address"
        },
        {
          "internalType": "uint256",
          "name": "amt",
          "type": "uint256"
        }
      ],
      "name": "giveTokens",
      "outputs": [],
      "payable": false,
      "stateMutability": "nonpayable",
      "type": "function"
    },
    {
      "constant": false,
      "inputs": [
        {
          "internalType": "address",
          "name": "userID",
          "type": "address"
        },
        {
          "internalType": "uint256",
          "name": "amt",
          "type": "uint256"
        }
      ],
      "name": "deductTokens",
      "outputs": [],
      "payable": false,
      "stateMutability": "nonpayable",
      "type": "function"
    },
    {
      "constant": true,
      "inputs": [
        {
          "internalType": "address",
          "name": "userID",
          "type": "address"
        }
      ],
      "name": "getTokenBalance",
      "outputs": [
        {
          "internalType": "uint256",
          "name": "",
          "type": "uint256"
        }
      ],
      "payable": false,
      "stateMutability": "view",
      "type": "function"
    },
    {
      "constant": true,
      "inputs": [
        {
          "internalType": "address",
          "name": "userID",
          "type": "address"
        }
      ],
      "name": "checkAdmin",
      "outputs": [
        {
          "internalType": "enum User.adminState",
          "name": "",
          "type": "uint8"
        }
      ],
      "payable": false,
      "stateMutability": "view",
      "type": "function"
    },
    {
      "constant": true,
      "inputs": [
        {
          "internalType": "address",
          "name": "userID",
          "type": "address"
        }
      ],
      "name": "checkIsAdmin",
      "outputs": [
        {
          "internalType": "bool",
          "name": "",
          "type": "bool"
        }
      ],
      "payable": false,
      "stateMutability": "view",
      "type": "function"
    },
    {
      "constant": true,
      "inputs": [],
      "name": "getTotalNumberOfUsers",
      "outputs": [
        {
          "internalType": "uint256",
          "name": "",
          "type": "uint256"
        }
      ],
      "payable": false,
      "stateMutability": "view",
      "type": "function"
    }
  ],
  "bytecode": "0x60806040523480156200001157600080fd5b506040516200104f3803806200104f833981810160405260208110156200003757600080fd5b81019080805160405193929190846401000000008211156200005857600080fd5b838201915060208201858111156200006f57600080fd5b82518660018202830111640100000000821117156200008d57600080fd5b8083526020830192505050908051906020019080838360005b83811015620000c3578082015181840152602081019050620000a6565b50505050905090810190601f168015620000f15780820380516001836020036101000a031916815260200191505b50604052505050600060018190555062000111816200011860201b60201c565b5062000412565b60008151141562000191576040517f08c379a00000000000000000000000000000000000000000000000000000000081526004018080602001828103825260148152602001807f4e616d652063616e6e6f7420626520626c616e6b00000000000000000000000081525060200191505060405180910390fd5b60008060003373ffffffffffffffffffffffffffffffffffffffff1673ffffffffffffffffffffffffffffffffffffffff168152602001908152602001600020600001805460018160011615610100020316600290049050146200025d576040517f08c379a000000000000000000000000000000000000000000000000000000000815260040180806020018281038252601b8152602001807f5573657220616c72656164792068617320616e206163636f756e74000000000081525060200191505060405180910390fd5b6200026762000336565b6040518060600160405280838152602001600060018111156200028657fe5b815260200160008152509050806000803373ffffffffffffffffffffffffffffffffffffffff1673ffffffffffffffffffffffffffffffffffffffff1681526020019081526020016000206000820151816000019080519060200190620002ef92919062000363565b5060208201518160010160006101000a81548160ff021916908360018111156200031557fe5b02179055506040820151816002015590505060018054016001819055505050565b604051806060016040528060608152602001600060018111156200035657fe5b8152602001600081525090565b828054600181600116156101000203166002900490600052602060002090601f016020900481019282601f10620003a657805160ff1916838001178555620003d7565b82800160010185558215620003d7579182015b82811115620003d6578251825591602001919060010190620003b9565b5b509050620003e69190620003ea565b5090565b6200040f91905b808211156200040b576000816000905550600101620003f1565b5090565b90565b610c2d80620004226000396000f3fe608060405234801561001057600080fd5b50600436106100a95760003560e01c806368dc95281161007157806368dc9528146102675780639026dee8146102b5578063a123b34a1461031b578063b126d0e91461035f578063cff80797146103ad578063d953689d146103f1576100a9565b80631785f53c146100ae57806320ce5ae4146100f25780633aecd0e314610136578063507ffba51461018e5780635f01d7df14610249575b600080fd5b6100f0600480360360208110156100c457600080fd5b81019080803573ffffffffffffffffffffffffffffffffffffffff16906020019092919050505061044d565b005b6101346004803603602081101561010857600080fd5b81019080803573ffffffffffffffffffffffffffffffffffffffff1690602001909291905050506104bc565b005b6101786004803603602081101561014c57600080fd5b81019080803573ffffffffffffffffffffffffffffffffffffffff169060200190929190505050610601565b6040518082815260200191505060405180910390f35b610247600480360360208110156101a457600080fd5b81019080803590602001906401000000008111156101c157600080fd5b8201836020820111156101d357600080fd5b803590602001918460018302840111640100000000831117156101f557600080fd5b91908080601f016020809104026020016040519081016040528093929190818152602001838380828437600081840152601f19601f82011690508083019250505050505050919291929050505061064c565b005b610251610861565b6040518082815260200191505060405180910390f35b6102b36004803603604081101561027d57600080fd5b81019080803573ffffffffffffffffffffffffffffffffffffffff1690602001909291908035906020019092919050505061086b565b005b6102f7600480360360208110156102cb57600080fd5b81019080803573ffffffffffffffffffffffffffffffffffffffff1690602001909291905050506108c7565b6040518082600181111561030757fe5b60ff16815260200191505060405180910390f35b61035d6004803603602081101561033157600080fd5b81019080803573ffffffffffffffffffffffffffffffffffffffff16906020019092919050505061091f565b005b6103ab6004803603604081101561037557600080fd5b81019080803573ffffffffffffffffffffffffffffffffffffffff1690602001909291908035906020019092919050505061098e565b005b6103ef600480360360208110156103c357600080fd5b81019080803573ffffffffffffffffffffffffffffffffffffffff1690602001909291905050506109ea565b005b6104336004803603602081101561040757600080fd5b81019080803573ffffffffffffffffffffffffffffffffffffffff169060200190929190505050610a5e565b604051808215151515815260200191505060405180910390f35b610456336109ea565b60016000808373ffffffffffffffffffffffffffffffffffffffff1673ffffffffffffffffffffffffffffffffffffffff16815260200190815260200160002060010160006101000a81548160ff021916908360018111156104b457fe5b021790555050565b60008060003373ffffffffffffffffffffffffffffffffffffffff1673ffffffffffffffffffffffffffffffffffffffff1681526020019081526020016000206000018054600181600116156101000203166002900490501415610588576040517f08c379a00000000000000000000000000000000000000000000000000000000081526004018080602001828103825260128152602001807f5573657220646f65736e2774206578697374000000000000000000000000000081525060200191505060405180910390fd5b610591336109ea565b6000808273ffffffffffffffffffffffffffffffffffffffff1673ffffffffffffffffffffffffffffffffffffffff168152602001908152602001600020600080820160006105e09190610adf565b6001820160006101000a81549060ff02191690556002820160009055505050565b60008060008373ffffffffffffffffffffffffffffffffffffffff1673ffffffffffffffffffffffffffffffffffffffff168152602001908152602001600020600201549050919050565b6000815114156106c4576040517f08c379a00000000000000000000000000000000000000000000000000000000081526004018080602001828103825260148152602001807f4e616d652063616e6e6f7420626520626c616e6b00000000000000000000000081525060200191505060405180910390fd5b60008060003373ffffffffffffffffffffffffffffffffffffffff1673ffffffffffffffffffffffffffffffffffffffff1681526020019081526020016000206000018054600181600116156101000203166002900490501461078f576040517f08c379a000000000000000000000000000000000000000000000000000000000815260040180806020018281038252601b8152602001807f5573657220616c72656164792068617320616e206163636f756e74000000000081525060200191505060405180910390fd5b610797610b27565b60405180606001604052808381526020016001808111156107b457fe5b815260200160008152509050806000803373ffffffffffffffffffffffffffffffffffffffff1673ffffffffffffffffffffffffffffffffffffffff168152602001908152602001600020600082015181600001908051906020019061081b929190610b53565b5060208201518160010160006101000a81548160ff0219169083600181111561084057fe5b02179055506040820151816002015590505060018054016001819055505050565b6000600154905090565b610874336109ea565b806000808473ffffffffffffffffffffffffffffffffffffffff1673ffffffffffffffffffffffffffffffffffffffff168152602001908152602001600020600201600082825401925050819055505050565b60008060008373ffffffffffffffffffffffffffffffffffffffff1673ffffffffffffffffffffffffffffffffffffffff16815260200190815260200160002060010160009054906101000a900460ff169050919050565b610928336109ea565b60008060008373ffffffffffffffffffffffffffffffffffffffff1673ffffffffffffffffffffffffffffffffffffffff16815260200190815260200160002060010160006101000a81548160ff0219169083600181111561098657fe5b021790555050565b610997336109ea565b806000808473ffffffffffffffffffffffffffffffffffffffff1673ffffffffffffffffffffffffffffffffffffffff168152602001908152602001600020600201600082825403925050819055505050565b600060018111156109f757fe5b6000808373ffffffffffffffffffffffffffffffffffffffff1673ffffffffffffffffffffffffffffffffffffffff16815260200190815260200160002060010160009054906101000a900460ff166001811115610a5157fe5b14610a5b57600080fd5b50565b6000806001811115610a6c57fe5b6000808473ffffffffffffffffffffffffffffffffffffffff1673ffffffffffffffffffffffffffffffffffffffff16815260200190815260200160002060010160009054906101000a900460ff166001811115610ac657fe5b1415610ad55760019050610ada565b600090505b919050565b50805460018160011615610100020316600290046000825580601f10610b055750610b24565b601f016020900490600052602060002090810190610b239190610bd3565b5b50565b60405180606001604052806060815260200160006001811115610b4657fe5b8152602001600081525090565b828054600181600116156101000203166002900490600052602060002090601f016020900481019282601f10610b9457805160ff1916838001178555610bc2565b82800160010185558215610bc2579182015b82811115610bc1578251825591602001919060010190610ba6565b5b509050610bcf9190610bd3565b5090565b610bf591905b80821115610bf1576000816000905550600101610bd9565b5090565b9056fea265627a7a72315820967f245e4b527d1a8f1ad6e25804beee8e397fd835519646e89fab928bb8e17a64736f6c63430005110032",
  "source": "// SPDX-License-Identifier: MIT\r\npragma solidity ^0.5.17;\r\n\r\ncontract User {\r\n    enum adminState {\r\n        isAdmin,\r\n        notAdmin\r\n    }\r\n\r\n    mapping(address => user) usersCreated;\r\n\r\n    uint256 totalNumberOfUsers;\r\n\r\n    struct user {\r\n        string name;\r\n        adminState admin;\r\n        uint256 tokenCount;\r\n    }\r\n\r\n    constructor(string memory name) public {\r\n        totalNumberOfUsers = 0;\r\n        createAdmin(name);\r\n    }\r\n\r\n    // Created as a function instead of modifier so that other contracts can use\r\n    function adminOnly(address caller) public view {\r\n        require(usersCreated[caller].admin == adminState.isAdmin);\r\n    }\r\n\r\n    // For creating new users\r\n    function createUser(string memory name) public {\r\n        // Prerequisite checks\r\n        require(bytes(name).length != 0, \"Name cannot be blank\");\r\n        require(\r\n            bytes(usersCreated[msg.sender].name).length == 0,\r\n            \"User already has an account\"\r\n        );\r\n\r\n        // Create User\r\n        user memory newUser = user(name, adminState.notAdmin, 0);\r\n\r\n        // Add to mapping\r\n        usersCreated[msg.sender] = newUser;\r\n\r\n        totalNumberOfUsers = totalNumberOfUsers + 1;\r\n    }\r\n\r\n    // For creating new admins\r\n    function createAdmin(string memory name) internal {\r\n        // Prerequisite checks\r\n        require(bytes(name).length != 0, \"Name cannot be blank\");\r\n        require(\r\n            bytes(usersCreated[msg.sender].name).length == 0,\r\n            \"User already has an account\"\r\n        );\r\n\r\n        // Create User\r\n        user memory newUser = user(name, adminState.isAdmin, 0);\r\n\r\n        // Add to mapping\r\n        usersCreated[msg.sender] = newUser;\r\n\r\n        totalNumberOfUsers = totalNumberOfUsers + 1;\r\n    }\r\n\r\n    // For deleting users\r\n    function deleteuser(address userID) public {\r\n        require(\r\n            bytes(usersCreated[msg.sender].name).length != 0,\r\n            \"User doesn't exist\"\r\n        );\r\n        adminOnly(msg.sender);\r\n        delete usersCreated[userID];\r\n    }\r\n\r\n    // For issuing admin rights\r\n    function giveAdmin(address userID) public {\r\n        adminOnly(msg.sender);\r\n        usersCreated[userID].admin = adminState.isAdmin;\r\n    }\r\n\r\n    // For removing admin rights\r\n    function removeAdmin(address userID) public {\r\n        adminOnly(msg.sender);\r\n        usersCreated[userID].admin = adminState.notAdmin;\r\n    }\r\n\r\n    // For issuing tokens\r\n    function giveTokens(address userID, uint256 amt) public {\r\n        adminOnly(msg.sender);\r\n        usersCreated[userID].tokenCount += amt;\r\n    }\r\n\r\n    // Deduct tokens after use\r\n    function deductTokens(address userID, uint256 amt) public {\r\n        adminOnly(msg.sender);\r\n        usersCreated[userID].tokenCount -= amt;\r\n    }\r\n\r\n    // Getter Functions\r\n    function getTokenBalance(address userID) public view returns (uint256) {\r\n        return usersCreated[userID].tokenCount;\r\n    }\r\n\r\n    function checkAdmin(address userID) public view returns (adminState) {\r\n        return usersCreated[userID].admin;\r\n    }\r\n\r\n    function checkIsAdmin(address userID) public view returns (bool) {\r\n        if(usersCreated[userID].admin == adminState.isAdmin) {\r\n            return true;\r\n        } else {\r\n            return false;\r\n        }\r\n    }\r\n\r\n    function getTotalNumberOfUsers() public view returns (uint256) {\r\n        return totalNumberOfUsers;\r\n    }\r\n}\r\n",
  "sourcePath": "C:\\Users\\Anthony Cheang\\Desktop\\University Stuff\\Academics\\Y3S1\\IS4302\\Submissions\\Grp Proj\\Merging_Branch\\is4302_grp19\\is4302_project\\contracts\\User.sol",
  "compiler": {
    "name": "solc",
    "version": "0.5.17+commit.d19bba13.Emscripten.clang"
  },
  "schemaVersion": "3.4.11",
  "updatedAt": "2023-04-06T01:16:22.370Z",
  "devdoc": {
    "methods": {}
  },
  "userdoc": {
    "methods": {}
  }
}