{
  "contractName": "RequestApprovalManagement",
  "abi": [
    {
      "inputs": [
        {
          "internalType": "contract User",
          "name": "userAddress",
          "type": "address"
        },
        {
          "internalType": "contract Permission",
          "name": "permissionAddress",
          "type": "address"
        },
        {
          "internalType": "contract Role",
          "name": "roleAddress",
          "type": "address"
        },
        {
          "internalType": "contract DatasetUploader",
          "name": "datasetUploaderAddress",
          "type": "address"
        }
      ],
      "payable": false,
      "stateMutability": "nonpayable",
      "type": "constructor"
    },
    {
      "anonymous": false,
      "inputs": [
        {
          "indexed": false,
          "internalType": "uint256",
          "name": "permissionID",
          "type": "uint256"
        },
        {
          "indexed": false,
          "internalType": "uint256",
          "name": "roleID",
          "type": "uint256"
        }
      ],
      "name": "addExistingDatasetToRolesRequestApproved",
      "type": "event"
    },
    {
      "anonymous": false,
      "inputs": [
        {
          "indexed": false,
          "internalType": "address",
          "name": "userID",
          "type": "address"
        },
        {
          "indexed": false,
          "internalType": "uint256",
          "name": "roleID",
          "type": "uint256"
        }
      ],
      "name": "addUsersToRolesRequestApproved",
      "type": "event"
    },
    {
      "anonymous": false,
      "inputs": [
        {
          "indexed": false,
          "internalType": "string",
          "name": "roleName",
          "type": "string"
        }
      ],
      "name": "createNewRoleRequestApproved",
      "type": "event"
    },
    {
      "anonymous": false,
      "inputs": [
        {
          "indexed": false,
          "internalType": "uint256",
          "name": "requestID",
          "type": "uint256"
        }
      ],
      "name": "rejectRequestEvent",
      "type": "event"
    },
    {
      "anonymous": false,
      "inputs": [
        {
          "indexed": false,
          "internalType": "uint256",
          "name": "permissionID",
          "type": "uint256"
        },
        {
          "indexed": false,
          "internalType": "uint256",
          "name": "roleID",
          "type": "uint256"
        }
      ],
      "name": "removeDatasetFromRolesRequestApproved",
      "type": "event"
    },
    {
      "anonymous": false,
      "inputs": [
        {
          "indexed": false,
          "internalType": "uint256",
          "name": "roleID",
          "type": "uint256"
        },
        {
          "indexed": false,
          "internalType": "address",
          "name": "userID",
          "type": "address"
        }
      ],
      "name": "removeRoleRequestApproved",
      "type": "event"
    },
    {
      "anonymous": false,
      "inputs": [
        {
          "indexed": false,
          "internalType": "address",
          "name": "userID",
          "type": "address"
        },
        {
          "indexed": false,
          "internalType": "uint256",
          "name": "roleID",
          "type": "uint256"
        }
      ],
      "name": "removeUsersFromRolesRequestApproved",
      "type": "event"
    },
    {
      "anonymous": false,
      "inputs": [
        {
          "indexed": false,
          "internalType": "string",
          "name": "datasetIdentifier",
          "type": "string"
        },
        {
          "indexed": false,
          "internalType": "uint256",
          "name": "roleID",
          "type": "uint256"
        },
        {
          "indexed": false,
          "internalType": "string",
          "name": "pointer",
          "type": "string"
        },
        {
          "indexed": false,
          "internalType": "address",
          "name": "requestor",
          "type": "address"
        },
        {
          "indexed": false,
          "internalType": "string",
          "name": "permissionName",
          "type": "string"
        }
      ],
      "name": "uploadDatasetToExistingRoleRequestApproved",
      "type": "event"
    },
    {
      "anonymous": false,
      "inputs": [
        {
          "indexed": false,
          "internalType": "string",
          "name": "datasetIdentifier",
          "type": "string"
        },
        {
          "indexed": false,
          "internalType": "string",
          "name": "roleName",
          "type": "string"
        },
        {
          "indexed": false,
          "internalType": "string",
          "name": "pointer",
          "type": "string"
        },
        {
          "indexed": false,
          "internalType": "address",
          "name": "requestor",
          "type": "address"
        },
        {
          "indexed": false,
          "internalType": "string",
          "name": "permissionName",
          "type": "string"
        }
      ],
      "name": "uploadDatasetToNewRoleRequestApproved",
      "type": "event"
    },
    {
      "constant": true,
      "inputs": [],
      "name": "letters",
      "outputs": [
        {
          "internalType": "string",
          "name": "",
          "type": "string"
        }
      ],
      "payable": false,
      "stateMutability": "view",
      "type": "function"
    },
    {
      "constant": true,
      "inputs": [
        {
          "internalType": "uint256",
          "name": "",
          "type": "uint256"
        }
      ],
      "name": "requestsMapping",
      "outputs": [
        {
          "internalType": "address",
          "name": "requesterAddress",
          "type": "address"
        },
        {
          "internalType": "address",
          "name": "adminAddress",
          "type": "address"
        },
        {
          "internalType": "enum RequestApprovalManagement.statusEnum",
          "name": "requestStatus",
          "type": "uint8"
        },
        {
          "internalType": "enum RequestApprovalManagement.requestTypeEnum",
          "name": "requestType",
          "type": "uint8"
        },
        {
          "internalType": "uint256",
          "name": "creationDateTime",
          "type": "uint256"
        },
        {
          "internalType": "uint256",
          "name": "updatedDateTime",
          "type": "uint256"
        },
        {
          "internalType": "string",
          "name": "roleName",
          "type": "string"
        },
        {
          "internalType": "string",
          "name": "datasetIdentifier",
          "type": "string"
        },
        {
          "internalType": "uint256",
          "name": "roleID",
          "type": "uint256"
        },
        {
          "internalType": "uint256",
          "name": "permissionID",
          "type": "uint256"
        },
        {
          "internalType": "address",
          "name": "userID",
          "type": "address"
        },
        {
          "internalType": "string",
          "name": "permissionName",
          "type": "string"
        }
      ],
      "payable": false,
      "stateMutability": "view",
      "type": "function"
    },
    {
      "constant": false,
      "inputs": [
        {
          "internalType": "uint256",
          "name": "requestID",
          "type": "uint256"
        }
      ],
      "name": "approveRequest",
      "outputs": [],
      "payable": false,
      "stateMutability": "nonpayable",
      "type": "function"
    },
    {
      "constant": false,
      "inputs": [
        {
          "internalType": "uint256",
          "name": "requestID",
          "type": "uint256"
        }
      ],
      "name": "rejectRequest",
      "outputs": [],
      "payable": false,
      "stateMutability": "nonpayable",
      "type": "function"
    },
    {
      "constant": false,
      "inputs": [
        {
          "internalType": "string",
          "name": "roleName",
          "type": "string"
        }
      ],
      "name": "createNewRoleRequest",
      "outputs": [],
      "payable": false,
      "stateMutability": "nonpayable",
      "type": "function"
    },
    {
      "constant": false,
      "inputs": [
        {
          "internalType": "uint256",
          "name": "roleID",
          "type": "uint256"
        },
        {
          "internalType": "address",
          "name": "userID",
          "type": "address"
        }
      ],
      "name": "removeRoleRequest",
      "outputs": [],
      "payable": false,
      "stateMutability": "nonpayable",
      "type": "function"
    },
    {
      "constant": false,
      "inputs": [
        {
          "internalType": "uint256",
          "name": "permissionID",
          "type": "uint256"
        },
        {
          "internalType": "uint256",
          "name": "roleID",
          "type": "uint256"
        }
      ],
      "name": "addExistingDatasetToRoleRequest",
      "outputs": [],
      "payable": false,
      "stateMutability": "nonpayable",
      "type": "function"
    },
    {
      "constant": false,
      "inputs": [
        {
          "internalType": "uint256",
          "name": "permissionID",
          "type": "uint256"
        },
        {
          "internalType": "uint256",
          "name": "roleID",
          "type": "uint256"
        }
      ],
      "name": "removeDatasetFromRoleRequest",
      "outputs": [],
      "payable": false,
      "stateMutability": "nonpayable",
      "type": "function"
    },
    {
      "constant": false,
      "inputs": [
        {
          "internalType": "address",
          "name": "userID",
          "type": "address"
        },
        {
          "internalType": "uint256",
          "name": "roleID",
          "type": "uint256"
        }
      ],
      "name": "addUsersToRoleRequest",
      "outputs": [],
      "payable": false,
      "stateMutability": "nonpayable",
      "type": "function"
    },
    {
      "constant": false,
      "inputs": [
        {
          "internalType": "address",
          "name": "userID",
          "type": "address"
        },
        {
          "internalType": "uint256",
          "name": "roleID",
          "type": "uint256"
        }
      ],
      "name": "removeUsersFromRoleRequest",
      "outputs": [],
      "payable": false,
      "stateMutability": "nonpayable",
      "type": "function"
    },
    {
      "constant": false,
      "inputs": [
        {
          "internalType": "string",
          "name": "datasetIdentifier",
          "type": "string"
        },
        {
          "internalType": "string",
          "name": "roleName",
          "type": "string"
        },
        {
          "internalType": "string",
          "name": "permissionName",
          "type": "string"
        }
      ],
      "name": "uploadDatasetToNewRoleRequest",
      "outputs": [],
      "payable": false,
      "stateMutability": "nonpayable",
      "type": "function"
    },
    {
      "constant": false,
      "inputs": [
        {
          "internalType": "string",
          "name": "datasetIdentifier",
          "type": "string"
        },
        {
          "internalType": "uint256",
          "name": "roleID",
          "type": "uint256"
        },
        {
          "internalType": "string",
          "name": "permissionName",
          "type": "string"
        }
      ],
      "name": "uploadDatasetToExistingRoleRequest",
      "outputs": [],
      "payable": false,
      "stateMutability": "nonpayable",
      "type": "function"
    },
    {
      "constant": true,
      "inputs": [
        {
          "internalType": "uint256",
          "name": "requestID",
          "type": "uint256"
        }
      ],
      "name": "getRequestStatus",
      "outputs": [
        {
          "internalType": "enum RequestApprovalManagement.requestTypeEnum",
          "name": "",
          "type": "uint8"
        }
      ],
      "payable": false,
      "stateMutability": "view",
      "type": "function"
    },
    {
      "constant": true,
      "inputs": [],
      "name": "getTotalNumberOfRequests",
      "outputs": [
        {
          "internalType": "uint256",
          "name": "",
          "type": "uint256"
        }
      ],
      "payable": false,
      "stateMutability": "view",
      "type": "function"
    },
    {
      "constant": false,
      "inputs": [
        {
          "internalType": "string",
          "name": "roleName",
          "type": "string"
        }
      ],
      "name": "createNewRole",
      "outputs": [],
      "payable": false,
      "stateMutability": "nonpayable",
      "type": "function"
    },
    {
      "constant": false,
      "inputs": [
        {
          "internalType": "uint256",
          "name": "roleID",
          "type": "uint256"
        },
        {
          "internalType": "address",
          "name": "userID",
          "type": "address"
        }
      ],
      "name": "removeRole",
      "outputs": [],
      "payable": false,
      "stateMutability": "nonpayable",
      "type": "function"
    },
    {
      "constant": false,
      "inputs": [
        {
          "internalType": "uint256",
          "name": "permissionID",
          "type": "uint256"
        },
        {
          "internalType": "uint256",
          "name": "roleID",
          "type": "uint256"
        }
      ],
      "name": "addExistingDatasetToRole",
      "outputs": [],
      "payable": false,
      "stateMutability": "nonpayable",
      "type": "function"
    },
    {
      "constant": false,
      "inputs": [
        {
          "internalType": "uint256",
          "name": "permissionID",
          "type": "uint256"
        },
        {
          "internalType": "uint256",
          "name": "roleID",
          "type": "uint256"
        }
      ],
      "name": "removeDatasetFromRole",
      "outputs": [],
      "payable": false,
      "stateMutability": "nonpayable",
      "type": "function"
    },
    {
      "constant": false,
      "inputs": [
        {
          "internalType": "address",
          "name": "userID",
          "type": "address"
        },
        {
          "internalType": "uint256",
          "name": "roleID",
          "type": "uint256"
        }
      ],
      "name": "addUsersToRole",
      "outputs": [],
      "payable": false,
      "stateMutability": "nonpayable",
      "type": "function"
    },
    {
      "constant": false,
      "inputs": [
        {
          "internalType": "address",
          "name": "userID",
          "type": "address"
        },
        {
          "internalType": "uint256",
          "name": "roleID",
          "type": "uint256"
        }
      ],
      "name": "removeUsersFromRole",
      "outputs": [],
      "payable": false,
      "stateMutability": "nonpayable",
      "type": "function"
    },
    {
      "constant": false,
      "inputs": [
        {
          "internalType": "string",
          "name": "datasetIdentifier",
          "type": "string"
        },
        {
          "internalType": "string",
          "name": "roleName",
          "type": "string"
        },
        {
          "internalType": "address",
          "name": "requestor",
          "type": "address"
        },
        {
          "internalType": "string",
          "name": "permissionName",
          "type": "string"
        }
      ],
      "name": "uploadDatasetToNewRole",
      "outputs": [],
      "payable": false,
      "stateMutability": "nonpayable",
      "type": "function"
    },
    {
      "constant": false,
      "inputs": [
        {
          "internalType": "string",
          "name": "datasetIdentifier",
          "type": "string"
        },
        {
          "internalType": "uint256",
          "name": "roleID",
          "type": "uint256"
        },
        {
          "internalType": "address",
          "name": "requestor",
          "type": "address"
        },
        {
          "internalType": "string",
          "name": "permissionName",
          "type": "string"
        }
      ],
      "name": "uploadDatasetToExistingRole",
      "outputs": [],
      "payable": false,
      "stateMutability": "nonpayable",
      "type": "function"
    },
    {
      "constant": false,
      "inputs": [
        {
          "internalType": "uint256",
          "name": "size",
          "type": "uint256"
        }
      ],
      "name": "randomString",
      "outputs": [
        {
          "internalType": "string",
          "name": "",
          "type": "string"
        }
      ],
      "payable": false,
      "stateMutability": "nonpayable",
      "type": "function"
    },
    {
      "constant": false,
      "inputs": [
        {
          "internalType": "uint256",
          "name": "number",
          "type": "uint256"
        }
      ],
      "name": "random",
      "outputs": [
        {
          "internalType": "uint256",
          "name": "",
          "type": "uint256"
        }
      ],
      "payable": false,
      "stateMutability": "nonpayable",
      "type": "function"
    }
  ],
  "bytecode": "0x60806040526040518060400160405280601a81526020017f6162636465666768696a6b6c6d6e6f707172737475767778797a0000000000008152506006908051906020019062000051929190620001ce565b5060016007553480156200006457600080fd5b5060405162003f9838038062003f98833981810160405260808110156200008a57600080fd5b8101908080519060200190929190805190602001909291908051906020019092919080519060200190929190505050836000806101000a81548173ffffffffffffffffffffffffffffffffffffffff021916908373ffffffffffffffffffffffffffffffffffffffff16021790555082600160006101000a81548173ffffffffffffffffffffffffffffffffffffffff021916908373ffffffffffffffffffffffffffffffffffffffff16021790555081600260006101000a81548173ffffffffffffffffffffffffffffffffffffffff021916908373ffffffffffffffffffffffffffffffffffffffff16021790555080600360006101000a81548173ffffffffffffffffffffffffffffffffffffffff021916908373ffffffffffffffffffffffffffffffffffffffff1602179055506000600581905550505050506200027d565b828054600181600116156101000203166002900490600052602060002090601f016020900481019282601f106200021157805160ff191683800117855562000242565b8280016001018555821562000242579182015b828111156200024157825182559160200191906001019062000224565b5b50905062000251919062000255565b5090565b6200027a91905b80821115620002765760008160009055506001016200025c565b5090565b90565b613d0b806200028d6000396000f3fe608060405234801561001057600080fd5b50600436106101585760003560e01c806378281dd1116100c3578063d7d1bbdb1161007c578063d7d1bbdb14610d35578063d8a4676f14610d63578063e2a7430014610db3578063e3fc582814610deb578063ea49978b14611049578063fafa5e9c1461109757610158565b806378281dd1146108e05780638ff555d2146108fe578063ab1e6a8b14610b07578063b2c6a59214610b3f578063b863bd3714610cbb578063bd3ad78e14610cfd57610158565b806334a0d0fd1161011557806334a0d0fd146105385780633c1a9b24146106945780633c7a0c34146106e25780633fd29b1b1461079d5780635152da1e146107eb5780635bf9d6de1461083957610158565b8063045e68431461015d5780630a454795146103465780632040a4651461037e5780632bead3e8146104015780632d7788db146104bc5780633238405b146104ea575b600080fd5b6103446004803603606081101561017357600080fd5b810190808035906020019064010000000081111561019057600080fd5b8201836020820111156101a257600080fd5b803590602001918460018302840111640100000000831117156101c457600080fd5b91908080601f016020809104026020016040519081016040528093929190818152602001838380828437600081840152601f19601f8201169050808301925050505050505091929192908035906020019064010000000081111561022757600080fd5b82018360208201111561023957600080fd5b8035906020019184600183028401116401000000008311171561025b57600080fd5b91908080601f016020809104026020016040519081016040528093929190818152602001838380828437600081840152601f19601f820116905080830192505050505050509192919290803590602001906401000000008111156102be57600080fd5b8201836020820111156102d057600080fd5b803590602001918460018302840111640100000000831117156102f257600080fd5b91908080601f016020809104026020016040519081016040528093929190818152602001838380828437600081840152601f19601f8201169050808301925050505050505091929192905050506110e5565b005b61037c6004803603604081101561035c57600080fd5b810190808035906020019092919080359060200190929190505050611374565b005b6103866113b7565b6040518080602001828103825283818151815260200191508051906020019080838360005b838110156103c65780820151818401526020810190506103ab565b50505050905090810190601f1680156103f35780820380516001836020036101000a031916815260200191505b509250505060405180910390f35b6104ba6004803603602081101561041757600080fd5b810190808035906020019064010000000081111561043457600080fd5b82018360208201111561044657600080fd5b8035906020019184600183028401116401000000008311171561046857600080fd5b91908080601f016020809104026020016040519081016040528093929190818152602001838380828437600081840152601f19601f820116905080830192505050505050509192919290505050611455565b005b6104e8600480360360208110156104d257600080fd5b8101908080359060200190929190505050611700565b005b6105366004803603604081101561050057600080fd5b8101908080359060200190929190803573ffffffffffffffffffffffffffffffffffffffff169060200190929190505050611772565b005b6106926004803603606081101561054e57600080fd5b810190808035906020019064010000000081111561056b57600080fd5b82018360208201111561057d57600080fd5b8035906020019184600183028401116401000000008311171561059f57600080fd5b91908080601f016020809104026020016040519081016040528093929190818152602001838380828437600081840152601f19601f820116905080830192505050505050509192919290803590602001909291908035906020019064010000000081111561060c57600080fd5b82018360208201111561061e57600080fd5b8035906020019184600183028401116401000000008311171561064057600080fd5b91908080601f016020809104026020016040519081016040528093929190818152602001838380828437600081840152601f19601f8201169050808301925050505050505091929192905050506117e1565b005b6106e0600480360360408110156106aa57600080fd5b81019080803573ffffffffffffffffffffffffffffffffffffffff16906020019092919080359060200190929190505050611a7d565b005b61079b600480360360208110156106f857600080fd5b810190808035906020019064010000000081111561071557600080fd5b82018360208201111561072757600080fd5b8035906020019184600183028401116401000000008311171561074957600080fd5b91908080601f016020809104026020016040519081016040528093929190818152602001838380828437600081840152601f19601f820116905080830192505050505050509192919290505050611d36565b005b6107e9600480360360408110156107b357600080fd5b8101908080359060200190929190803573ffffffffffffffffffffffffffffffffffffffff169060200190929190505050611dd5565b005b6108376004803603604081101561080157600080fd5b81019080803573ffffffffffffffffffffffffffffffffffffffff1690602001909291908035906020019092919050505061208e565b005b6108656004803603602081101561084f57600080fd5b81019080803590602001909291905050506120fd565b6040518080602001828103825283818151815260200191508051906020019080838360005b838110156108a557808201518184015260208101905061088a565b50505050905090810190601f1680156108d25780820380516001836020036101000a031916815260200191505b509250505060405180910390f35b6108e861222e565b6040518082815260200191505060405180910390f35b610b056004803603608081101561091457600080fd5b810190808035906020019064010000000081111561093157600080fd5b82018360208201111561094357600080fd5b8035906020019184600183028401116401000000008311171561096557600080fd5b91908080601f016020809104026020016040519081016040528093929190818152602001838380828437600081840152601f19601f820116905080830192505050505050509192919290803590602001906401000000008111156109c857600080fd5b8201836020820111156109da57600080fd5b803590602001918460018302840111640100000000831117156109fc57600080fd5b91908080601f016020809104026020016040519081016040528093929190818152602001838380828437600081840152601f19601f820116905080830192505050505050509192919290803573ffffffffffffffffffffffffffffffffffffffff16906020019092919080359060200190640100000000811115610a7f57600080fd5b820183602082011115610a9157600080fd5b80359060200191846001830284011164010000000083111715610ab357600080fd5b91908080601f016020809104026020016040519081016040528093929190818152602001838380828437600081840152601f19601f820116905080830192505050505050509192919290505050612238565b005b610b3d60048036036040811015610b1d57600080fd5b810190808035906020019092919080359060200190929190505050612464565b005b610cb960048036036080811015610b5557600080fd5b8101908080359060200190640100000000811115610b7257600080fd5b820183602082011115610b8457600080fd5b80359060200191846001830284011164010000000083111715610ba657600080fd5b91908080601f016020809104026020016040519081016040528093929190818152602001838380828437600081840152601f19601f82011690508083019250505050505050919291929080359060200190929190803573ffffffffffffffffffffffffffffffffffffffff16906020019092919080359060200190640100000000811115610c3357600080fd5b820183602082011115610c4557600080fd5b80359060200191846001830284011164010000000083111715610c6757600080fd5b91908080601f016020809104026020016040519081016040528093929190818152602001838380828437600081840152601f19601f8201169050808301925050505050505091929192905050506124a7565b005b610ce760048036036020811015610cd157600080fd5b810190808035906020019092919050505061266e565b6040518082815260200191505060405180910390f35b610d3360048036036040811015610d1357600080fd5b810190808035906020019092919080359060200190929190505050612705565b005b610d6160048036036020811015610d4b57600080fd5b81019080803590602001909291905050506129be565b005b610d8f60048036036020811015610d7957600080fd5b81019080803590602001909291905050506132c8565b60405180826007811115610d9f57fe5b60ff16815260200191505060405180910390f35b610de960048036036040811015610dc957600080fd5b8101908080359060200190929190803590602001909291905050506132f5565b005b610e1760048036036020811015610e0157600080fd5b81019080803590602001909291905050506135ae565b604051808d73ffffffffffffffffffffffffffffffffffffffff1673ffffffffffffffffffffffffffffffffffffffff1681526020018c73ffffffffffffffffffffffffffffffffffffffff1673ffffffffffffffffffffffffffffffffffffffff1681526020018b6002811115610e8b57fe5b60ff1681526020018a6007811115610e9f57fe5b60ff16815260200189815260200188815260200180602001806020018781526020018681526020018573ffffffffffffffffffffffffffffffffffffffff1673ffffffffffffffffffffffffffffffffffffffff1681526020018060200184810384528a818151815260200191508051906020019080838360005b83811015610f35578082015181840152602081019050610f1a565b50505050905090810190601f168015610f625780820380516001836020036101000a031916815260200191505b50848103835289818151815260200191508051906020019080838360005b83811015610f9b578082015181840152602081019050610f80565b50505050905090810190601f168015610fc85780820380516001836020036101000a031916815260200191505b50848103825285818151815260200191508051906020019080838360005b83811015611001578082015181840152602081019050610fe6565b50505050905090810190601f16801561102e5780820380516001836020036101000a031916815260200191505b509f5050505050505050505050505050505060405180910390f35b6110956004803603604081101561105f57600080fd5b81019080803573ffffffffffffffffffffffffffffffffffffffff16906020019092919080359060200190929190505050613850565b005b6110e3600480360360408110156110ad57600080fd5b81019080803573ffffffffffffffffffffffffffffffffffffffff169060200190929190803590602001909291905050506138bf565b005b6110ed613b78565b6040518061018001604052803373ffffffffffffffffffffffffffffffffffffffff168152602001600073ffffffffffffffffffffffffffffffffffffffff1681526020016000600281111561113f57fe5b81526020016006600781111561115157fe5b81526020014281526020014281526020018481526020018581526020016000815260200160008152602001600073ffffffffffffffffffffffffffffffffffffffff1681526020018381525090508060046000600554815260200190815260200160002060008201518160000160006101000a81548173ffffffffffffffffffffffffffffffffffffffff021916908373ffffffffffffffffffffffffffffffffffffffff16021790555060208201518160010160006101000a81548173ffffffffffffffffffffffffffffffffffffffff021916908373ffffffffffffffffffffffffffffffffffffffff16021790555060408201518160010160146101000a81548160ff0219169083600281111561126757fe5b021790555060608201518160010160156101000a81548160ff0219169083600781111561129057fe5b02179055506080820151816002015560a0820151816003015560c08201518160040190805190602001906112c5929190613c31565b5060e08201518160050190805190602001906112e2929190613c31565b50610100820151816006015561012082015181600701556101408201518160080160006101000a81548173ffffffffffffffffffffffffffffffffffffffff021916908373ffffffffffffffffffffffffffffffffffffffff16021790555061016082015181600901908051906020019061135e929190613c31565b5090505060016005540160058190555050505050565b7f6cecdfdd8d32024ca260a355a0db20cc6cb3b8e8bec573020091f66e646322b38282604051808381526020018281526020019250505060405180910390a15050565b60068054600181600116156101000203166002900480601f01602080910402602001604051908101604052809291908181526020018280546001816001161561010002031660029004801561144d5780601f106114225761010080835404028352916020019161144d565b820191906000526020600020905b81548152906001019060200180831161143057829003601f168201915b505050505081565b61145d613b78565b6040518061018001604052803373ffffffffffffffffffffffffffffffffffffffff168152602001600073ffffffffffffffffffffffffffffffffffffffff168152602001600060028111156114af57fe5b8152602001600060078111156114c157fe5b81526020014281526020014281526020018381526020016040518060200160405280600081525081526020016000815260200160008152602001600073ffffffffffffffffffffffffffffffffffffffff1681526020016040518060200160405280600081525081525090508060046000600554815260200190815260200160002060008201518160000160006101000a81548173ffffffffffffffffffffffffffffffffffffffff021916908373ffffffffffffffffffffffffffffffffffffffff16021790555060208201518160010160006101000a81548173ffffffffffffffffffffffffffffffffffffffff021916908373ffffffffffffffffffffffffffffffffffffffff16021790555060408201518160010160146101000a81548160ff021916908360028111156115f557fe5b021790555060608201518160010160156101000a81548160ff0219169083600781111561161e57fe5b02179055506080820151816002015560a0820151816003015560c0820151816004019080519060200190611653929190613c31565b5060e0820151816005019080519060200190611670929190613c31565b50610100820151816006015561012082015181600701556101408201518160080160006101000a81548173ffffffffffffffffffffffffffffffffffffffff021916908373ffffffffffffffffffffffffffffffffffffffff1602179055506101608201518160090190805190602001906116ec929190613c31565b509050506001600554016005819055505050565b60026004600083815260200190815260200160002060010160146101000a81548160ff0219169083600281111561173357fe5b02179055507fceba7613daa5b045ce6692216e891f1213703eb788f15a8dfe8bf60ae2ef74f4816040518082815260200191505060405180910390a150565b7ffd76648f96a65b610ce0ad7f74c6336930186737f58a027b0a511cc93810e6508282604051808381526020018273ffffffffffffffffffffffffffffffffffffffff1673ffffffffffffffffffffffffffffffffffffffff1681526020019250505060405180910390a15050565b6117e9613b78565b6040518061018001604052803373ffffffffffffffffffffffffffffffffffffffff168152602001600073ffffffffffffffffffffffffffffffffffffffff1681526020016000600281111561183b57fe5b815260200160078081111561184c57fe5b815260200142815260200142815260200160405180602001604052806000815250815260200185815260200184815260200160008152602001600073ffffffffffffffffffffffffffffffffffffffff1681526020018381525090508060046000600554815260200190815260200160002060008201518160000160006101000a81548173ffffffffffffffffffffffffffffffffffffffff021916908373ffffffffffffffffffffffffffffffffffffffff16021790555060208201518160010160006101000a81548173ffffffffffffffffffffffffffffffffffffffff021916908373ffffffffffffffffffffffffffffffffffffffff16021790555060408201518160010160146101000a81548160ff0219169083600281111561197057fe5b021790555060608201518160010160156101000a81548160ff0219169083600781111561199957fe5b02179055506080820151816002015560a0820151816003015560c08201518160040190805190602001906119ce929190613c31565b5060e08201518160050190805190602001906119eb929190613c31565b50610100820151816006015561012082015181600701556101408201518160080160006101000a81548173ffffffffffffffffffffffffffffffffffffffff021916908373ffffffffffffffffffffffffffffffffffffffff160217905550610160820151816009019080519060200190611a67929190613c31565b5090505060016005540160058190555050505050565b611a85613b78565b6040518061018001604052803373ffffffffffffffffffffffffffffffffffffffff168152602001600073ffffffffffffffffffffffffffffffffffffffff16815260200160006002811115611ad757fe5b815260200160046007811115611ae957fe5b8152602001428152602001428152602001604051806020016040528060008152508152602001604051806020016040528060008152508152602001838152602001600081526020018473ffffffffffffffffffffffffffffffffffffffff1681526020016040518060200160405280600081525081525090508060046000600554815260200190815260200160002060008201518160000160006101000a81548173ffffffffffffffffffffffffffffffffffffffff021916908373ffffffffffffffffffffffffffffffffffffffff16021790555060208201518160010160006101000a81548173ffffffffffffffffffffffffffffffffffffffff021916908373ffffffffffffffffffffffffffffffffffffffff16021790555060408201518160010160146101000a81548160ff02191690836002811115611c2a57fe5b021790555060608201518160010160156101000a81548160ff02191690836007811115611c5357fe5b02179055506080820151816002015560a0820151816003015560c0820151816004019080519060200190611c88929190613c31565b5060e0820151816005019080519060200190611ca5929190613c31565b50610100820151816006015561012082015181600701556101408201518160080160006101000a81548173ffffffffffffffffffffffffffffffffffffffff021916908373ffffffffffffffffffffffffffffffffffffffff160217905550610160820151816009019080519060200190611d21929190613c31565b50905050600160055401600581905550505050565b7f32b47ce6cb2f21c2a9f56b2f9f4dfb101ca6a4d0412a0a40a773478bfd764ce3816040518080602001828103825283818151815260200191508051906020019080838360005b83811015611d98578082015181840152602081019050611d7d565b50505050905090810190601f168015611dc55780820380516001836020036101000a031916815260200191505b509250505060405180910390a150565b611ddd613b78565b6040518061018001604052803373ffffffffffffffffffffffffffffffffffffffff168152602001600073ffffffffffffffffffffffffffffffffffffffff16815260200160006002811115611e2f57fe5b815260200160016007811115611e4157fe5b8152602001428152602001428152602001604051806020016040528060008152508152602001604051806020016040528060008152508152602001848152602001600081526020018373ffffffffffffffffffffffffffffffffffffffff1681526020016040518060200160405280600081525081525090508060046000600554815260200190815260200160002060008201518160000160006101000a81548173ffffffffffffffffffffffffffffffffffffffff021916908373ffffffffffffffffffffffffffffffffffffffff16021790555060208201518160010160006101000a81548173ffffffffffffffffffffffffffffffffffffffff021916908373ffffffffffffffffffffffffffffffffffffffff16021790555060408201518160010160146101000a81548160ff02191690836002811115611f8257fe5b021790555060608201518160010160156101000a81548160ff02191690836007811115611fab57fe5b02179055506080820151816002015560a0820151816003015560c0820151816004019080519060200190611fe0929190613c31565b5060e0820151816005019080519060200190611ffd929190613c31565b50610100820151816006015561012082015181600701556101408201518160080160006101000a81548173ffffffffffffffffffffffffffffffffffffffff021916908373ffffffffffffffffffffffffffffffffffffffff160217905550610160820151816009019080519060200190612079929190613c31565b50905050600160055401600581905550505050565b7f1d7ea454250c80d8537b5b154c16038fd3a2f514a447b72ec326c4bacbcffdcc8282604051808373ffffffffffffffffffffffffffffffffffffffff1673ffffffffffffffffffffffffffffffffffffffff1681526020018281526020019250505060405180910390a15050565b606080826040519080825280601f01601f1916602001820160405280156121335781602001600182028038833980820191505090505b5090506060601a6040519080825280601f01601f19166020018201604052801561216c5781602001600182028038833980820191505090505b5090506040518060400160405280601a81526020017f6162636465666768696a6b6c6d6e6f707172737475767778797a000000000000815250905060008090505b848110156122235760006121c1601a61266e565b90508281815181106121cf57fe5b602001015160f81c60f81b8483815181106121e657fe5b60200101907effffffffffffffffffffffffffffffffffffffffffffffffffffffffffffff1916908160001a9053505080806001019150506121ad565b508192505050919050565b6000600554905090565b6060612244600a6120fd565b90507fe0ee34564e2b49abbfdf9160835665c67034141950c40c63d52e2d8024368dd28585838686604051808060200180602001806020018673ffffffffffffffffffffffffffffffffffffffff1673ffffffffffffffffffffffffffffffffffffffff1681526020018060200185810385528a818151815260200191508051906020019080838360005b838110156122ea5780820151818401526020810190506122cf565b50505050905090810190601f1680156123175780820380516001836020036101000a031916815260200191505b50858103845289818151815260200191508051906020019080838360005b83811015612350578082015181840152602081019050612335565b50505050905090810190601f16801561237d5780820380516001836020036101000a031916815260200191505b50858103835288818151815260200191508051906020019080838360005b838110156123b657808201518184015260208101905061239b565b50505050905090810190601f1680156123e35780820380516001836020036101000a031916815260200191505b50858103825286818151815260200191508051906020019080838360005b8381101561241c578082015181840152602081019050612401565b50505050905090810190601f1680156124495780820380516001836020036101000a031916815260200191505b50995050505050505050505060405180910390a15050505050565b7f0a0775ecb238de39dd904b9cb98430e9ed571b7fcea40971217700ece19d99658282604051808381526020018281526020019250505060405180910390a15050565b60606124b3600a6120fd565b90507f145ae2ef407de20a6c4c3eaf52381b0a9ddff2e84011c123de14013a42317f5f85858386866040518080602001868152602001806020018573ffffffffffffffffffffffffffffffffffffffff1673ffffffffffffffffffffffffffffffffffffffff16815260200180602001848103845289818151815260200191508051906020019080838360005b8381101561255b578082015181840152602081019050612540565b50505050905090810190601f1680156125885780820380516001836020036101000a031916815260200191505b50848103835287818151815260200191508051906020019080838360005b838110156125c15780820151818401526020810190506125a6565b50505050905090810190601f1680156125ee5780820380516001836020036101000a031916815260200191505b50848103825285818151815260200191508051906020019080838360005b8381101561262757808201518184015260208101905061260c565b50505050905090810190601f1680156126545780820380516001836020036101000a031916815260200191505b509850505050505050505060405180910390a15050505050565b600060076000815480929190600101919050555081424433600754604051602001808581526020018481526020018373ffffffffffffffffffffffffffffffffffffffff1673ffffffffffffffffffffffffffffffffffffffff1660601b81526014018281526020019450505050506040516020818303038152906040528051906020012060001c816126fd57fe5b069050919050565b61270d613b78565b6040518061018001604052803373ffffffffffffffffffffffffffffffffffffffff168152602001600073ffffffffffffffffffffffffffffffffffffffff1681526020016000600281111561275f57fe5b81526020016002600781111561277157fe5b8152602001428152602001428152602001604051806020016040528060008152508152602001604051806020016040528060008152508152602001838152602001848152602001600073ffffffffffffffffffffffffffffffffffffffff1681526020016040518060200160405280600081525081525090508060046000600554815260200190815260200160002060008201518160000160006101000a81548173ffffffffffffffffffffffffffffffffffffffff021916908373ffffffffffffffffffffffffffffffffffffffff16021790555060208201518160010160006101000a81548173ffffffffffffffffffffffffffffffffffffffff021916908373ffffffffffffffffffffffffffffffffffffffff16021790555060408201518160010160146101000a81548160ff021916908360028111156128b257fe5b021790555060608201518160010160156101000a81548160ff021916908360078111156128db57fe5b02179055506080820151816002015560a0820151816003015560c0820151816004019080519060200190612910929190613c31565b5060e082015181600501908051906020019061292d929190613c31565b50610100820151816006015561012082015181600701556101408201518160080160006101000a81548173ffffffffffffffffffffffffffffffffffffffff021916908373ffffffffffffffffffffffffffffffffffffffff1602179055506101608201518160090190805190602001906129a9929190613c31565b50905050600160055401600581905550505050565b600060078111156129cb57fe5b6004600083815260200190815260200160002060010160159054906101000a900460ff1660078111156129fa57fe5b1415612abc57612ab7600460008381526020019081526020016000206004018054600181600116156101000203166002900480601f016020809104026020016040519081016040528092919081815260200182805460018160011615610100020316600290048015612aad5780601f10612a8257610100808354040283529160200191612aad565b820191906000526020600020905b815481529060010190602001808311612a9057829003601f168201915b5050505050611d36565b61321d565b60016007811115612ac957fe5b6004600083815260200190815260200160002060010160159054906101000a900460ff166007811115612af857fe5b1415612b5957612b5460046000838152602001908152602001600020600601546004600084815260200190815260200160002060080160009054906101000a900473ffffffffffffffffffffffffffffffffffffffff16611772565b61321c565b60026007811115612b6657fe5b6004600083815260200190815260200160002060010160159054906101000a900460ff166007811115612b9557fe5b1415612bd657612bd160046000838152602001908152602001600020600701546004600084815260200190815260200160002060060154612464565b61321b565b60036007811115612be357fe5b6004600083815260200190815260200160002060010160159054906101000a900460ff166007811115612c1257fe5b1415612c5357612c4e60046000838152602001908152602001600020600701546004600084815260200190815260200160002060060154611374565b61321a565b60046007811115612c6057fe5b6004600083815260200190815260200160002060010160159054906101000a900460ff166007811115612c8f57fe5b1415612cf057612ceb6004600083815260200190815260200160002060080160009054906101000a900473ffffffffffffffffffffffffffffffffffffffff166004600084815260200190815260200160002060060154613850565b613219565b60056007811115612cfd57fe5b6004600083815260200190815260200160002060010160159054906101000a900460ff166007811115612d2c57fe5b1415612d8d57612d886004600083815260200190815260200160002060080160009054906101000a900473ffffffffffffffffffffffffffffffffffffffff16600460008481526020019081526020016000206006015461208e565b613218565b60066007811115612d9a57fe5b6004600083815260200190815260200160002060010160159054906101000a900460ff166007811115612dc957fe5b14156130205761301b600460008381526020019081526020016000206005018054600181600116156101000203166002900480601f016020809104026020016040519081016040528092919081815260200182805460018160011615610100020316600290048015612e7c5780601f10612e5157610100808354040283529160200191612e7c565b820191906000526020600020905b815481529060010190602001808311612e5f57829003601f168201915b5050505050600460008481526020019081526020016000206004018054600181600116156101000203166002900480601f016020809104026020016040519081016040528092919081815260200182805460018160011615610100020316600290048015612f2b5780601f10612f0057610100808354040283529160200191612f2b565b820191906000526020600020905b815481529060010190602001808311612f0e57829003601f168201915b50505050506004600085815260200190815260200160002060000160009054906101000a900473ffffffffffffffffffffffffffffffffffffffff16600460008681526020019081526020016000206009018054600181600116156101000203166002900480601f0160208091040260200160405190810160405280929190818152602001828054600181600116156101000203166002900480156130115780601f10612fe657610100808354040283529160200191613011565b820191906000526020600020905b815481529060010190602001808311612ff457829003601f168201915b5050505050612238565b613217565b60078081111561302c57fe5b6004600083815260200190815260200160002060010160159054906101000a900460ff16600781111561305b57fe5b141561321657613215600460008381526020019081526020016000206005018054600181600116156101000203166002900480601f01602080910402602001604051908101604052809291908181526020018280546001816001161561010002031660029004801561310e5780601f106130e35761010080835404028352916020019161310e565b820191906000526020600020905b8154815290600101906020018083116130f157829003601f168201915b505050505060046000848152602001908152602001600020600601546004600085815260200190815260200160002060000160009054906101000a900473ffffffffffffffffffffffffffffffffffffffff16600460008681526020019081526020016000206009018054600181600116156101000203166002900480601f01602080910402602001604051908101604052809291908181526020018280546001816001161561010002031660029004801561320b5780601f106131e05761010080835404028352916020019161320b565b820191906000526020600020905b8154815290600101906020018083116131ee57829003601f168201915b50505050506124a7565b5b5b5b5b5b5b5b5b426004600083815260200190815260200160002060030181905550336004600083815260200190815260200160002060010160006101000a81548173ffffffffffffffffffffffffffffffffffffffff021916908373ffffffffffffffffffffffffffffffffffffffff16021790555060016004600083815260200190815260200160002060010160146101000a81548160ff021916908360028111156132c057fe5b021790555050565b60006004600083815260200190815260200160002060010160159054906101000a900460ff169050919050565b6132fd613b78565b6040518061018001604052803373ffffffffffffffffffffffffffffffffffffffff168152602001600073ffffffffffffffffffffffffffffffffffffffff1681526020016000600281111561334f57fe5b81526020016003600781111561336157fe5b8152602001428152602001428152602001604051806020016040528060008152508152602001604051806020016040528060008152508152602001838152602001848152602001600073ffffffffffffffffffffffffffffffffffffffff1681526020016040518060200160405280600081525081525090508060046000600554815260200190815260200160002060008201518160000160006101000a81548173ffffffffffffffffffffffffffffffffffffffff021916908373ffffffffffffffffffffffffffffffffffffffff16021790555060208201518160010160006101000a81548173ffffffffffffffffffffffffffffffffffffffff021916908373ffffffffffffffffffffffffffffffffffffffff16021790555060408201518160010160146101000a81548160ff021916908360028111156134a257fe5b021790555060608201518160010160156101000a81548160ff021916908360078111156134cb57fe5b02179055506080820151816002015560a0820151816003015560c0820151816004019080519060200190613500929190613c31565b5060e082015181600501908051906020019061351d929190613c31565b50610100820151816006015561012082015181600701556101408201518160080160006101000a81548173ffffffffffffffffffffffffffffffffffffffff021916908373ffffffffffffffffffffffffffffffffffffffff160217905550610160820151816009019080519060200190613599929190613c31565b50905050600160055401600581905550505050565b60046020528060005260406000206000915090508060000160009054906101000a900473ffffffffffffffffffffffffffffffffffffffff16908060010160009054906101000a900473ffffffffffffffffffffffffffffffffffffffff16908060010160149054906101000a900460ff16908060010160159054906101000a900460ff1690806002015490806003015490806004018054600181600116156101000203166002900480601f0160208091040260200160405190810160405280929190818152602001828054600181600116156101000203166002900480156136d85780601f106136ad576101008083540402835291602001916136d8565b820191906000526020600020905b8154815290600101906020018083116136bb57829003601f168201915b505050505090806005018054600181600116156101000203166002900480601f0160208091040260200160405190810160405280929190818152602001828054600181600116156101000203166002900480156137765780601f1061374b57610100808354040283529160200191613776565b820191906000526020600020905b81548152906001019060200180831161375957829003601f168201915b5050505050908060060154908060070154908060080160009054906101000a900473ffffffffffffffffffffffffffffffffffffffff1690806009018054600181600116156101000203166002900480601f0160208091040260200160405190810160405280929190818152602001828054600181600116156101000203166002900480156138465780601f1061381b57610100808354040283529160200191613846565b820191906000526020600020905b81548152906001019060200180831161382957829003601f168201915b505050505090508c565b7f0ce8ab5ebacf7596aada7f8908ceebb1c8bff3d9c463052135af63ed6539e2e38282604051808373ffffffffffffffffffffffffffffffffffffffff1673ffffffffffffffffffffffffffffffffffffffff1681526020018281526020019250505060405180910390a15050565b6138c7613b78565b6040518061018001604052803373ffffffffffffffffffffffffffffffffffffffff168152602001600073ffffffffffffffffffffffffffffffffffffffff1681526020016000600281111561391957fe5b81526020016005600781111561392b57fe5b8152602001428152602001428152602001604051806020016040528060008152508152602001604051806020016040528060008152508152602001838152602001600081526020018473ffffffffffffffffffffffffffffffffffffffff1681526020016040518060200160405280600081525081525090508060046000600554815260200190815260200160002060008201518160000160006101000a81548173ffffffffffffffffffffffffffffffffffffffff021916908373ffffffffffffffffffffffffffffffffffffffff16021790555060208201518160010160006101000a81548173ffffffffffffffffffffffffffffffffffffffff021916908373ffffffffffffffffffffffffffffffffffffffff16021790555060408201518160010160146101000a81548160ff02191690836002811115613a6c57fe5b021790555060608201518160010160156101000a81548160ff02191690836007811115613a9557fe5b02179055506080820151816002015560a0820151816003015560c0820151816004019080519060200190613aca929190613c31565b5060e0820151816005019080519060200190613ae7929190613c31565b50610100820151816006015561012082015181600701556101408201518160080160006101000a81548173ffffffffffffffffffffffffffffffffffffffff021916908373ffffffffffffffffffffffffffffffffffffffff160217905550610160820151816009019080519060200190613b63929190613c31565b50905050600160055401600581905550505050565b604051806101800160405280600073ffffffffffffffffffffffffffffffffffffffff168152602001600073ffffffffffffffffffffffffffffffffffffffff16815260200160006002811115613bcb57fe5b815260200160006007811115613bdd57fe5b8152602001600081526020016000815260200160608152602001606081526020016000815260200160008152602001600073ffffffffffffffffffffffffffffffffffffffff168152602001606081525090565b828054600181600116156101000203166002900490600052602060002090601f016020900481019282601f10613c7257805160ff1916838001178555613ca0565b82800160010185558215613ca0579182015b82811115613c9f578251825591602001919060010190613c84565b5b509050613cad9190613cb1565b5090565b613cd391905b80821115613ccf576000816000905550600101613cb7565b5090565b9056fea265627a7a723158208700b04b9f9384175803cc67f0691e5b793655c637aa4015c7e8c2317f15fa1664736f6c63430005110032",
  "source": "pragma solidity ^0.5.0;\r\n\r\nimport \"./User.sol\";\r\nimport \"./Permission.sol\";\r\nimport \"./Role.sol\";\r\nimport \"./DatasetUploader.sol\";\r\n\r\n// import \"hardhat/console.sol\";\r\n\r\ncontract RequestApprovalManagement {\r\n    enum statusEnum {\r\n        pending,\r\n        approved,\r\n        rejected\r\n    }\r\n\r\n    enum requestTypeEnum {\r\n        createNewRoleRequest,\r\n        removeRoleRequest,\r\n        addExistingDatasetToRoleRequest,\r\n        removeDatasetFromRoleRequest,\r\n        addUserToRoleRequest,\r\n        removeUserFromRoleRequest,\r\n        uploadDatasetToNewRoleRequest,\r\n        uploadDatasetToExistingRoleRequest\r\n    }\r\n\r\n    struct Request {\r\n        address requesterAddress;\r\n        address adminAddress;\r\n        statusEnum requestStatus;\r\n        requestTypeEnum requestType;\r\n        uint256 creationDateTime;\r\n        uint256 updatedDateTime;\r\n        string roleName;\r\n        string datasetIdentifier;\r\n        uint256 roleID; \r\n        uint256 permissionID;\r\n        address userID;\r\n        string permissionName;\r\n    }\r\n\r\n    User userContract;\r\n    Permission permissionContract;\r\n    Role roleContract;   \r\n    DatasetUploader datasetuploaderContract;  \r\n\r\n    mapping(uint256 => Request) public requestsMapping;\r\n\r\n    uint256 totalNumberOfRequest;\r\n\r\n    event createNewRoleRequestApproved(string roleName);\r\n    event removeRoleRequestApproved(uint256 roleID, address userID);\r\n    event addExistingDatasetToRolesRequestApproved(uint256 permissionID, uint256 roleID);\r\n    event removeDatasetFromRolesRequestApproved(uint256 permissionID, uint256 roleID);\r\n    event addUsersToRolesRequestApproved(address userID, uint256 roleID);\r\n    event removeUsersFromRolesRequestApproved(address userID, uint256 roleID);\r\n    event uploadDatasetToNewRoleRequestApproved(string datasetIdentifier, string roleName, string pointer, address requestor, string permissionName);\r\n    event uploadDatasetToExistingRoleRequestApproved(string datasetIdentifier, uint256 roleID, string pointer, address requestor, string permissionName);\r\n\r\n    event rejectRequestEvent(uint256 requestID);\r\n\r\n    constructor(User userAddress, Permission permissionAddress, Role roleAddress, DatasetUploader datasetUploaderAddress) public {\r\n        userContract = userAddress;\r\n        permissionContract = permissionAddress;\r\n        roleContract = roleAddress;\r\n        datasetuploaderContract = datasetUploaderAddress;\r\n        totalNumberOfRequest = 0;\r\n    }\r\n\r\n    // Admin functions\r\n    function approveRequest(uint256 requestID) public {\r\n        if (requestsMapping[requestID].requestType == requestTypeEnum.createNewRoleRequest) {\r\n\r\n            createNewRole(requestsMapping[requestID].roleName);\r\n\r\n        } else if (requestsMapping[requestID].requestType == requestTypeEnum.removeRoleRequest) {\r\n\r\n            removeRole(requestsMapping[requestID].roleID,requestsMapping[requestID].userID);\r\n\r\n        } else if (requestsMapping[requestID].requestType == requestTypeEnum.addExistingDatasetToRoleRequest) {\r\n\r\n            addExistingDatasetToRole(requestsMapping[requestID].permissionID, requestsMapping[requestID].roleID);\r\n\r\n        } else if (requestsMapping[requestID].requestType == requestTypeEnum.removeDatasetFromRoleRequest) {\r\n\r\n            removeDatasetFromRole(requestsMapping[requestID].permissionID, requestsMapping[requestID].roleID);\r\n\r\n        } else if (requestsMapping[requestID].requestType == requestTypeEnum.addUserToRoleRequest) {\r\n\r\n            addUsersToRole(requestsMapping[requestID].userID, requestsMapping[requestID].roleID);\r\n\r\n        } else if (requestsMapping[requestID].requestType == requestTypeEnum.removeUserFromRoleRequest) {\r\n\r\n            removeUsersFromRole(requestsMapping[requestID].userID, requestsMapping[requestID].roleID);\r\n\r\n        } else if (requestsMapping[requestID].requestType == requestTypeEnum.uploadDatasetToNewRoleRequest) {\r\n\r\n            uploadDatasetToNewRole(requestsMapping[requestID].datasetIdentifier, requestsMapping[requestID].roleName, requestsMapping[requestID].requesterAddress, requestsMapping[requestID].permissionName);\r\n\r\n        } else if (requestsMapping[requestID].requestType == requestTypeEnum.uploadDatasetToExistingRoleRequest) {\r\n\r\n            uploadDatasetToExistingRole(requestsMapping[requestID].datasetIdentifier, requestsMapping[requestID].roleID, requestsMapping[requestID].requesterAddress, requestsMapping[requestID].permissionName);\r\n\r\n        }       \r\n\r\n        requestsMapping[requestID].updatedDateTime = block.timestamp;\r\n        requestsMapping[requestID].adminAddress = msg.sender;\r\n        requestsMapping[requestID].requestStatus = statusEnum.approved;\r\n    }\r\n\r\n    function rejectRequest(uint256 requestID) public {\r\n        requestsMapping[requestID].requestStatus = statusEnum.rejected;\r\n        emit rejectRequestEvent(requestID);\r\n    }\r\n\r\n    // Creating Requests\r\n\r\n    function createNewRoleRequest(string memory roleName) public {\r\n        Request memory newRequest = Request(msg.sender, address(0), statusEnum.pending, requestTypeEnum.createNewRoleRequest, block.timestamp,block.timestamp, roleName, \"\", 0,0,address(0), \"\");\r\n        requestsMapping[totalNumberOfRequest] = newRequest;\r\n        totalNumberOfRequest = totalNumberOfRequest + 1;\r\n    }\r\n\r\n    function removeRoleRequest(uint256 roleID, address userID) public {\r\n        Request memory newRequest = Request(msg.sender, address(0), statusEnum.pending, requestTypeEnum.removeRoleRequest, block.timestamp,block.timestamp, \"\", \"\", roleID,0,userID, \"\");\r\n        requestsMapping[totalNumberOfRequest] = newRequest;\r\n        totalNumberOfRequest = totalNumberOfRequest + 1;\r\n    }\r\n\r\n    function addExistingDatasetToRoleRequest(uint256 permissionID, uint256 roleID) public {\r\n        Request memory newRequest = Request(msg.sender, address(0), statusEnum.pending, requestTypeEnum.addExistingDatasetToRoleRequest, block.timestamp,block.timestamp, \"\", \"\", roleID,permissionID,address(0), \"\");\r\n        requestsMapping[totalNumberOfRequest] = newRequest;\r\n        totalNumberOfRequest = totalNumberOfRequest + 1;\r\n    }\r\n\r\n    function removeDatasetFromRoleRequest(uint256 permissionID, uint256 roleID) public {\r\n        Request memory newRequest = Request(msg.sender, address(0), statusEnum.pending, requestTypeEnum.removeDatasetFromRoleRequest, block.timestamp,block.timestamp, \"\", \"\", roleID, permissionID,address(0), \"\");\r\n        requestsMapping[totalNumberOfRequest] = newRequest;\r\n        totalNumberOfRequest = totalNumberOfRequest + 1;\r\n    }\r\n\r\n    function addUsersToRoleRequest(address userID, uint256 roleID) public {\r\n        Request memory newRequest = Request(msg.sender, address(0), statusEnum.pending, requestTypeEnum.addUserToRoleRequest, block.timestamp,block.timestamp, \"\", \"\", roleID, 0, userID, \"\");\r\n        requestsMapping[totalNumberOfRequest] = newRequest;\r\n        totalNumberOfRequest = totalNumberOfRequest + 1;\r\n    }\r\n\r\n    function removeUsersFromRoleRequest(address userID, uint256 roleID) public {\r\n        Request memory newRequest = Request(msg.sender, address(0), statusEnum.pending, requestTypeEnum.removeUserFromRoleRequest , block.timestamp,block.timestamp, \"\", \"\", roleID, 0, userID, \"\");\r\n        requestsMapping[totalNumberOfRequest] = newRequest;\r\n        totalNumberOfRequest = totalNumberOfRequest + 1;\r\n    }\r\n\r\n    function uploadDatasetToNewRoleRequest(string memory datasetIdentifier, string memory roleName, string memory permissionName) public {\r\n        Request memory newRequest = Request(msg.sender, address(0), statusEnum.pending, requestTypeEnum.uploadDatasetToNewRoleRequest , block.timestamp,block.timestamp, roleName, datasetIdentifier, 0, 0, address(0), permissionName);\r\n        requestsMapping[totalNumberOfRequest] = newRequest;\r\n        totalNumberOfRequest = totalNumberOfRequest + 1;\r\n    }\r\n\r\n    function uploadDatasetToExistingRoleRequest(string memory datasetIdentifier, uint256 roleID, string memory permissionName) public {\r\n        Request memory newRequest = Request(msg.sender, address(0), statusEnum.pending, requestTypeEnum.uploadDatasetToExistingRoleRequest , block.timestamp,block.timestamp, \"\", datasetIdentifier, roleID, 0, address(0), permissionName);\r\n        requestsMapping[totalNumberOfRequest] = newRequest;\r\n        totalNumberOfRequest = totalNumberOfRequest + 1;\r\n    }\r\n\r\n\r\n    // Getters\r\n\r\n    function getRequestStatus(uint256 requestID) public view returns(requestTypeEnum) {\r\n        return requestsMapping[requestID].requestType;\r\n    }\r\n\r\n    function getTotalNumberOfRequests() public view returns(uint256) {\r\n        return totalNumberOfRequest;\r\n    }\r\n\r\n\r\n\r\n    // Helper functions\r\n    \r\n    function createNewRole(string memory roleName) public {\r\n        // // Role Creation\r\n        // roleContract.createRole(roleName);\r\n\r\n        emit createNewRoleRequestApproved(roleName);\r\n    }\r\n\r\n    function removeRole(uint256 roleID, address userID) public {\r\n        // //  Remove role\r\n        // roleContract.removeRoleUser(roleID, userID);\r\n\r\n        emit removeRoleRequestApproved(roleID, userID);\r\n    }\r\n\r\n    function addExistingDatasetToRole(uint256 permissionID, uint256 roleID) public {\r\n        // // Give Permission to role\r\n        // permissionContract.givePermissionRole(permissionID, roleID);\r\n        // // Give role to permission\r\n        // roleContract.giveRolePermission(roleID, permissionID); \r\n\r\n        emit addExistingDatasetToRolesRequestApproved(permissionID, roleID);\r\n    }\r\n\r\n    function removeDatasetFromRole(uint256 permissionID, uint256 roleID) public {\r\n        // // Remove Permission to role\r\n        // permissionContract.removePermissionRole(permissionID, roleID); \r\n        // // Remove role to permission\r\n        // roleContract.removeRolePermission(roleID, permissionID); \r\n        \r\n        emit removeDatasetFromRolesRequestApproved(permissionID, roleID);\r\n    }\r\n\r\n    function addUsersToRole(address userID, uint256 roleID) public {\r\n        // // Give user to role\r\n        // roleContract.giveRoleUser(roleID, userID);\r\n        // // Give role to user\r\n        // userContract.giveUserRole(userID, roleID);\r\n\r\n        emit addUsersToRolesRequestApproved(userID, roleID);\r\n    }\r\n\r\n    function removeUsersFromRole(address userID, uint256 roleID) public {\r\n        // // Remove user from role\r\n        // roleContract.removeRoleUser(roleID, userID);\r\n        // // Remove role from user\r\n        // userContract.removeUserRole(userID, roleID);\r\n\r\n        emit removeUsersFromRolesRequestApproved(userID, roleID);\r\n    }\r\n\r\n    function uploadDatasetToNewRole(string memory datasetIdentifier, string memory roleName, address requestor, string memory permissionName) public {\r\n     \r\n        //This pointer is a simulation --> This by right links to external DB\r\n        //  We are now simulating it by generating a random string of length 10\r\n        string memory pointer = randomString(10);\r\n\r\n        // Upload dataset\r\n        // datasetuploaderContract.uploadDatasetToNewRole(datasetIdentifier,roleName, pointer, requestor,permissionName);\r\n\r\n        emit uploadDatasetToNewRoleRequestApproved(datasetIdentifier, roleName, pointer, requestor, permissionName);\r\n    }\r\n\r\n    function uploadDatasetToExistingRole(string memory datasetIdentifier, uint256 roleID, address requestor, string memory permissionName) public {\r\n        \r\n        //This pointer is a simulation --> This by right links to external DB\r\n        //  We are now simulating it by generating a random string of length 10\r\n        string memory pointer = randomString(10);\r\n\r\n        // Upload dataset\r\n        // datasetuploaderContract.uploadDatasetToExistingRole(datasetIdentifier, roleID, pointer, requestor, permissionName); \r\n\r\n        emit uploadDatasetToExistingRoleRequestApproved(datasetIdentifier, roleID, pointer, requestor, permissionName);\r\n    }\r\n\r\n\r\n\r\n\r\n    // Random String Generator\r\n    string public letters = \"abcdefghijklmnopqrstuvwxyz\";\r\n    // I needed to add this to the random function to generate a different random number\r\n    uint counter =1;\r\n\r\n    // size is length of word\r\n    function randomString(uint size) public returns(string memory){\r\n        bytes memory randomWord=new bytes(size);\r\n        // since we have 26 letters\r\n        bytes memory chars = new bytes(26);\r\n        chars=\"abcdefghijklmnopqrstuvwxyz\";\r\n        for (uint i=0;i<size;i++){\r\n            uint randomNumber=random(26);\r\n            // Index access for string is not possible\r\n            randomWord[i]=chars[randomNumber];\r\n        }\r\n        return string(randomWord);\r\n    }\r\n\r\n    function random(uint number) public returns(uint){\r\n        counter++;\r\n        return uint(keccak256(abi.encodePacked(block.timestamp,block.difficulty,  \r\n        msg.sender,counter))) % number;\r\n    }\r\n\r\n\r\n}\r\n",
  "sourcePath": "C:\\Users\\chang\\OneDrive - National University of Singapore\\Documents\\IS4302 Project\\is4302_grp19\\JianXiang_test\\contracts\\RequestApprovalManagement.sol",
  "compiler": {
    "name": "solc",
    "version": "0.5.17+commit.d19bba13.Emscripten.clang"
  },
  "schemaVersion": "3.4.11",
  "updatedAt": "2023-03-27T11:28:38.497Z",
  "networkType": "ethereum",
  "devdoc": {
    "methods": {}
  },
  "userdoc": {
    "methods": {}
  }
}