{
  "contractName": "RequestApprovalManagement",
  "abi": [
    {
      "inputs": [
        {
          "internalType": "contract User",
          "name": "userAddress",
          "type": "address"
        },
        {
          "internalType": "contract Permission",
          "name": "permissionAddress",
          "type": "address"
        },
        {
          "internalType": "contract Role",
          "name": "roleAddress",
          "type": "address"
        },
        {
          "internalType": "contract DatasetUploader",
          "name": "datasetUploaderAddress",
          "type": "address"
        }
      ],
      "payable": false,
      "stateMutability": "nonpayable",
      "type": "constructor"
    },
    {
      "anonymous": false,
      "inputs": [
        {
          "indexed": false,
          "internalType": "uint256",
          "name": "permissionID",
          "type": "uint256"
        },
        {
          "indexed": false,
          "internalType": "uint256",
          "name": "roleID",
          "type": "uint256"
        }
      ],
      "name": "addExistingDatasetToRolesRequestApproved",
      "type": "event"
    },
    {
      "anonymous": false,
      "inputs": [
        {
          "indexed": false,
          "internalType": "address",
          "name": "userID",
          "type": "address"
        },
        {
          "indexed": false,
          "internalType": "uint256",
          "name": "roleID",
          "type": "uint256"
        }
      ],
      "name": "addUsersToRolesRequestApproved",
      "type": "event"
    },
    {
      "anonymous": false,
      "inputs": [
        {
          "indexed": false,
          "internalType": "string",
          "name": "roleName",
          "type": "string"
        }
      ],
      "name": "createNewRoleRequestApproved",
      "type": "event"
    },
    {
      "anonymous": false,
      "inputs": [
        {
          "indexed": false,
          "internalType": "uint256",
          "name": "requestID",
          "type": "uint256"
        },
        {
          "indexed": false,
          "internalType": "string",
          "name": "adminAdditionalRemarks",
          "type": "string"
        }
      ],
      "name": "rejectRequestEvent",
      "type": "event"
    },
    {
      "anonymous": false,
      "inputs": [
        {
          "indexed": false,
          "internalType": "uint256",
          "name": "permissionID",
          "type": "uint256"
        },
        {
          "indexed": false,
          "internalType": "uint256",
          "name": "roleID",
          "type": "uint256"
        }
      ],
      "name": "removeDatasetFromRolesRequestApproved",
      "type": "event"
    },
    {
      "anonymous": false,
      "inputs": [
        {
          "indexed": false,
          "internalType": "uint256",
          "name": "roleID",
          "type": "uint256"
        },
        {
          "indexed": false,
          "internalType": "address",
          "name": "userID",
          "type": "address"
        }
      ],
      "name": "removeRoleRequestApproved",
      "type": "event"
    },
    {
      "anonymous": false,
      "inputs": [
        {
          "indexed": false,
          "internalType": "address",
          "name": "userID",
          "type": "address"
        },
        {
          "indexed": false,
          "internalType": "uint256",
          "name": "roleID",
          "type": "uint256"
        }
      ],
      "name": "removeUsersFromRolesRequestApproved",
      "type": "event"
    },
    {
      "anonymous": false,
      "inputs": [
        {
          "indexed": false,
          "internalType": "string",
          "name": "datasetIdentifier",
          "type": "string"
        },
        {
          "indexed": false,
          "internalType": "uint256",
          "name": "roleID",
          "type": "uint256"
        },
        {
          "indexed": false,
          "internalType": "string",
          "name": "pointer",
          "type": "string"
        },
        {
          "indexed": false,
          "internalType": "address",
          "name": "requestor",
          "type": "address"
        }
      ],
      "name": "uploadDatasetToExistingRoleRequestApproved",
      "type": "event"
    },
    {
      "anonymous": false,
      "inputs": [
        {
          "indexed": false,
          "internalType": "string",
          "name": "datasetIdentifier",
          "type": "string"
        },
        {
          "indexed": false,
          "internalType": "string",
          "name": "roleName",
          "type": "string"
        },
        {
          "indexed": false,
          "internalType": "string",
          "name": "pointer",
          "type": "string"
        },
        {
          "indexed": false,
          "internalType": "address",
          "name": "requestor",
          "type": "address"
        }
      ],
      "name": "uploadDatasetToNewRoleRequestApproved",
      "type": "event"
    },
    {
      "constant": true,
      "inputs": [],
      "name": "letters",
      "outputs": [
        {
          "internalType": "string",
          "name": "",
          "type": "string"
        }
      ],
      "payable": false,
      "stateMutability": "view",
      "type": "function"
    },
    {
      "constant": true,
      "inputs": [
        {
          "internalType": "uint256",
          "name": "",
          "type": "uint256"
        }
      ],
      "name": "requestsMapping",
      "outputs": [
        {
          "internalType": "address",
          "name": "requesterAddress",
          "type": "address"
        },
        {
          "internalType": "address",
          "name": "adminAddress",
          "type": "address"
        },
        {
          "internalType": "enum RequestApprovalManagement.statusEnum",
          "name": "requestStatus",
          "type": "uint8"
        },
        {
          "internalType": "enum RequestApprovalManagement.requestTypeEnum",
          "name": "requestType",
          "type": "uint8"
        },
        {
          "internalType": "uint256",
          "name": "creationDateTime",
          "type": "uint256"
        },
        {
          "internalType": "uint256",
          "name": "updatedDateTime",
          "type": "uint256"
        },
        {
          "internalType": "string",
          "name": "adminAdditionalRemarks",
          "type": "string"
        },
        {
          "internalType": "string",
          "name": "roleName",
          "type": "string"
        },
        {
          "internalType": "string",
          "name": "datasetIdentifier",
          "type": "string"
        },
        {
          "internalType": "uint256",
          "name": "roleID",
          "type": "uint256"
        },
        {
          "internalType": "uint256",
          "name": "permissionID",
          "type": "uint256"
        },
        {
          "internalType": "address",
          "name": "userID",
          "type": "address"
        }
      ],
      "payable": false,
      "stateMutability": "view",
      "type": "function"
    },
    {
      "constant": false,
      "inputs": [
        {
          "internalType": "uint256",
          "name": "requestID",
          "type": "uint256"
        }
      ],
      "name": "approveRequest",
      "outputs": [],
      "payable": false,
      "stateMutability": "nonpayable",
      "type": "function"
    },
    {
      "constant": false,
      "inputs": [
        {
          "internalType": "uint256",
          "name": "requestID",
          "type": "uint256"
        },
        {
          "internalType": "string",
          "name": "adminAdditionalRemarks",
          "type": "string"
        }
      ],
      "name": "rejectRequest",
      "outputs": [],
      "payable": false,
      "stateMutability": "nonpayable",
      "type": "function"
    },
    {
      "constant": false,
      "inputs": [
        {
          "internalType": "string",
          "name": "roleName",
          "type": "string"
        }
      ],
      "name": "createNewRoleRequest",
      "outputs": [],
      "payable": false,
      "stateMutability": "nonpayable",
      "type": "function"
    },
    {
      "constant": false,
      "inputs": [
        {
          "internalType": "uint256",
          "name": "roleID",
          "type": "uint256"
        },
        {
          "internalType": "address",
          "name": "userID",
          "type": "address"
        }
      ],
      "name": "removeRoleRequest",
      "outputs": [],
      "payable": false,
      "stateMutability": "nonpayable",
      "type": "function"
    },
    {
      "constant": false,
      "inputs": [
        {
          "internalType": "uint256",
          "name": "permissionID",
          "type": "uint256"
        },
        {
          "internalType": "uint256",
          "name": "roleID",
          "type": "uint256"
        }
      ],
      "name": "addExistingDatasetToRoleRequest",
      "outputs": [],
      "payable": false,
      "stateMutability": "nonpayable",
      "type": "function"
    },
    {
      "constant": false,
      "inputs": [
        {
          "internalType": "uint256",
          "name": "permissionID",
          "type": "uint256"
        },
        {
          "internalType": "uint256",
          "name": "roleID",
          "type": "uint256"
        }
      ],
      "name": "removeDatasetFromRoleRequest",
      "outputs": [],
      "payable": false,
      "stateMutability": "nonpayable",
      "type": "function"
    },
    {
      "constant": false,
      "inputs": [
        {
          "internalType": "address",
          "name": "userID",
          "type": "address"
        },
        {
          "internalType": "uint256",
          "name": "roleID",
          "type": "uint256"
        }
      ],
      "name": "addUsersToRoleRequest",
      "outputs": [],
      "payable": false,
      "stateMutability": "nonpayable",
      "type": "function"
    },
    {
      "constant": false,
      "inputs": [
        {
          "internalType": "address",
          "name": "userID",
          "type": "address"
        },
        {
          "internalType": "uint256",
          "name": "roleID",
          "type": "uint256"
        }
      ],
      "name": "removeUsersFromRoleRequest",
      "outputs": [],
      "payable": false,
      "stateMutability": "nonpayable",
      "type": "function"
    },
    {
      "constant": false,
      "inputs": [
        {
          "internalType": "string",
          "name": "datasetIdentifier",
          "type": "string"
        },
        {
          "internalType": "string",
          "name": "roleName",
          "type": "string"
        }
      ],
      "name": "uploadDatasetToNewRoleRequest",
      "outputs": [],
      "payable": false,
      "stateMutability": "nonpayable",
      "type": "function"
    },
    {
      "constant": false,
      "inputs": [
        {
          "internalType": "string",
          "name": "datasetIdentifier",
          "type": "string"
        },
        {
          "internalType": "uint256",
          "name": "roleID",
          "type": "uint256"
        }
      ],
      "name": "uploadDatasetToExistingRoleRequest",
      "outputs": [],
      "payable": false,
      "stateMutability": "nonpayable",
      "type": "function"
    },
    {
      "constant": true,
      "inputs": [
        {
          "internalType": "uint256",
          "name": "requestID",
          "type": "uint256"
        }
      ],
      "name": "getRequestStatus",
      "outputs": [
        {
          "internalType": "enum RequestApprovalManagement.requestTypeEnum",
          "name": "",
          "type": "uint8"
        }
      ],
      "payable": false,
      "stateMutability": "view",
      "type": "function"
    },
    {
      "constant": true,
      "inputs": [
        {
          "internalType": "uint256",
          "name": "requestID",
          "type": "uint256"
        }
      ],
      "name": "getRequestAdminRemarks",
      "outputs": [
        {
          "internalType": "string",
          "name": "",
          "type": "string"
        }
      ],
      "payable": false,
      "stateMutability": "view",
      "type": "function"
    },
    {
      "constant": true,
      "inputs": [],
      "name": "getTotalNumberOfRequests",
      "outputs": [
        {
          "internalType": "uint256",
          "name": "",
          "type": "uint256"
        }
      ],
      "payable": false,
      "stateMutability": "view",
      "type": "function"
    },
    {
      "constant": false,
      "inputs": [
        {
          "internalType": "string",
          "name": "roleName",
          "type": "string"
        }
      ],
      "name": "createNewRole",
      "outputs": [],
      "payable": false,
      "stateMutability": "nonpayable",
      "type": "function"
    },
    {
      "constant": false,
      "inputs": [
        {
          "internalType": "uint256",
          "name": "roleID",
          "type": "uint256"
        },
        {
          "internalType": "address",
          "name": "userID",
          "type": "address"
        }
      ],
      "name": "removeRole",
      "outputs": [],
      "payable": false,
      "stateMutability": "nonpayable",
      "type": "function"
    },
    {
      "constant": false,
      "inputs": [
        {
          "internalType": "uint256",
          "name": "permissionID",
          "type": "uint256"
        },
        {
          "internalType": "uint256",
          "name": "roleID",
          "type": "uint256"
        }
      ],
      "name": "addExistingDatasetToRole",
      "outputs": [],
      "payable": false,
      "stateMutability": "nonpayable",
      "type": "function"
    },
    {
      "constant": false,
      "inputs": [
        {
          "internalType": "uint256",
          "name": "permissionID",
          "type": "uint256"
        },
        {
          "internalType": "uint256",
          "name": "roleID",
          "type": "uint256"
        }
      ],
      "name": "removeDatasetFromRole",
      "outputs": [],
      "payable": false,
      "stateMutability": "nonpayable",
      "type": "function"
    },
    {
      "constant": false,
      "inputs": [
        {
          "internalType": "address",
          "name": "userID",
          "type": "address"
        },
        {
          "internalType": "uint256",
          "name": "roleID",
          "type": "uint256"
        }
      ],
      "name": "addUsersToRole",
      "outputs": [],
      "payable": false,
      "stateMutability": "nonpayable",
      "type": "function"
    },
    {
      "constant": false,
      "inputs": [
        {
          "internalType": "address",
          "name": "userID",
          "type": "address"
        },
        {
          "internalType": "uint256",
          "name": "roleID",
          "type": "uint256"
        }
      ],
      "name": "removeUsersFromRole",
      "outputs": [],
      "payable": false,
      "stateMutability": "nonpayable",
      "type": "function"
    },
    {
      "constant": false,
      "inputs": [
        {
          "internalType": "string",
          "name": "datasetIdentifier",
          "type": "string"
        },
        {
          "internalType": "string",
          "name": "roleName",
          "type": "string"
        },
        {
          "internalType": "address",
          "name": "requestor",
          "type": "address"
        }
      ],
      "name": "uploadDatasetToNewRole",
      "outputs": [],
      "payable": false,
      "stateMutability": "nonpayable",
      "type": "function"
    },
    {
      "constant": false,
      "inputs": [
        {
          "internalType": "string",
          "name": "datasetIdentifier",
          "type": "string"
        },
        {
          "internalType": "uint256",
          "name": "roleID",
          "type": "uint256"
        },
        {
          "internalType": "address",
          "name": "requestor",
          "type": "address"
        }
      ],
      "name": "uploadDatasetToExistingRole",
      "outputs": [],
      "payable": false,
      "stateMutability": "nonpayable",
      "type": "function"
    },
    {
      "constant": false,
      "inputs": [
        {
          "internalType": "uint256",
          "name": "size",
          "type": "uint256"
        }
      ],
      "name": "randomString",
      "outputs": [
        {
          "internalType": "string",
          "name": "",
          "type": "string"
        }
      ],
      "payable": false,
      "stateMutability": "nonpayable",
      "type": "function"
    },
    {
      "constant": false,
      "inputs": [
        {
          "internalType": "uint256",
          "name": "number",
          "type": "uint256"
        }
      ],
      "name": "random",
      "outputs": [
        {
          "internalType": "uint256",
          "name": "",
          "type": "uint256"
        }
      ],
      "payable": false,
      "stateMutability": "nonpayable",
      "type": "function"
    }
  ],
  "bytecode": "0x60806040526040518060400160405280601a81526020017f6162636465666768696a6b6c6d6e6f707172737475767778797a0000000000008152506006908051906020019062000051929190620001ce565b5060016007553480156200006457600080fd5b5060405162003e4838038062003e48833981810160405260808110156200008a57600080fd5b8101908080519060200190929190805190602001909291908051906020019092919080519060200190929190505050836000806101000a81548173ffffffffffffffffffffffffffffffffffffffff021916908373ffffffffffffffffffffffffffffffffffffffff16021790555082600160006101000a81548173ffffffffffffffffffffffffffffffffffffffff021916908373ffffffffffffffffffffffffffffffffffffffff16021790555081600260006101000a81548173ffffffffffffffffffffffffffffffffffffffff021916908373ffffffffffffffffffffffffffffffffffffffff16021790555080600360006101000a81548173ffffffffffffffffffffffffffffffffffffffff021916908373ffffffffffffffffffffffffffffffffffffffff1602179055506000600581905550505050506200027d565b828054600181600116156101000203166002900490600052602060002090601f016020900481019282601f106200021157805160ff191683800117855562000242565b8280016001018555821562000242579182015b828111156200024157825182559160200191906001019062000224565b5b50905062000251919062000255565b5090565b6200027a91905b80821115620002765760008160009055506001016200025c565b5090565b90565b613bbb806200028d6000396000f3fe608060405234801561001057600080fd5b50600436106101735760003560e01c80635bf9d6de116100de578063d7d1bbdb11610097578063e3fc582811610071578063e3fc582814610b96578063e9feec5514610df4578063ea49978b14610f46578063fafa5e9c14610f9457610173565b8063d7d1bbdb14610ae0578063d8a4676f14610b0e578063e2a7430014610b5e57610173565b80635bf9d6de1461088457806378281dd11461092b578063a69ca84414610949578063ab1e6a8b14610a2e578063b863bd3714610a66578063bd3ad78e14610aa857610173565b80633238405b116101305780633238405b1461051f5780633c1a9b241461056d5780633c7a0c34146105bb5780633fd29b1b146106765780634c671a2e146106c45780635152da1e1461083657610173565b80630a454795146101785780630a5505dd146101b05780630e3dbb9914610275578063193384bf1461031c5780632040a465146103e15780632bead3e814610464575b600080fd5b6101ae6004803603604081101561018e57600080fd5b810190808035906020019092919080359060200190929190505050610fe2565b005b610273600480360360408110156101c657600080fd5b8101908080359060200190929190803590602001906401000000008111156101ed57600080fd5b8201836020820111156101ff57600080fd5b8035906020019184600183028401116401000000008311171561022157600080fd5b91908080601f016020809104026020016040519081016040528093929190818152602001838380828437600081840152601f19601f820116905080830192505050505050509192919290505050611025565b005b6102a16004803603602081101561028b57600080fd5b8101908080359060200190929190505050611130565b6040518080602001828103825283818151815260200191508051906020019080838360005b838110156102e15780820151818401526020810190506102c6565b50505050905090810190601f16801561030e5780820380516001836020036101000a031916815260200191505b509250505060405180910390f35b6103df6004803603604081101561033257600080fd5b810190808035906020019064010000000081111561034f57600080fd5b82018360208201111561036157600080fd5b8035906020019184600183028401116401000000008311171561038357600080fd5b91908080601f016020809104026020016040519081016040528093929190818152602001838380828437600081840152601f19601f820116905080830192505050505050509192919290803590602001909291905050506111e8565b005b6103e9611492565b6040518080602001828103825283818151815260200191508051906020019080838360005b8381101561042957808201518184015260208101905061040e565b50505050905090810190601f1680156104565780820380516001836020036101000a031916815260200191505b509250505060405180910390f35b61051d6004803603602081101561047a57600080fd5b810190808035906020019064010000000081111561049757600080fd5b8201836020820111156104a957600080fd5b803590602001918460018302840111640100000000831117156104cb57600080fd5b91908080601f016020809104026020016040519081016040528093929190818152602001838380828437600081840152601f19601f820116905080830192505050505050509192919290505050611530565b005b61056b6004803603604081101561053557600080fd5b8101908080359060200190929190803573ffffffffffffffffffffffffffffffffffffffff1690602001909291905050506117db565b005b6105b96004803603604081101561058357600080fd5b81019080803573ffffffffffffffffffffffffffffffffffffffff1690602001909291908035906020019092919050505061184a565b005b610674600480360360208110156105d157600080fd5b81019080803590602001906401000000008111156105ee57600080fd5b82018360208201111561060057600080fd5b8035906020019184600183028401116401000000008311171561062257600080fd5b91908080601f016020809104026020016040519081016040528093929190818152602001838380828437600081840152601f19601f820116905080830192505050505050509192919290505050611b03565b005b6106c26004803603604081101561068c57600080fd5b8101908080359060200190929190803573ffffffffffffffffffffffffffffffffffffffff169060200190929190505050611ba2565b005b610834600480360360608110156106da57600080fd5b81019080803590602001906401000000008111156106f757600080fd5b82018360208201111561070957600080fd5b8035906020019184600183028401116401000000008311171561072b57600080fd5b91908080601f016020809104026020016040519081016040528093929190818152602001838380828437600081840152601f19601f8201169050808301925050505050505091929192908035906020019064010000000081111561078e57600080fd5b8201836020820111156107a057600080fd5b803590602001918460018302840111640100000000831117156107c257600080fd5b91908080601f016020809104026020016040519081016040528093929190818152602001838380828437600081840152601f19601f820116905080830192505050505050509192919290803573ffffffffffffffffffffffffffffffffffffffff169060200190929190505050611e5b565b005b6108826004803603604081101561084c57600080fd5b81019080803573ffffffffffffffffffffffffffffffffffffffff16906020019092919080359060200190929190505050612019565b005b6108b06004803603602081101561089a57600080fd5b8101908080359060200190929190505050612088565b6040518080602001828103825283818151815260200191508051906020019080838360005b838110156108f05780820151818401526020810190506108d5565b50505050905090810190601f16801561091d5780820380516001836020036101000a031916815260200191505b509250505060405180910390f35b6109336121b9565b6040518082815260200191505060405180910390f35b610a2c6004803603606081101561095f57600080fd5b810190808035906020019064010000000081111561097c57600080fd5b82018360208201111561098e57600080fd5b803590602001918460018302840111640100000000831117156109b057600080fd5b91908080601f016020809104026020016040519081016040528093929190818152602001838380828437600081840152601f19601f82011690508083019250505050505050919291929080359060200190929190803573ffffffffffffffffffffffffffffffffffffffff1690602001909291905050506121c3565b005b610a6460048036036040811015610a4457600080fd5b81019080803590602001909291908035906020019092919050505061231c565b005b610a9260048036036020811015610a7c57600080fd5b810190808035906020019092919050505061235f565b6040518082815260200191505060405180910390f35b610ade60048036036040811015610abe57600080fd5b8101908080359060200190929190803590602001909291905050506123f6565b005b610b0c60048036036020811015610af657600080fd5b81019080803590602001909291905050506126af565b005b610b3a60048036036020811015610b2457600080fd5b8101908080359060200190929190505050612e5b565b60405180826007811115610b4a57fe5b60ff16815260200191505060405180910390f35b610b9460048036036040811015610b7457600080fd5b810190808035906020019092919080359060200190929190505050612e88565b005b610bc260048036036020811015610bac57600080fd5b8101908080359060200190929190505050613141565b604051808d73ffffffffffffffffffffffffffffffffffffffff1673ffffffffffffffffffffffffffffffffffffffff1681526020018c73ffffffffffffffffffffffffffffffffffffffff1673ffffffffffffffffffffffffffffffffffffffff1681526020018b6002811115610c3657fe5b60ff1681526020018a6007811115610c4a57fe5b60ff1681526020018981526020018881526020018060200180602001806020018781526020018681526020018573ffffffffffffffffffffffffffffffffffffffff1673ffffffffffffffffffffffffffffffffffffffff16815260200184810384528a818151815260200191508051906020019080838360005b83811015610ce0578082015181840152602081019050610cc5565b50505050905090810190601f168015610d0d5780820380516001836020036101000a031916815260200191505b50848103835289818151815260200191508051906020019080838360005b83811015610d46578082015181840152602081019050610d2b565b50505050905090810190601f168015610d735780820380516001836020036101000a031916815260200191505b50848103825288818151815260200191508051906020019080838360005b83811015610dac578082015181840152602081019050610d91565b50505050905090810190601f168015610dd95780820380516001836020036101000a031916815260200191505b509f5050505050505050505050505050505060405180910390f35b610f4460048036036040811015610e0a57600080fd5b8101908080359060200190640100000000811115610e2757600080fd5b820183602082011115610e3957600080fd5b80359060200191846001830284011164010000000083111715610e5b57600080fd5b91908080601f016020809104026020016040519081016040528093929190818152602001838380828437600081840152601f19601f82011690508083019250505050505050919291929080359060200190640100000000811115610ebe57600080fd5b820183602082011115610ed057600080fd5b80359060200191846001830284011164010000000083111715610ef257600080fd5b91908080601f016020809104026020016040519081016040528093929190818152602001838380828437600081840152601f19601f8201169050808301925050505050505091929192905050506133e3565b005b610f9260048036036040811015610f5c57600080fd5b81019080803573ffffffffffffffffffffffffffffffffffffffff16906020019092919080359060200190929190505050613680565b005b610fe060048036036040811015610faa57600080fd5b81019080803573ffffffffffffffffffffffffffffffffffffffff169060200190929190803590602001909291905050506136ef565b005b7f6cecdfdd8d32024ca260a355a0db20cc6cb3b8e8bec573020091f66e646322b38282604051808381526020018281526020019250505060405180910390a15050565b8060046000848152602001908152602001600020600401908051906020019061104f9291906139a8565b5060026004600084815260200190815260200160002060010160146101000a81548160ff0219169083600281111561108357fe5b02179055507f5c4309dfc3035c1a4bf97bcb857af97a5cc91243a4ec95c92c9a0e3976f7b7aa82826040518083815260200180602001828103825283818151815260200191508051906020019080838360005b838110156110f15780820151818401526020810190506110d6565b50505050905090810190601f16801561111e5780820380516001836020036101000a031916815260200191505b50935050505060405180910390a15050565b6060600460008381526020019081526020016000206004018054600181600116156101000203166002900480601f0160208091040260200160405190810160405280929190818152602001828054600181600116156101000203166002900480156111dc5780601f106111b1576101008083540402835291602001916111dc565b820191906000526020600020905b8154815290600101906020018083116111bf57829003601f168201915b50505050509050919050565b6111f0613a28565b6040518061018001604052803373ffffffffffffffffffffffffffffffffffffffff168152602001600073ffffffffffffffffffffffffffffffffffffffff1681526020016000600281111561124257fe5b815260200160078081111561125357fe5b815260200142815260200142815260200160405180602001604052806000815250815260200160405180602001604052806000815250815260200184815260200183815260200160008152602001600073ffffffffffffffffffffffffffffffffffffffff1681525090508060046000600554815260200190815260200160002060008201518160000160006101000a81548173ffffffffffffffffffffffffffffffffffffffff021916908373ffffffffffffffffffffffffffffffffffffffff16021790555060208201518160010160006101000a81548173ffffffffffffffffffffffffffffffffffffffff021916908373ffffffffffffffffffffffffffffffffffffffff16021790555060408201518160010160146101000a81548160ff0219169083600281111561138657fe5b021790555060608201518160010160156101000a81548160ff021916908360078111156113af57fe5b02179055506080820151816002015560a0820151816003015560c08201518160040190805190602001906113e4929190613ae1565b5060e0820151816005019080519060200190611401929190613ae1565b5061010082015181600601908051906020019061141f929190613ae1565b50610120820151816007015561014082015181600801556101608201518160090160006101000a81548173ffffffffffffffffffffffffffffffffffffffff021916908373ffffffffffffffffffffffffffffffffffffffff160217905550905050600160055401600581905550505050565b60068054600181600116156101000203166002900480601f0160208091040260200160405190810160405280929190818152602001828054600181600116156101000203166002900480156115285780601f106114fd57610100808354040283529160200191611528565b820191906000526020600020905b81548152906001019060200180831161150b57829003601f168201915b505050505081565b611538613a28565b6040518061018001604052803373ffffffffffffffffffffffffffffffffffffffff168152602001600073ffffffffffffffffffffffffffffffffffffffff1681526020016000600281111561158a57fe5b81526020016000600781111561159c57fe5b81526020014281526020014281526020016040518060200160405280600081525081526020018381526020016040518060200160405280600081525081526020016000815260200160008152602001600073ffffffffffffffffffffffffffffffffffffffff1681525090508060046000600554815260200190815260200160002060008201518160000160006101000a81548173ffffffffffffffffffffffffffffffffffffffff021916908373ffffffffffffffffffffffffffffffffffffffff16021790555060208201518160010160006101000a81548173ffffffffffffffffffffffffffffffffffffffff021916908373ffffffffffffffffffffffffffffffffffffffff16021790555060408201518160010160146101000a81548160ff021916908360028111156116d057fe5b021790555060608201518160010160156101000a81548160ff021916908360078111156116f957fe5b02179055506080820151816002015560a0820151816003015560c082015181600401908051906020019061172e929190613ae1565b5060e082015181600501908051906020019061174b929190613ae1565b50610100820151816006019080519060200190611769929190613ae1565b50610120820151816007015561014082015181600801556101608201518160090160006101000a81548173ffffffffffffffffffffffffffffffffffffffff021916908373ffffffffffffffffffffffffffffffffffffffff1602179055509050506001600554016005819055505050565b7ffd76648f96a65b610ce0ad7f74c6336930186737f58a027b0a511cc93810e6508282604051808381526020018273ffffffffffffffffffffffffffffffffffffffff1673ffffffffffffffffffffffffffffffffffffffff1681526020019250505060405180910390a15050565b611852613a28565b6040518061018001604052803373ffffffffffffffffffffffffffffffffffffffff168152602001600073ffffffffffffffffffffffffffffffffffffffff168152602001600060028111156118a457fe5b8152602001600460078111156118b657fe5b8152602001428152602001428152602001604051806020016040528060008152508152602001604051806020016040528060008152508152602001604051806020016040528060008152508152602001838152602001600081526020018473ffffffffffffffffffffffffffffffffffffffff1681525090508060046000600554815260200190815260200160002060008201518160000160006101000a81548173ffffffffffffffffffffffffffffffffffffffff021916908373ffffffffffffffffffffffffffffffffffffffff16021790555060208201518160010160006101000a81548173ffffffffffffffffffffffffffffffffffffffff021916908373ffffffffffffffffffffffffffffffffffffffff16021790555060408201518160010160146101000a81548160ff021916908360028111156119f757fe5b021790555060608201518160010160156101000a81548160ff02191690836007811115611a2057fe5b02179055506080820151816002015560a0820151816003015560c0820151816004019080519060200190611a55929190613ae1565b5060e0820151816005019080519060200190611a72929190613ae1565b50610100820151816006019080519060200190611a90929190613ae1565b50610120820151816007015561014082015181600801556101608201518160090160006101000a81548173ffffffffffffffffffffffffffffffffffffffff021916908373ffffffffffffffffffffffffffffffffffffffff160217905550905050600160055401600581905550505050565b7f32b47ce6cb2f21c2a9f56b2f9f4dfb101ca6a4d0412a0a40a773478bfd764ce3816040518080602001828103825283818151815260200191508051906020019080838360005b83811015611b65578082015181840152602081019050611b4a565b50505050905090810190601f168015611b925780820380516001836020036101000a031916815260200191505b509250505060405180910390a150565b611baa613a28565b6040518061018001604052803373ffffffffffffffffffffffffffffffffffffffff168152602001600073ffffffffffffffffffffffffffffffffffffffff16815260200160006002811115611bfc57fe5b815260200160016007811115611c0e57fe5b8152602001428152602001428152602001604051806020016040528060008152508152602001604051806020016040528060008152508152602001604051806020016040528060008152508152602001848152602001600081526020018373ffffffffffffffffffffffffffffffffffffffff1681525090508060046000600554815260200190815260200160002060008201518160000160006101000a81548173ffffffffffffffffffffffffffffffffffffffff021916908373ffffffffffffffffffffffffffffffffffffffff16021790555060208201518160010160006101000a81548173ffffffffffffffffffffffffffffffffffffffff021916908373ffffffffffffffffffffffffffffffffffffffff16021790555060408201518160010160146101000a81548160ff02191690836002811115611d4f57fe5b021790555060608201518160010160156101000a81548160ff02191690836007811115611d7857fe5b02179055506080820151816002015560a0820151816003015560c0820151816004019080519060200190611dad929190613ae1565b5060e0820151816005019080519060200190611dca929190613ae1565b50610100820151816006019080519060200190611de8929190613ae1565b50610120820151816007015561014082015181600801556101608201518160090160006101000a81548173ffffffffffffffffffffffffffffffffffffffff021916908373ffffffffffffffffffffffffffffffffffffffff160217905550905050600160055401600581905550505050565b6060611e67600a612088565b90507faf1cebad1d3a6dcecd1574cc9082db8fbe0457086837068b40e5935856a99bf884848385604051808060200180602001806020018573ffffffffffffffffffffffffffffffffffffffff1673ffffffffffffffffffffffffffffffffffffffff168152602001848103845288818151815260200191508051906020019080838360005b83811015611f08578082015181840152602081019050611eed565b50505050905090810190601f168015611f355780820380516001836020036101000a031916815260200191505b50848103835287818151815260200191508051906020019080838360005b83811015611f6e578082015181840152602081019050611f53565b50505050905090810190601f168015611f9b5780820380516001836020036101000a031916815260200191505b50848103825286818151815260200191508051906020019080838360005b83811015611fd4578082015181840152602081019050611fb9565b50505050905090810190601f1680156120015780820380516001836020036101000a031916815260200191505b5097505050505050505060405180910390a150505050565b7f1d7ea454250c80d8537b5b154c16038fd3a2f514a447b72ec326c4bacbcffdcc8282604051808373ffffffffffffffffffffffffffffffffffffffff1673ffffffffffffffffffffffffffffffffffffffff1681526020018281526020019250505060405180910390a15050565b606080826040519080825280601f01601f1916602001820160405280156120be5781602001600182028038833980820191505090505b5090506060601a6040519080825280601f01601f1916602001820160405280156120f75781602001600182028038833980820191505090505b5090506040518060400160405280601a81526020017f6162636465666768696a6b6c6d6e6f707172737475767778797a000000000000815250905060008090505b848110156121ae57600061214c601a61235f565b905082818151811061215a57fe5b602001015160f81c60f81b84838151811061217157fe5b60200101907effffffffffffffffffffffffffffffffffffffffffffffffffffffffffffff1916908160001a905350508080600101915050612138565b508192505050919050565b6000600554905090565b60606121cf600a612088565b90507f76b3cc072aefb7eae5fd0ed89eb4997a0baf8f12e8da4adfca5889c672a46727848483856040518080602001858152602001806020018473ffffffffffffffffffffffffffffffffffffffff1673ffffffffffffffffffffffffffffffffffffffff168152602001838103835287818151815260200191508051906020019080838360005b83811015612272578082015181840152602081019050612257565b50505050905090810190601f16801561229f5780820380516001836020036101000a031916815260200191505b50838103825285818151815260200191508051906020019080838360005b838110156122d85780820151818401526020810190506122bd565b50505050905090810190601f1680156123055780820380516001836020036101000a031916815260200191505b50965050505050505060405180910390a150505050565b7f0a0775ecb238de39dd904b9cb98430e9ed571b7fcea40971217700ece19d99658282604051808381526020018281526020019250505060405180910390a15050565b600060076000815480929190600101919050555081424433600754604051602001808581526020018481526020018373ffffffffffffffffffffffffffffffffffffffff1673ffffffffffffffffffffffffffffffffffffffff1660601b81526014018281526020019450505050506040516020818303038152906040528051906020012060001c816123ee57fe5b069050919050565b6123fe613a28565b6040518061018001604052803373ffffffffffffffffffffffffffffffffffffffff168152602001600073ffffffffffffffffffffffffffffffffffffffff1681526020016000600281111561245057fe5b81526020016002600781111561246257fe5b8152602001428152602001428152602001604051806020016040528060008152508152602001604051806020016040528060008152508152602001604051806020016040528060008152508152602001838152602001848152602001600073ffffffffffffffffffffffffffffffffffffffff1681525090508060046000600554815260200190815260200160002060008201518160000160006101000a81548173ffffffffffffffffffffffffffffffffffffffff021916908373ffffffffffffffffffffffffffffffffffffffff16021790555060208201518160010160006101000a81548173ffffffffffffffffffffffffffffffffffffffff021916908373ffffffffffffffffffffffffffffffffffffffff16021790555060408201518160010160146101000a81548160ff021916908360028111156125a357fe5b021790555060608201518160010160156101000a81548160ff021916908360078111156125cc57fe5b02179055506080820151816002015560a0820151816003015560c0820151816004019080519060200190612601929190613ae1565b5060e082015181600501908051906020019061261e929190613ae1565b5061010082015181600601908051906020019061263c929190613ae1565b50610120820151816007015561014082015181600801556101608201518160090160006101000a81548173ffffffffffffffffffffffffffffffffffffffff021916908373ffffffffffffffffffffffffffffffffffffffff160217905550905050600160055401600581905550505050565b600060078111156126bc57fe5b6004600083815260200190815260200160002060010160159054906101000a900460ff1660078111156126eb57fe5b14156127ad576127a8600460008381526020019081526020016000206005018054600181600116156101000203166002900480601f01602080910402602001604051908101604052809291908181526020018280546001816001161561010002031660029004801561279e5780601f106127735761010080835404028352916020019161279e565b820191906000526020600020905b81548152906001019060200180831161278157829003601f168201915b5050505050611b03565b612db0565b600160078111156127ba57fe5b6004600083815260200190815260200160002060010160159054906101000a900460ff1660078111156127e957fe5b141561284a5761284560046000838152602001908152602001600020600701546004600084815260200190815260200160002060090160009054906101000a900473ffffffffffffffffffffffffffffffffffffffff166117db565b612daf565b6002600781111561285757fe5b6004600083815260200190815260200160002060010160159054906101000a900460ff16600781111561288657fe5b14156128c7576128c26004600083815260200190815260200160002060080154600460008481526020019081526020016000206007015461231c565b612dae565b600360078111156128d457fe5b6004600083815260200190815260200160002060010160159054906101000a900460ff16600781111561290357fe5b14156129445761293f60046000838152602001908152602001600020600801546004600084815260200190815260200160002060070154610fe2565b612dad565b6004600781111561295157fe5b6004600083815260200190815260200160002060010160159054906101000a900460ff16600781111561298057fe5b14156129e1576129dc6004600083815260200190815260200160002060090160009054906101000a900473ffffffffffffffffffffffffffffffffffffffff166004600084815260200190815260200160002060070154613680565b612dac565b600560078111156129ee57fe5b6004600083815260200190815260200160002060010160159054906101000a900460ff166007811115612a1d57fe5b1415612a7e57612a796004600083815260200190815260200160002060090160009054906101000a900473ffffffffffffffffffffffffffffffffffffffff166004600084815260200190815260200160002060070154612019565b612dab565b60066007811115612a8b57fe5b6004600083815260200190815260200160002060010160159054906101000a900460ff166007811115612aba57fe5b1415612c6257612c5d600460008381526020019081526020016000206006018054600181600116156101000203166002900480601f016020809104026020016040519081016040528092919081815260200182805460018160011615610100020316600290048015612b6d5780601f10612b4257610100808354040283529160200191612b6d565b820191906000526020600020905b815481529060010190602001808311612b5057829003601f168201915b5050505050600460008481526020019081526020016000206005018054600181600116156101000203166002900480601f016020809104026020016040519081016040528092919081815260200182805460018160011615610100020316600290048015612c1c5780601f10612bf157610100808354040283529160200191612c1c565b820191906000526020600020905b815481529060010190602001808311612bff57829003601f168201915b50505050506004600085815260200190815260200160002060000160009054906101000a900473ffffffffffffffffffffffffffffffffffffffff16611e5b565b612daa565b600780811115612c6e57fe5b6004600083815260200190815260200160002060010160159054906101000a900460ff166007811115612c9d57fe5b1415612da957612da8600460008381526020019081526020016000206006018054600181600116156101000203166002900480601f016020809104026020016040519081016040528092919081815260200182805460018160011615610100020316600290048015612d505780601f10612d2557610100808354040283529160200191612d50565b820191906000526020600020905b815481529060010190602001808311612d3357829003601f168201915b505050505060046000848152602001908152602001600020600701546004600085815260200190815260200160002060000160009054906101000a900473ffffffffffffffffffffffffffffffffffffffff166121c3565b5b5b5b5b5b5b5b5b426004600083815260200190815260200160002060030181905550336004600083815260200190815260200160002060010160006101000a81548173ffffffffffffffffffffffffffffffffffffffff021916908373ffffffffffffffffffffffffffffffffffffffff16021790555060016004600083815260200190815260200160002060010160146101000a81548160ff02191690836002811115612e5357fe5b021790555050565b60006004600083815260200190815260200160002060010160159054906101000a900460ff169050919050565b612e90613a28565b6040518061018001604052803373ffffffffffffffffffffffffffffffffffffffff168152602001600073ffffffffffffffffffffffffffffffffffffffff16815260200160006002811115612ee257fe5b815260200160036007811115612ef457fe5b8152602001428152602001428152602001604051806020016040528060008152508152602001604051806020016040528060008152508152602001604051806020016040528060008152508152602001838152602001848152602001600073ffffffffffffffffffffffffffffffffffffffff1681525090508060046000600554815260200190815260200160002060008201518160000160006101000a81548173ffffffffffffffffffffffffffffffffffffffff021916908373ffffffffffffffffffffffffffffffffffffffff16021790555060208201518160010160006101000a81548173ffffffffffffffffffffffffffffffffffffffff021916908373ffffffffffffffffffffffffffffffffffffffff16021790555060408201518160010160146101000a81548160ff0219169083600281111561303557fe5b021790555060608201518160010160156101000a81548160ff0219169083600781111561305e57fe5b02179055506080820151816002015560a0820151816003015560c0820151816004019080519060200190613093929190613ae1565b5060e08201518160050190805190602001906130b0929190613ae1565b506101008201518160060190805190602001906130ce929190613ae1565b50610120820151816007015561014082015181600801556101608201518160090160006101000a81548173ffffffffffffffffffffffffffffffffffffffff021916908373ffffffffffffffffffffffffffffffffffffffff160217905550905050600160055401600581905550505050565b60046020528060005260406000206000915090508060000160009054906101000a900473ffffffffffffffffffffffffffffffffffffffff16908060010160009054906101000a900473ffffffffffffffffffffffffffffffffffffffff16908060010160149054906101000a900460ff16908060010160159054906101000a900460ff1690806002015490806003015490806004018054600181600116156101000203166002900480601f01602080910402602001604051908101604052809291908181526020018280546001816001161561010002031660029004801561326b5780601f106132405761010080835404028352916020019161326b565b820191906000526020600020905b81548152906001019060200180831161324e57829003601f168201915b505050505090806005018054600181600116156101000203166002900480601f0160208091040260200160405190810160405280929190818152602001828054600181600116156101000203166002900480156133095780601f106132de57610100808354040283529160200191613309565b820191906000526020600020905b8154815290600101906020018083116132ec57829003601f168201915b505050505090806006018054600181600116156101000203166002900480601f0160208091040260200160405190810160405280929190818152602001828054600181600116156101000203166002900480156133a75780601f1061337c576101008083540402835291602001916133a7565b820191906000526020600020905b81548152906001019060200180831161338a57829003601f168201915b5050505050908060070154908060080154908060090160009054906101000a900473ffffffffffffffffffffffffffffffffffffffff1690508c565b6133eb613a28565b6040518061018001604052803373ffffffffffffffffffffffffffffffffffffffff168152602001600073ffffffffffffffffffffffffffffffffffffffff1681526020016000600281111561343d57fe5b81526020016006600781111561344f57fe5b81526020014281526020014281526020016040518060200160405280600081525081526020018381526020018481526020016000815260200160008152602001600073ffffffffffffffffffffffffffffffffffffffff1681525090508060046000600554815260200190815260200160002060008201518160000160006101000a81548173ffffffffffffffffffffffffffffffffffffffff021916908373ffffffffffffffffffffffffffffffffffffffff16021790555060208201518160010160006101000a81548173ffffffffffffffffffffffffffffffffffffffff021916908373ffffffffffffffffffffffffffffffffffffffff16021790555060408201518160010160146101000a81548160ff0219169083600281111561357457fe5b021790555060608201518160010160156101000a81548160ff0219169083600781111561359d57fe5b02179055506080820151816002015560a0820151816003015560c08201518160040190805190602001906135d2929190613ae1565b5060e08201518160050190805190602001906135ef929190613ae1565b5061010082015181600601908051906020019061360d929190613ae1565b50610120820151816007015561014082015181600801556101608201518160090160006101000a81548173ffffffffffffffffffffffffffffffffffffffff021916908373ffffffffffffffffffffffffffffffffffffffff160217905550905050600160055401600581905550505050565b7f0ce8ab5ebacf7596aada7f8908ceebb1c8bff3d9c463052135af63ed6539e2e38282604051808373ffffffffffffffffffffffffffffffffffffffff1673ffffffffffffffffffffffffffffffffffffffff1681526020018281526020019250505060405180910390a15050565b6136f7613a28565b6040518061018001604052803373ffffffffffffffffffffffffffffffffffffffff168152602001600073ffffffffffffffffffffffffffffffffffffffff1681526020016000600281111561374957fe5b81526020016005600781111561375b57fe5b8152602001428152602001428152602001604051806020016040528060008152508152602001604051806020016040528060008152508152602001604051806020016040528060008152508152602001838152602001600081526020018473ffffffffffffffffffffffffffffffffffffffff1681525090508060046000600554815260200190815260200160002060008201518160000160006101000a81548173ffffffffffffffffffffffffffffffffffffffff021916908373ffffffffffffffffffffffffffffffffffffffff16021790555060208201518160010160006101000a81548173ffffffffffffffffffffffffffffffffffffffff021916908373ffffffffffffffffffffffffffffffffffffffff16021790555060408201518160010160146101000a81548160ff0219169083600281111561389c57fe5b021790555060608201518160010160156101000a81548160ff021916908360078111156138c557fe5b02179055506080820151816002015560a0820151816003015560c08201518160040190805190602001906138fa929190613ae1565b5060e0820151816005019080519060200190613917929190613ae1565b50610100820151816006019080519060200190613935929190613ae1565b50610120820151816007015561014082015181600801556101608201518160090160006101000a81548173ffffffffffffffffffffffffffffffffffffffff021916908373ffffffffffffffffffffffffffffffffffffffff160217905550905050600160055401600581905550505050565b828054600181600116156101000203166002900490600052602060002090601f016020900481019282601f106139e957805160ff1916838001178555613a17565b82800160010185558215613a17579182015b82811115613a165782518255916020019190600101906139fb565b5b509050613a249190613b61565b5090565b604051806101800160405280600073ffffffffffffffffffffffffffffffffffffffff168152602001600073ffffffffffffffffffffffffffffffffffffffff16815260200160006002811115613a7b57fe5b815260200160006007811115613a8d57fe5b815260200160008152602001600081526020016060815260200160608152602001606081526020016000815260200160008152602001600073ffffffffffffffffffffffffffffffffffffffff1681525090565b828054600181600116156101000203166002900490600052602060002090601f016020900481019282601f10613b2257805160ff1916838001178555613b50565b82800160010185558215613b50579182015b82811115613b4f578251825591602001919060010190613b34565b5b509050613b5d9190613b61565b5090565b613b8391905b80821115613b7f576000816000905550600101613b67565b5090565b9056fea265627a7a72315820eaf4661e1017407cf84fd695384dcb19ff8f6086185f144a5b978d57aa7bf7a864736f6c63430005110032",
  "source": "pragma solidity ^0.5.0;\r\n\r\nimport \"./User.sol\";\r\nimport \"./Permission.sol\";\r\nimport \"./Role.sol\";\r\nimport \"./DatasetUploader.sol\";\r\n\r\n// import \"hardhat/console.sol\";\r\n\r\ncontract RequestApprovalManagement {\r\n    enum statusEnum {\r\n        pending,\r\n        approved,\r\n        rejected\r\n    }\r\n\r\n    enum requestTypeEnum {\r\n        createNewRoleRequest,\r\n        removeRoleRequest,\r\n        addExistingDatasetToRoleRequest,\r\n        removeDatasetFromRoleRequest,\r\n        addUserToRoleRequest,\r\n        removeUserFromRoleRequest,\r\n        uploadDatasetToNewRoleRequest,\r\n        uploadDatasetToExistingRoleRequest\r\n    }\r\n\r\n    struct Request {\r\n        address requesterAddress;\r\n        address adminAddress;\r\n        statusEnum requestStatus;\r\n        requestTypeEnum requestType;\r\n        uint256 creationDateTime;\r\n        uint256 updatedDateTime;\r\n        string adminAdditionalRemarks;\r\n        string roleName;\r\n        string datasetIdentifier;\r\n        uint256 roleID; \r\n        uint256 permissionID;\r\n        address userID;\r\n    }\r\n\r\n    User userContract;\r\n    Permission permissionContract;\r\n    Role roleContract;   \r\n    DatasetUploader datasetuploaderContract;  \r\n\r\n    mapping(uint256 => Request) public requestsMapping;\r\n\r\n    uint256 totalNumberOfRequest;\r\n\r\n    event createNewRoleRequestApproved(string roleName);\r\n    event removeRoleRequestApproved(uint256 roleID, address userID);\r\n    event addExistingDatasetToRolesRequestApproved(uint256 permissionID, uint256 roleID);\r\n    event removeDatasetFromRolesRequestApproved(uint256 permissionID, uint256 roleID);\r\n    event addUsersToRolesRequestApproved(address userID, uint256 roleID);\r\n    event removeUsersFromRolesRequestApproved(address userID, uint256 roleID);\r\n    event uploadDatasetToNewRoleRequestApproved(string datasetIdentifier, string roleName, string pointer, address requestor);\r\n    event uploadDatasetToExistingRoleRequestApproved(string datasetIdentifier, uint256 roleID, string pointer, address requestor);\r\n\r\n    event rejectRequestEvent(uint256 requestID, string adminAdditionalRemarks);\r\n\r\n    constructor(User userAddress, Permission permissionAddress, Role roleAddress, DatasetUploader datasetUploaderAddress) public {\r\n        userContract = userAddress;\r\n        permissionContract = permissionAddress;\r\n        roleContract = roleAddress;\r\n        datasetuploaderContract = datasetUploaderAddress;\r\n        totalNumberOfRequest = 0;\r\n    }\r\n\r\n    // Admin functions\r\n    function approveRequest(uint256 requestID) public {\r\n        if (requestsMapping[requestID].requestType == requestTypeEnum.createNewRoleRequest) {\r\n\r\n            createNewRole(requestsMapping[requestID].roleName);\r\n\r\n        } else if (requestsMapping[requestID].requestType == requestTypeEnum.removeRoleRequest) {\r\n\r\n            removeRole(requestsMapping[requestID].roleID,requestsMapping[requestID].userID);\r\n\r\n        } else if (requestsMapping[requestID].requestType == requestTypeEnum.addExistingDatasetToRoleRequest) {\r\n\r\n            addExistingDatasetToRole(requestsMapping[requestID].permissionID, requestsMapping[requestID].roleID);\r\n\r\n        } else if (requestsMapping[requestID].requestType == requestTypeEnum.removeDatasetFromRoleRequest) {\r\n\r\n            removeDatasetFromRole(requestsMapping[requestID].permissionID, requestsMapping[requestID].roleID);\r\n\r\n        } else if (requestsMapping[requestID].requestType == requestTypeEnum.addUserToRoleRequest) {\r\n\r\n            addUsersToRole(requestsMapping[requestID].userID, requestsMapping[requestID].roleID);\r\n\r\n        } else if (requestsMapping[requestID].requestType == requestTypeEnum.removeUserFromRoleRequest) {\r\n\r\n            removeUsersFromRole(requestsMapping[requestID].userID, requestsMapping[requestID].roleID);\r\n\r\n        } else if (requestsMapping[requestID].requestType == requestTypeEnum.uploadDatasetToNewRoleRequest) {\r\n\r\n            uploadDatasetToNewRole(requestsMapping[requestID].datasetIdentifier, requestsMapping[requestID].roleName, requestsMapping[requestID].requesterAddress);\r\n\r\n        } else if (requestsMapping[requestID].requestType == requestTypeEnum.uploadDatasetToExistingRoleRequest) {\r\n\r\n            uploadDatasetToExistingRole(requestsMapping[requestID].datasetIdentifier, requestsMapping[requestID].roleID, requestsMapping[requestID].requesterAddress);\r\n\r\n        }       \r\n\r\n        requestsMapping[requestID].updatedDateTime = block.timestamp;\r\n        requestsMapping[requestID].adminAddress = msg.sender;\r\n        requestsMapping[requestID].requestStatus = statusEnum.approved;\r\n    }\r\n\r\n    function rejectRequest(uint256 requestID, string memory adminAdditionalRemarks) public {\r\n        requestsMapping[requestID].adminAdditionalRemarks = adminAdditionalRemarks;\r\n        requestsMapping[requestID].requestStatus = statusEnum.rejected;\r\n        emit rejectRequestEvent(requestID, adminAdditionalRemarks);\r\n    }\r\n\r\n    // Creating Requests\r\n\r\n    function createNewRoleRequest(string memory roleName) public {\r\n        Request memory newRequest = Request(msg.sender, address(0), statusEnum.pending, requestTypeEnum.createNewRoleRequest, block.timestamp,block.timestamp, \"\", roleName, \"\", 0,0,address(0));\r\n        requestsMapping[totalNumberOfRequest] = newRequest;\r\n        totalNumberOfRequest = totalNumberOfRequest + 1;\r\n    }\r\n\r\n    function removeRoleRequest(uint256 roleID, address userID) public {\r\n        Request memory newRequest = Request(msg.sender, address(0), statusEnum.pending, requestTypeEnum.removeRoleRequest, block.timestamp,block.timestamp, \"\", \"\", \"\", roleID,0,userID);\r\n        requestsMapping[totalNumberOfRequest] = newRequest;\r\n        totalNumberOfRequest = totalNumberOfRequest + 1;\r\n    }\r\n\r\n    function addExistingDatasetToRoleRequest(uint256 permissionID, uint256 roleID) public {\r\n        Request memory newRequest = Request(msg.sender, address(0), statusEnum.pending, requestTypeEnum.addExistingDatasetToRoleRequest, block.timestamp,block.timestamp, \"\", \"\", \"\", roleID,permissionID,address(0));\r\n        requestsMapping[totalNumberOfRequest] = newRequest;\r\n        totalNumberOfRequest = totalNumberOfRequest + 1;\r\n    }\r\n\r\n    function removeDatasetFromRoleRequest(uint256 permissionID, uint256 roleID) public {\r\n        Request memory newRequest = Request(msg.sender, address(0), statusEnum.pending, requestTypeEnum.removeDatasetFromRoleRequest, block.timestamp,block.timestamp, \"\", \"\", \"\", roleID, permissionID,address(0));\r\n        requestsMapping[totalNumberOfRequest] = newRequest;\r\n        totalNumberOfRequest = totalNumberOfRequest + 1;\r\n    }\r\n\r\n    function addUsersToRoleRequest(address userID, uint256 roleID) public {\r\n        Request memory newRequest = Request(msg.sender, address(0), statusEnum.pending, requestTypeEnum.addUserToRoleRequest, block.timestamp,block.timestamp, \"\", \"\", \"\", roleID, 0, userID);\r\n        requestsMapping[totalNumberOfRequest] = newRequest;\r\n        totalNumberOfRequest = totalNumberOfRequest + 1;\r\n    }\r\n\r\n    function removeUsersFromRoleRequest(address userID, uint256 roleID) public {\r\n        Request memory newRequest = Request(msg.sender, address(0), statusEnum.pending, requestTypeEnum.removeUserFromRoleRequest , block.timestamp,block.timestamp, \"\", \"\", \"\", roleID, 0, userID);\r\n        requestsMapping[totalNumberOfRequest] = newRequest;\r\n        totalNumberOfRequest = totalNumberOfRequest + 1;\r\n    }\r\n\r\n    function uploadDatasetToNewRoleRequest(string memory datasetIdentifier, string memory roleName) public {\r\n        Request memory newRequest = Request(msg.sender, address(0), statusEnum.pending, requestTypeEnum.uploadDatasetToNewRoleRequest , block.timestamp,block.timestamp, \"\", roleName, datasetIdentifier, 0, 0, address(0));\r\n        requestsMapping[totalNumberOfRequest] = newRequest;\r\n        totalNumberOfRequest = totalNumberOfRequest + 1;\r\n    }\r\n\r\n    function uploadDatasetToExistingRoleRequest(string memory datasetIdentifier, uint256 roleID) public {\r\n        Request memory newRequest = Request(msg.sender, address(0), statusEnum.pending, requestTypeEnum.uploadDatasetToExistingRoleRequest , block.timestamp,block.timestamp, \"\", \"\", datasetIdentifier, roleID, 0, address(0));\r\n        requestsMapping[totalNumberOfRequest] = newRequest;\r\n        totalNumberOfRequest = totalNumberOfRequest + 1;\r\n    }\r\n\r\n\r\n    // Getters\r\n\r\n    function getRequestStatus(uint256 requestID) public view returns(requestTypeEnum) {\r\n        return requestsMapping[requestID].requestType;\r\n    }\r\n\r\n    function getRequestAdminRemarks(uint256 requestID) public view returns(string memory) {\r\n        return requestsMapping[requestID].adminAdditionalRemarks;\r\n    }\r\n\r\n    function getTotalNumberOfRequests() public view returns(uint256) {\r\n        return totalNumberOfRequest;\r\n    }\r\n\r\n\r\n\r\n    // Helper functions\r\n    \r\n    function createNewRole(string memory roleName) public {\r\n        // // Role Creation\r\n        // roleContract.createRole(roleName);\r\n\r\n        emit createNewRoleRequestApproved(roleName);\r\n    }\r\n\r\n    function removeRole(uint256 roleID, address userID) public {\r\n        // //  Remove role\r\n        // roleContract.removeRoleUser(roleID, userID);\r\n\r\n        emit removeRoleRequestApproved(roleID, userID);\r\n    }\r\n\r\n    function addExistingDatasetToRole(uint256 permissionID, uint256 roleID) public {\r\n        // // Give Permission to role\r\n        // permissionContract.givePermissionRole(permissionID, roleID);\r\n        // // Give role to permission\r\n        // roleContract.giveRolePermission(roleID, permissionID); \r\n\r\n        emit addExistingDatasetToRolesRequestApproved(permissionID, roleID);\r\n    }\r\n\r\n    function removeDatasetFromRole(uint256 permissionID, uint256 roleID) public {\r\n        // // Remove Permission to role\r\n        // permissionContract.removePermissionRole(permissionID, roleID); \r\n        // // Remove role to permission\r\n        // roleContract.removeRolePermission(roleID, permissionID); \r\n        \r\n        emit removeDatasetFromRolesRequestApproved(permissionID, roleID);\r\n    }\r\n\r\n    function addUsersToRole(address userID, uint256 roleID) public {\r\n        // // Give user to role\r\n        // roleContract.giveRoleUser(roleID, userID);\r\n        // // Give role to user\r\n        // userContract.giveUserRole(userID, roleID);\r\n\r\n        emit addUsersToRolesRequestApproved(userID, roleID);\r\n    }\r\n\r\n    function removeUsersFromRole(address userID, uint256 roleID) public {\r\n        // // Remove user from role\r\n        // roleContract.removeRoleUser(roleID, userID);\r\n        // // Remove role from user\r\n        // userContract.removeUserRole(userID, roleID);\r\n\r\n        emit removeUsersFromRolesRequestApproved(userID, roleID);\r\n    }\r\n\r\n    function uploadDatasetToNewRole(string memory datasetIdentifier, string memory roleName, address requestor) public {\r\n     \r\n        //This pointer is a simulation --> This by right links to external DB\r\n        //  We are now simulating it by generating a random string of length 10\r\n        string memory pointer = randomString(10);\r\n\r\n        // // Upload dataset\r\n        // datasetuploaderContract.uploadDataset(datasetIdentifier, 0, roleName, pointer,requestor);\r\n\r\n        emit uploadDatasetToNewRoleRequestApproved(datasetIdentifier, roleName, pointer, requestor);\r\n    }\r\n\r\n    function uploadDatasetToExistingRole(string memory datasetIdentifier, uint256 roleID, address requestor) public {\r\n        \r\n        //This pointer is a simulation --> This by right links to external DB\r\n        //  We are now simulating it by generating a random string of length 10\r\n        string memory pointer = randomString(10);\r\n\r\n        // // Upload dataset\r\n        // datasetuploaderContract.uploadDataset(datasetIdentifier, roleID, \"\", pointer, requestor); \r\n\r\n        emit uploadDatasetToExistingRoleRequestApproved(datasetIdentifier, roleID, pointer, requestor);\r\n    }\r\n\r\n\r\n\r\n\r\n    // Random String Generator\r\n    string public letters = \"abcdefghijklmnopqrstuvwxyz\";\r\n    // I needed to add this to the random function to generate a different random number\r\n    uint counter =1;\r\n\r\n    // size is length of word\r\n    function randomString(uint size) public  returns(string memory){\r\n        bytes memory randomWord=new bytes(size);\r\n        // since we have 26 letters\r\n        bytes memory chars = new bytes(26);\r\n        chars=\"abcdefghijklmnopqrstuvwxyz\";\r\n        for (uint i=0;i<size;i++){\r\n            uint randomNumber=random(26);\r\n            // Index access for string is not possible\r\n            randomWord[i]=chars[randomNumber];\r\n        }\r\n        return string(randomWord);\r\n    }\r\n\r\n    function random(uint number) public returns(uint){\r\n        counter++;\r\n        return uint(keccak256(abi.encodePacked(block.timestamp,block.difficulty,  \r\n        msg.sender,counter))) % number;\r\n    }\r\n\r\n\r\n}\r\n",
  "sourcePath": "C:\\Users\\chang\\OneDrive - National University of Singapore\\Documents\\IS4302 Project\\is4302_grp19\\JianXiang_test\\contracts\\RequestApprovalManagement.sol",
  "compiler": {
    "name": "solc",
    "version": "0.5.17+commit.d19bba13.Emscripten.clang"
  },
  "schemaVersion": "3.4.11",
  "updatedAt": "2023-03-25T04:40:33.156Z",
  "networkType": "ethereum",
  "devdoc": {
    "methods": {}
  },
  "userdoc": {
    "methods": {}
  }
}