{
  "contractName": "RequestApprovalManagement",
  "abi": [
    {
      "inputs": [
        {
          "internalType": "contract User",
          "name": "userAddress",
          "type": "address"
        },
        {
          "internalType": "contract Permission",
          "name": "permissionAddress",
          "type": "address"
        },
        {
          "internalType": "contract Role",
          "name": "roleAddress",
          "type": "address"
        },
        {
          "internalType": "contract DatasetUploader",
          "name": "datasetUploaderAddress",
          "type": "address"
        }
      ],
      "payable": false,
      "stateMutability": "nonpayable",
      "type": "constructor"
    },
    {
      "anonymous": false,
      "inputs": [
        {
          "indexed": false,
          "internalType": "uint256",
          "name": "permissionID",
          "type": "uint256"
        },
        {
          "indexed": false,
          "internalType": "uint256",
          "name": "roleID",
          "type": "uint256"
        }
      ],
      "name": "addExistingDatasetToRolesRequestApproved",
      "type": "event"
    },
    {
      "anonymous": false,
      "inputs": [
        {
          "indexed": false,
          "internalType": "address",
          "name": "userID",
          "type": "address"
        },
        {
          "indexed": false,
          "internalType": "uint256",
          "name": "roleID",
          "type": "uint256"
        }
      ],
      "name": "addUsersToRolesRequestApproved",
      "type": "event"
    },
    {
      "anonymous": false,
      "inputs": [
        {
          "indexed": false,
          "internalType": "string",
          "name": "roleName",
          "type": "string"
        }
      ],
      "name": "createNewRoleRequestApproved",
      "type": "event"
    },
    {
      "anonymous": false,
      "inputs": [
        {
          "indexed": false,
          "internalType": "uint256",
          "name": "requestID",
          "type": "uint256"
        },
        {
          "indexed": false,
          "internalType": "string",
          "name": "adminAdditionalRemarks",
          "type": "string"
        }
      ],
      "name": "rejectRequestEvent",
      "type": "event"
    },
    {
      "anonymous": false,
      "inputs": [
        {
          "indexed": false,
          "internalType": "uint256",
          "name": "permissionID",
          "type": "uint256"
        },
        {
          "indexed": false,
          "internalType": "uint256",
          "name": "roleID",
          "type": "uint256"
        }
      ],
      "name": "removeDatasetFromRolesRequestApproved",
      "type": "event"
    },
    {
      "anonymous": false,
      "inputs": [
        {
          "indexed": false,
          "internalType": "uint256",
          "name": "roleID",
          "type": "uint256"
        },
        {
          "indexed": false,
          "internalType": "address",
          "name": "userID",
          "type": "address"
        }
      ],
      "name": "removeRoleRequestApproved",
      "type": "event"
    },
    {
      "anonymous": false,
      "inputs": [
        {
          "indexed": false,
          "internalType": "address",
          "name": "userID",
          "type": "address"
        },
        {
          "indexed": false,
          "internalType": "uint256",
          "name": "roleID",
          "type": "uint256"
        }
      ],
      "name": "removeUsersFromRolesRequestApproved",
      "type": "event"
    },
    {
      "anonymous": false,
      "inputs": [
        {
          "indexed": false,
          "internalType": "string",
          "name": "datasetIdentifier",
          "type": "string"
        },
        {
          "indexed": false,
          "internalType": "uint256",
          "name": "roleID",
          "type": "uint256"
        },
        {
          "indexed": false,
          "internalType": "address",
          "name": "requestor",
          "type": "address"
        }
      ],
      "name": "uploadDatasetToExistingRoleRequestApproved",
      "type": "event"
    },
    {
      "anonymous": false,
      "inputs": [
        {
          "indexed": false,
          "internalType": "string",
          "name": "datasetIdentifier",
          "type": "string"
        },
        {
          "indexed": false,
          "internalType": "string",
          "name": "roleName",
          "type": "string"
        },
        {
          "indexed": false,
          "internalType": "address",
          "name": "requestor",
          "type": "address"
        }
      ],
      "name": "uploadDatasetToNewRoleRequestApproved",
      "type": "event"
    },
    {
      "constant": true,
      "inputs": [
        {
          "internalType": "uint256",
          "name": "",
          "type": "uint256"
        }
      ],
      "name": "requestsMapping",
      "outputs": [
        {
          "internalType": "address",
          "name": "requesterAddress",
          "type": "address"
        },
        {
          "internalType": "address",
          "name": "adminAddress",
          "type": "address"
        },
        {
          "internalType": "enum RequestApprovalManagement.statusEnum",
          "name": "requestStatus",
          "type": "uint8"
        },
        {
          "internalType": "enum RequestApprovalManagement.requestTypeEnum",
          "name": "requestType",
          "type": "uint8"
        },
        {
          "internalType": "uint256",
          "name": "creationDateTime",
          "type": "uint256"
        },
        {
          "internalType": "uint256",
          "name": "updatedDateTime",
          "type": "uint256"
        },
        {
          "internalType": "string",
          "name": "adminAdditionalRemarks",
          "type": "string"
        },
        {
          "internalType": "string",
          "name": "roleName",
          "type": "string"
        },
        {
          "internalType": "string",
          "name": "datasetIdentifier",
          "type": "string"
        },
        {
          "internalType": "uint256",
          "name": "roleID",
          "type": "uint256"
        },
        {
          "internalType": "uint256",
          "name": "permissionID",
          "type": "uint256"
        },
        {
          "internalType": "address",
          "name": "userID",
          "type": "address"
        }
      ],
      "payable": false,
      "stateMutability": "view",
      "type": "function"
    },
    {
      "constant": false,
      "inputs": [
        {
          "internalType": "uint256",
          "name": "requestID",
          "type": "uint256"
        }
      ],
      "name": "approveRequest",
      "outputs": [],
      "payable": false,
      "stateMutability": "nonpayable",
      "type": "function"
    },
    {
      "constant": false,
      "inputs": [
        {
          "internalType": "uint256",
          "name": "requestID",
          "type": "uint256"
        },
        {
          "internalType": "string",
          "name": "adminAdditionalRemarks",
          "type": "string"
        }
      ],
      "name": "rejectRequest",
      "outputs": [],
      "payable": false,
      "stateMutability": "nonpayable",
      "type": "function"
    },
    {
      "constant": false,
      "inputs": [
        {
          "internalType": "string",
          "name": "roleName",
          "type": "string"
        }
      ],
      "name": "createNewRoleRequest",
      "outputs": [],
      "payable": false,
      "stateMutability": "nonpayable",
      "type": "function"
    },
    {
      "constant": false,
      "inputs": [
        {
          "internalType": "uint256",
          "name": "roleID",
          "type": "uint256"
        },
        {
          "internalType": "address",
          "name": "userID",
          "type": "address"
        }
      ],
      "name": "removeRoleRequest",
      "outputs": [],
      "payable": false,
      "stateMutability": "nonpayable",
      "type": "function"
    },
    {
      "constant": false,
      "inputs": [
        {
          "internalType": "uint256",
          "name": "permissionID",
          "type": "uint256"
        },
        {
          "internalType": "uint256",
          "name": "roleID",
          "type": "uint256"
        }
      ],
      "name": "addExistingDatasetToRoleRequest",
      "outputs": [],
      "payable": false,
      "stateMutability": "nonpayable",
      "type": "function"
    },
    {
      "constant": false,
      "inputs": [
        {
          "internalType": "uint256",
          "name": "permissionID",
          "type": "uint256"
        },
        {
          "internalType": "uint256",
          "name": "roleID",
          "type": "uint256"
        }
      ],
      "name": "removeDatasetFromRoleRequest",
      "outputs": [],
      "payable": false,
      "stateMutability": "nonpayable",
      "type": "function"
    },
    {
      "constant": false,
      "inputs": [
        {
          "internalType": "address",
          "name": "userID",
          "type": "address"
        },
        {
          "internalType": "uint256",
          "name": "roleID",
          "type": "uint256"
        }
      ],
      "name": "addUsersToRoleRequest",
      "outputs": [],
      "payable": false,
      "stateMutability": "nonpayable",
      "type": "function"
    },
    {
      "constant": false,
      "inputs": [
        {
          "internalType": "address",
          "name": "userID",
          "type": "address"
        },
        {
          "internalType": "uint256",
          "name": "roleID",
          "type": "uint256"
        }
      ],
      "name": "removeUsersFromRoleRequest",
      "outputs": [],
      "payable": false,
      "stateMutability": "nonpayable",
      "type": "function"
    },
    {
      "constant": false,
      "inputs": [
        {
          "internalType": "string",
          "name": "datasetIdentifier",
          "type": "string"
        },
        {
          "internalType": "string",
          "name": "roleName",
          "type": "string"
        }
      ],
      "name": "uploadDatasetToNewRoleRequest",
      "outputs": [],
      "payable": false,
      "stateMutability": "nonpayable",
      "type": "function"
    },
    {
      "constant": false,
      "inputs": [
        {
          "internalType": "string",
          "name": "datasetIdentifier",
          "type": "string"
        },
        {
          "internalType": "uint256",
          "name": "roleID",
          "type": "uint256"
        }
      ],
      "name": "uploadDatasetToExistingRoleRequest",
      "outputs": [],
      "payable": false,
      "stateMutability": "nonpayable",
      "type": "function"
    },
    {
      "constant": true,
      "inputs": [
        {
          "internalType": "uint256",
          "name": "requestID",
          "type": "uint256"
        }
      ],
      "name": "getRequestStatus",
      "outputs": [
        {
          "internalType": "enum RequestApprovalManagement.requestTypeEnum",
          "name": "",
          "type": "uint8"
        }
      ],
      "payable": false,
      "stateMutability": "view",
      "type": "function"
    },
    {
      "constant": true,
      "inputs": [
        {
          "internalType": "uint256",
          "name": "requestID",
          "type": "uint256"
        }
      ],
      "name": "getRequestAdminRemarks",
      "outputs": [
        {
          "internalType": "string",
          "name": "",
          "type": "string"
        }
      ],
      "payable": false,
      "stateMutability": "view",
      "type": "function"
    },
    {
      "constant": true,
      "inputs": [],
      "name": "getTotalNumberOfRequests",
      "outputs": [
        {
          "internalType": "uint256",
          "name": "",
          "type": "uint256"
        }
      ],
      "payable": false,
      "stateMutability": "view",
      "type": "function"
    },
    {
      "constant": false,
      "inputs": [
        {
          "internalType": "string",
          "name": "roleName",
          "type": "string"
        }
      ],
      "name": "createNewRole",
      "outputs": [],
      "payable": false,
      "stateMutability": "nonpayable",
      "type": "function"
    },
    {
      "constant": false,
      "inputs": [
        {
          "internalType": "uint256",
          "name": "roleID",
          "type": "uint256"
        },
        {
          "internalType": "address",
          "name": "userID",
          "type": "address"
        }
      ],
      "name": "removeRole",
      "outputs": [],
      "payable": false,
      "stateMutability": "nonpayable",
      "type": "function"
    },
    {
      "constant": false,
      "inputs": [
        {
          "internalType": "uint256",
          "name": "permissionID",
          "type": "uint256"
        },
        {
          "internalType": "uint256",
          "name": "roleID",
          "type": "uint256"
        }
      ],
      "name": "addExistingDatasetToRole",
      "outputs": [],
      "payable": false,
      "stateMutability": "nonpayable",
      "type": "function"
    },
    {
      "constant": false,
      "inputs": [
        {
          "internalType": "uint256",
          "name": "permissionID",
          "type": "uint256"
        },
        {
          "internalType": "uint256",
          "name": "roleID",
          "type": "uint256"
        }
      ],
      "name": "removeDatasetFromRole",
      "outputs": [],
      "payable": false,
      "stateMutability": "nonpayable",
      "type": "function"
    },
    {
      "constant": false,
      "inputs": [
        {
          "internalType": "address",
          "name": "userID",
          "type": "address"
        },
        {
          "internalType": "uint256",
          "name": "roleID",
          "type": "uint256"
        }
      ],
      "name": "addUsersToRole",
      "outputs": [],
      "payable": false,
      "stateMutability": "nonpayable",
      "type": "function"
    },
    {
      "constant": false,
      "inputs": [
        {
          "internalType": "address",
          "name": "userID",
          "type": "address"
        },
        {
          "internalType": "uint256",
          "name": "roleID",
          "type": "uint256"
        }
      ],
      "name": "removeUsersFromRole",
      "outputs": [],
      "payable": false,
      "stateMutability": "nonpayable",
      "type": "function"
    },
    {
      "constant": false,
      "inputs": [
        {
          "internalType": "string",
          "name": "datasetIdentifier",
          "type": "string"
        },
        {
          "internalType": "string",
          "name": "roleName",
          "type": "string"
        },
        {
          "internalType": "address",
          "name": "requestor",
          "type": "address"
        }
      ],
      "name": "uploadDatasetToNewRole",
      "outputs": [],
      "payable": false,
      "stateMutability": "nonpayable",
      "type": "function"
    },
    {
      "constant": false,
      "inputs": [
        {
          "internalType": "string",
          "name": "datasetIdentifier",
          "type": "string"
        },
        {
          "internalType": "uint256",
          "name": "roleID",
          "type": "uint256"
        },
        {
          "internalType": "address",
          "name": "requestor",
          "type": "address"
        }
      ],
      "name": "uploadDatasetToExistingRole",
      "outputs": [],
      "payable": false,
      "stateMutability": "nonpayable",
      "type": "function"
    }
  ],
  "bytecode": "0x608060405234801561001057600080fd5b506040516138403803806138408339818101604052608081101561003357600080fd5b8101908080519060200190929190805190602001909291908051906020019092919080519060200190929190505050836000806101000a81548173ffffffffffffffffffffffffffffffffffffffff021916908373ffffffffffffffffffffffffffffffffffffffff16021790555082600160006101000a81548173ffffffffffffffffffffffffffffffffffffffff021916908373ffffffffffffffffffffffffffffffffffffffff16021790555081600260006101000a81548173ffffffffffffffffffffffffffffffffffffffff021916908373ffffffffffffffffffffffffffffffffffffffff16021790555080600360006101000a81548173ffffffffffffffffffffffffffffffffffffffff021916908373ffffffffffffffffffffffffffffffffffffffff1602179055506000600581905550505050506136c0806101806000396000f3fe608060405234801561001057600080fd5b50600436106101425760003560e01c806378281dd1116100b8578063d8a4676f1161007c578063d8a4676f14610971578063e2a74300146109c1578063e3fc5828146109f9578063e9feec5514610c57578063ea49978b14610da9578063fafa5e9c14610df757610142565b806378281dd1146107d0578063a69ca844146107ee578063ab1e6a8b146108d3578063bd3ad78e1461090b578063d7d1bbdb1461094357610142565b80633238405b1161010a5780633238405b1461046b5780633c1a9b24146104b95780633c7a0c34146105075780633fd29b1b146105c25780634c671a2e146106105780635152da1e1461078257610142565b80630a454795146101475780630a5505dd1461017f5780630e3dbb9914610244578063193384bf146102eb5780632bead3e8146103b0575b600080fd5b61017d6004803603604081101561015d57600080fd5b810190808035906020019092919080359060200190929190505050610e45565b005b6102426004803603604081101561019557600080fd5b8101908080359060200190929190803590602001906401000000008111156101bc57600080fd5b8201836020820111156101ce57600080fd5b803590602001918460018302840111640100000000831117156101f057600080fd5b91908080601f016020809104026020016040519081016040528093929190818152602001838380828437600081840152601f19601f820116905080830192505050505050509192919290505050610e88565b005b6102706004803603602081101561025a57600080fd5b8101908080359060200190929190505050610f93565b6040518080602001828103825283818151815260200191508051906020019080838360005b838110156102b0578082015181840152602081019050610295565b50505050905090810190601f1680156102dd5780820380516001836020036101000a031916815260200191505b509250505060405180910390f35b6103ae6004803603604081101561030157600080fd5b810190808035906020019064010000000081111561031e57600080fd5b82018360208201111561033057600080fd5b8035906020019184600183028401116401000000008311171561035257600080fd5b91908080601f016020809104026020016040519081016040528093929190818152602001838380828437600081840152601f19601f8201169050808301925050505050505091929192908035906020019092919050505061104b565b005b610469600480360360208110156103c657600080fd5b81019080803590602001906401000000008111156103e357600080fd5b8201836020820111156103f557600080fd5b8035906020019184600183028401116401000000008311171561041757600080fd5b91908080601f016020809104026020016040519081016040528093929190818152602001838380828437600081840152601f19601f8201169050808301925050505050505091929192905050506112f5565b005b6104b76004803603604081101561048157600080fd5b8101908080359060200190929190803573ffffffffffffffffffffffffffffffffffffffff1690602001909291905050506115a0565b005b610505600480360360408110156104cf57600080fd5b81019080803573ffffffffffffffffffffffffffffffffffffffff1690602001909291908035906020019092919050505061160f565b005b6105c06004803603602081101561051d57600080fd5b810190808035906020019064010000000081111561053a57600080fd5b82018360208201111561054c57600080fd5b8035906020019184600183028401116401000000008311171561056e57600080fd5b91908080601f016020809104026020016040519081016040528093929190818152602001838380828437600081840152601f19601f8201169050808301925050505050505091929192905050506118c8565b005b61060e600480360360408110156105d857600080fd5b8101908080359060200190929190803573ffffffffffffffffffffffffffffffffffffffff169060200190929190505050611967565b005b6107806004803603606081101561062657600080fd5b810190808035906020019064010000000081111561064357600080fd5b82018360208201111561065557600080fd5b8035906020019184600183028401116401000000008311171561067757600080fd5b91908080601f016020809104026020016040519081016040528093929190818152602001838380828437600081840152601f19601f820116905080830192505050505050509192919290803590602001906401000000008111156106da57600080fd5b8201836020820111156106ec57600080fd5b8035906020019184600183028401116401000000008311171561070e57600080fd5b91908080601f016020809104026020016040519081016040528093929190818152602001838380828437600081840152601f19601f820116905080830192505050505050509192919290803573ffffffffffffffffffffffffffffffffffffffff169060200190929190505050611c20565b005b6107ce6004803603604081101561079857600080fd5b81019080803573ffffffffffffffffffffffffffffffffffffffff16906020019092919080359060200190929190505050611d62565b005b6107d8611dd1565b6040518082815260200191505060405180910390f35b6108d16004803603606081101561080457600080fd5b810190808035906020019064010000000081111561082157600080fd5b82018360208201111561083357600080fd5b8035906020019184600183028401116401000000008311171561085557600080fd5b91908080601f016020809104026020016040519081016040528093929190818152602001838380828437600081840152601f19601f82011690508083019250505050505050919291929080359060200190929190803573ffffffffffffffffffffffffffffffffffffffff169060200190929190505050611ddb565b005b610909600480360360408110156108e957600080fd5b810190808035906020019092919080359060200190929190505050611eb8565b005b6109416004803603604081101561092157600080fd5b810190808035906020019092919080359060200190929190505050611efb565b005b61096f6004803603602081101561095957600080fd5b81019080803590602001909291905050506121b4565b005b61099d6004803603602081101561098757600080fd5b8101908080359060200190929190505050612960565b604051808260078111156109ad57fe5b60ff16815260200191505060405180910390f35b6109f7600480360360408110156109d757600080fd5b81019080803590602001909291908035906020019092919050505061298d565b005b610a2560048036036020811015610a0f57600080fd5b8101908080359060200190929190505050612c46565b604051808d73ffffffffffffffffffffffffffffffffffffffff1673ffffffffffffffffffffffffffffffffffffffff1681526020018c73ffffffffffffffffffffffffffffffffffffffff1673ffffffffffffffffffffffffffffffffffffffff1681526020018b6002811115610a9957fe5b60ff1681526020018a6007811115610aad57fe5b60ff1681526020018981526020018881526020018060200180602001806020018781526020018681526020018573ffffffffffffffffffffffffffffffffffffffff1673ffffffffffffffffffffffffffffffffffffffff16815260200184810384528a818151815260200191508051906020019080838360005b83811015610b43578082015181840152602081019050610b28565b50505050905090810190601f168015610b705780820380516001836020036101000a031916815260200191505b50848103835289818151815260200191508051906020019080838360005b83811015610ba9578082015181840152602081019050610b8e565b50505050905090810190601f168015610bd65780820380516001836020036101000a031916815260200191505b50848103825288818151815260200191508051906020019080838360005b83811015610c0f578082015181840152602081019050610bf4565b50505050905090810190601f168015610c3c5780820380516001836020036101000a031916815260200191505b509f5050505050505050505050505050505060405180910390f35b610da760048036036040811015610c6d57600080fd5b8101908080359060200190640100000000811115610c8a57600080fd5b820183602082011115610c9c57600080fd5b80359060200191846001830284011164010000000083111715610cbe57600080fd5b91908080601f016020809104026020016040519081016040528093929190818152602001838380828437600081840152601f19601f82011690508083019250505050505050919291929080359060200190640100000000811115610d2157600080fd5b820183602082011115610d3357600080fd5b80359060200191846001830284011164010000000083111715610d5557600080fd5b91908080601f016020809104026020016040519081016040528093929190818152602001838380828437600081840152601f19601f820116905080830192505050505050509192919290505050612ee8565b005b610df560048036036040811015610dbf57600080fd5b81019080803573ffffffffffffffffffffffffffffffffffffffff16906020019092919080359060200190929190505050613185565b005b610e4360048036036040811015610e0d57600080fd5b81019080803573ffffffffffffffffffffffffffffffffffffffff169060200190929190803590602001909291905050506131f4565b005b7f6cecdfdd8d32024ca260a355a0db20cc6cb3b8e8bec573020091f66e646322b38282604051808381526020018281526020019250505060405180910390a15050565b80600460008481526020019081526020016000206004019080519060200190610eb29291906134ad565b5060026004600084815260200190815260200160002060010160146101000a81548160ff02191690836002811115610ee657fe5b02179055507f5c4309dfc3035c1a4bf97bcb857af97a5cc91243a4ec95c92c9a0e3976f7b7aa82826040518083815260200180602001828103825283818151815260200191508051906020019080838360005b83811015610f54578082015181840152602081019050610f39565b50505050905090810190601f168015610f815780820380516001836020036101000a031916815260200191505b50935050505060405180910390a15050565b6060600460008381526020019081526020016000206004018054600181600116156101000203166002900480601f01602080910402602001604051908101604052809291908181526020018280546001816001161561010002031660029004801561103f5780601f106110145761010080835404028352916020019161103f565b820191906000526020600020905b81548152906001019060200180831161102257829003601f168201915b50505050509050919050565b61105361352d565b6040518061018001604052803373ffffffffffffffffffffffffffffffffffffffff168152602001600073ffffffffffffffffffffffffffffffffffffffff168152602001600060028111156110a557fe5b81526020016007808111156110b657fe5b815260200142815260200142815260200160405180602001604052806000815250815260200160405180602001604052806000815250815260200184815260200183815260200160008152602001600073ffffffffffffffffffffffffffffffffffffffff1681525090508060046000600554815260200190815260200160002060008201518160000160006101000a81548173ffffffffffffffffffffffffffffffffffffffff021916908373ffffffffffffffffffffffffffffffffffffffff16021790555060208201518160010160006101000a81548173ffffffffffffffffffffffffffffffffffffffff021916908373ffffffffffffffffffffffffffffffffffffffff16021790555060408201518160010160146101000a81548160ff021916908360028111156111e957fe5b021790555060608201518160010160156101000a81548160ff0219169083600781111561121257fe5b02179055506080820151816002015560a0820151816003015560c08201518160040190805190602001906112479291906135e6565b5060e08201518160050190805190602001906112649291906135e6565b506101008201518160060190805190602001906112829291906135e6565b50610120820151816007015561014082015181600801556101608201518160090160006101000a81548173ffffffffffffffffffffffffffffffffffffffff021916908373ffffffffffffffffffffffffffffffffffffffff160217905550905050600160055401600581905550505050565b6112fd61352d565b6040518061018001604052803373ffffffffffffffffffffffffffffffffffffffff168152602001600073ffffffffffffffffffffffffffffffffffffffff1681526020016000600281111561134f57fe5b81526020016000600781111561136157fe5b81526020014281526020014281526020016040518060200160405280600081525081526020018381526020016040518060200160405280600081525081526020016000815260200160008152602001600073ffffffffffffffffffffffffffffffffffffffff1681525090508060046000600554815260200190815260200160002060008201518160000160006101000a81548173ffffffffffffffffffffffffffffffffffffffff021916908373ffffffffffffffffffffffffffffffffffffffff16021790555060208201518160010160006101000a81548173ffffffffffffffffffffffffffffffffffffffff021916908373ffffffffffffffffffffffffffffffffffffffff16021790555060408201518160010160146101000a81548160ff0219169083600281111561149557fe5b021790555060608201518160010160156101000a81548160ff021916908360078111156114be57fe5b02179055506080820151816002015560a0820151816003015560c08201518160040190805190602001906114f39291906135e6565b5060e08201518160050190805190602001906115109291906135e6565b5061010082015181600601908051906020019061152e9291906135e6565b50610120820151816007015561014082015181600801556101608201518160090160006101000a81548173ffffffffffffffffffffffffffffffffffffffff021916908373ffffffffffffffffffffffffffffffffffffffff1602179055509050506001600554016005819055505050565b7ffd76648f96a65b610ce0ad7f74c6336930186737f58a027b0a511cc93810e6508282604051808381526020018273ffffffffffffffffffffffffffffffffffffffff1673ffffffffffffffffffffffffffffffffffffffff1681526020019250505060405180910390a15050565b61161761352d565b6040518061018001604052803373ffffffffffffffffffffffffffffffffffffffff168152602001600073ffffffffffffffffffffffffffffffffffffffff1681526020016000600281111561166957fe5b81526020016004600781111561167b57fe5b8152602001428152602001428152602001604051806020016040528060008152508152602001604051806020016040528060008152508152602001604051806020016040528060008152508152602001838152602001600081526020018473ffffffffffffffffffffffffffffffffffffffff1681525090508060046000600554815260200190815260200160002060008201518160000160006101000a81548173ffffffffffffffffffffffffffffffffffffffff021916908373ffffffffffffffffffffffffffffffffffffffff16021790555060208201518160010160006101000a81548173ffffffffffffffffffffffffffffffffffffffff021916908373ffffffffffffffffffffffffffffffffffffffff16021790555060408201518160010160146101000a81548160ff021916908360028111156117bc57fe5b021790555060608201518160010160156101000a81548160ff021916908360078111156117e557fe5b02179055506080820151816002015560a0820151816003015560c082015181600401908051906020019061181a9291906135e6565b5060e08201518160050190805190602001906118379291906135e6565b506101008201518160060190805190602001906118559291906135e6565b50610120820151816007015561014082015181600801556101608201518160090160006101000a81548173ffffffffffffffffffffffffffffffffffffffff021916908373ffffffffffffffffffffffffffffffffffffffff160217905550905050600160055401600581905550505050565b7f32b47ce6cb2f21c2a9f56b2f9f4dfb101ca6a4d0412a0a40a773478bfd764ce3816040518080602001828103825283818151815260200191508051906020019080838360005b8381101561192a57808201518184015260208101905061190f565b50505050905090810190601f1680156119575780820380516001836020036101000a031916815260200191505b509250505060405180910390a150565b61196f61352d565b6040518061018001604052803373ffffffffffffffffffffffffffffffffffffffff168152602001600073ffffffffffffffffffffffffffffffffffffffff168152602001600060028111156119c157fe5b8152602001600160078111156119d357fe5b8152602001428152602001428152602001604051806020016040528060008152508152602001604051806020016040528060008152508152602001604051806020016040528060008152508152602001848152602001600081526020018373ffffffffffffffffffffffffffffffffffffffff1681525090508060046000600554815260200190815260200160002060008201518160000160006101000a81548173ffffffffffffffffffffffffffffffffffffffff021916908373ffffffffffffffffffffffffffffffffffffffff16021790555060208201518160010160006101000a81548173ffffffffffffffffffffffffffffffffffffffff021916908373ffffffffffffffffffffffffffffffffffffffff16021790555060408201518160010160146101000a81548160ff02191690836002811115611b1457fe5b021790555060608201518160010160156101000a81548160ff02191690836007811115611b3d57fe5b02179055506080820151816002015560a0820151816003015560c0820151816004019080519060200190611b729291906135e6565b5060e0820151816005019080519060200190611b8f9291906135e6565b50610100820151816006019080519060200190611bad9291906135e6565b50610120820151816007015561014082015181600801556101608201518160090160006101000a81548173ffffffffffffffffffffffffffffffffffffffff021916908373ffffffffffffffffffffffffffffffffffffffff160217905550905050600160055401600581905550505050565b7f1334b46a085c25936e0c681bf4d85bf9783fe9d6259529198ed16103a5dfefc98383836040518080602001806020018473ffffffffffffffffffffffffffffffffffffffff1673ffffffffffffffffffffffffffffffffffffffff168152602001838103835286818151815260200191508051906020019080838360005b83811015611cba578082015181840152602081019050611c9f565b50505050905090810190601f168015611ce75780820380516001836020036101000a031916815260200191505b50838103825285818151815260200191508051906020019080838360005b83811015611d20578082015181840152602081019050611d05565b50505050905090810190601f168015611d4d5780820380516001836020036101000a031916815260200191505b509550505050505060405180910390a1505050565b7f1d7ea454250c80d8537b5b154c16038fd3a2f514a447b72ec326c4bacbcffdcc8282604051808373ffffffffffffffffffffffffffffffffffffffff1673ffffffffffffffffffffffffffffffffffffffff1681526020018281526020019250505060405180910390a15050565b6000600554905090565b7f81651992a1eb56ad5c790667b1dde3c1b8597bedd2f9e603cbe005a831c9f09383838360405180806020018481526020018373ffffffffffffffffffffffffffffffffffffffff1673ffffffffffffffffffffffffffffffffffffffff168152602001828103825285818151815260200191508051906020019080838360005b83811015611e77578082015181840152602081019050611e5c565b50505050905090810190601f168015611ea45780820380516001836020036101000a031916815260200191505b5094505050505060405180910390a1505050565b7f0a0775ecb238de39dd904b9cb98430e9ed571b7fcea40971217700ece19d99658282604051808381526020018281526020019250505060405180910390a15050565b611f0361352d565b6040518061018001604052803373ffffffffffffffffffffffffffffffffffffffff168152602001600073ffffffffffffffffffffffffffffffffffffffff16815260200160006002811115611f5557fe5b815260200160026007811115611f6757fe5b8152602001428152602001428152602001604051806020016040528060008152508152602001604051806020016040528060008152508152602001604051806020016040528060008152508152602001838152602001848152602001600073ffffffffffffffffffffffffffffffffffffffff1681525090508060046000600554815260200190815260200160002060008201518160000160006101000a81548173ffffffffffffffffffffffffffffffffffffffff021916908373ffffffffffffffffffffffffffffffffffffffff16021790555060208201518160010160006101000a81548173ffffffffffffffffffffffffffffffffffffffff021916908373ffffffffffffffffffffffffffffffffffffffff16021790555060408201518160010160146101000a81548160ff021916908360028111156120a857fe5b021790555060608201518160010160156101000a81548160ff021916908360078111156120d157fe5b02179055506080820151816002015560a0820151816003015560c08201518160040190805190602001906121069291906135e6565b5060e08201518160050190805190602001906121239291906135e6565b506101008201518160060190805190602001906121419291906135e6565b50610120820151816007015561014082015181600801556101608201518160090160006101000a81548173ffffffffffffffffffffffffffffffffffffffff021916908373ffffffffffffffffffffffffffffffffffffffff160217905550905050600160055401600581905550505050565b600060078111156121c157fe5b6004600083815260200190815260200160002060010160159054906101000a900460ff1660078111156121f057fe5b14156122b2576122ad600460008381526020019081526020016000206005018054600181600116156101000203166002900480601f0160208091040260200160405190810160405280929190818152602001828054600181600116156101000203166002900480156122a35780601f10612278576101008083540402835291602001916122a3565b820191906000526020600020905b81548152906001019060200180831161228657829003601f168201915b50505050506118c8565b6128b5565b600160078111156122bf57fe5b6004600083815260200190815260200160002060010160159054906101000a900460ff1660078111156122ee57fe5b141561234f5761234a60046000838152602001908152602001600020600701546004600084815260200190815260200160002060090160009054906101000a900473ffffffffffffffffffffffffffffffffffffffff166115a0565b6128b4565b6002600781111561235c57fe5b6004600083815260200190815260200160002060010160159054906101000a900460ff16600781111561238b57fe5b14156123cc576123c760046000838152602001908152602001600020600801546004600084815260200190815260200160002060070154611eb8565b6128b3565b600360078111156123d957fe5b6004600083815260200190815260200160002060010160159054906101000a900460ff16600781111561240857fe5b14156124495761244460046000838152602001908152602001600020600801546004600084815260200190815260200160002060070154610e45565b6128b2565b6004600781111561245657fe5b6004600083815260200190815260200160002060010160159054906101000a900460ff16600781111561248557fe5b14156124e6576124e16004600083815260200190815260200160002060090160009054906101000a900473ffffffffffffffffffffffffffffffffffffffff166004600084815260200190815260200160002060070154613185565b6128b1565b600560078111156124f357fe5b6004600083815260200190815260200160002060010160159054906101000a900460ff16600781111561252257fe5b14156125835761257e6004600083815260200190815260200160002060090160009054906101000a900473ffffffffffffffffffffffffffffffffffffffff166004600084815260200190815260200160002060070154611d62565b6128b0565b6006600781111561259057fe5b6004600083815260200190815260200160002060010160159054906101000a900460ff1660078111156125bf57fe5b141561276757612762600460008381526020019081526020016000206006018054600181600116156101000203166002900480601f0160208091040260200160405190810160405280929190818152602001828054600181600116156101000203166002900480156126725780601f1061264757610100808354040283529160200191612672565b820191906000526020600020905b81548152906001019060200180831161265557829003601f168201915b5050505050600460008481526020019081526020016000206005018054600181600116156101000203166002900480601f0160208091040260200160405190810160405280929190818152602001828054600181600116156101000203166002900480156127215780601f106126f657610100808354040283529160200191612721565b820191906000526020600020905b81548152906001019060200180831161270457829003601f168201915b50505050506004600085815260200190815260200160002060000160009054906101000a900473ffffffffffffffffffffffffffffffffffffffff16611c20565b6128af565b60078081111561277357fe5b6004600083815260200190815260200160002060010160159054906101000a900460ff1660078111156127a257fe5b14156128ae576128ad600460008381526020019081526020016000206006018054600181600116156101000203166002900480601f0160208091040260200160405190810160405280929190818152602001828054600181600116156101000203166002900480156128555780601f1061282a57610100808354040283529160200191612855565b820191906000526020600020905b81548152906001019060200180831161283857829003601f168201915b505050505060046000848152602001908152602001600020600701546004600085815260200190815260200160002060000160009054906101000a900473ffffffffffffffffffffffffffffffffffffffff16611ddb565b5b5b5b5b5b5b5b5b426004600083815260200190815260200160002060030181905550336004600083815260200190815260200160002060010160006101000a81548173ffffffffffffffffffffffffffffffffffffffff021916908373ffffffffffffffffffffffffffffffffffffffff16021790555060016004600083815260200190815260200160002060010160146101000a81548160ff0219169083600281111561295857fe5b021790555050565b60006004600083815260200190815260200160002060010160159054906101000a900460ff169050919050565b61299561352d565b6040518061018001604052803373ffffffffffffffffffffffffffffffffffffffff168152602001600073ffffffffffffffffffffffffffffffffffffffff168152602001600060028111156129e757fe5b8152602001600360078111156129f957fe5b8152602001428152602001428152602001604051806020016040528060008152508152602001604051806020016040528060008152508152602001604051806020016040528060008152508152602001838152602001848152602001600073ffffffffffffffffffffffffffffffffffffffff1681525090508060046000600554815260200190815260200160002060008201518160000160006101000a81548173ffffffffffffffffffffffffffffffffffffffff021916908373ffffffffffffffffffffffffffffffffffffffff16021790555060208201518160010160006101000a81548173ffffffffffffffffffffffffffffffffffffffff021916908373ffffffffffffffffffffffffffffffffffffffff16021790555060408201518160010160146101000a81548160ff02191690836002811115612b3a57fe5b021790555060608201518160010160156101000a81548160ff02191690836007811115612b6357fe5b02179055506080820151816002015560a0820151816003015560c0820151816004019080519060200190612b989291906135e6565b5060e0820151816005019080519060200190612bb59291906135e6565b50610100820151816006019080519060200190612bd39291906135e6565b50610120820151816007015561014082015181600801556101608201518160090160006101000a81548173ffffffffffffffffffffffffffffffffffffffff021916908373ffffffffffffffffffffffffffffffffffffffff160217905550905050600160055401600581905550505050565b60046020528060005260406000206000915090508060000160009054906101000a900473ffffffffffffffffffffffffffffffffffffffff16908060010160009054906101000a900473ffffffffffffffffffffffffffffffffffffffff16908060010160149054906101000a900460ff16908060010160159054906101000a900460ff1690806002015490806003015490806004018054600181600116156101000203166002900480601f016020809104026020016040519081016040528092919081815260200182805460018160011615610100020316600290048015612d705780601f10612d4557610100808354040283529160200191612d70565b820191906000526020600020905b815481529060010190602001808311612d5357829003601f168201915b505050505090806005018054600181600116156101000203166002900480601f016020809104026020016040519081016040528092919081815260200182805460018160011615610100020316600290048015612e0e5780601f10612de357610100808354040283529160200191612e0e565b820191906000526020600020905b815481529060010190602001808311612df157829003601f168201915b505050505090806006018054600181600116156101000203166002900480601f016020809104026020016040519081016040528092919081815260200182805460018160011615610100020316600290048015612eac5780601f10612e8157610100808354040283529160200191612eac565b820191906000526020600020905b815481529060010190602001808311612e8f57829003601f168201915b5050505050908060070154908060080154908060090160009054906101000a900473ffffffffffffffffffffffffffffffffffffffff1690508c565b612ef061352d565b6040518061018001604052803373ffffffffffffffffffffffffffffffffffffffff168152602001600073ffffffffffffffffffffffffffffffffffffffff16815260200160006002811115612f4257fe5b815260200160066007811115612f5457fe5b81526020014281526020014281526020016040518060200160405280600081525081526020018381526020018481526020016000815260200160008152602001600073ffffffffffffffffffffffffffffffffffffffff1681525090508060046000600554815260200190815260200160002060008201518160000160006101000a81548173ffffffffffffffffffffffffffffffffffffffff021916908373ffffffffffffffffffffffffffffffffffffffff16021790555060208201518160010160006101000a81548173ffffffffffffffffffffffffffffffffffffffff021916908373ffffffffffffffffffffffffffffffffffffffff16021790555060408201518160010160146101000a81548160ff0219169083600281111561307957fe5b021790555060608201518160010160156101000a81548160ff021916908360078111156130a257fe5b02179055506080820151816002015560a0820151816003015560c08201518160040190805190602001906130d79291906135e6565b5060e08201518160050190805190602001906130f49291906135e6565b506101008201518160060190805190602001906131129291906135e6565b50610120820151816007015561014082015181600801556101608201518160090160006101000a81548173ffffffffffffffffffffffffffffffffffffffff021916908373ffffffffffffffffffffffffffffffffffffffff160217905550905050600160055401600581905550505050565b7f0ce8ab5ebacf7596aada7f8908ceebb1c8bff3d9c463052135af63ed6539e2e38282604051808373ffffffffffffffffffffffffffffffffffffffff1673ffffffffffffffffffffffffffffffffffffffff1681526020018281526020019250505060405180910390a15050565b6131fc61352d565b6040518061018001604052803373ffffffffffffffffffffffffffffffffffffffff168152602001600073ffffffffffffffffffffffffffffffffffffffff1681526020016000600281111561324e57fe5b81526020016005600781111561326057fe5b8152602001428152602001428152602001604051806020016040528060008152508152602001604051806020016040528060008152508152602001604051806020016040528060008152508152602001838152602001600081526020018473ffffffffffffffffffffffffffffffffffffffff1681525090508060046000600554815260200190815260200160002060008201518160000160006101000a81548173ffffffffffffffffffffffffffffffffffffffff021916908373ffffffffffffffffffffffffffffffffffffffff16021790555060208201518160010160006101000a81548173ffffffffffffffffffffffffffffffffffffffff021916908373ffffffffffffffffffffffffffffffffffffffff16021790555060408201518160010160146101000a81548160ff021916908360028111156133a157fe5b021790555060608201518160010160156101000a81548160ff021916908360078111156133ca57fe5b02179055506080820151816002015560a0820151816003015560c08201518160040190805190602001906133ff9291906135e6565b5060e082015181600501908051906020019061341c9291906135e6565b5061010082015181600601908051906020019061343a9291906135e6565b50610120820151816007015561014082015181600801556101608201518160090160006101000a81548173ffffffffffffffffffffffffffffffffffffffff021916908373ffffffffffffffffffffffffffffffffffffffff160217905550905050600160055401600581905550505050565b828054600181600116156101000203166002900490600052602060002090601f016020900481019282601f106134ee57805160ff191683800117855561351c565b8280016001018555821561351c579182015b8281111561351b578251825591602001919060010190613500565b5b5090506135299190613666565b5090565b604051806101800160405280600073ffffffffffffffffffffffffffffffffffffffff168152602001600073ffffffffffffffffffffffffffffffffffffffff1681526020016000600281111561358057fe5b81526020016000600781111561359257fe5b815260200160008152602001600081526020016060815260200160608152602001606081526020016000815260200160008152602001600073ffffffffffffffffffffffffffffffffffffffff1681525090565b828054600181600116156101000203166002900490600052602060002090601f016020900481019282601f1061362757805160ff1916838001178555613655565b82800160010185558215613655579182015b82811115613654578251825591602001919060010190613639565b5b5090506136629190613666565b5090565b61368891905b8082111561368457600081600090555060010161366c565b5090565b9056fea265627a7a72315820df253ba5e3cbe2e0f185f5912c07a899bfbfbb855a101265c66005a0b197ac9f64736f6c63430005110032",
  "source": "pragma solidity ^0.5.0;\r\n\r\nimport \"./User.sol\";\r\nimport \"./Permission.sol\";\r\nimport \"./Role.sol\";\r\nimport \"./DatasetUploader.sol\";\r\n\r\n// import \"hardhat/console.sol\";\r\n\r\ncontract RequestApprovalManagement {\r\n    enum statusEnum {\r\n        pending,\r\n        approved,\r\n        rejected\r\n    }\r\n\r\n    enum requestTypeEnum {\r\n        createNewRoleRequest,\r\n        removeRoleRequest,\r\n        addExistingDatasetToRoleRequest,\r\n        removeDatasetFromRoleRequest,\r\n        addUserToRoleRequest,\r\n        removeUserFromRoleRequest,\r\n        uploadDatasetToNewRoleRequest,\r\n        uploadDatasetToExistingRoleRequest\r\n    }\r\n\r\n    struct Request {\r\n        address requesterAddress;\r\n        address adminAddress;\r\n        statusEnum requestStatus;\r\n        requestTypeEnum requestType;\r\n        uint256 creationDateTime;\r\n        uint256 updatedDateTime;\r\n        string adminAdditionalRemarks;\r\n        string roleName;\r\n        string datasetIdentifier;\r\n        uint256 roleID; \r\n        uint256 permissionID;\r\n        address userID;\r\n    }\r\n\r\n    User userContract;\r\n    Permission permissionContract;\r\n    Role roleContract;   \r\n    DatasetUploader datasetuploaderContract;  \r\n\r\n    mapping(uint256 => Request) public requestsMapping;\r\n\r\n    uint256 totalNumberOfRequest;\r\n\r\n    event createNewRoleRequestApproved(string roleName);\r\n    event removeRoleRequestApproved(uint256 roleID, address userID);\r\n    event addExistingDatasetToRolesRequestApproved(uint256 permissionID, uint256 roleID);\r\n    event removeDatasetFromRolesRequestApproved(uint256 permissionID, uint256 roleID);\r\n    event addUsersToRolesRequestApproved(address userID, uint256 roleID);\r\n    event removeUsersFromRolesRequestApproved(address userID, uint256 roleID);\r\n    event uploadDatasetToNewRoleRequestApproved(string datasetIdentifier, string roleName, address requestor);\r\n    event uploadDatasetToExistingRoleRequestApproved(string datasetIdentifier, uint256 roleID, address requestor);\r\n\r\n    event rejectRequestEvent(uint256 requestID, string adminAdditionalRemarks);\r\n\r\n    constructor(User userAddress, Permission permissionAddress, Role roleAddress, DatasetUploader datasetUploaderAddress) public {\r\n        userContract = userAddress;\r\n        permissionContract = permissionAddress;\r\n        roleContract = roleAddress;\r\n        datasetuploaderContract = datasetUploaderAddress;\r\n        totalNumberOfRequest = 0;\r\n    }\r\n\r\n    // Admin functions\r\n    function approveRequest(uint256 requestID) public {\r\n        if (requestsMapping[requestID].requestType == requestTypeEnum.createNewRoleRequest) {\r\n\r\n            createNewRole(requestsMapping[requestID].roleName);\r\n\r\n        } else if (requestsMapping[requestID].requestType == requestTypeEnum.removeRoleRequest) {\r\n\r\n            removeRole(requestsMapping[requestID].roleID,requestsMapping[requestID].userID);\r\n\r\n        } else if (requestsMapping[requestID].requestType == requestTypeEnum.addExistingDatasetToRoleRequest) {\r\n\r\n            addExistingDatasetToRole(requestsMapping[requestID].permissionID, requestsMapping[requestID].roleID);\r\n\r\n        } else if (requestsMapping[requestID].requestType == requestTypeEnum.removeDatasetFromRoleRequest) {\r\n\r\n            removeDatasetFromRole(requestsMapping[requestID].permissionID, requestsMapping[requestID].roleID);\r\n\r\n        } else if (requestsMapping[requestID].requestType == requestTypeEnum.addUserToRoleRequest) {\r\n\r\n            addUsersToRole(requestsMapping[requestID].userID, requestsMapping[requestID].roleID);\r\n\r\n        } else if (requestsMapping[requestID].requestType == requestTypeEnum.removeUserFromRoleRequest) {\r\n\r\n            removeUsersFromRole(requestsMapping[requestID].userID, requestsMapping[requestID].roleID);\r\n\r\n        } else if (requestsMapping[requestID].requestType == requestTypeEnum.uploadDatasetToNewRoleRequest) {\r\n\r\n            uploadDatasetToNewRole(requestsMapping[requestID].datasetIdentifier, requestsMapping[requestID].roleName, requestsMapping[requestID].requesterAddress);\r\n\r\n        } else if (requestsMapping[requestID].requestType == requestTypeEnum.uploadDatasetToExistingRoleRequest) {\r\n\r\n            uploadDatasetToExistingRole(requestsMapping[requestID].datasetIdentifier, requestsMapping[requestID].roleID, requestsMapping[requestID].requesterAddress);\r\n\r\n        }       \r\n\r\n        requestsMapping[requestID].updatedDateTime = block.timestamp;\r\n        requestsMapping[requestID].adminAddress = msg.sender;\r\n        requestsMapping[requestID].requestStatus = statusEnum.approved;\r\n    }\r\n\r\n    function rejectRequest(uint256 requestID, string memory adminAdditionalRemarks) public {\r\n        requestsMapping[requestID].adminAdditionalRemarks = adminAdditionalRemarks;\r\n        requestsMapping[requestID].requestStatus = statusEnum.rejected;\r\n        emit rejectRequestEvent(requestID, adminAdditionalRemarks);\r\n    }\r\n\r\n    // Creating Requests\r\n\r\n    function createNewRoleRequest(string memory roleName) public {\r\n        Request memory newRequest = Request(msg.sender, address(0), statusEnum.pending, requestTypeEnum.createNewRoleRequest, block.timestamp,block.timestamp, \"\", roleName, \"\", 0,0,address(0));\r\n        requestsMapping[totalNumberOfRequest] = newRequest;\r\n        totalNumberOfRequest = totalNumberOfRequest + 1;\r\n    }\r\n\r\n    function removeRoleRequest(uint256 roleID, address userID) public {\r\n        Request memory newRequest = Request(msg.sender, address(0), statusEnum.pending, requestTypeEnum.removeRoleRequest, block.timestamp,block.timestamp, \"\", \"\", \"\", roleID,0,userID);\r\n        requestsMapping[totalNumberOfRequest] = newRequest;\r\n        totalNumberOfRequest = totalNumberOfRequest + 1;\r\n    }\r\n\r\n    function addExistingDatasetToRoleRequest(uint256 permissionID, uint256 roleID) public {\r\n        Request memory newRequest = Request(msg.sender, address(0), statusEnum.pending, requestTypeEnum.addExistingDatasetToRoleRequest, block.timestamp,block.timestamp, \"\", \"\", \"\", roleID,permissionID,address(0));\r\n        requestsMapping[totalNumberOfRequest] = newRequest;\r\n        totalNumberOfRequest = totalNumberOfRequest + 1;\r\n    }\r\n\r\n    function removeDatasetFromRoleRequest(uint256 permissionID, uint256 roleID) public {\r\n        Request memory newRequest = Request(msg.sender, address(0), statusEnum.pending, requestTypeEnum.removeDatasetFromRoleRequest, block.timestamp,block.timestamp, \"\", \"\", \"\", roleID, permissionID,address(0));\r\n        requestsMapping[totalNumberOfRequest] = newRequest;\r\n        totalNumberOfRequest = totalNumberOfRequest + 1;\r\n    }\r\n\r\n    function addUsersToRoleRequest(address userID, uint256 roleID) public {\r\n        Request memory newRequest = Request(msg.sender, address(0), statusEnum.pending, requestTypeEnum.addUserToRoleRequest, block.timestamp,block.timestamp, \"\", \"\", \"\", roleID, 0, userID);\r\n        requestsMapping[totalNumberOfRequest] = newRequest;\r\n        totalNumberOfRequest = totalNumberOfRequest + 1;\r\n    }\r\n\r\n    function removeUsersFromRoleRequest(address userID, uint256 roleID) public {\r\n        Request memory newRequest = Request(msg.sender, address(0), statusEnum.pending, requestTypeEnum.removeUserFromRoleRequest , block.timestamp,block.timestamp, \"\", \"\", \"\", roleID, 0, userID);\r\n        requestsMapping[totalNumberOfRequest] = newRequest;\r\n        totalNumberOfRequest = totalNumberOfRequest + 1;\r\n    }\r\n\r\n    function uploadDatasetToNewRoleRequest(string memory datasetIdentifier, string memory roleName) public {\r\n        Request memory newRequest = Request(msg.sender, address(0), statusEnum.pending, requestTypeEnum.uploadDatasetToNewRoleRequest , block.timestamp,block.timestamp, \"\", roleName, datasetIdentifier, 0, 0, address(0));\r\n        requestsMapping[totalNumberOfRequest] = newRequest;\r\n        totalNumberOfRequest = totalNumberOfRequest + 1;\r\n    }\r\n\r\n    function uploadDatasetToExistingRoleRequest(string memory datasetIdentifier, uint256 roleID) public {\r\n        Request memory newRequest = Request(msg.sender, address(0), statusEnum.pending, requestTypeEnum.uploadDatasetToExistingRoleRequest , block.timestamp,block.timestamp, \"\", \"\", datasetIdentifier, roleID, 0, address(0));\r\n        requestsMapping[totalNumberOfRequest] = newRequest;\r\n        totalNumberOfRequest = totalNumberOfRequest + 1;\r\n    }\r\n\r\n\r\n    // Getters\r\n\r\n    function getRequestStatus(uint256 requestID) public view returns(requestTypeEnum) {\r\n        return requestsMapping[requestID].requestType;\r\n    }\r\n\r\n    function getRequestAdminRemarks(uint256 requestID) public view returns(string memory) {\r\n        return requestsMapping[requestID].adminAdditionalRemarks;\r\n    }\r\n\r\n    function getTotalNumberOfRequests() public view returns(uint256) {\r\n        return totalNumberOfRequest;\r\n    }\r\n\r\n\r\n\r\n    // Helper functions\r\n    \r\n    function createNewRole(string memory roleName) public {\r\n        // // Role Creation\r\n        // roleContract.createRole(roleName);\r\n\r\n        emit createNewRoleRequestApproved(roleName);\r\n    }\r\n\r\n    function removeRole(uint256 roleID, address userID) public {\r\n        // //  Remove role\r\n        // roleContract.removeRoleUser(roleID, userID);\r\n\r\n        emit removeRoleRequestApproved(roleID, userID);\r\n    }\r\n\r\n    function addExistingDatasetToRole(uint256 permissionID, uint256 roleID) public {\r\n        // // Give Permission to role\r\n        // permissionContract.givePermissionRole(permissionID, roleID);\r\n        // // Give role to permission\r\n        // roleContract.giveRolePermission(roleID, permissionID); \r\n\r\n        emit addExistingDatasetToRolesRequestApproved(permissionID, roleID);\r\n    }\r\n\r\n    function removeDatasetFromRole(uint256 permissionID, uint256 roleID) public {\r\n        // // Remove Permission to role\r\n        // permissionContract.removePermissionRole(permissionID, roleID); \r\n        // // Remove role to permission\r\n        // roleContract.removeRolePermission(roleID, permissionID); \r\n        \r\n        emit removeDatasetFromRolesRequestApproved(permissionID, roleID);\r\n    }\r\n\r\n    function addUsersToRole(address userID, uint256 roleID) public {\r\n        // // Give user to role\r\n        // roleContract.giveRoleUser(roleID, userID);\r\n        // // Give role to user\r\n        // userContract.giveUserRole(userID, roleID);\r\n\r\n        emit addUsersToRolesRequestApproved(userID, roleID);\r\n    }\r\n\r\n    function removeUsersFromRole(address userID, uint256 roleID) public {\r\n        // // Remove user from role\r\n        // roleContract.removeRoleUser(roleID, userID);\r\n        // // Remove role from user\r\n        // userContract.removeUserRole(userID, roleID);\r\n\r\n        emit removeUsersFromRolesRequestApproved(userID, roleID);\r\n    }\r\n\r\n    function uploadDatasetToNewRole(string memory datasetIdentifier, string memory roleName, address requestor) public {\r\n     \r\n        // // Upload dataset\r\n        // datasetuploaderContract.uploadDataset(datasetIdentifier, 0, roleName,requestor);\r\n\r\n        emit uploadDatasetToNewRoleRequestApproved(datasetIdentifier, roleName, requestor);\r\n    }\r\n\r\n    function uploadDatasetToExistingRole(string memory datasetIdentifier, uint256 roleID, address requestor) public {\r\n\r\n        // // Upload dataset\r\n        // datasetuploaderContract.uploadDataset(datasetIdentifier, roleID, \"\",requestor); \r\n\r\n        emit uploadDatasetToExistingRoleRequestApproved(datasetIdentifier, roleID, requestor);\r\n    }\r\n\r\n\r\n}\r\n",
  "sourcePath": "C:\\Users\\chang\\OneDrive - National University of Singapore\\Documents\\IS4302 Project\\is4302_grp19\\JianXiang_test\\contracts\\RequestApprovalManagement.sol",
  "compiler": {
    "name": "solc",
    "version": "0.5.17+commit.d19bba13.Emscripten.clang"
  },
  "schemaVersion": "3.4.11",
  "updatedAt": "2023-03-25T04:17:17.993Z",
  "networkType": "ethereum",
  "devdoc": {
    "methods": {}
  },
  "userdoc": {
    "methods": {}
  }
}