{
  "contractName": "RequestApprovalManagement",
  "abi": [
    {
      "inputs": [
        {
          "internalType": "contract User",
          "name": "userAddress",
          "type": "address"
        },
        {
          "internalType": "contract Permission",
          "name": "permissionAddress",
          "type": "address"
        },
        {
          "internalType": "contract Role",
          "name": "roleAddress",
          "type": "address"
        }
      ],
      "payable": false,
      "stateMutability": "nonpayable",
      "type": "constructor"
    },
    {
      "anonymous": false,
      "inputs": [
        {
          "indexed": false,
          "internalType": "string",
          "name": "permissionName",
          "type": "string"
        },
        {
          "indexed": false,
          "internalType": "uint256",
          "name": "roleID",
          "type": "uint256"
        }
      ],
      "name": "addDatasetToRolesRequestApproved",
      "type": "event"
    },
    {
      "anonymous": false,
      "inputs": [
        {
          "indexed": false,
          "internalType": "address",
          "name": "userID",
          "type": "address"
        },
        {
          "indexed": false,
          "internalType": "uint256",
          "name": "roleID",
          "type": "uint256"
        }
      ],
      "name": "addUsersToRolesRequestApproved",
      "type": "event"
    },
    {
      "anonymous": false,
      "inputs": [
        {
          "indexed": false,
          "internalType": "string",
          "name": "roleName",
          "type": "string"
        }
      ],
      "name": "createNewRoleRequestApproved",
      "type": "event"
    },
    {
      "anonymous": false,
      "inputs": [
        {
          "indexed": false,
          "internalType": "uint256",
          "name": "permissionID",
          "type": "uint256"
        },
        {
          "indexed": false,
          "internalType": "uint256",
          "name": "roleID",
          "type": "uint256"
        }
      ],
      "name": "removeDatasetFromRolesRequestApproved",
      "type": "event"
    },
    {
      "anonymous": false,
      "inputs": [
        {
          "indexed": false,
          "internalType": "uint256",
          "name": "roleID",
          "type": "uint256"
        },
        {
          "indexed": false,
          "internalType": "address",
          "name": "userID",
          "type": "address"
        }
      ],
      "name": "removeRoleRequestApproved",
      "type": "event"
    },
    {
      "anonymous": false,
      "inputs": [
        {
          "indexed": false,
          "internalType": "address",
          "name": "userID",
          "type": "address"
        },
        {
          "indexed": false,
          "internalType": "uint256",
          "name": "roleID",
          "type": "uint256"
        }
      ],
      "name": "removeUsersFromRolesRequestApproved",
      "type": "event"
    },
    {
      "constant": true,
      "inputs": [
        {
          "internalType": "uint256",
          "name": "",
          "type": "uint256"
        }
      ],
      "name": "requestsMapping",
      "outputs": [
        {
          "internalType": "address",
          "name": "requesterAddress",
          "type": "address"
        },
        {
          "internalType": "address",
          "name": "adminAddress",
          "type": "address"
        },
        {
          "internalType": "enum RequestApprovalManagement.statusEnum",
          "name": "requestStatus",
          "type": "uint8"
        },
        {
          "internalType": "enum RequestApprovalManagement.requestTypeEnum",
          "name": "requestType",
          "type": "uint8"
        },
        {
          "internalType": "uint256",
          "name": "creationDateTime",
          "type": "uint256"
        },
        {
          "internalType": "uint256",
          "name": "updatedDateTime",
          "type": "uint256"
        },
        {
          "internalType": "string",
          "name": "adminAdditionalRemarks",
          "type": "string"
        },
        {
          "internalType": "string",
          "name": "roleName",
          "type": "string"
        },
        {
          "internalType": "string",
          "name": "permissionName",
          "type": "string"
        },
        {
          "internalType": "uint256",
          "name": "roleID",
          "type": "uint256"
        },
        {
          "internalType": "uint256",
          "name": "permissionID",
          "type": "uint256"
        },
        {
          "internalType": "address",
          "name": "userID",
          "type": "address"
        }
      ],
      "payable": false,
      "stateMutability": "view",
      "type": "function"
    },
    {
      "constant": false,
      "inputs": [
        {
          "internalType": "uint256",
          "name": "requestID",
          "type": "uint256"
        }
      ],
      "name": "approveRequest",
      "outputs": [],
      "payable": false,
      "stateMutability": "nonpayable",
      "type": "function"
    },
    {
      "constant": false,
      "inputs": [
        {
          "internalType": "uint256",
          "name": "requestID",
          "type": "uint256"
        },
        {
          "internalType": "string",
          "name": "adminAdditionalRemarks",
          "type": "string"
        }
      ],
      "name": "rejectRequest",
      "outputs": [],
      "payable": false,
      "stateMutability": "nonpayable",
      "type": "function"
    },
    {
      "constant": false,
      "inputs": [
        {
          "internalType": "string",
          "name": "roleName",
          "type": "string"
        }
      ],
      "name": "createNewRoleRequest",
      "outputs": [],
      "payable": false,
      "stateMutability": "nonpayable",
      "type": "function"
    },
    {
      "constant": false,
      "inputs": [
        {
          "internalType": "uint256",
          "name": "roleID",
          "type": "uint256"
        },
        {
          "internalType": "address",
          "name": "userID",
          "type": "address"
        }
      ],
      "name": "removeRoleRequest",
      "outputs": [],
      "payable": false,
      "stateMutability": "nonpayable",
      "type": "function"
    },
    {
      "constant": false,
      "inputs": [
        {
          "internalType": "string",
          "name": "permissionName",
          "type": "string"
        },
        {
          "internalType": "uint256",
          "name": "roleID",
          "type": "uint256"
        }
      ],
      "name": "addDatasetToRoleRequest",
      "outputs": [],
      "payable": false,
      "stateMutability": "nonpayable",
      "type": "function"
    },
    {
      "constant": false,
      "inputs": [
        {
          "internalType": "uint256",
          "name": "permissionID",
          "type": "uint256"
        },
        {
          "internalType": "uint256",
          "name": "roleID",
          "type": "uint256"
        }
      ],
      "name": "removeDatasetFromRoleRequest",
      "outputs": [],
      "payable": false,
      "stateMutability": "nonpayable",
      "type": "function"
    },
    {
      "constant": false,
      "inputs": [
        {
          "internalType": "address",
          "name": "userID",
          "type": "address"
        },
        {
          "internalType": "uint256",
          "name": "roleID",
          "type": "uint256"
        }
      ],
      "name": "addUsersToRoleRequest",
      "outputs": [],
      "payable": false,
      "stateMutability": "nonpayable",
      "type": "function"
    },
    {
      "constant": false,
      "inputs": [
        {
          "internalType": "address",
          "name": "userID",
          "type": "address"
        },
        {
          "internalType": "uint256",
          "name": "roleID",
          "type": "uint256"
        }
      ],
      "name": "removeUsersFromRoleRequest",
      "outputs": [],
      "payable": false,
      "stateMutability": "nonpayable",
      "type": "function"
    },
    {
      "constant": true,
      "inputs": [
        {
          "internalType": "uint256",
          "name": "requestID",
          "type": "uint256"
        }
      ],
      "name": "getRequestStatus",
      "outputs": [
        {
          "internalType": "enum RequestApprovalManagement.requestTypeEnum",
          "name": "",
          "type": "uint8"
        }
      ],
      "payable": false,
      "stateMutability": "view",
      "type": "function"
    },
    {
      "constant": true,
      "inputs": [
        {
          "internalType": "uint256",
          "name": "requestID",
          "type": "uint256"
        }
      ],
      "name": "getRequestAdminRemarks",
      "outputs": [
        {
          "internalType": "string",
          "name": "",
          "type": "string"
        }
      ],
      "payable": false,
      "stateMutability": "view",
      "type": "function"
    },
    {
      "constant": true,
      "inputs": [],
      "name": "getTotalNumberOfRequests",
      "outputs": [
        {
          "internalType": "uint256",
          "name": "",
          "type": "uint256"
        }
      ],
      "payable": false,
      "stateMutability": "view",
      "type": "function"
    },
    {
      "constant": false,
      "inputs": [
        {
          "internalType": "string",
          "name": "roleName",
          "type": "string"
        }
      ],
      "name": "createNewRole",
      "outputs": [],
      "payable": false,
      "stateMutability": "nonpayable",
      "type": "function"
    },
    {
      "constant": false,
      "inputs": [
        {
          "internalType": "uint256",
          "name": "roleID",
          "type": "uint256"
        },
        {
          "internalType": "address",
          "name": "userID",
          "type": "address"
        }
      ],
      "name": "removeRole",
      "outputs": [],
      "payable": false,
      "stateMutability": "nonpayable",
      "type": "function"
    },
    {
      "constant": false,
      "inputs": [
        {
          "internalType": "string",
          "name": "permissionName",
          "type": "string"
        },
        {
          "internalType": "uint256",
          "name": "roleID",
          "type": "uint256"
        }
      ],
      "name": "addDatasetToRole",
      "outputs": [],
      "payable": false,
      "stateMutability": "nonpayable",
      "type": "function"
    },
    {
      "constant": false,
      "inputs": [
        {
          "internalType": "uint256",
          "name": "permissionID",
          "type": "uint256"
        },
        {
          "internalType": "uint256",
          "name": "roleID",
          "type": "uint256"
        }
      ],
      "name": "removeDatasetFromRole",
      "outputs": [],
      "payable": false,
      "stateMutability": "nonpayable",
      "type": "function"
    },
    {
      "constant": false,
      "inputs": [
        {
          "internalType": "address",
          "name": "userID",
          "type": "address"
        },
        {
          "internalType": "uint256",
          "name": "roleID",
          "type": "uint256"
        }
      ],
      "name": "addUsersToRole",
      "outputs": [],
      "payable": false,
      "stateMutability": "nonpayable",
      "type": "function"
    },
    {
      "constant": false,
      "inputs": [
        {
          "internalType": "address",
          "name": "userID",
          "type": "address"
        },
        {
          "internalType": "uint256",
          "name": "roleID",
          "type": "uint256"
        }
      ],
      "name": "removeUsersFromRole",
      "outputs": [],
      "payable": false,
      "stateMutability": "nonpayable",
      "type": "function"
    }
  ],
  "bytecode": "0x608060405234801561001057600080fd5b50604051612a28380380612a288339818101604052606081101561003357600080fd5b81019080805190602001909291908051906020019092919080519060200190929190505050826000806101000a81548173ffffffffffffffffffffffffffffffffffffffff021916908373ffffffffffffffffffffffffffffffffffffffff16021790555081600160006101000a81548173ffffffffffffffffffffffffffffffffffffffff021916908373ffffffffffffffffffffffffffffffffffffffff16021790555080600260006101000a81548173ffffffffffffffffffffffffffffffffffffffff021916908373ffffffffffffffffffffffffffffffffffffffff16021790555060006004819055505050506128f4806101346000396000f3fe608060405234801561001057600080fd5b50600436106101165760003560e01c80635152da1e116100a2578063d8a4676f11610071578063d8a4676f14610743578063e2a7430014610793578063e3fc5828146107cb578063ea49978b14610a29578063fafa5e9c14610a7757610116565b80635152da1e146105e457806378281dd114610632578063787edb9c14610650578063d7d1bbdb1461071557610116565b80633087b4ed116100e95780633087b4ed1461037a5780633238405b1461043f5780633c1a9b241461048d5780633c7a0c34146104db5780633fd29b1b1461059657610116565b80630a4547951461011b5780630a5505dd146101535780630e3dbb99146102185780632bead3e8146102bf575b600080fd5b6101516004803603604081101561013157600080fd5b810190808035906020019092919080359060200190929190505050610ac5565b005b6102166004803603604081101561016957600080fd5b81019080803590602001909291908035906020019064010000000081111561019057600080fd5b8201836020820111156101a257600080fd5b803590602001918460018302840111640100000000831117156101c457600080fd5b91908080601f016020809104026020016040519081016040528093929190818152602001838380828437600081840152601f19601f820116905080830192505050505050509192919290505050610b08565b005b6102446004803603602081101561022e57600080fd5b8101908080359060200190929190505050610b6f565b6040518080602001828103825283818151815260200191508051906020019080838360005b83811015610284578082015181840152602081019050610269565b50505050905090810190601f1680156102b15780820380516001836020036101000a031916815260200191505b509250505060405180910390f35b610378600480360360208110156102d557600080fd5b81019080803590602001906401000000008111156102f257600080fd5b82018360208201111561030457600080fd5b8035906020019184600183028401116401000000008311171561032657600080fd5b91908080601f016020809104026020016040519081016040528093929190818152602001838380828437600081840152601f19601f820116905080830192505050505050509192919290505050610c27565b005b61043d6004803603604081101561039057600080fd5b81019080803590602001906401000000008111156103ad57600080fd5b8201836020820111156103bf57600080fd5b803590602001918460018302840111640100000000831117156103e157600080fd5b91908080601f016020809104026020016040519081016040528093929190818152602001838380828437600081840152601f19601f82011690508083019250505050505050919291929080359060200190929190505050610ed2565b005b61048b6004803603604081101561045557600080fd5b8101908080359060200190929190803573ffffffffffffffffffffffffffffffffffffffff169060200190929190505050610f7a565b005b6104d9600480360360408110156104a357600080fd5b81019080803573ffffffffffffffffffffffffffffffffffffffff16906020019092919080359060200190929190505050610fe9565b005b610594600480360360208110156104f157600080fd5b810190808035906020019064010000000081111561050e57600080fd5b82018360208201111561052057600080fd5b8035906020019184600183028401116401000000008311171561054257600080fd5b91908080601f016020809104026020016040519081016040528093929190818152602001838380828437600081840152601f19601f8201169050808301925050505050505091929192905050506112a2565b005b6105e2600480360360408110156105ac57600080fd5b8101908080359060200190929190803573ffffffffffffffffffffffffffffffffffffffff169060200190929190505050611341565b005b610630600480360360408110156105fa57600080fd5b81019080803573ffffffffffffffffffffffffffffffffffffffff169060200190929190803590602001909291905050506115fa565b005b61063a611669565b6040518082815260200191505060405180910390f35b6107136004803603604081101561066657600080fd5b810190808035906020019064010000000081111561068357600080fd5b82018360208201111561069557600080fd5b803590602001918460018302840111640100000000831117156106b757600080fd5b91908080601f016020809104026020016040519081016040528093929190818152602001838380828437600081840152601f19601f82011690508083019250505050505050919291929080359060200190929190505050611673565b005b6107416004803603602081101561072b57600080fd5b810190808035906020019092919050505061191e565b005b61076f6004803603602081101561075957600080fd5b8101908080359060200190929190505050611e31565b6040518082600781111561077f57fe5b60ff16815260200191505060405180910390f35b6107c9600480360360408110156107a957600080fd5b810190808035906020019092919080359060200190929190505050611e5e565b005b6107f7600480360360208110156107e157600080fd5b8101908080359060200190929190505050612117565b604051808d73ffffffffffffffffffffffffffffffffffffffff1673ffffffffffffffffffffffffffffffffffffffff1681526020018c73ffffffffffffffffffffffffffffffffffffffff1673ffffffffffffffffffffffffffffffffffffffff1681526020018b600281111561086b57fe5b60ff1681526020018a600781111561087f57fe5b60ff1681526020018981526020018881526020018060200180602001806020018781526020018681526020018573ffffffffffffffffffffffffffffffffffffffff1673ffffffffffffffffffffffffffffffffffffffff16815260200184810384528a818151815260200191508051906020019080838360005b838110156109155780820151818401526020810190506108fa565b50505050905090810190601f1680156109425780820380516001836020036101000a031916815260200191505b50848103835289818151815260200191508051906020019080838360005b8381101561097b578082015181840152602081019050610960565b50505050905090810190601f1680156109a85780820380516001836020036101000a031916815260200191505b50848103825288818151815260200191508051906020019080838360005b838110156109e15780820151818401526020810190506109c6565b50505050905090810190601f168015610a0e5780820380516001836020036101000a031916815260200191505b509f5050505050505050505050505050505060405180910390f35b610a7560048036036040811015610a3f57600080fd5b81019080803573ffffffffffffffffffffffffffffffffffffffff169060200190929190803590602001909291905050506123b9565b005b610ac360048036036040811015610a8d57600080fd5b81019080803573ffffffffffffffffffffffffffffffffffffffff16906020019092919080359060200190929190505050612428565b005b7f6cecdfdd8d32024ca260a355a0db20cc6cb3b8e8bec573020091f66e646322b38282604051808381526020018281526020019250505060405180910390a15050565b80600360008481526020019081526020016000206004019080519060200190610b329291906126e1565b5060026003600084815260200190815260200160002060010160146101000a81548160ff02191690836002811115610b6657fe5b02179055505050565b6060600360008381526020019081526020016000206004018054600181600116156101000203166002900480601f016020809104026020016040519081016040528092919081815260200182805460018160011615610100020316600290048015610c1b5780601f10610bf057610100808354040283529160200191610c1b565b820191906000526020600020905b815481529060010190602001808311610bfe57829003601f168201915b50505050509050919050565b610c2f612761565b6040518061018001604052803373ffffffffffffffffffffffffffffffffffffffff168152602001600073ffffffffffffffffffffffffffffffffffffffff16815260200160006002811115610c8157fe5b815260200160006007811115610c9357fe5b81526020014281526020014281526020016040518060200160405280600081525081526020018381526020016040518060200160405280600081525081526020016000815260200160008152602001600073ffffffffffffffffffffffffffffffffffffffff1681525090508060036000600454815260200190815260200160002060008201518160000160006101000a81548173ffffffffffffffffffffffffffffffffffffffff021916908373ffffffffffffffffffffffffffffffffffffffff16021790555060208201518160010160006101000a81548173ffffffffffffffffffffffffffffffffffffffff021916908373ffffffffffffffffffffffffffffffffffffffff16021790555060408201518160010160146101000a81548160ff02191690836002811115610dc757fe5b021790555060608201518160010160156101000a81548160ff02191690836007811115610df057fe5b02179055506080820151816002015560a0820151816003015560c0820151816004019080519060200190610e2592919061281a565b5060e0820151816005019080519060200190610e4292919061281a565b50610100820151816006019080519060200190610e6092919061281a565b50610120820151816007015561014082015181600801556101608201518160090160006101000a81548173ffffffffffffffffffffffffffffffffffffffff021916908373ffffffffffffffffffffffffffffffffffffffff1602179055509050506001600454016004819055505050565b7f25e71d15bb54ef0ce160c645a6e867d002f1612710976abac97ac2f5377fc5e482826040518080602001838152602001828103825284818151815260200191508051906020019080838360005b83811015610f3b578082015181840152602081019050610f20565b50505050905090810190601f168015610f685780820380516001836020036101000a031916815260200191505b50935050505060405180910390a15050565b7ffd76648f96a65b610ce0ad7f74c6336930186737f58a027b0a511cc93810e6508282604051808381526020018273ffffffffffffffffffffffffffffffffffffffff1673ffffffffffffffffffffffffffffffffffffffff1681526020019250505060405180910390a15050565b610ff1612761565b6040518061018001604052803373ffffffffffffffffffffffffffffffffffffffff168152602001600073ffffffffffffffffffffffffffffffffffffffff1681526020016000600281111561104357fe5b81526020016004600781111561105557fe5b8152602001428152602001428152602001604051806020016040528060008152508152602001604051806020016040528060008152508152602001604051806020016040528060008152508152602001838152602001600081526020018473ffffffffffffffffffffffffffffffffffffffff1681525090508060036000600454815260200190815260200160002060008201518160000160006101000a81548173ffffffffffffffffffffffffffffffffffffffff021916908373ffffffffffffffffffffffffffffffffffffffff16021790555060208201518160010160006101000a81548173ffffffffffffffffffffffffffffffffffffffff021916908373ffffffffffffffffffffffffffffffffffffffff16021790555060408201518160010160146101000a81548160ff0219169083600281111561119657fe5b021790555060608201518160010160156101000a81548160ff021916908360078111156111bf57fe5b02179055506080820151816002015560a0820151816003015560c08201518160040190805190602001906111f492919061281a565b5060e082015181600501908051906020019061121192919061281a565b5061010082015181600601908051906020019061122f92919061281a565b50610120820151816007015561014082015181600801556101608201518160090160006101000a81548173ffffffffffffffffffffffffffffffffffffffff021916908373ffffffffffffffffffffffffffffffffffffffff160217905550905050600160045401600481905550505050565b7f32b47ce6cb2f21c2a9f56b2f9f4dfb101ca6a4d0412a0a40a773478bfd764ce3816040518080602001828103825283818151815260200191508051906020019080838360005b838110156113045780820151818401526020810190506112e9565b50505050905090810190601f1680156113315780820380516001836020036101000a031916815260200191505b509250505060405180910390a150565b611349612761565b6040518061018001604052803373ffffffffffffffffffffffffffffffffffffffff168152602001600073ffffffffffffffffffffffffffffffffffffffff1681526020016000600281111561139b57fe5b8152602001600160078111156113ad57fe5b8152602001428152602001428152602001604051806020016040528060008152508152602001604051806020016040528060008152508152602001604051806020016040528060008152508152602001848152602001600081526020018373ffffffffffffffffffffffffffffffffffffffff1681525090508060036000600454815260200190815260200160002060008201518160000160006101000a81548173ffffffffffffffffffffffffffffffffffffffff021916908373ffffffffffffffffffffffffffffffffffffffff16021790555060208201518160010160006101000a81548173ffffffffffffffffffffffffffffffffffffffff021916908373ffffffffffffffffffffffffffffffffffffffff16021790555060408201518160010160146101000a81548160ff021916908360028111156114ee57fe5b021790555060608201518160010160156101000a81548160ff0219169083600781111561151757fe5b02179055506080820151816002015560a0820151816003015560c082015181600401908051906020019061154c92919061281a565b5060e082015181600501908051906020019061156992919061281a565b5061010082015181600601908051906020019061158792919061281a565b50610120820151816007015561014082015181600801556101608201518160090160006101000a81548173ffffffffffffffffffffffffffffffffffffffff021916908373ffffffffffffffffffffffffffffffffffffffff160217905550905050600160045401600481905550505050565b7f1d7ea454250c80d8537b5b154c16038fd3a2f514a447b72ec326c4bacbcffdcc8282604051808373ffffffffffffffffffffffffffffffffffffffff1673ffffffffffffffffffffffffffffffffffffffff1681526020018281526020019250505060405180910390a15050565b6000600454905090565b61167b612761565b6040518061018001604052803373ffffffffffffffffffffffffffffffffffffffff168152602001600073ffffffffffffffffffffffffffffffffffffffff168152602001600060028111156116cd57fe5b8152602001600260078111156116df57fe5b815260200142815260200142815260200160405180602001604052806000815250815260200160405180602001604052806000815250815260200184815260200183815260200160008152602001600073ffffffffffffffffffffffffffffffffffffffff1681525090508060036000600454815260200190815260200160002060008201518160000160006101000a81548173ffffffffffffffffffffffffffffffffffffffff021916908373ffffffffffffffffffffffffffffffffffffffff16021790555060208201518160010160006101000a81548173ffffffffffffffffffffffffffffffffffffffff021916908373ffffffffffffffffffffffffffffffffffffffff16021790555060408201518160010160146101000a81548160ff0219169083600281111561181257fe5b021790555060608201518160010160156101000a81548160ff0219169083600781111561183b57fe5b02179055506080820151816002015560a0820151816003015560c082015181600401908051906020019061187092919061281a565b5060e082015181600501908051906020019061188d92919061281a565b506101008201518160060190805190602001906118ab92919061281a565b50610120820151816007015561014082015181600801556101608201518160090160006101000a81548173ffffffffffffffffffffffffffffffffffffffff021916908373ffffffffffffffffffffffffffffffffffffffff160217905550905050600160045401600481905550505050565b6000600781111561192b57fe5b6003600083815260200190815260200160002060010160159054906101000a900460ff16600781111561195a57fe5b1415611a1c57611a17600360008381526020019081526020016000206005018054600181600116156101000203166002900480601f016020809104026020016040519081016040528092919081815260200182805460018160011615610100020316600290048015611a0d5780601f106119e257610100808354040283529160200191611a0d565b820191906000526020600020905b8154815290600101906020018083116119f057829003601f168201915b50505050506112a2565b611d86565b60016007811115611a2957fe5b6003600083815260200190815260200160002060010160159054906101000a900460ff166007811115611a5857fe5b1415611ab957611ab460036000838152602001908152602001600020600701546003600084815260200190815260200160002060090160009054906101000a900473ffffffffffffffffffffffffffffffffffffffff16610f7a565b611d85565b60026007811115611ac657fe5b6003600083815260200190815260200160002060010160159054906101000a900460ff166007811115611af557fe5b1415611bce57611bc9600360008381526020019081526020016000206006018054600181600116156101000203166002900480601f016020809104026020016040519081016040528092919081815260200182805460018160011615610100020316600290048015611ba85780601f10611b7d57610100808354040283529160200191611ba8565b820191906000526020600020905b815481529060010190602001808311611b8b57829003601f168201915b50505050506003600084815260200190815260200160002060070154610ed2565b611d84565b60036007811115611bdb57fe5b6003600083815260200190815260200160002060010160159054906101000a900460ff166007811115611c0a57fe5b1415611c4b57611c4660036000838152602001908152602001600020600801546003600084815260200190815260200160002060070154610ac5565b611d83565b60046007811115611c5857fe5b6003600083815260200190815260200160002060010160159054906101000a900460ff166007811115611c8757fe5b1415611ce857611ce36003600083815260200190815260200160002060090160009054906101000a900473ffffffffffffffffffffffffffffffffffffffff1660036000848152602001908152602001600020600701546123b9565b611d82565b60056007811115611cf557fe5b6003600083815260200190815260200160002060010160159054906101000a900460ff166007811115611d2457fe5b1415611d8157611d806003600083815260200190815260200160002060090160009054906101000a900473ffffffffffffffffffffffffffffffffffffffff1660036000848152602001908152602001600020600701546115fa565b5b5b5b5b5b5b426003600083815260200190815260200160002060030181905550336003600083815260200190815260200160002060010160006101000a81548173ffffffffffffffffffffffffffffffffffffffff021916908373ffffffffffffffffffffffffffffffffffffffff16021790555060016003600083815260200190815260200160002060010160146101000a81548160ff02191690836002811115611e2957fe5b021790555050565b60006003600083815260200190815260200160002060010160159054906101000a900460ff169050919050565b611e66612761565b6040518061018001604052803373ffffffffffffffffffffffffffffffffffffffff168152602001600073ffffffffffffffffffffffffffffffffffffffff16815260200160006002811115611eb857fe5b815260200160036007811115611eca57fe5b8152602001428152602001428152602001604051806020016040528060008152508152602001604051806020016040528060008152508152602001604051806020016040528060008152508152602001838152602001848152602001600073ffffffffffffffffffffffffffffffffffffffff1681525090508060036000600454815260200190815260200160002060008201518160000160006101000a81548173ffffffffffffffffffffffffffffffffffffffff021916908373ffffffffffffffffffffffffffffffffffffffff16021790555060208201518160010160006101000a81548173ffffffffffffffffffffffffffffffffffffffff021916908373ffffffffffffffffffffffffffffffffffffffff16021790555060408201518160010160146101000a81548160ff0219169083600281111561200b57fe5b021790555060608201518160010160156101000a81548160ff0219169083600781111561203457fe5b02179055506080820151816002015560a0820151816003015560c082015181600401908051906020019061206992919061281a565b5060e082015181600501908051906020019061208692919061281a565b506101008201518160060190805190602001906120a492919061281a565b50610120820151816007015561014082015181600801556101608201518160090160006101000a81548173ffffffffffffffffffffffffffffffffffffffff021916908373ffffffffffffffffffffffffffffffffffffffff160217905550905050600160045401600481905550505050565b60036020528060005260406000206000915090508060000160009054906101000a900473ffffffffffffffffffffffffffffffffffffffff16908060010160009054906101000a900473ffffffffffffffffffffffffffffffffffffffff16908060010160149054906101000a900460ff16908060010160159054906101000a900460ff1690806002015490806003015490806004018054600181600116156101000203166002900480601f0160208091040260200160405190810160405280929190818152602001828054600181600116156101000203166002900480156122415780601f1061221657610100808354040283529160200191612241565b820191906000526020600020905b81548152906001019060200180831161222457829003601f168201915b505050505090806005018054600181600116156101000203166002900480601f0160208091040260200160405190810160405280929190818152602001828054600181600116156101000203166002900480156122df5780601f106122b4576101008083540402835291602001916122df565b820191906000526020600020905b8154815290600101906020018083116122c257829003601f168201915b505050505090806006018054600181600116156101000203166002900480601f01602080910402602001604051908101604052809291908181526020018280546001816001161561010002031660029004801561237d5780601f106123525761010080835404028352916020019161237d565b820191906000526020600020905b81548152906001019060200180831161236057829003601f168201915b5050505050908060070154908060080154908060090160009054906101000a900473ffffffffffffffffffffffffffffffffffffffff1690508c565b7f0ce8ab5ebacf7596aada7f8908ceebb1c8bff3d9c463052135af63ed6539e2e38282604051808373ffffffffffffffffffffffffffffffffffffffff1673ffffffffffffffffffffffffffffffffffffffff1681526020018281526020019250505060405180910390a15050565b612430612761565b6040518061018001604052803373ffffffffffffffffffffffffffffffffffffffff168152602001600073ffffffffffffffffffffffffffffffffffffffff1681526020016000600281111561248257fe5b81526020016005600781111561249457fe5b8152602001428152602001428152602001604051806020016040528060008152508152602001604051806020016040528060008152508152602001604051806020016040528060008152508152602001838152602001600081526020018473ffffffffffffffffffffffffffffffffffffffff1681525090508060036000600454815260200190815260200160002060008201518160000160006101000a81548173ffffffffffffffffffffffffffffffffffffffff021916908373ffffffffffffffffffffffffffffffffffffffff16021790555060208201518160010160006101000a81548173ffffffffffffffffffffffffffffffffffffffff021916908373ffffffffffffffffffffffffffffffffffffffff16021790555060408201518160010160146101000a81548160ff021916908360028111156125d557fe5b021790555060608201518160010160156101000a81548160ff021916908360078111156125fe57fe5b02179055506080820151816002015560a0820151816003015560c082015181600401908051906020019061263392919061281a565b5060e082015181600501908051906020019061265092919061281a565b5061010082015181600601908051906020019061266e92919061281a565b50610120820151816007015561014082015181600801556101608201518160090160006101000a81548173ffffffffffffffffffffffffffffffffffffffff021916908373ffffffffffffffffffffffffffffffffffffffff160217905550905050600160045401600481905550505050565b828054600181600116156101000203166002900490600052602060002090601f016020900481019282601f1061272257805160ff1916838001178555612750565b82800160010185558215612750579182015b8281111561274f578251825591602001919060010190612734565b5b50905061275d919061289a565b5090565b604051806101800160405280600073ffffffffffffffffffffffffffffffffffffffff168152602001600073ffffffffffffffffffffffffffffffffffffffff168152602001600060028111156127b457fe5b8152602001600060078111156127c657fe5b815260200160008152602001600081526020016060815260200160608152602001606081526020016000815260200160008152602001600073ffffffffffffffffffffffffffffffffffffffff1681525090565b828054600181600116156101000203166002900490600052602060002090601f016020900481019282601f1061285b57805160ff1916838001178555612889565b82800160010185558215612889579182015b8281111561288857825182559160200191906001019061286d565b5b509050612896919061289a565b5090565b6128bc91905b808211156128b85760008160009055506001016128a0565b5090565b9056fea265627a7a72315820c20c595c9a8cab735612c0b2986ab6eb1e7c06827843e22f6280f2e64173272464736f6c63430005110032",
  "source": "pragma solidity ^0.5.0;\r\n\r\nimport \"./User.sol\";\r\nimport \"./Permission.sol\";\r\nimport \"./Role.sol\";\r\n// import \"./DatasetUploader.sol\";\r\n\r\n// import \"hardhat/console.sol\";\r\n\r\ncontract RequestApprovalManagement {\r\n    enum statusEnum {\r\n        pending,\r\n        approved,\r\n        rejected\r\n    }\r\n\r\n    enum requestTypeEnum {\r\n        createNewRoleRequest,\r\n        removeRoleRequest,\r\n        addDatasetToRoleRequest,\r\n        removeDatasetFromRoleRequest,\r\n        addUserToRoleRequest,\r\n        removeUserFromRoleRequest,\r\n        uploadDatasetToNewRoleRequest,\r\n        uploadDatasetToExistingRoleRequest\r\n    }\r\n\r\n    struct Request {\r\n        address requesterAddress;\r\n        address adminAddress;\r\n        statusEnum requestStatus;\r\n        requestTypeEnum requestType;\r\n        uint256 creationDateTime;\r\n        uint256 updatedDateTime;\r\n        string adminAdditionalRemarks;\r\n        string roleName;\r\n        string permissionName;\r\n        uint256 roleID; \r\n        uint256 permissionID;\r\n        address userID;\r\n    }\r\n\r\n    User userContract;\r\n    Permission permissionContract;\r\n    Role roleContract;   \r\n\r\n    mapping(uint256 => Request) public requestsMapping;\r\n\r\n    uint256 totalNumberOfRequest;\r\n\r\n    event createNewRoleRequestApproved(string roleName);\r\n    event removeRoleRequestApproved(uint256 roleID, address userID);\r\n    event addDatasetToRolesRequestApproved(string permissionName, uint256 roleID);\r\n    event removeDatasetFromRolesRequestApproved(uint256 permissionID, uint256 roleID);\r\n    event addUsersToRolesRequestApproved(address userID, uint256 roleID);\r\n    event removeUsersFromRolesRequestApproved(address userID, uint256 roleID);\r\n\r\n    constructor(User userAddress, Permission permissionAddress, Role roleAddress) public {\r\n        userContract = userAddress;\r\n        permissionContract = permissionAddress;\r\n        roleContract = roleAddress;\r\n        totalNumberOfRequest = 0;\r\n    }\r\n\r\n    // Admin functions\r\n    function approveRequest(uint256 requestID) public {\r\n        if (requestsMapping[requestID].requestType == requestTypeEnum.createNewRoleRequest) {\r\n\r\n            createNewRole(requestsMapping[requestID].roleName);\r\n\r\n        } else if (requestsMapping[requestID].requestType == requestTypeEnum.removeRoleRequest) {\r\n\r\n            removeRole(requestsMapping[requestID].roleID,requestsMapping[requestID].userID);\r\n\r\n        } else if (requestsMapping[requestID].requestType == requestTypeEnum.addDatasetToRoleRequest) {\r\n\r\n            addDatasetToRole(requestsMapping[requestID].permissionName, requestsMapping[requestID].roleID);\r\n\r\n        } else if (requestsMapping[requestID].requestType == requestTypeEnum.removeDatasetFromRoleRequest) {\r\n\r\n            removeDatasetFromRole(requestsMapping[requestID].permissionID, requestsMapping[requestID].roleID);\r\n\r\n        } else if (requestsMapping[requestID].requestType == requestTypeEnum.addUserToRoleRequest) {\r\n\r\n            addUsersToRole(requestsMapping[requestID].userID, requestsMapping[requestID].roleID);\r\n\r\n        } else if (requestsMapping[requestID].requestType == requestTypeEnum.removeUserFromRoleRequest) {\r\n\r\n            removeUsersFromRole(requestsMapping[requestID].userID, requestsMapping[requestID].roleID);\r\n\r\n        }\r\n\r\n        requestsMapping[requestID].updatedDateTime = block.timestamp;\r\n        requestsMapping[requestID].adminAddress = msg.sender;\r\n        requestsMapping[requestID].requestStatus = statusEnum.approved;\r\n    }\r\n\r\n    function rejectRequest(uint256 requestID, string memory adminAdditionalRemarks) public {\r\n        requestsMapping[requestID].adminAdditionalRemarks = adminAdditionalRemarks;\r\n        requestsMapping[requestID].requestStatus = statusEnum.rejected;\r\n    }\r\n\r\n    // Creating Requests\r\n\r\n    function createNewRoleRequest(string memory roleName) public {\r\n        Request memory newRequest = Request(msg.sender, address(0), statusEnum.pending, requestTypeEnum.createNewRoleRequest, block.timestamp,block.timestamp, \"\", roleName, \"\", 0,0,address(0));\r\n        requestsMapping[totalNumberOfRequest] = newRequest;\r\n        totalNumberOfRequest = totalNumberOfRequest + 1;\r\n    }\r\n\r\n    function removeRoleRequest(uint256 roleID, address userID) public {\r\n        Request memory newRequest = Request(msg.sender, address(0), statusEnum.pending, requestTypeEnum.removeRoleRequest, block.timestamp,block.timestamp, \"\", \"\", \"\", roleID,0,userID);\r\n        requestsMapping[totalNumberOfRequest] = newRequest;\r\n        totalNumberOfRequest = totalNumberOfRequest + 1;\r\n    }\r\n\r\n    function addDatasetToRoleRequest(string memory permissionName, uint256 roleID) public {\r\n        Request memory newRequest = Request(msg.sender, address(0), statusEnum.pending, requestTypeEnum.addDatasetToRoleRequest, block.timestamp,block.timestamp, \"\", \"\", permissionName, roleID,0,address(0));\r\n        requestsMapping[totalNumberOfRequest] = newRequest;\r\n        totalNumberOfRequest = totalNumberOfRequest + 1;\r\n    }\r\n\r\n    function removeDatasetFromRoleRequest(uint256 permissionID, uint256 roleID) public {\r\n        Request memory newRequest = Request(msg.sender, address(0), statusEnum.pending, requestTypeEnum.removeDatasetFromRoleRequest, block.timestamp,block.timestamp, \"\", \"\", \"\", roleID, permissionID,address(0));\r\n        requestsMapping[totalNumberOfRequest] = newRequest;\r\n        totalNumberOfRequest = totalNumberOfRequest + 1;\r\n    }\r\n\r\n    function addUsersToRoleRequest(address userID, uint256 roleID) public {\r\n        Request memory newRequest = Request(msg.sender, address(0), statusEnum.pending, requestTypeEnum.addUserToRoleRequest, block.timestamp,block.timestamp, \"\", \"\", \"\", roleID, 0, userID);\r\n        requestsMapping[totalNumberOfRequest] = newRequest;\r\n        totalNumberOfRequest = totalNumberOfRequest + 1;\r\n    }\r\n\r\n    function removeUsersFromRoleRequest(address userID, uint256 roleID) public {\r\n        Request memory newRequest = Request(msg.sender, address(0), statusEnum.pending, requestTypeEnum.removeUserFromRoleRequest , block.timestamp,block.timestamp, \"\", \"\", \"\", roleID, 0, userID);\r\n        requestsMapping[totalNumberOfRequest] = newRequest;\r\n        totalNumberOfRequest = totalNumberOfRequest + 1;\r\n    }\r\n\r\n\r\n    // Getters\r\n\r\n\r\n    function getRequestStatus(uint256 requestID) public view returns(requestTypeEnum) {\r\n        return requestsMapping[requestID].requestType;\r\n    }\r\n\r\n    function getRequestAdminRemarks(uint256 requestID) public view returns(string memory) {\r\n        return requestsMapping[requestID].adminAdditionalRemarks;\r\n    }\r\n\r\n    function getTotalNumberOfRequests() public view returns(uint256) {\r\n        return totalNumberOfRequest;\r\n    }\r\n\r\n\r\n\r\n    // Helper functions\r\n    \r\n    function createNewRole(string memory roleName) public {\r\n        // Role Creation\r\n        // roleContract.createRole(roleName);\r\n\r\n        emit createNewRoleRequestApproved(roleName);\r\n    }\r\n\r\n    function removeRole(uint256 roleID, address userID) public {\r\n        //  Remove role\r\n        // roleContract.removeRoleUser(roleID, userID);\r\n\r\n        emit removeRoleRequestApproved(roleID, userID);\r\n    }\r\n\r\n    function addDatasetToRole(string memory permissionName, uint256 roleID) public {\r\n        //  // Create Permission\r\n        // uint256 permissionID = permissionContract.createPermission(permissionName);\r\n        // // Give Permission to role\r\n        // permissionContract.givePermissionRole(permissionID, roleID);\r\n        // // Give role to permission\r\n        // roleContract.giveRolePermission(roleID, permissionID); \r\n\r\n        emit addDatasetToRolesRequestApproved(permissionName, roleID);\r\n    }\r\n\r\n    function removeDatasetFromRole(uint256 permissionID, uint256 roleID) public {\r\n        // // Remove Permission to role\r\n        // permissionContract.removePermissionRole(permissionID, roleID); \r\n        // // Remove role to permission\r\n        // roleContract.removeRolePermission(roleID, permissionID); \r\n        \r\n        emit removeDatasetFromRolesRequestApproved(permissionID, roleID);\r\n    }\r\n\r\n    function addUsersToRole(address userID, uint256 roleID) public {\r\n        // // Give user to role\r\n        // roleContract.giveRoleUser(roleID, userID);\r\n        // // Give role to user\r\n        // userContract.giveUserRole(userID, roleID);\r\n\r\n        emit addUsersToRolesRequestApproved(userID, roleID);\r\n    }\r\n\r\n    function removeUsersFromRole(address userID, uint256 roleID) public {\r\n        // // Remove user from role\r\n        // roleContract.removeRoleUser(roleID, userID);\r\n        // // Remove role from user\r\n        // userContract.removeUserRole(userID, roleID);\r\n\r\n        emit removeUsersFromRolesRequestApproved(userID, roleID);\r\n    }\r\n\r\n\r\n\r\n}\r\n",
  "sourcePath": "C:\\Users\\chang\\OneDrive - National University of Singapore\\Documents\\IS4302 Project\\is4302_grp19\\JianXiang_test\\contracts\\RequestApprovalManagement.sol",
  "compiler": {
    "name": "solc",
    "version": "0.5.17+commit.d19bba13.Emscripten.clang"
  },
  "schemaVersion": "3.4.11",
  "updatedAt": "2023-03-17T15:15:59.467Z",
  "networkType": "ethereum",
  "devdoc": {
    "methods": {}
  },
  "userdoc": {
    "methods": {}
  }
}