{
  "contractName": "User",
  "abi": [
    {
      "inputs": [],
      "payable": false,
      "stateMutability": "nonpayable",
      "type": "constructor"
    },
    {
      "constant": false,
      "inputs": [
        {
          "internalType": "string",
          "name": "name",
          "type": "string"
        }
      ],
      "name": "createUser",
      "outputs": [],
      "payable": false,
      "stateMutability": "nonpayable",
      "type": "function"
    }
  ],
  "bytecode": "0x608060405234801561001057600080fd5b506103fc806100206000396000f3fe608060405234801561001057600080fd5b506004361061002b5760003560e01c8063507ffba514610030575b600080fd5b6100e96004803603602081101561004657600080fd5b810190808035906020019064010000000081111561006357600080fd5b82018360208201111561007557600080fd5b8035906020019184600183028401116401000000008311171561009757600080fd5b91908080601f016020809104026020016040519081016040528093929190818152602001838380828437600081840152601f19601f8201169050808301925050505050505091929192905050506100eb565b005b600081511415610163576040517f08c379a00000000000000000000000000000000000000000000000000000000081526004018080602001828103825260148152602001807f4e616d652063616e6e6f7420626520626c616e6b00000000000000000000000081525060200191505060405180910390fd5b60008060003373ffffffffffffffffffffffffffffffffffffffff1673ffffffffffffffffffffffffffffffffffffffff168152602001908152602001600020600001805460018160011615610100020316600290049050141561022f576040517f08c379a000000000000000000000000000000000000000000000000000000000815260040180806020018281038252601b8152602001807f5573657220616c72656164792068617320616e206163636f756e74000000000081525060200191505060405180910390fd5b6102376102f6565b604051806060016040528083815260200160018081111561025457fe5b815260200160008152509050806000803373ffffffffffffffffffffffffffffffffffffffff1673ffffffffffffffffffffffffffffffffffffffff16815260200190815260200160002060008201518160000190805190602001906102bb929190610322565b5060208201518160010160006101000a81548160ff021916908360018111156102e057fe5b0217905550604082015181600201559050505050565b6040518060600160405280606081526020016000600181111561031557fe5b8152602001600081525090565b828054600181600116156101000203166002900490600052602060002090601f016020900481019282601f1061036357805160ff1916838001178555610391565b82800160010185558215610391579182015b82811115610390578251825591602001919060010190610375565b5b50905061039e91906103a2565b5090565b6103c491905b808211156103c05760008160009055506001016103a8565b5090565b9056fea265627a7a72315820bf9788fa669b4274ae18b302ede18ebe20e5a7a7a8f40670b6746680b218618e64736f6c63430005110032",
  "source": "// SPDX-License-Identifier: MIT\npragma solidity ^0.5.17;\n\ncontract User {\n    enum adminState {\n        isAdmin,\n        notAdmin\n    }\n\n    mapping(address => user) usersCreated;\n\n    struct user {\n        string name;\n        adminState admin;\n        uint256 tokenCount;\n    }\n\n    constructor() public {\n    }\n\n    // // Modifier where function is only callable by a system admin\n    // modifier adminOnly(address caller) {\n    //     require(usersCreated[caller].admin == adminState.isAdmin);\n    //     _;\n    // }\n\n    // For creating new users\n    function createUser(string memory name) public {\n        // Prerequisite checks\n        require(bytes(name).length != 0, \"Name cannot be blank\");\n        require(\n            bytes(usersCreated[msg.sender].name).length != 0,\n            \"User already has an account\"\n        );\n\n        // Create User\n        user memory newUser = user(name, adminState.notAdmin, 0);\n\n        // Add to mapping\n        usersCreated[msg.sender] = newUser;\n    }\n\n    // // For deleting users\n    // function deleteuser(address userID) public adminOnly(msg.sender) {\n    //     require(\n    //         bytes(usersCreated[msg.sender].name).length != 0,\n    //         \"User doesn't exist\"\n    //     );\n    //     delete usersCreated[userID];\n    // }\n\n    // // For issuing admin rights\n    // function giveAdmin(address userID) public adminOnly(msg.sender) {\n    //     usersCreated[userID].admin = adminState.isAdmin;\n    // }\n\n    // // For removing admin rights\n    // function removeAdmin(address userID) public adminOnly(msg.sender) {\n    //     usersCreated[userID].admin = adminState.notAdmin;\n    // }\n\n    // // For issuing tokens\n    // function giveTokens(\n    //     address userID,\n    //     uint256 amt\n    // ) public adminOnly(msg.sender) {\n    //     usersCreated[userID].tokenCount += amt;\n    // }\n\n    // // Deduct tokens after use\n    // function deductTokens(\n    //     address userID,\n    //     uint256 amt\n    // ) public adminOnly(msg.sender) {\n    //     usersCreated[userID].tokenCount -= amt;\n    // }\n}\n",
  "sourcePath": "C:\\Users\\chang\\OneDrive - National University of Singapore\\Documents\\IS4302 Project\\is4302_grp19\\JianXiang_test\\contracts\\User.sol",
  "compiler": {
    "name": "solc",
    "version": "0.5.17+commit.d19bba13.Emscripten.clang"
  },
  "schemaVersion": "3.4.11",
  "updatedAt": "2023-03-17T15:15:59.452Z",
  "networkType": "ethereum",
  "devdoc": {
    "methods": {}
  },
  "userdoc": {
    "methods": {}
  }
}