{
  "contractName": "Permission",
  "abi": [
    {
      "inputs": [
        {
          "internalType": "contract User",
          "name": "users",
          "type": "address"
        }
      ],
      "payable": false,
      "stateMutability": "nonpayable",
      "type": "constructor"
    },
    {
      "constant": true,
      "inputs": [
        {
          "internalType": "uint256",
          "name": "permissionID",
          "type": "uint256"
        }
      ],
      "name": "validPermission",
      "outputs": [],
      "payable": false,
      "stateMutability": "view",
      "type": "function"
    },
    {
      "constant": false,
      "inputs": [
        {
          "internalType": "string",
          "name": "name",
          "type": "string"
        }
      ],
      "name": "createPermission",
      "outputs": [],
      "payable": false,
      "stateMutability": "nonpayable",
      "type": "function"
    }
  ],
  "bytecode": "0x6080604052600060015534801561001557600080fd5b506040516104b53803806104b58339818101604052602081101561003857600080fd5b8101908080519060200190929190505050806000806101000a81548173ffffffffffffffffffffffffffffffffffffffff021916908373ffffffffffffffffffffffffffffffffffffffff1602179055505061041c806100996000396000f3fe608060405234801561001057600080fd5b50600436106100365760003560e01c8063293a42ed1461003b578063fe64a0d014610069575b600080fd5b6100676004803603602081101561005157600080fd5b8101908080359060200190929190505050610124565b005b6101226004803603602081101561007f57600080fd5b810190808035906020019064010000000081111561009c57600080fd5b8201836020820111156100ae57600080fd5b803590602001918460018302840111640100000000831117156100d057600080fd5b91908080601f016020809104026020016040519081016040528093929190818152602001838380828437600081840152601f19601f82011690508083019250505050505050919291929050505061019e565b005b600154811061019b576040517f08c379a00000000000000000000000000000000000000000000000000000000081526004018080602001828103825260198152602001807f5065726d697373696f6e20646f6573206e6f742065786973740000000000000081525060200191505060405180910390fd5b50565b600081511415610216576040517f08c379a00000000000000000000000000000000000000000000000000000000081526004018080602001828103825260148152602001807f4e616d652063616e6e6f7420626520626c616e6b00000000000000000000000081525060200191505060405180910390fd5b6000809054906101000a900473ffffffffffffffffffffffffffffffffffffffff1673ffffffffffffffffffffffffffffffffffffffff1663cff80797336040518263ffffffff1660e01b8152600401808273ffffffffffffffffffffffffffffffffffffffff1673ffffffffffffffffffffffffffffffffffffffff16815260200191505060006040518083038186803b1580156102b457600080fd5b505afa1580156102c8573d6000803e3d6000fd5b505050506102d461032f565b6040518060200160405280838152509050806002600060015481526020019081526020016000206000820151816000019080519060200190610317929190610342565b50905050600180600082825401925050819055505050565b6040518060200160405280606081525090565b828054600181600116156101000203166002900490600052602060002090601f016020900481019282601f1061038357805160ff19168380011785556103b1565b828001600101855582156103b1579182015b828111156103b0578251825591602001919060010190610395565b5b5090506103be91906103c2565b5090565b6103e491905b808211156103e05760008160009055506001016103c8565b5090565b9056fea265627a7a723158200bdf205216ae4c3978f1a7c745e396af2a6bd9656e96e540c7b4ecfa02f50e2e64736f6c63430005110032",
  "source": "pragma solidity ^0.5.17;\r\nimport \"./User.sol\";\r\n\r\ncontract Permission {\r\n    User userContract;\r\n    uint256 numPermissions = 0;\r\n    mapping(uint256 => permission) permissionsCreated;\r\n\r\n    struct permission{\r\n        string name;\r\n    }\r\n\r\n    constructor(User users) public {\r\n        userContract = users;\r\n    }\r\n\r\n    // Created as a function for use in other contracts\r\n    function validPermission(uint256 permissionID) public view {\r\n        require(permissionID < numPermissions, \"Permission does not exist\");\r\n    }\r\n\r\n    // For creating permissions\r\n    function createPermission(string memory name) public {\r\n        require(bytes(name).length != 0, \"Name cannot be blank\");\r\n        userContract.adminOnly(msg.sender);\r\n        permission memory perm = permission(name);\r\n        permissionsCreated[numPermissions] = perm;\r\n        numPermissions += 1;\r\n    }\r\n}",
  "sourcePath": "C:\\Users\\Anthony Cheang\\Desktop\\University Stuff\\Academics\\Y3S1\\IS4302\\Submissions\\Grp Proj\\is4302_grp19\\contracts\\Permission.sol",
  "compiler": {
    "name": "solc",
    "version": "0.5.17+commit.d19bba13.Emscripten.clang"
  },
  "schemaVersion": "3.4.11",
  "updatedAt": "2023-03-27T10:57:41.891Z",
  "networkType": "ethereum",
  "devdoc": {
    "methods": {}
  },
  "userdoc": {
    "methods": {}
  }
}