{
  "contractName": "Role",
  "abi": [
    {
      "inputs": [
        {
          "internalType": "contract User",
          "name": "users",
          "type": "address"
        },
        {
          "internalType": "contract Permission",
          "name": "perms",
          "type": "address"
        }
      ],
      "payable": false,
      "stateMutability": "nonpayable",
      "type": "constructor"
    },
    {
      "constant": false,
      "inputs": [
        {
          "internalType": "string",
          "name": "name",
          "type": "string"
        }
      ],
      "name": "createRole",
      "outputs": [],
      "payable": false,
      "stateMutability": "nonpayable",
      "type": "function"
    },
    {
      "constant": false,
      "inputs": [
        {
          "internalType": "uint256",
          "name": "roleToInherit",
          "type": "uint256"
        },
        {
          "internalType": "uint256",
          "name": "inheritingRole",
          "type": "uint256"
        }
      ],
      "name": "inheritRole",
      "outputs": [],
      "payable": false,
      "stateMutability": "nonpayable",
      "type": "function"
    },
    {
      "constant": false,
      "inputs": [
        {
          "internalType": "uint256",
          "name": "roleID",
          "type": "uint256"
        },
        {
          "internalType": "uint256",
          "name": "permission",
          "type": "uint256"
        }
      ],
      "name": "assignPermission",
      "outputs": [],
      "payable": false,
      "stateMutability": "nonpayable",
      "type": "function"
    },
    {
      "constant": false,
      "inputs": [
        {
          "internalType": "uint256",
          "name": "roleID",
          "type": "uint256"
        },
        {
          "internalType": "uint256",
          "name": "permission",
          "type": "uint256"
        }
      ],
      "name": "removePermission",
      "outputs": [],
      "payable": false,
      "stateMutability": "nonpayable",
      "type": "function"
    },
    {
      "constant": false,
      "inputs": [
        {
          "internalType": "address",
          "name": "userID",
          "type": "address"
        },
        {
          "internalType": "uint256",
          "name": "roleID",
          "type": "uint256"
        }
      ],
      "name": "giveUserRole",
      "outputs": [],
      "payable": false,
      "stateMutability": "nonpayable",
      "type": "function"
    },
    {
      "constant": false,
      "inputs": [
        {
          "internalType": "address",
          "name": "userID",
          "type": "address"
        },
        {
          "internalType": "uint256",
          "name": "roleID",
          "type": "uint256"
        }
      ],
      "name": "removeUserRole",
      "outputs": [],
      "payable": false,
      "stateMutability": "nonpayable",
      "type": "function"
    },
    {
      "constant": true,
      "inputs": [
        {
          "internalType": "address",
          "name": "userID",
          "type": "address"
        },
        {
          "internalType": "uint256",
          "name": "permission",
          "type": "uint256"
        }
      ],
      "name": "checkUserPermission",
      "outputs": [
        {
          "internalType": "bool",
          "name": "",
          "type": "bool"
        }
      ],
      "payable": false,
      "stateMutability": "view",
      "type": "function"
    }
  ],
  "bytecode": "0x608060405234801561001057600080fd5b506040516116553803806116558339818101604052604081101561003357600080fd5b810190808051906020019092919080519060200190929190505050816000806101000a81548173ffffffffffffffffffffffffffffffffffffffff021916908373ffffffffffffffffffffffffffffffffffffffff16021790555080600160006101000a81548173ffffffffffffffffffffffffffffffffffffffff021916908373ffffffffffffffffffffffffffffffffffffffff1602179055505050611575806100e06000396000f3fe608060405234801561001057600080fd5b506004361061007d5760003560e01c80638b4c637a1161005b5780638b4c637a1461016e578063ad9abec5146101bc578063af17d38a146101f4578063f19ba94b146102af5761007d565b806321f46292146100825780633331056f146100e85780634d43668414610136575b600080fd5b6100ce6004803603604081101561009857600080fd5b81019080803573ffffffffffffffffffffffffffffffffffffffff169060200190929190803590602001909291905050506102e7565b604051808215151515815260200191505060405180910390f35b610134600480360360408110156100fe57600080fd5b81019080803573ffffffffffffffffffffffffffffffffffffffff16906020019092919080359060200190929190505050610481565b005b61016c6004803603604081101561014c57600080fd5b810190808035906020019092919080359060200190929190505050610754565b005b6101ba6004803603604081101561018457600080fd5b81019080803573ffffffffffffffffffffffffffffffffffffffff169060200190929190803590602001909291905050506109ee565b005b6101f2600480360360408110156101d257600080fd5b810190808035906020019092919080359060200190929190505050610d4b565b005b6102ad6004803603602081101561020a57600080fd5b810190808035906020019064010000000081111561022757600080fd5b82018360208201111561023957600080fd5b8035906020019184600183028401116401000000008311171561025b57600080fd5b91908080601f016020809104026020016040519081016040528093929190818152602001838380828437600081840152601f19601f820116905080830192505050505050509192919290505050611017565b005b6102e5600480360360408110156102c557600080fd5b8101908080359060200190929190803590602001909291905050506110f3565b005b6000600160009054906101000a900473ffffffffffffffffffffffffffffffffffffffff1673ffffffffffffffffffffffffffffffffffffffff1663293a42ed836040518263ffffffff1660e01b81526004018082815260200191505060006040518083038186803b15801561035c57600080fd5b505afa158015610370573d6000803e3d6000fd5b505050506060600560008573ffffffffffffffffffffffffffffffffffffffff1673ffffffffffffffffffffffffffffffffffffffff1681526020019081526020016000208054806020026020016040519081016040528092919081815260200182805480156103ff57602002820191906000526020600020905b8154815260200190600101908083116103eb575b5050505050905060008090505b8151811015610474576000600360008381526020019081526020016000209050600181600101600087815260200190815260200160002060009054906101000a900460ff1660ff161415610466576001935050505061047b565b50808060010191505061040c565b5060009150505b92915050565b8060025481106104f9576040517f08c379a00000000000000000000000000000000000000000000000000000000081526004018080602001828103825260138152602001807f526f6c6520646f6573206e6f742065786973740000000000000000000000000081525060200191505060405180910390fd5b60006003600084815260200190815260200160002060020160008573ffffffffffffffffffffffffffffffffffffffff1673ffffffffffffffffffffffffffffffffffffffff16815260200190815260200160002060009054906101000a900460ff1660ff16146105d2576040517f08c379a000000000000000000000000000000000000000000000000000000000815260040180806020018281038252601e8152602001807f526f6c652068617320616c7265616479206265656e2061737369676e6564000081525060200191505060405180910390fd5b6000809054906101000a900473ffffffffffffffffffffffffffffffffffffffff1673ffffffffffffffffffffffffffffffffffffffff1663cff80797336040518263ffffffff1660e01b8152600401808273ffffffffffffffffffffffffffffffffffffffff1673ffffffffffffffffffffffffffffffffffffffff16815260200191505060006040518083038186803b15801561067057600080fd5b505afa158015610684573d6000803e3d6000fd5b505050506001600560008573ffffffffffffffffffffffffffffffffffffffff1673ffffffffffffffffffffffffffffffffffffffff16815260200190815260200160002083815481106106d457fe5b906000526020600020018190555060016003600084815260200190815260200160002060020160008573ffffffffffffffffffffffffffffffffffffffff1673ffffffffffffffffffffffffffffffffffffffff16815260200190815260200160002060006101000a81548160ff021916908360ff160217905550505050565b8160025481106107cc576040517f08c379a00000000000000000000000000000000000000000000000000000000081526004018080602001828103825260138152602001807f526f6c6520646f6573206e6f742065786973740000000000000000000000000081525060200191505060405180910390fd5b816002548110610844576040517f08c379a00000000000000000000000000000000000000000000000000000000081526004018080602001828103825260138152602001807f526f6c6520646f6573206e6f742065786973740000000000000000000000000081525060200191505060405180910390fd5b600060036000858152602001908152602001600020600301600086815260200190815260200160002060009054906101000a900460ff1660ff16146108f1576040517f08c379a00000000000000000000000000000000000000000000000000000000081526004018080602001828103825260168152602001807f526f6c6520616c726561647920696e686572697465640000000000000000000081525060200191505060405180910390fd5b6000809054906101000a900473ffffffffffffffffffffffffffffffffffffffff1673ffffffffffffffffffffffffffffffffffffffff1663cff80797336040518263ffffffff1660e01b8152600401808273ffffffffffffffffffffffffffffffffffffffff1673ffffffffffffffffffffffffffffffffffffffff16815260200191505060006040518083038186803b15801561098f57600080fd5b505afa1580156109a3573d6000803e3d6000fd5b50505050600160036000858152602001908152602001600020600301600086815260200190815260200160002060006101000a81548160ff021916908360ff16021790555050505050565b806002548110610a66576040517f08c379a00000000000000000000000000000000000000000000000000000000081526004018080602001828103825260138152602001807f526f6c6520646f6573206e6f742065786973740000000000000000000000000081525060200191505060405180910390fd5b60016003600084815260200190815260200160002060020160008573ffffffffffffffffffffffffffffffffffffffff1673ffffffffffffffffffffffffffffffffffffffff16815260200190815260200160002060009054906101000a900460ff1660ff1614610b3f576040517f08c379a00000000000000000000000000000000000000000000000000000000081526004018080602001828103825260208152602001807f5573657220646f6573206e6f742068617665207468697320726f6c652079657481525060200191505060405180910390fd5b6000809054906101000a900473ffffffffffffffffffffffffffffffffffffffff1673ffffffffffffffffffffffffffffffffffffffff1663cff80797336040518263ffffffff1660e01b8152600401808273ffffffffffffffffffffffffffffffffffffffff1673ffffffffffffffffffffffffffffffffffffffff16815260200191505060006040518083038186803b158015610bdd57600080fd5b505afa158015610bf1573d6000803e3d6000fd5b505050506060600560008573ffffffffffffffffffffffffffffffffffffffff1673ffffffffffffffffffffffffffffffffffffffff168152602001908152602001600020805480602002602001604051908101604052809291908181526020018280548015610c8057602002820191906000526020600020905b815481526020019060010190808311610c6c575b5050505050905060008090505b8151811015610cd75783828281518110610ca357fe5b60200260200101511415610cca57818181518110610cbd57fe5b6020026020010160008152505b8080600101915050610c8d565b5060006003600085815260200190815260200160002060020160008673ffffffffffffffffffffffffffffffffffffffff1673ffffffffffffffffffffffffffffffffffffffff16815260200190815260200160002060006101000a81548160ff021916908360ff16021790555050505050565b816002548110610dc3576040517f08c379a00000000000000000000000000000000000000000000000000000000081526004018080602001828103825260138152602001807f526f6c6520646f6573206e6f742065786973740000000000000000000000000081525060200191505060405180910390fd5b600060036000858152602001908152602001600020600101600085815260200190815260200160002060009054906101000a900460ff1660ff1614610e53576040517f08c379a00000000000000000000000000000000000000000000000000000000081526004018080602001828103825260288152602001806115196028913960400191505060405180910390fd5b6000809054906101000a900473ffffffffffffffffffffffffffffffffffffffff1673ffffffffffffffffffffffffffffffffffffffff1663cff80797336040518263ffffffff1660e01b8152600401808273ffffffffffffffffffffffffffffffffffffffff1673ffffffffffffffffffffffffffffffffffffffff16815260200191505060006040518083038186803b158015610ef157600080fd5b505afa158015610f05573d6000803e3d6000fd5b50505050600160009054906101000a900473ffffffffffffffffffffffffffffffffffffffff1673ffffffffffffffffffffffffffffffffffffffff1663293a42ed836040518263ffffffff1660e01b81526004018082815260200191505060006040518083038186803b158015610f7c57600080fd5b505afa158015610f90573d6000803e3d6000fd5b5050505060046000838152602001908152602001600020839080600181540180825580915050906001820390600052602060002001600090919290919091505550600160036000858152602001908152602001600020600101600084815260200190815260200160002060006101000a81548160ff021916908360ff160217905550505050565b60008151141561108f576040517f08c379a00000000000000000000000000000000000000000000000000000000081526004018080602001828103825260148152602001807f4e616d652063616e6e6f7420626520626c616e6b00000000000000000000000081525060200191505060405180910390fd5b61109761143a565b60405180602001604052808381525090508060036000600254815260200190815260200160002060008201518160000190805190602001906110da92919061144d565b5090505060016002600082825401925050819055505050565b81600254811061116b576040517f08c379a00000000000000000000000000000000000000000000000000000000081526004018080602001828103825260138152602001807f526f6c6520646f6573206e6f742065786973740000000000000000000000000081525060200191505060405180910390fd5b600160036000858152602001908152602001600020600101600085815260200190815260200160002060009054906101000a900460ff1660ff16146111fb576040517f08c379a00000000000000000000000000000000000000000000000000000000081526004018080602001828103825260268152602001806114f36026913960400191505060405180910390fd5b6000809054906101000a900473ffffffffffffffffffffffffffffffffffffffff1673ffffffffffffffffffffffffffffffffffffffff1663cff80797336040518263ffffffff1660e01b8152600401808273ffffffffffffffffffffffffffffffffffffffff1673ffffffffffffffffffffffffffffffffffffffff16815260200191505060006040518083038186803b15801561129957600080fd5b505afa1580156112ad573d6000803e3d6000fd5b50505050600160009054906101000a900473ffffffffffffffffffffffffffffffffffffffff1673ffffffffffffffffffffffffffffffffffffffff1663293a42ed836040518263ffffffff1660e01b81526004018082815260200191505060006040518083038186803b15801561132457600080fd5b505afa158015611338573d6000803e3d6000fd5b5050505060606004600084815260200190815260200160002080548060200260200160405190810160405280929190818152602001828054801561139b57602002820191906000526020600020905b815481526020019060010190808311611387575b5050505050905060008090505b81518110156113f257848282815181106113be57fe5b602002602001015114156113e5578181815181106113d857fe5b6020026020010160008152505b80806001019150506113a8565b50600060036000868152602001908152602001600020600101600085815260200190815260200160002060006101000a81548160ff021916908360ff16021790555050505050565b6040518060200160405280606081525090565b828054600181600116156101000203166002900490600052602060002090601f016020900481019282601f1061148e57805160ff19168380011785556114bc565b828001600101855582156114bc579182015b828111156114bb5782518255916020019190600101906114a0565b5b5090506114c991906114cd565b5090565b6114ef91905b808211156114eb5760008160009055506001016114d3565b5090565b9056fe526f6c6520646f6573206e6f7420686176652074686973207065726d697373696f6e207965745065726d697373696f6e20616c72656164792061737369676e656420746f207468697320726f6c65a265627a7a72315820c0e96b3bed557b8346f399908b028b953f34b179e1516c5d3ff9aa0f855ff4a564736f6c63430005110032",
  "source": "pragma solidity ^0.5.17;\r\nimport \"./User.sol\";\r\nimport \"./Permission.sol\";\r\n\r\ncontract Role {\r\n    User userContract;\r\n    Permission permContract;\r\n    uint256 numRoles;\r\n    mapping(uint256 => role) rolesCreated;\r\n    mapping(uint256 => uint256 []) rolesGivenPermission; // Roles that are given a particular permission\r\n    mapping(address => uint256 []) rolesGrantedToUser; // Roles that are granted to a user\r\n\r\n    struct role {\r\n        string name;\r\n        mapping(uint256 => uint8) assignedPermissions;\r\n        mapping(address => uint8) assignedUsers;\r\n        mapping(uint256 => uint8) inheritedRoles;\r\n    }\r\n\r\n    constructor(User users, Permission perms) public {\r\n        userContract = users;\r\n        permContract = perms;\r\n    }\r\n\r\n    modifier validRole(uint256 id) {\r\n        require(id < numRoles, \"Role does not exist\");\r\n        _;\r\n    }\r\n\r\n    // For creating roles\r\n    function createRole(string memory name) public {\r\n        require(bytes(name).length != 0, \"Name cannot be blank\");\r\n        role memory createdRole = role(name);\r\n        rolesCreated[numRoles] = createdRole;\r\n        numRoles += 1;\r\n    }\r\n\r\n    // For role to inherit another role\r\n    function inheritRole(uint256 roleToInherit, uint256 inheritingRole) validRole(roleToInherit) validRole(inheritingRole) public {\r\n        // Check that role has not already been inherited\r\n        require(rolesCreated[inheritingRole].inheritedRoles[roleToInherit] == 0, \"Role already inherited\");\r\n        userContract.adminOnly(msg.sender);\r\n\r\n        rolesCreated[inheritingRole].inheritedRoles[roleToInherit] = 1; // Inherit\r\n    }\r\n\r\n    // For assigning permissions to a role\r\n    function assignPermission(uint256 roleID, uint256 permission) validRole(roleID) public {\r\n        // Check that permission has not already been assigned\r\n        require(rolesCreated[roleID].assignedPermissions[roleID] == 0, \"Permission already assigned to this role\");\r\n        userContract.adminOnly(msg.sender);\r\n        permContract.validPermission(permission);\r\n        \r\n        rolesGivenPermission[permission].push(roleID); // Update rolesGivenPermission\r\n        rolesCreated[roleID].assignedPermissions[permission] = 1; // Assign permission\r\n    }\r\n\r\n    // For removing permissions from a role\r\n    function removePermission(uint256 roleID, uint256 permission) validRole(roleID) public {\r\n        // Check that permission has already been assigned\r\n        require(rolesCreated[roleID].assignedPermissions[roleID] == 1, \"Role does not have this permission yet\");\r\n        userContract.adminOnly(msg.sender);\r\n        permContract.validPermission(permission);\r\n\r\n        // Update rolesGivenPermission\r\n        uint256 [] memory roles = rolesGivenPermission[permission]; \r\n        for (uint i = 0; i < roles.length; i++) {\r\n            if (roles[i] == roleID) {\r\n                delete(roles[i]);\r\n            }\r\n        }\r\n        rolesCreated[roleID].assignedPermissions[permission] = 0; // Remove permission\r\n    }\r\n\r\n    // For assigning role to a user\r\n    function giveUserRole(address userID, uint256 roleID) validRole(roleID) public {\r\n        // Check that role has not already been assigned\r\n        require(rolesCreated[roleID].assignedUsers[userID] == 0, \"Role has already been assigned\");\r\n        userContract.adminOnly(msg.sender);\r\n\r\n        rolesGrantedToUser[userID][roleID] = 1; // Update rolesGrantedToUser\r\n        rolesCreated[roleID].assignedUsers[userID] = 1; // Assign role\r\n    }\r\n\r\n    // For removing role assigned to a user\r\n    function removeUserRole(address userID, uint256 roleID) validRole(roleID) public {\r\n        require(rolesCreated[roleID].assignedUsers[userID] == 1, \"User does not have this role yet\");\r\n        userContract.adminOnly(msg.sender);\r\n\r\n        // Update rolesGrantedToUser\r\n        uint256 [] memory roles = rolesGrantedToUser[userID];\r\n        for (uint i = 0; i < roles.length; i++){\r\n            if (roles[i] == roleID) {\r\n                delete(roles[i]);\r\n            }\r\n\r\n        }\r\n        rolesCreated[roleID].assignedUsers[userID] = 0; // Remove role\r\n    }\r\n\r\n    // Check whether user has a particular permission\r\n    function checkUserPermission(address userID, uint256 permission) view public returns (bool) {\r\n        // Check validity of permission\r\n        permContract.validPermission(permission);\r\n\r\n        uint256 [] memory roles = rolesGrantedToUser[userID];\r\n        for (uint i = 0; i < roles.length; i++) {\r\n            role storage r = rolesCreated[i];\r\n            if (r.assignedPermissions[permission] == 1) {\r\n                return true;\r\n            }\r\n        }\r\n        return false;\r\n    }\r\n\r\n    // Getter Functions\r\n    // Get roles that are given this particular permission\r\n    // function getRolesGiven(uint256 permissionID) validPermission(permissionID) public returns(mapping(uint256 => uint8) memory) {\r\n    //     return rolesGivenPermission[permissionID];\r\n    // }\r\n\r\n    // // Get roles that are granted to this user\r\n    // function getRolesGranted(address userID) public returns(mapping(uint256 => uint8) memory) {\r\n    //     return rolesGrantedToUser[userID];\r\n    // }\r\n\r\n    // // Get permissions that are assigned to this role\r\n    // function getAssignedPermissions(uint256 roleID) validRole(roleID) public returns(mapping(uint256 => uint256) memory) {\r\n    //     return rolesCreated[roleID].assignedPermissions;\r\n    // }\r\n\r\n    // // Get users that are assigned with this role\r\n    // function getAssignedUsers(uint256 roleID) validRole(roleID) public returns(mapping(address => uint256) memory) {\r\n    //     return rolesCreated[roleID].assignedUsers;\r\n    // }\r\n    \r\n    // // Get roles that this role has inherited\r\n    // function getInheritedRoles(uint256 roleID) validRole(roleID) public returns(mapping(uint256 => uint256) memory) {\r\n    //     return rolesCreated[roleID].inheritedRoles;\r\n    // }\r\n}",
  "sourcePath": "C:\\Users\\Anthony Cheang\\Desktop\\University Stuff\\Academics\\Y3S1\\IS4302\\Submissions\\Grp Proj\\is4302_grp19\\contracts\\Role.sol",
  "compiler": {
    "name": "solc",
    "version": "0.5.17+commit.d19bba13.Emscripten.clang"
  },
  "schemaVersion": "3.4.11",
  "updatedAt": "2023-03-27T10:57:41.901Z",
  "networkType": "ethereum",
  "devdoc": {
    "methods": {}
  },
  "userdoc": {
    "methods": {}
  }
}