{
  "contractName": "User",
  "abi": [
    {
      "inputs": [
        {
          "internalType": "string",
          "name": "name",
          "type": "string"
        }
      ],
      "payable": false,
      "stateMutability": "nonpayable",
      "type": "constructor"
    },
    {
      "constant": true,
      "inputs": [
        {
          "internalType": "address",
          "name": "caller",
          "type": "address"
        }
      ],
      "name": "adminOnly",
      "outputs": [],
      "payable": false,
      "stateMutability": "view",
      "type": "function"
    },
    {
      "constant": false,
      "inputs": [
        {
          "internalType": "string",
          "name": "name",
          "type": "string"
        }
      ],
      "name": "createUser",
      "outputs": [],
      "payable": false,
      "stateMutability": "nonpayable",
      "type": "function"
    },
    {
      "constant": false,
      "inputs": [
        {
          "internalType": "address",
          "name": "userID",
          "type": "address"
        }
      ],
      "name": "deleteuser",
      "outputs": [],
      "payable": false,
      "stateMutability": "nonpayable",
      "type": "function"
    },
    {
      "constant": false,
      "inputs": [
        {
          "internalType": "address",
          "name": "userID",
          "type": "address"
        }
      ],
      "name": "giveAdmin",
      "outputs": [],
      "payable": false,
      "stateMutability": "nonpayable",
      "type": "function"
    },
    {
      "constant": false,
      "inputs": [
        {
          "internalType": "address",
          "name": "userID",
          "type": "address"
        }
      ],
      "name": "removeAdmin",
      "outputs": [],
      "payable": false,
      "stateMutability": "nonpayable",
      "type": "function"
    },
    {
      "constant": false,
      "inputs": [
        {
          "internalType": "address",
          "name": "userID",
          "type": "address"
        },
        {
          "internalType": "uint256",
          "name": "amt",
          "type": "uint256"
        }
      ],
      "name": "giveTokens",
      "outputs": [],
      "payable": false,
      "stateMutability": "nonpayable",
      "type": "function"
    },
    {
      "constant": false,
      "inputs": [
        {
          "internalType": "address",
          "name": "userID",
          "type": "address"
        },
        {
          "internalType": "uint256",
          "name": "amt",
          "type": "uint256"
        }
      ],
      "name": "deductTokens",
      "outputs": [],
      "payable": false,
      "stateMutability": "nonpayable",
      "type": "function"
    },
    {
      "constant": true,
      "inputs": [
        {
          "internalType": "address",
          "name": "userID",
          "type": "address"
        }
      ],
      "name": "getTokenBalance",
      "outputs": [
        {
          "internalType": "uint256",
          "name": "",
          "type": "uint256"
        }
      ],
      "payable": false,
      "stateMutability": "view",
      "type": "function"
    },
    {
      "constant": true,
      "inputs": [
        {
          "internalType": "address",
          "name": "userID",
          "type": "address"
        }
      ],
      "name": "checkAdmin",
      "outputs": [
        {
          "internalType": "enum User.adminState",
          "name": "",
          "type": "uint8"
        }
      ],
      "payable": false,
      "stateMutability": "view",
      "type": "function"
    }
  ],
  "bytecode": "0x60806040523480156200001157600080fd5b5060405162000f1638038062000f16833981810160405260208110156200003757600080fd5b81019080805160405193929190846401000000008211156200005857600080fd5b838201915060208201858111156200006f57600080fd5b82518660018202830111640100000000821117156200008d57600080fd5b8083526020830192505050908051906020019080838360005b83811015620000c3578082015181840152602081019050620000a6565b50505050905090810190601f168015620000f15780820380516001836020036101000a031916815260200191505b5060405250505062000109816200011060201b60201c565b50620003ff565b60008151141562000189576040517f08c379a00000000000000000000000000000000000000000000000000000000081526004018080602001828103825260148152602001807f4e616d652063616e6e6f7420626520626c616e6b00000000000000000000000081525060200191505060405180910390fd5b60008060003373ffffffffffffffffffffffffffffffffffffffff1673ffffffffffffffffffffffffffffffffffffffff1681526020019081526020016000206000018054600181600116156101000203166002900490501462000255576040517f08c379a000000000000000000000000000000000000000000000000000000000815260040180806020018281038252601b8152602001807f5573657220616c72656164792068617320616e206163636f756e74000000000081525060200191505060405180910390fd5b6200025f62000323565b6040518060600160405280838152602001600060018111156200027e57fe5b815260200160008152509050806000803373ffffffffffffffffffffffffffffffffffffffff1673ffffffffffffffffffffffffffffffffffffffff1681526020019081526020016000206000820151816000019080519060200190620002e792919062000350565b5060208201518160010160006101000a81548160ff021916908360018111156200030d57fe5b0217905550604082015181600201559050505050565b604051806060016040528060608152602001600060018111156200034357fe5b8152602001600081525090565b828054600181600116156101000203166002900490600052602060002090601f016020900481019282601f106200039357805160ff1916838001178555620003c4565b82800160010185558215620003c4579182015b82811115620003c3578251825591602001919060010190620003a6565b5b509050620003d39190620003d7565b5090565b620003fc91905b80821115620003f8576000816000905550600101620003de565b5090565b90565b610b07806200040f6000396000f3fe608060405234801561001057600080fd5b50600436106100935760003560e01c806368dc95281161006657806368dc9528146102335780639026dee814610281578063a123b34a146102e7578063b126d0e91461032b578063cff807971461037957610093565b80631785f53c1461009857806320ce5ae4146100dc5780633aecd0e314610120578063507ffba514610178575b600080fd5b6100da600480360360208110156100ae57600080fd5b81019080803573ffffffffffffffffffffffffffffffffffffffff1690602001909291905050506103bd565b005b61011e600480360360208110156100f257600080fd5b81019080803573ffffffffffffffffffffffffffffffffffffffff16906020019092919050505061042c565b005b6101626004803603602081101561013657600080fd5b81019080803573ffffffffffffffffffffffffffffffffffffffff169060200190929190505050610571565b6040518082815260200191505060405180910390f35b6102316004803603602081101561018e57600080fd5b81019080803590602001906401000000008111156101ab57600080fd5b8201836020820111156101bd57600080fd5b803590602001918460018302840111640100000000831117156101df57600080fd5b91908080601f016020809104026020016040519081016040528093929190818152602001838380828437600081840152601f19601f8201169050808301925050505050505091929192905050506105bc565b005b61027f6004803603604081101561024957600080fd5b81019080803573ffffffffffffffffffffffffffffffffffffffff169060200190929190803590602001909291905050506107c6565b005b6102c36004803603602081101561029757600080fd5b81019080803573ffffffffffffffffffffffffffffffffffffffff169060200190929190505050610822565b604051808260018111156102d357fe5b60ff16815260200191505060405180910390f35b610329600480360360208110156102fd57600080fd5b81019080803573ffffffffffffffffffffffffffffffffffffffff16906020019092919050505061087a565b005b6103776004803603604081101561034157600080fd5b81019080803573ffffffffffffffffffffffffffffffffffffffff169060200190929190803590602001909291905050506108e9565b005b6103bb6004803603602081101561038f57600080fd5b81019080803573ffffffffffffffffffffffffffffffffffffffff169060200190929190505050610945565b005b6103c633610945565b60016000808373ffffffffffffffffffffffffffffffffffffffff1673ffffffffffffffffffffffffffffffffffffffff16815260200190815260200160002060010160006101000a81548160ff0219169083600181111561042457fe5b021790555050565b60008060003373ffffffffffffffffffffffffffffffffffffffff1673ffffffffffffffffffffffffffffffffffffffff16815260200190815260200160002060000180546001816001161561010002031660029004905014156104f8576040517f08c379a00000000000000000000000000000000000000000000000000000000081526004018080602001828103825260128152602001807f5573657220646f65736e2774206578697374000000000000000000000000000081525060200191505060405180910390fd5b61050133610945565b6000808273ffffffffffffffffffffffffffffffffffffffff1673ffffffffffffffffffffffffffffffffffffffff1681526020019081526020016000206000808201600061055091906109b9565b6001820160006101000a81549060ff02191690556002820160009055505050565b60008060008373ffffffffffffffffffffffffffffffffffffffff1673ffffffffffffffffffffffffffffffffffffffff168152602001908152602001600020600201549050919050565b600081511415610634576040517f08c379a00000000000000000000000000000000000000000000000000000000081526004018080602001828103825260148152602001807f4e616d652063616e6e6f7420626520626c616e6b00000000000000000000000081525060200191505060405180910390fd5b60008060003373ffffffffffffffffffffffffffffffffffffffff1673ffffffffffffffffffffffffffffffffffffffff168152602001908152602001600020600001805460018160011615610100020316600290049050146106ff576040517f08c379a000000000000000000000000000000000000000000000000000000000815260040180806020018281038252601b8152602001807f5573657220616c72656164792068617320616e206163636f756e74000000000081525060200191505060405180910390fd5b610707610a01565b604051806060016040528083815260200160018081111561072457fe5b815260200160008152509050806000803373ffffffffffffffffffffffffffffffffffffffff1673ffffffffffffffffffffffffffffffffffffffff168152602001908152602001600020600082015181600001908051906020019061078b929190610a2d565b5060208201518160010160006101000a81548160ff021916908360018111156107b057fe5b0217905550604082015181600201559050505050565b6107cf33610945565b806000808473ffffffffffffffffffffffffffffffffffffffff1673ffffffffffffffffffffffffffffffffffffffff168152602001908152602001600020600201600082825401925050819055505050565b60008060008373ffffffffffffffffffffffffffffffffffffffff1673ffffffffffffffffffffffffffffffffffffffff16815260200190815260200160002060010160009054906101000a900460ff169050919050565b61088333610945565b60008060008373ffffffffffffffffffffffffffffffffffffffff1673ffffffffffffffffffffffffffffffffffffffff16815260200190815260200160002060010160006101000a81548160ff021916908360018111156108e157fe5b021790555050565b6108f233610945565b806000808473ffffffffffffffffffffffffffffffffffffffff1673ffffffffffffffffffffffffffffffffffffffff168152602001908152602001600020600201600082825403925050819055505050565b6000600181111561095257fe5b6000808373ffffffffffffffffffffffffffffffffffffffff1673ffffffffffffffffffffffffffffffffffffffff16815260200190815260200160002060010160009054906101000a900460ff1660018111156109ac57fe5b146109b657600080fd5b50565b50805460018160011615610100020316600290046000825580601f106109df57506109fe565b601f0160209004906000526020600020908101906109fd9190610aad565b5b50565b60405180606001604052806060815260200160006001811115610a2057fe5b8152602001600081525090565b828054600181600116156101000203166002900490600052602060002090601f016020900481019282601f10610a6e57805160ff1916838001178555610a9c565b82800160010185558215610a9c579182015b82811115610a9b578251825591602001919060010190610a80565b5b509050610aa99190610aad565b5090565b610acf91905b80821115610acb576000816000905550600101610ab3565b5090565b9056fea265627a7a723158205206ddee26d920606b9b22d6482c35c28c16fb0eccf82fab15a7f09d5341262a64736f6c63430005110032",
  "source": "// SPDX-License-Identifier: MIT\npragma solidity ^0.5.17;\n\ncontract User {\n    enum adminState {\n        isAdmin,\n        notAdmin\n    }\n\n    mapping(address => user) usersCreated;\n\n    struct user {\n        string name;\n        adminState admin;\n        uint256 tokenCount;\n    }\n\n    constructor(string memory name) public {\n        createAdmin(name);\n    }\n\n    // Created as a function instead of modifier so that other contracts can use\n    function adminOnly(address caller) public view {\n        require(usersCreated[caller].admin == adminState.isAdmin);\n    }\n\n    // For creating new users\n    function createUser(string memory name) public {\n        // Prerequisite checks\n        require(bytes(name).length != 0, \"Name cannot be blank\");\n        require(\n            bytes(usersCreated[msg.sender].name).length == 0,\n            \"User already has an account\"\n        );\n\n        // Create User\n        user memory newUser = user(name, adminState.notAdmin, 0);\n\n        // Add to mapping\n        usersCreated[msg.sender] = newUser;\n    }\n\n    // For creating new admins\n    function createAdmin(string memory name) internal {\n        // Prerequisite checks\n        require(bytes(name).length != 0, \"Name cannot be blank\");\n        require(\n            bytes(usersCreated[msg.sender].name).length == 0,\n            \"User already has an account\"\n        );\n\n        // Create User\n        user memory newUser = user(name, adminState.isAdmin, 0);\n\n        // Add to mapping\n        usersCreated[msg.sender] = newUser;\n    }\n\n    // For deleting users\n    function deleteuser(address userID) public {\n        require(\n            bytes(usersCreated[msg.sender].name).length != 0,\n            \"User doesn't exist\"\n        );\n        adminOnly(msg.sender);\n        delete usersCreated[userID];\n    }\n\n    // For issuing admin rights\n    function giveAdmin(address userID) public {\n        adminOnly(msg.sender);\n        usersCreated[userID].admin = adminState.isAdmin;\n    }\n\n    // For removing admin rights\n    function removeAdmin(address userID) public {\n        adminOnly(msg.sender);\n        usersCreated[userID].admin = adminState.notAdmin;\n    }\n\n    // For issuing tokens\n    function giveTokens(address userID, uint256 amt) public {\n        adminOnly(msg.sender);\n        usersCreated[userID].tokenCount += amt;\n    }\n\n    // Deduct tokens after use\n    function deductTokens(address userID, uint256 amt) public {\n        adminOnly(msg.sender);\n        usersCreated[userID].tokenCount -= amt;\n    }\n\n    // Getter Functions\n    function getTokenBalance(address userID) public view returns (uint256) {\n        return usersCreated[userID].tokenCount;\n    }\n\n    function checkAdmin(address userID) public view returns (adminState) {\n        return usersCreated[userID].admin;\n    }\n}\n",
  "sourcePath": "C:\\Users\\Anthony Cheang\\Desktop\\University Stuff\\Academics\\Y3S1\\IS4302\\Submissions\\Grp Proj\\is4302_grp19\\contracts\\User.sol",
  "compiler": {
    "name": "solc",
    "version": "0.5.17+commit.d19bba13.Emscripten.clang"
  },
  "schemaVersion": "3.4.11",
  "updatedAt": "2023-03-27T12:14:18.586Z",
  "devdoc": {
    "methods": {}
  },
  "userdoc": {
    "methods": {}
  }
}